:020000040800F2
:10000000000002201D2F00087D2F00087D2F000812
:100010007D2F00087D2F00087D2F000800000000C4
:10002000000000000000000000000000A94C0008D3
:100030007D2F000800000000254E0008754E0008C6
:100040007D2F00087D2F00087D2F00087D2F0008E0
:100050007D2F00087D2F00087D2F00087D2F0008D0
:100060007D2F00087D2F0008851500087D2F0008D2
:100070007D2F00087D2F00087D2F00087D2F0008B0
:100080007D2F00087D2F00087D2F00087D2F0008A0
:100090007D2F00087D2F00087D2F00087D2F000890
:1000A0007D2F00087D2F00087D2F00087D2F000880
:1000B000BD2E0008812E00087D2F00087D2F00082E
:1000C0007D2F00087D2F00087D2F00087D2F000860
:1000D0007D2F00087D2F00087D2F00087D2F000850
:1000E0007D2F00087D2F00087D2F00087D2F000840
:1000F0007D2F00087D2F00087D2F00087D2F000830
:100100007D2F00087D2F00087D2F00087D2F00081F
:100110007D2F00087D2F00087D2F00087D2F00080F
:100120007D2F00087D2F000835060008D106000845
:100130007D2F00087D2F00087D2F00087D2F0008EF
:100140007D2F00087D2F00087D2F00087D2F0008DF
:100150007D2F00087D2F00087D2F0008B9170008AB
:100160007D2F00087D2F00087D2F00087D2F0008BF
:100170007D2F00087D2F00087D2F00087D2F0008AF
:080180007D2F00087D2F00080F
:1001880010B5054C237833B9044B13B10448AFF3C9
:1001980000800123237010BD6004002000000000CF
:1001A800E88F000808B5064B1BB106480649AFF3AF
:1001B80000800648036813B1054B03B1984708BD92
:1001C80000000000E88F000864040020600400209C
:1001D80000000000844641EA000313F003036DD1D8
:1001E800403A41D351F8043B40F8043B51F8043BF2
:1001F80040F8043B51F8043B40F8043B51F8043BF9
:1002080040F8043B51F8043B40F8043B51F8043BE8
:1002180040F8043B51F8043B40F8043B51F8043BD8
:1002280040F8043B51F8043B40F8043B51F8043BC8
:1002380040F8043B51F8043B40F8043B51F8043BB8
:1002480040F8043B51F8043B40F8043B51F8043BA8
:1002580040F8043B51F8043B40F8043B51F8043B98
:1002680040F8043B403ABDD2303211D351F8043B38
:1002780040F8043B51F8043B40F8043B51F8043B78
:1002880040F8043B51F8043B40F8043B103AEDD2E7
:100298000C3205D351F8043B40F8043B043AF9D238
:1002A800043208D0D2071CBF11F8013B00F8013B0B
:1002B80001D30B8803806046704700BF082A13D318
:1002C8008B078DD010F003038AD0C3F10403D21A30
:1002D800DB071CBF11F8013B00F8013B80D331F864
:1002E800023B20F8023B7BE7043AD9D3013A11F8E4
:1002F800013B00F8013BF9D20B7803704B7843704F
:100308008B7883706046704780B59AB000AF012043
:10031800012106F0E7FF0120012106F0E3FF01209B
:10032800012106F0DFFF80233B66022387F8643053
:10033800002387F86630032387F86530022387F89F
:10034800673007F16003B148194606F0E3FC202343
:100358003B66022387F86430002387F8663003235E
:1003680087F86530022387F8673007F16003A748EC
:10037800194606F0CFFC40233B66022387F8643019
:10038800012387F86630032387F86530002387F850
:10039800673007F160039D48194606F0BBFC9B488F
:1003A8000621052206F0CCFD98480721052206F013
:1003B800C7FD96480521052206F0C2FD042001214B
:1003C80006F090FF0420012106F08CFF10233B6605
:1003D800012387F86430002387F86630032387F801
:1003E8006530012387F8673007F1600387481946AD
:1003F80006F090FC854B854A128B92B242F01002AF
:1004080092B21A8320233B66012387F864300023C5
:1004180087F86630032387F86530012387F867304B
:1004280007F160037A48194606F074FC784B784A5D
:10043800128B92B242F0200292B21A834FF480508B
:10044800012106F087FF0023A7F84C304FF4827390
:10045800A7F84E300023A7F850300023A7F85230F1
:100468000023A7F854304FF44073A7F856300823F8
:10047800A7F858300023A7F85A3007F14C0365480D
:10048800194606F09FFF6348012107F08DF84FF4E5
:100498008000012106F026FF5F4805F053FB5F4806
:1004A80005F050FB00BF5C4805F05CFF0346002BDD
:1004B800F9D100BF594805F055FF0346002BF9D183
:1004C80007F11003184605F017FE00233B634FF4AD
:1004D8008063BB6200237B63514B7B610023BB6459
:1004E8000023FB6200237B624FF40033BB634FF0B1
:1004F800C0633B614023FB614A4BBB614FF4FA6325
:100508003B6207F110034448194605F031FC4FF0EF
:10051800C0633B610023FB61434BBB614FF4FA634B
:100528003B6207F110033D48194605F021FC3A48A3
:100538001021012205F094FF38481021012205F00E
:100548008FFF3448022107F02DF93248012107F0C6
:1005580029F93B233B7306237B730123BB730123D8
:10056800FB7307F10C03184605F072FA3A233B7344
:1005780006237B730123BB730123FB7307F10C0371
:10058800184605F065FA23480221012207F04EF8C3
:1005980020480121012207F049F810233B66002377
:1005A80087F86430002387F86630002387F86730BF
:1005B800032387F8653007F160031548194606F0EC
:1005C800A9FB4FF48040012106F0C4FE022004215B
:1005D80007F022F910237B6000233B720C237B7207
:1005E8000123BB723B1D184606F058FA0A233B70DC
:1005F8000A237B700323BB700123FB703B4618461C
:1006080005F026FA6837BD4680BD00BF00000240ED
:100618000008024000300140586402404064024033
:100628000C300140D83901200032012080B500AFDC
:100638001D481E4905F0CAFF0346002B2AD01A4858
:100648001A4906F07FF900BF1948802107F04CF8D5
:100658000346012BF8D0174B164A128B92B242F080
:10066800100292B21A831448002105F07BFD0E484F
:10067800002105F077FD04F0A1FB104B00221A6061
:100688000F4B1B68184600210C4A002303F0A8FFF3
:1006980004F0A4FB094B1B68002B03D0094B4FF057
:1006A80080521A6080BD00BF406402400080201064
:1006B8000030014000000240586402407C040020E1
:1006C800EC31012004ED00E080B500AF1D481E4963
:1006D80005F07CFF0346002B2AD01A481A4906F079
:1006E80031F900BF1948802106F0FEFF0346012BAF
:1006F800F8D0174B164A128B92B242F0100292B2FF
:100708001A831048002105F02DFD1248002105F03C
:1007180029FD04F053FB104B00221A600F4B1B6895
:10072800184600210C4A002303F05AFF04F056FB38
:10073800094B1B68002B03D0094B4FF080521A60FD
:1007480080BD00BF5864024000800018003001409E
:1007580000000240406402407C040020EC3101208B
:1007680004ED00E02DE9F04387B000AF0B463A6096
:100778000246FA80BB806B461E46BB88191D4B1E7D
:100788003B610B461A464FF000034FEAC30949EA9A
:1007980052794FEAC2080B461A464FF00003DD00B3
:1007A80045EA5275D4000B460733DB08DB00ADEB96
:1007B800030D6B460033FB60FB881B0A9BB2DAB261
:1007C800FB681A70FB88DAB2FB685A70BB8803F4BE
:1007D800FE431B12DBB263F07F03DBB2DAB2FB68C5
:1007E8009A70BB88DAB2FB68DA7004237B610BE08D
:1007F8007B69043B3A6813441A78F9687B690B44AF
:100808001A707B6901337B61BB881A1D7B699A4228
:10081800EEDCBB8804339BB21248194605F02EFD66
:10082800104BFA68DA60104B0F4A528B92B242F0C2
:10083800100292B25A830B48012105F093FC0B4831
:10084800012105F08FFC0A4B1B68184600214FF068
:10085800FF32002303F02EFFB5461C37BD46BDE826
:10086800F08300BF58640240000002404064024028
:10087800EC31012080B584B000AF02460B46FA8007
:10088800BB800223FB81FB881B0A9BB2DBB23B7255
:10089800FB88DBB27B72FB8903F4FE431B12DBB2DD
:1008A80063F07F03DBB2DBB2BB72FB89DBB2FB72A6
:1008B800BB881B0A9BB2DBB23B73BB88DBB27B7382
:1008C8001148062105F0DAFC0F4B07F10802DA603F
:1008D8000E4B0E4A528B92B242F0100292B25A83D9
:1008E8000948012105F03EFC0948012105F03AFCC0
:1008F800084B1B68184600214FF0FF32002303F015
:10090800D9FE1037BD4680BD586402400000024041
:1009180040640240EC31012080B584B000AF02464B
:100928000B46FA807B710123FB81FB881B0A9BB273
:10093800DBB23B72FB88DBB27B72FB8903F4FE43BC
:100948001B12DBB263F07F03DBB2DBB2BB72FB8945
:10095800DBB2FB727B793B731148052105F08EFCF5
:100968000F4B07F10802DA600E4B0E4A528B92B217
:1009780042F0100292B25A830948012105F0F2FBB5
:100988000948012105F0EEFB084B1B6818460021B9
:100998004FF0FF32002303F08DFE1037BD4680BDB7
:1009A800586402400000024040640240EC310120DB
:1009B8002DE9F04186B000AFF880B98069468846D5
:1009C800B9880E1D711E3961314608464FF0000185
:1009D800CD0045EA5075C400314608464FF0000185
:1009E800CB0043EA5073C20033460733DB08DB0011
:1009F800ADEB030D6B460033FB60FB881B0A9BB213
:100A0800DAB2FB681A70FB88DAB2FB685A70BB88E6
:100A180003F4FE431B12DAB2FB689A70BB88DAB2A1
:100A2800FB68DA7004237B6107E0FA687B6913448A
:100A380000221A707B6901337B61BB881A1D7B69B0
:100A48009A42F2DCBB8804339BB21748194605F07A
:100A580015FCBB8804339BB21448194605F00EFCFC
:100A6800124BFA68DA60104B114ADA60114B114ADE
:100A7800528B92B242F0100292B25A830B48012173
:100A880005F070FB0848012105F06CFB0A4B1B6858
:100A9800184600214FF0FF32002303F00BFEC54635
:100AA8001837BD46BDE8F0814064024058640240F2
:100AB8000032012000000240EC31012080B58AB0EC
:100AC80000AF5C4A07F118031068186092889A8092
:100AD800594A07F1140310681860584A07F11003BF
:100AE80010681860564A07F10C0310681860012056
:100AF8000021032203F082FC0246524B1A6002F0E6
:100B0800F7FD0346BB60504B4F4A528B92B242F0FE
:100B1800200292B25A834C4B4B4A128B92B242F04B
:100B2800200292B21A834FF4FA7002F025FC0123D6
:100B38003B6200208021FFF7EFFE8023FB7100BF9E
:100B480000200021FFF7E8FE1620FF21FFF7E4FE52
:100B580036200021FFF7E0FE1720C821FFF7DCFE52
:100B680019200321FFF7D8FE00237B6200237B6254
:100B78002BE07B6A9BB21B029BB203F580431E33BA
:100B88009BB218460221FFF7C7FE7B6A9BB21B0285
:100B98009BB203F580431F339BB218460221FFF72F
:100BA800BBFE7B6A9BB21B029BB203F580432C33CE
:100BB8009BB21846FF21FFF7AFFE244A7B6A134415
:100BC80000221A707B6A01337B627B6A072BD0DDB7
:100BD80007F1080318464FF4FA7102F075FB07F1A4
:100BE800140107F1100207F10C03084611461A46D2
:100BF80000F03CF807F11803184600F02BF807F14D
:100C0800080318464FF4FA7102F05EFB01205021E8
:100C1800002200F017FA03461A460D4B1A600C4BD7
:100C28001B68184600F0FEFB002002F007FB28377F
:100C3800BD4680BD8C85000894850008988500080D
:100C48009C850008EC310120000802408004002047
:100C5800F431012080B582B000AF78600920062108
:100C68007A68FFF77FFD0837BD4680BD80B584B040
:100C780000AFF860B9607A600F200421FA68FFF7C6
:100C880071FD05200421BA68FFF76CFD01200421DD
:100C98007A68FFF767FD1037BD4680BD80B584B020
:100CA80000AF0346FB71FB799BB21B029BB203F5B5
:100CB800804301339BB218460121FFF779FE044BAC
:100CC8001B78FB73FB7B18461037BD4680BD00BF01
:100CD8000432012080B584B000AF0346FB71FB7974
:100CE8009BB21B029BB203F5804303339BB21846A9
:100CF8000121FFF75DFE044B1B78FB73FB7B184655
:100D08001037BD4680BD00BF0432012080B584B0D5
:100D180000AF0346FB71FB799BB21B029BB203F544
:100D2800804320339BB218460221FFF741FE084A50
:100D380007F10C0312881A803B7B1B029AB27B7B5B
:100D480013439BB29BB218461037BD4680BD00BF07
:100D58000432012080B584B000AF0346FB71FB79F3
:100D68009BB21B029BB203F5804324339BB2184607
:100D78000221FFF71DFE084A07F10C0312881A80AA
:100D88003B7B1B029AB27B7B13439BB29BB21846F8
:100D98001037BD4680BD00BF0432012080B584B045
:100DA80000AF0346FB71FB799BB21B029BB203F5B4
:100DB800804322339BB218460221FFF7F9FD084A07
:100DC80007F10C0312881A803B7B1B029AB27B7BCB
:100DD80013439BB29BB218461037BD4680BD00BF77
:100DE8000432012080B582B000AF02460B46FA718A
:100DF800BB80FB799BB21B029BB203F58043243373
:100E08009AB2BB8810461946FFF734FD0837BD462D
:100E180080BD00BF80B584B000AF0346FB71FB798D
:100E28009BB21B029BB203F5804326339BB2184644
:100E38000221FFF7BDFD084A07F10C0312881A804A
:100E48003B7B1B029AB27B7B13439BB29BB2184637
:100E58001037BD4680BD00BF0432012080B584B084
:100E680000AF0346FB71FB799BB21B029BB203F5F3
:100E7800804328339BB218460221FFF799FD084AA0
:100E880007F10C0312881A803B7B1B029AB27B7B0A
:100E980013439BB29BB218461037BD4680BD00BFB6
:100EA8000432012080B582B000AF02460B46FA71C9
:100EB800BB80FB799BB21B029BB203F580432833AE
:100EC8009AB2BB8810461946FFF7D4FC0837BD46CE
:100ED80080BD00BF80B586B000AFBA600246FA7325
:100EE8000A46BA81FB80BB89C3F30A03FB82FB7BFA
:100EF8009BB2DB009BB21B029AB2FB8A13449BB2E3
:100F0800A3F50043BB82FA8AFB881A44FB7B1B02C9
:100F180003F5804320339A422ADDFB7B9BB2DB003A
:100F28009BB21B029AB2FB8AD31A9BB2A3F5004369
:100F38007B82BA8A7B8A10461946BA68FFF712FC88
:100F48007B8ABA681344BB60FA887B8AD31A3B82CF
:100F5800FB7B9BB2DB009BB21B029BB2A3F5004359
:100F68009AB23B8A10461946BA68FFF7FBFB06E0BF
:100F7800BA8AFB8810461946BA68FFF7F3FB183798
:100F8800BD4680BD80B586B000AFBA600246FA7330
:100F98000A46BA81FB80BB89C3F30A03FB82FB7B49
:100FA8009BB2DB009BB21B029AB2FB8A13449BB232
:100FB800A3F58043BB82FA8AFB881344B3F5006F1C
:100FC8002FDDFB8AC3F500637B82BA8A7B8A1046D1
:100FD8001946FFF7EDFC7B8AB86819491A46FFF7EE
:100FE800F9F87B8ABA681344BB60FA887B8AD31AFB
:100FF8003B82FB7B9BB2DB009BB21B029BB2A3F53F
:1010080080439AB23B8A10461946FFF7D1FC7B8A87
:10101800BA681A443B8A104609491A46FFF7DAF8B3
:101028000BE0BA8AFB8810461946FFF7C1FCFB881B
:10103800B86803491A46FFF7CDF81837BD4680BD92
:101048000432012080B584B000AF13460246FA711D
:101058000A46BA80BB710023FB730CE0FB7B4C4A49
:10106800D35C002B04D1FB7B494A0121D15405E014
:10107800FB7B0133FB73FB7B072BEFD9FB7B072B38
:1010880001D9FF237FE0FB7903F00F03082B01DD73
:10109800FF2378E0FB7903F00F03022B05D0FB79DF
:1010A8005BB2002B01DAFF236DE0FB7903F00F033D
:1010B800012B06D0FB7903F02003002B01D0FF237E
:1010C80061E0FB7B9BB21B029BB203F580439AB2A3
:1010D800FB7910461946FFF71FFCFB7903F00F0355
:1010E800FB71FB79012B29DB022B02DD032B18D0C6
:1010F80024E0BB881B0A9BB2DBB23B73BB88DBB224
:101108007B73FB7B9BB21B029BB203F580430433CA
:101118009AB207F10C03104602211A46FFF722FB88
:101128000CE0FB7B9BB21B029BB203F5804314339C
:101138009AB2BB7910461946FFF7EEFBFB7B9BB2D0
:101148001B029BB203F5804301339BB21846012171
:10115800FFF7E2FB00BFFB7B1846FFF79FFD034646
:10116800002BF8D1FB7B1846FFF7B4FD0346132B81
:101178000CBF00230123DBB2BB73BB7B002B01D068
:10118800FF2300E0FB7B18461037BD4680BD00BF3B
:10119800800400202DE9F0438BB000AFB960014610
:1011A800F973BA81FB8000233B6202E03B6A01339A
:1011B8003B623B6ABA6813441B78002B03D0BA8998
:1011C8003B6A9A42F2DC3B6ABB81FB7B1846FFF71D
:1011D80081FD0346FB83FB7B072B04D8FB7B564A28
:1011E800D35C012B02D04FF0FF33A0E0BB68002B8B
:1011F80002D0BB89002B02D14FF0FF3397E0FB7B75
:101208001846FFF767FD0346172B01D000238EE031
:1012180004E0FB88012B01D1002388E0FB7B184602
:10122800FFF774FD0346FB84FB8C002BF1D0FB7B9E
:101238001846FFF78FFD0346BB83FA8CBB899A4299
:1012480001D9BB89FB84F97BBA8BFB8C0846114614
:10125800BA68FFF73FFEBA8BFB8C1344BB83FA7B5B
:10126800BB8B10461946FFF7BDFDFB7B1846FFF701
:1012780095FD03467B83FB7B1846FFF76BFD034612
:101288003B83BA8B7B8BD11A6B461E464B1E7B6108
:101298000B461A464FF000034FEAC30949EA527950
:1012A8004FEAC2080B461A464FF00003DD0045EA34
:1012B8005275D4000B460733DB08DB00ADEB030D9A
:1012C8006B4600333B617B8BA3F500439AB2B98B25
:1012D8007B8BCB1A9BB210461946FFF769FB3A691C
:1012E800B98B7B8BCB1A104614491A46FEF772FF4E
:1012F800FB7B9BB21B029BB203F5804301339BB27D
:1013080018462021FFF708FB00BFFB7B1846FFF7B4
:10131800C5FC0346002BF8D100BFFB7B1846FFF73E
:101328003DFD0346BA8B9A42F7D1FB8CB546184669
:101338002C37BD46BDE8F08380040020043201202C
:1013480080B586B000AFB9600146F973BA81FB80F9
:10135800FB7B072B04D8FB7B314AD35C012B02D0E3
:101368004FF0FF3357E0BB68002B02D0BB89002B3E
:1013780002D14FF0FF334EE0FB7B1846FFF7AAFC83
:101388000346172B01D0002345E004E0FB88012B1E
:1013980001D100233FE0FB7B1846FFF73BFD0346E6
:1013A800FB82FB8A002BF1D0FB7B1846FFF756FD2A
:1013B8000346BB82BA89FB8A9A4238BF13469BB25E
:1013C800F97BBA8A08461146BA68FFF7DBFDBA8A84
:1013D800FB8A1344BB82FA7BBB8A10461946FFF787
:1013E80061FDFB7B9BB21B029BB203F5804301337B
:1013F8009BB218464021FFF78FFA00BFFB7B1846C7
:10140800FFF74CFC0346002BF8D1BA89FB8A9A42B5
:1014180038BF13469BB218461837BD4680BD00BF7B
:101428008004002080B584B000AF78607B68002B12
:1014380008DB7B68072B05DC224A7B6813441B7892
:10144800012B02D04FF0FF3338E07B68DBB218463F
:10145800FFF740FC0346132B02D04FF0FF332DE07B
:101468007B689BB21B029BB203F5804302339BB29D
:1014780018460121FFF79CFA134B1B78FB737B6816
:101488009BB21B029BB203F5804301339BB2184603
:101498000221FFF741FA00BF7B68DBB21846FFF76D
:1014A800FDFB0346002BF7D100BF7B68DBB2184673
:1014B800FFF710FC0346142BF7D10023184610370A
:1014C800BD4680BD800400200432012080B582B072
:1014D80000AF36200121FFF76BFA264B1B78FB7112
:1014E800FB791B029BB203F5804302339BB218467B
:1014F8000121FFF75DFA1F4B1B78BB71FB791B02BB
:101508009BB203F5804302339BB21846FF21FFF7D5
:1015180003FABB79013B0F2B28D801A252F823F01C
:101528007515000875150008751500086915000877
:10153800751500087515000875150008751500085B
:10154800751500087515000875150008751500084B
:10155800751500087515000875150008751500083B
:10156800054B1B68184601F0A9FF00E000BF0837CB
:10157800BD4680BD04320120B841012080B500AFCE
:10158800102005F049FB0346002B04D0FFF79EFF0F
:10159800102005F027FB80BD80B5E0B000AF3B1DF3
:1015A8001860002001F010FF304B1B68DAB207F515
:1015B8009E731046194664220023FFF7C1FEC7F840
:1015C8007C01D7F87C31022B1FDC07F1080207F1F8
:1015D8003C03104619464FF4807203F055FF07F19B
:1015E8003C03184606F000FE0346C7F878311F4B47
:1015F8001B68D8B2D7F878319AB2D7F874319BB251
:1016080007F13C01FFF7C6FDCBE7D7F87C31023B79
:1016180007F5C0721344002203F8442C07F59E72A4
:1016280007F13C03104619464FF4807203F02CFF73
:1016380007F13C03184606F0D7FD0346C7F870319A
:101648000A4B1B68D8B2D7F870319AB2D7F8743100
:101658009BB207F13C01FFF79DFD07F1080207F572
:101668009E731046194606F061FD9AE7F431012091
:1016780080B588B000AF2020012105F06BFE042062
:10168800012105F02FFE0420012105F02BFE40204A
:10169800012105F027FEC023BB6102233B7703230A
:1016A8007B770023BB770123FB7707F118032948D1
:1016B800194605F02FFB4FF48073BB6101233B777C
:1016C8000023BB7703237B770123FB7707F11803FC
:1016D8002148194605F01EFB1F4B1F4A128B92B278
:1016E80042F4807292B21A831A480621082205F041
:1016F80027FC18480721082205F022FC4FF416435E
:10170800BB600023BB810023FB8100233B820023B5
:10171800BB820C237B8207F108031048194606F0A8
:101728000DF90E4840F22551012206F0C1FA47236F
:101738003B7107237B710623BB710123FB713B1DA2
:10174800184604F085F90548012106F05DFA2037AE
:10175800BD4680BD00080240001802400014014048
:1017680080B485B000AF786039600023FB6010E07A
:1017780000BF0E4B1B889BB203F04003002BF8D030
:101788000A4BFA6879680A4412789A80FB68013330
:10179800FB60FA683B689A4203DA7B681B78002B87
:1017A800E6D11437BD465DF8047B7047001401404C
:1017B80080B582B000AF224840F2255106F036FBD2
:1017C8000346002B30D01E4B9B889BB2DBB2FB71CB
:1017D8001C4B00221A601C4B1B781A461B4B1B68BB
:1017E8009A420CDA184B1B78FA79D1B2184AD154BC
:1017F800154B1B780133DAB2134B1A7014E0124BF5
:101808001B78FA79D1B2124AD1540F4B00221A70C0
:1018180003F0D4FA0F4B1B6818460021094A00232D
:1018280002F0DEFE03F0DAFA064B1B68002B03D049
:10183800094B4FF080521A600837BD4680BD00BF83
:1018480000140140880400208C040020D4410120A9
:10185800D8410120A841012004ED00E080B485B002
:1018680000AF78600B467B80FF23FB73FF23BB73BD
:1018780013E07B685A1C7A601A78FB7B5340DBB212
:10188800BB600F4ABB6813441A78BB7B5340FB7399
:101898000C4ABB6813441B78BB737B885A1E7A803A
:1018A800002BE6D1FB7B1B029AB2BB7B9BB2134396
:1018B8009BB29BB218461437BD465DF8047B70474F
:1018C800988C0008988D000880B586B000AFF86045
:1018D800B960FA80BB80BB88023B9BB2B8681946E6
:1018E800FFF7BCFF0346FB82BB88013BBA68134481
:1018F8001B781A46FB8ADBB29A420CD1BB88023BA2
:10190800BA6813441B781A46FB8A1B0A9BB29A4290
:1019180001D1012300E0002318461837BD4680BDD9
:1019280080B586B000AFF860B9607A603B603A680D
:101938007B6813445A1E254B1A60254B244A128B88
:1019480092B242F4807292B21A8300237B6102E061
:101958007B6901337B617B69B3F57A6FF8DBF868E3
:101968007968FFF7FDFE00237B6102E07B690133A4
:101978007B617A6941F203039A42F7DD144B144AFA
:10198800528B92B242F4807292B25A83114B1B6806
:10199800184600214FF0FF32002302F08BFE00238F
:1019A8007B610CE07B69BA68134479697A680A44F8
:1019B80009498A5CD2B21A707B6901337B617A6902
:1019C8003B689A42EEDB1837BD4680BDD441012002
:1019D80000180240A8410120D841012080B5ADF58A
:1019E800866D00AF07F1080319603B1D1A6007F107
:1019F8000E0302461A800023C7F828340023C7F8CC
:101A0800243407F5057336221A7007F505730F227B
:101A18005A7007F10E031B881B0A9BB2DAB207F54E
:101A280005739A7007F10E031B88DAB207F5057380
:101A3800DA7007F108031B681B12DAB207F50573A1
:101A48001A7107F108031B68DAB207F505735A71B2
:101A58000623C7F82C3407F108031B68002B00DAAB
:101A68000733DB101A4607F108031B6803F0070366
:101A7800002B0CBF00230123DBB21344C7F8183432
:101A8800D7F82C345A1CC7F82C24D7F81824D1B20C
:101A980007F50572D1540023C7F820345CE0012310
:101AA800C7F81C3407F50572D7F82C341344002204
:101AB8001A7038E0D7F824345A1CC7F824243A1D81
:101AC800126813441B78002B13D007F50572D7F85A
:101AD8002C3413441B78DAB2D7F81C34DBB2134326
:101AE800DBB2DAB207F50571D7F82C340B441A705B
:101AF80014E007F50572D7F82C3413441B78DAB2D2
:101B0800D7F81C34DBB2DB43DBB21340DBB2DAB20A
:101B180007F50571D7F82C340B441A70D7F81C3424
:101B28005B00C7F81C34D7F81C34DBB2002B09D093
:101B3800D7F828345A1CC7F8282407F10802126875
:101B48009342B7DBD7F82C340133C7F82C34D7F8D5
:101B580020340133C7F82034D7F82024D7F81834B4
:101B68009A429CDBD7F82C349BB207F505721046D5
:101B78001946FFF773FE0346A7F81634D7F82C3436
:101B88005A1CC7F82C24B7F81624120A92B2D1B2FC
:101B980007F50572D154D7F82C345A1CC7F82C24F1
:101BA800B7F81624D1B207F50572D15407F50572B6
:101BB80007F1140310461946D7F82C240823FFF719
:101BC800AFFED7F82C349BB207F5057107F1140264
:101BD800084611461A460823FFF776FE0346DBB28D
:101BE800184607F58667BD4680BD00BF80B5ADF5D0
:101BF800846D00AF07F10C03186007F10803196042
:101C08003B1D1A6007F5047336221A7007F5047332
:101C180010225A7007F10C031B681B12DAB207F581
:101C280004739A7007F10C031B68DAB207F50473A2
:101C3800DA7007F108031B681B12DAB207F50473A0
:101C48001A7107F108031B68DAB207F504735A71B1
:101C58000623C7F8183407F108031B685B00C7F8A8
:101C68001434D7F818345A1CC7F81824D7F8142491
:101C7800D1B207F50472D1540023C7F81C3426E00A
:101C8800D7F818345A1CC7F81824D7F81C2452005F
:101C9800391D09680A441288120A92B2D1B207F5AE
:101CA8000472D154D7F818345A1CC7F81824D7F836
:101CB8001C245200391D09680A441288D1B207F55C
:101CC8000472D154D7F81C340133C7F81C3407F117
:101CD8000803D7F81C241B689A42D1DBD7F81834BC
:101CE8009BB207F5047210461946FFF7B7FD034685
:101CF800A7F81234D7F818345A1CC7F81824B7F8BC
:101D08001224120A92B2D1B207F50472D154D7F84C
:101D180018345A1CC7F81824B7F81224D1B207F59A
:101D28000472D15407F5047207F1100310461946DE
:101D3800D7F818240823FFF7F3FDD7F818349BB217
:101D480007F5047107F11002084611461A460823E0
:101D5800FFF7BAFD0346DBB2184607F58467BD46B0
:101D680080BD00BF80B5ADF5856D00AF07F10C03F0
:101D7800186007F1080319603B1D1A6007F5057321
:101D880036221A7007F5057304225A7007F10C03FE
:101D98001B681B12DAB207F505739A7007F10C037A
:101DA8001B68DAB207F50573DA7007F108031B68D8
:101DB8001B12DAB207F505731A7107F108031B68DD
:101DC800DAB207F505735A710623C7F8203407F10C
:101DD80008031B685B00C7F81C34D7F820345A1C6A
:101DE800C7F82024D7F81C24D1B207F50572D154BE
:101DF800D7F820349BB207F5057210461946FFF74D
:101E08002DFD0346A7F81A34D7F820345A1CC7F812
:101E18002024B7F81A24120A92B2D1B207F5057233
:101E2800D154D7F820345A1CC7F82024B7F81A24FC
:101E3800D1B207F50572D15407F108031B685B009E
:101E4800053307F5057107F1140208461146D7F85E
:101E58002024FFF765FD0223C7F814340023C7F8D0
:101E6800243424E0D7F824345B003A1D1268134464
:101E7800D7F81424511CD7F8242452000A4407F137
:101E880014018A5C120291B2D7F81424901CD7F876
:101E980024245200024407F11400825C0A4392B2DF
:101EA80092B21A80D7F824340133C7F8243407F1E2
:101EB8000803D7F824241B689A42D3DBD7F82034C8
:101EC8009AB207F108031B689BB25B009BB205330B
:101ED8009BB207F5057007F11401FFF7F5FC0346FF
:101EE800DBB2184607F58567BD4680BD80B588B06A
:101EF80000AF786007F10C0300200A211A46FFF7AB
:101F080031FF4FF47A7001F037FAF3E780B596B0F5
:101F180000AF7860012387F84C30012387F84D30F3
:101F2800012387F84E30012387F84F300120002124
:101F3800032202F063FA0246794B1A604FF0FF332E
:101F48007B654FF47A73BB850023FB8540F6CA0393
:101F58003B860A237B860A23BB860523BB620023B4
:101F680087F8243000233B656E4B1A6807F1240379
:101F7800104619467A6D002302F09CFB0346012B9C
:101F880040F0CD8097F82430052B00F2BB8001A2E9
:101F980052F823F0B51F0008292000080D21000879
:101FA8000D21000865200008BB200008012387F8E0
:101FB8004C30012387F84D30012387F84E30012338
:101FC80087F84F3007F14C03002003211A46FFF72A
:101FD80005FD0346002B01D107233B724FF47A70AD
:101FE80001F0CAF907F124030833002005211A4635
:101FF800FFF7FCFD0346002B01D107233B724FF48A
:102008007A7001F0B9F906233B72464B1A6807F15A
:102018000803104619467A6D002302F031FA7EE073
:1020280007F10803083300200A211A46FFF79AFE31
:102038000346002B01D107233B724FF47A7001F05D
:102048009BF906233B72374B1A6807F108031046C1
:1020580019467A6D002302F013FA60E001233B650C
:10206800012387F84C30012387F84D30012387F886
:102078004E30012387F84F3007F14C03002003212D
:102088001A46FFF7ABFC0346002B01D107233B722E
:102098004FF47A7001F070F906233B72214B1A68ED
:1020A80007F10803104619467A6D002302F0E8F993
:1020B80035E0002387F84C30002387F84D300023A3
:1020C80087F84E30002387F84F3007F14C03002083
:1020D80003211A46FFF782FC0346002B01D1072390
:1020E8003B724FF47A7001F047F906233B720D4BAF
:1020F8001A6807F10803104619467A6D002302F0A2
:10210800BFF90CE007233B72064B1A6807F1080376
:10211800104619467A6D002302F0B2F900BF23E792
:10212800A8410120F8310120B0B588B000AFF860AF
:10213800B9607A603B6078689A49052206F084F8AD
:102148000346002B40F0A280BB6B7A6B134400223D
:102158001A70786B05F040FF0346FB83FB8B002B5E
:1021680002D0FB8B642B07D9FB8BF8688E491A4683
:1021780000F0C2FD002310E1FB8B1A4692001344C5
:102188001A4691001A460B4613449B00FB83874B63
:1021980000225A81854B40F6CA029A81834B0A2253
:1021A800DA81824B0A221A82804B05225A607F4BC1
:1021B80000221A707D4B00221A707C4B05225A604F
:1021C8007A4BFA8B1A817A4B1A687A4B1B6810463D
:1021D80076491A46002302F053F90346012B42D1EF
:1021E800734B1A68734B1B68104673491A460023D1
:1021F80002F060FA0346012B24D16F4B1B78062BA3
:1022080011D1FA686D4B15461C460FCC28606960E1
:10221800AA60EB6003CC2861696123882B831923AA
:10222800BB610123B9E0FA68654B15461C460FCC23
:1022380028606960AA60EB60206828611323BB618D
:102248000023AAE0FA685F4B15461C460FCC2860AD
:102258006960AA60EB6007CC28616961AA611B23E9
:10226800BB61002399E0FA68574B14461D460FCD11
:1022780020606160A260E36028682061AA88AB7969
:10228800A282A3751623BB61002386E078684F49B4
:10229800062205F0D9FF0346002B74D1BB6B7A6B7D
:1022A800134400221A70786B05F096FE0346FB82F1
:1022B800FB8A0E2B03D9FB8AB3F5967F09D96423D1
:1022C800BB61FB8AF86842491A4600F015FD0023F5
:1022D80063E0364BFA8ADA81344B05225A60334B75
:1022E80000221A70324B1A68324B1B6810462F496D
:1022F8001A46002302F0C4F80346012B30D12C4BB8
:102308001A682C4B1B6810462B491A46002302F00A
:10231800D1F90346002B36D0274B1B78062B10D15A
:10232800FA682C4B15461C460FCC28606960AA60D9
:10233800EB6007CC28616961AA611B23BB6101239B
:102348002BE0FA681E4B15461C460FCC28606960C6
:10235800AA60EB60206828611323BB6100231CE09E
:10236800FA68194B14461D460FCD20606160A260C3
:10237800E36028682061AA88AB79A282A375162336
:10238800BB61002309E078681349082205F05CFF67
:102398000346002B01D10023FFE718462037BD462E
:1023A800B0BD00BF148600081C860008F843012051
:1023B800F831012000000020DC4301204C86000891
:1023C800688600087C86000898860008B0860008A1
:1023D800B8860008E886000804870008B0B586B00B
:1023E80000AFF860B9607A603B6078686B49052295
:1023F80005F02AFF0346002B6CD1694B01221A70A5
:10240800684B1A68684B1B68104665491A460023D2
:1024180002F036F80346012B49D1624B1A68624B29
:102428001B68104661491A46002302F043F9034627
:10243800012B2BD15D4B1B78062B18D15B4BDA890E
:102448005B4BA3FB02035B099BB21A46574BDB8924
:102458005749A1FB03014909642000FB01F15B1AFC
:102468009BB2F868534900F047FC012392E0FA68F0
:10247800514B15461C460FCC28606960AA60EB607A
:102488002068286113237B61002383E0FA684B4BA3
:1024980015461C460FCC28606960AA60EB6007CC23
:1024A80028616961AA611B237B61002372E0FA68D5
:1024B800434B14461D460FCD20606160A260E36067
:1024C80028682061AA88AB79A282A37516237B614C
:1024D80000235FE078683B49062205F0B5FE034615
:1024E800002B4DD12E4B01221A702E4B1A682E4B01
:1024F8001B6810462A491A46002301F0C1FF03460B
:10250800012B2AD1274B1A68274B1B6810462749ED
:102518001A46002302F0CEF80346002B30D0234B96
:102528001B78062B0AD1214BDB89F86826491A4605
:1025380000F0E2FB19237B6101232BE0FA681E4BB4
:1025480015461C460FCC28606960AA60EB602068BD
:10255800286113237B6100231CE0FA68184B14469A
:102568001D460FCD20606160A260E360286820618D
:10257800AA88AB79A282A37516237B61002309E0A0
:1025880078681249082205F05FFE0346002B01D146
:102598000023FFE718461837BD46B0BD148600086B
:1025A800F8430120F831012000000020DC4301201D
:1025B8001F85EB5110870008688600087C86000894
:1025C80098860008B0860008288700080487000855
:1025D800B0B58EB004AFF860B9607A6007F118033F
:1025E800786801211A4602F0D5FF78627B6A002BD1
:1025F8000ED1FA689F4B15461C460FCC28606960BF
:10260800AA60EB602068286123792B7500238EE18E
:10261800786A9949042205F017FE0346002B0BD16E
:10262800FA68964B11461A46BC23084611461A46C4
:10263800FDF7D0FD01237AE1786A9149032205F07C
:1026480003FE0346002B33D107F1140378680221F7
:102658001A4602F09FFF386207F1100378680321D9
:102668001A4602F097FFF861FB69002B02D03B6A1B
:10267800002B06D1834BF868194605F057FD002357
:1026880055E17B69804A10683969804A1268009070
:10269800F869019002910392F868B9683A6AFFF7FD
:1026A80043FD0346002B01D0012340E100233EE116
:1026B800786A7749032205F0C7FD0346002B27D126
:1026C80007F11403786802211A4602F063FF3862A2
:1026D800FB69002B02D03B6A002B06D1694BF868D6
:1026E800194605F023FD002321E17B69664A11683C
:1026F800664A126800910192F868B9683A6AFFF769
:102708006DFE0346002B01D0012310E100230EE1EA
:10271800786A6049042205F097FD0346002B69D1C9
:102728005D4B05221A705C4B05225A60564B1A689D
:102738005A4B1B68104658491A46002301F0A0FE60
:102748000346002B43D0504B1A68544B1B68104665
:1027580053491A46002301F0ADFF0346012B25D14A
:102768004F4B1B78062B12D1FA684E4B15461C4668
:102778000FCC28606960AA60EB6007CC28616961AA
:10278800AA612388AB831D23BB600123CFE0FA68CD
:10279800454B15461C460FCC28606960AA60EB6063
:1027A800206828611323BB600023C0E0FA683F4B10
:1027B80015461C460FCC28606960AA60EB6007CC00
:1027C80028616961AA611B23BB600023AFE0FA6836
:1027D800374B14461D460FCD20606160A260E36050
:1027E80028682061AA88AB79A282A3751623BB60EA
:1027F80000239CE0786A2F49052205F025FD034651
:10280800002B40F08E80244B04221A70224B0522A4
:102818005A601D4B1A68214B1B6810461E491A4600
:10282800002301F02DFE0346012B67D1164B1A68D1
:102838001A4B1B6810461A491A46002301F03AFF42
:102848000346012B49D1164B1B78062B36D1FA6863
:10285800194B15461C460FCC28606960AA60EB60CE
:1028680007CC28616961AA612388AB831D23BB60FB
:1028780001235CE0448700085C870008648700083F
:1028880024880008A8850008F8310120F4310120C7
:10289800288800082C880008F84301200000002040
:1028A800DC43012034880008688600087C8600081C
:1028B80098860008548800085C880008FA681E4B4F
:1028C80015461C460FCC28606960AA60EB6020683A
:1028D80028611323BB60002329E0FA68174B1546CB
:1028E8001C460FCC28606960AA60EB6007CC2861A1
:1028F8006961AA611B23BB60002318E0FA68104BCA
:1029080014461D460FCD20606160A260E360286810
:102918002061AA88AB79A282A3751623BB60002325
:1029280005E0084BF868194605F000FC0023184636
:102938002837BD46B0BD00BF688600087C86000801
:1029480098860008A885000880B584B000AFF860B4
:10295800B9607A60F86801F083FC002318461037E4
:10296800BD4680BD80B483B000AF786039607B68B5
:10297800002B09D07B681B683A68D2B21A707B6852
:102988001B685A1C7B681A600C37BD465DF8047BCF
:10299800704700BF2DE9F04184B000AFF860B9601E
:1029A8007A603B60002420267B68002B19DD002517
:1029B800D7F8088002E0013508F1010898F80030DE
:1029C800002BF8D17B689D4202DB00237B6002E08C
:1029D8007B685B1B7B603B6803F00203002B00D025
:1029E80030263B6803F00103002B0BD107E0F868A1
:1029F8003146FFF7B7FF01347B68013B7B607B689A
:102A0800002BF4DC09E0BB681B78F8681946FFF76F
:102A1800A9FF0134BB680133BB60BB681B78002B7E
:102A2800F1D107E0F8683146FFF79CFF01347B6875
:102A3800013B7B607B68002BF4DC2346184610378B
:102A4800BD46BDE8F08100BF2DE9F04389B000AF75
:102A5800F860B9607A603B604FF000094FF00008F9
:102A6800BD68BB68002B0DD130233B7500237B75F7
:102A780007F11403F86819463A6C7B6CFFF78AFF74
:102A8800034649E03B68002B0AD07B680A2B07D134
:102A9800BB68002B04DA4FF00109BB685B421D4696
:102AA80007F114040B340023237013E07B68B5FB93
:102AB800F3F203FB02F3EB1A1E46092E02DDBB6C90
:102AC8003A3B1E44013CF3B23033DBB223707B68DF
:102AD800B5FBF3F5002DE9D1B9F1000F14D03B6C2B
:102AE800002B0ED07B6C03F00203002B09D0F86892
:102AF8002D21FFF737FF08F101083B6C013B3B64D0
:102B080002E0013C2D232370F86821463A6C7B6C67
:102B1800FFF740FF0346434418462437BD46BDE847
:102B2800F08300BF2DE9F0418AB004AFF860B960C6
:102B38007A600024CCE0BB681B78252B40F0BE806F
:102B4800BB680133BB6000263546BB681B78002B89
:102B580000D1C2E0BB681B78252B00D1AEE0BB6872
:102B68001B782D2B04D1BB680133BB60012605E01F
:102B780004E0BB680133BB6046F00206BB681B7803
:102B8800302BF6D00BE02B469B002B445B001D46F8
:102B9800BB681B78303B1D44BB680133BB60BB6816
:102BA8001B782F2B03D9BB681B78392BEBD9BB6853
:102BB8001B78732B13D17B681A1D7A601B689846A3
:102BC800B8F1000F01D0434600E04A4BF8681946B7
:102BD8002A463346FFF7DEFE03461C4475E0BB6811
:102BE8001B78642B03D0BB681B78692B10D17B68DA
:102BF8001A1D7A601B680095019661220292F86896
:102C080019460A220123FFF71FFF03461C445CE014
:102C1800BB681B78782B10D17B681A1D7A601B68FB
:102C28000095019661220292F86819461022002345
:102C3800FFF70AFF03461C4447E0BB681B78582B84
:102C480010D17B681A1D7A601B6800950196412295
:102C58000292F868194610220023FFF7F5FE034692
:102C68001C4432E0BB681B78752B10D17B681A1D99
:102C78007A601B680095019661220292F8681946ED
:102C88000A220023FFF7E0FE03461C441DE0BB6850
:102C98001B78632B19D17B681A1D7A601B68DBB21D
:102CA8003B7500237B7507F11403F86819462A461B
:102CB8003346FFF76FFE03461C4406E0BB681B78EB
:102CC800F8681946FFF74EFE0134BB680133BB6054
:102CD800BB681B78002B7FF42EAFFB68002B03D05A
:102CE800FB681B6800221A70234618461837BD4631
:102CF800BDE8F0817C8800080EB480B585B000AFCF
:102D0800786007F12003FB603B1D1846F969FA68F3
:102D1800FFF708FF034618461437BD46BDE8804054
:102D280003B0704780B483B000AF0346FB71094B12
:102D380097F907205209F97901F01F01012000FADB
:102D480001F1403243F822100C37BD465DF8047B90
:102D5800704700BF00E100E080B584B004AF00F028
:102D680057F81F4802F05CFB1E4802F059FB02208E
:102D78001C21002201F042FB02461B4B1A60012372
:102D880000931A4B019300230293002303931848DE
:102D980018494FF40062002300F09CF901230093C6
:102DA800154B0193002302930023039313481449FE
:102DB8004FF40062002300F08DF901230093114BBA
:102DC800019300230293002303930F480F494FF404
:102DD8000062002300F07EF900F0BEFBFEE700BFB2
:102DE800988E0008A88E0008F8310120B84101200B
:102DF800A1150008F8880008F0310120151F000807
:102E080084880008D0390120F51E000800890008D0
:102E180080B584B004AF00F0AFF84FF4407002F012
:102E2800EDFDFDF771FAFEF723FC02230093002362
:102E380001930023029300230393044804494FF4A9
:102E48008062002300F046F9BD4680BDC50A00082F
:102E58000889000880B500AF064B1B685A1C054B53
:102E68001A601C20FFF75EFF024B1B685A1E014BBD
:102E78001A6080BD9004002080B400AF0B4B1B6823
:102E88005A1C0A4B1A60094B1A68094B1B689A426C
:102E980003D9064B1A68064B1A60044B1B685A1E66
:102EA800024B1A60BD465DF8047B70479004002011
:102EB8009404002080B500AF064B1B685A1C054BD4
:102EC8001A601D20FFF72EFF024B1B685A1E014B8C
:102ED8001A6080BD9004002080B500AF01F090FF1B
:102EE800FEE700BF80B400AFBD465DF8047B7047C5
:102EF80080B582B000AF7860396001F081FFFEE7ED
:102F080080B483B000AF786039600C37BD465DF897
:102F1800047B7047002100F004B8104B5B58435005
:102F280004310F480F4B42189A42FFF4F6AF0E4A8D
:102F380000F003B8002342F8043B0C4B9A42FFF41C
:102F4800F9AF0B48016841F47001016000F014F812
:102F580005F046F8FFF700FF704700000C900008E6
:102F680000000020600400206004002014440120B8
:102F780088ED00E0FFF7FEBF80B500AF154B154A9E
:102F8800D2F8882042F47002C3F88820124B124A03
:102F9800126842F001021A600F4B00229A600E4A32
:102FA8000D4B1B6823F0847323F4803313600A4BA2
:102FB8000A4A5A60084B084A126822F480221A60AA
:102FC800054B0022DA6000F00BF8024B4FF000626C
:102FD8009A6080BD00ED00E0003802401030002407
:102FE80080B483B000AF00237B6000233B60354B87
:102FF800344A126842F480321A60324B1B6803F478
:1030080000333B607B6801337B603B68002B03D156
:103018007B68B3F5A06FF0D12A4B1B6803F400332B
:10302800002B02D001233B6001E000233B603B689A
:10303800012B42D1234B234A126C42F080521A646E
:10304800214B214A126842F480421A601D4B1D4AE6
:1030580092689A601B4B1B4A926842F400429A603D
:10306800184B184A926842F4A0529A60154B174AB6
:103078005A60144B134A126842F080721A6000BFFB
:10308800104B1B6803F00073002BF9D0104B40F273
:1030980004621A600B4B0B4A926822F003029A6092
:1030A800084B084A926842F002029A6000BF054B3A
:1030B8009B6803F00C03082BF9D10C37BD465DF86B
:1030C800047B70470038024000700040194B4007ED
:1030D800003C024080B58AB002AFF860B9603B603E
:1030E8001346FB80FB68002B02D101F089FEFEE746
:1030F800BB6A042B02D901F083FEFEE7FB88184661
:10310800396B00F00BFFB861BB69002B72D0BB694B
:103118001A6BFB8803F18043013B9B0013447B61DE
:103128007B6923F007037B617B6903F00703002BAE
:1031380002D001F065FEFEE7FB880093B869B96824
:10314800BA6A7B6B00F0F4FD7869F9683A6801F0B7
:1031580065FD0246BB691A60FB6A002B02D0FB6A58
:10316800BA691A6001F02AFE2E4B1B685A1C2D4BB7
:103178001A602D4B1B68002B09D12B4BBA691A60BA
:10318800284B1B68012B0FD100F01AFE0CE0274BCF
:103198001B68002B08D1244B1B68DA6ABB6A9A4269
:1031A80002D8214BBA691A60214B1B685A1C204B64
:1031B8001A601F4B1A68BB691A64BB69DA6A1D4B2F
:1031C8001B689A4203D9BB69DA6A1A4B1A60BB6951
:1031D800DA6A13469B0013449B00174A1A44BB69DA
:1031E80004331046194601F093FC0123FB6101F0FA
:1031F800F5FD02E04FF0FF33FB61FB69012B0BD1BA
:103208000A4B1B68002B07D0074B1B68DA6ABB6A9E
:103218009A4201D201F0C2FDFB6918462037BD462B
:1032280080BD00BF70050020980400207C050020A8
:1032380090050020780500209C04002080B584B00B
:1032480000AF786001F0BAFD7B68002B02D1194B02
:103258001B6800E07B68FB60FB680433184601F0DC
:10326800B3FCFB689B6A002B04D0FB681833184634
:1032780001F0AAFCFB6804330F48194601F048FC2A
:103288000E4B1B685A1C0D4B1A600D4B1B685A1CC1
:103298000B4B1A6001F0A2FD0A4B1B68002B06D0ED
:1032A800044B1B68FA689A4201D101F077FD103788
:1032B800BD4680BD98040020440500205805002024
:1032C800900500207C05002080B586B000AF7860AE
:1032D800396000237B617B68002B02D101F090FDEF
:1032E800FEE73B68002B02D101F08AFDFEE700F003
:1032F8006BF91F4B1B683B617B681A683B6813447A
:10330800FB607B681A683B699A420BD97B681A682C
:10331800FB689A4211D9FA683B699A420DD9012390
:103328007B610AE07B681A68FB689A4203D8FA68EE
:103338003B699A4201D901237B617B68FA681A606C
:103348007B69002B08D00B4B1B680433184601F02F
:103358003BFCF86800F0ACFD00F044F9B860BB68CD
:10336800002B01D101F01AFD1837BD4680BD00BF02
:10337800740500209804002080B584B000AF786000
:103388000023FB607B68002B12D000F01DF90C4B6A
:103398001A687B681344BB600A4B1B6804331846E1
:1033A80001F012FCB86800F083FD00F01BF9F8602A
:1033B800FB68002B01D101F0F1FC1037BD4680BD40
:1033C800740500209804002080B584B000AF7860B0
:1033D80001F0F4FC7B68002B02D11B4B1B6800E05A
:1033E8007B68FB60FB680433184601F0EDFBFB6863
:1033F8009B6A002B04D0FB681833184601F0E4FBE5
:10340800FB6804331148194601F082FB01F0E6FC21
:103418000D4B1B68FA689A4212D10D4B1B68002BA2
:1034280002D001F0BBFC0BE0084B1A68094B1B6883
:103438009A4203D1044B00221A6001E000F0BCFA62
:103448001037BD4680BD00BF980400205C050020F1
:103458007C0500207005002080B584B000AF78603E
:103468000023FB607B68BB607B68002B02D101F006
:10347800C7FCFEE7BB685A690E4B9A4201D101238B
:1034880000E00023002B0FD0BB689A6A0A4B9A42CF
:103498000AD0BB689B6A002B01D1012300E00023FE
:1034A800002B01D00123FB60FB6818461037BD468E
:1034B80080BD00BF5C0500203005002080B584B0C9
:1034C80000AF78607B68FB607B68002B02D101F05D
:1034D80097FCFEE7FB68002B34D01C4B1B68FA688E
:1034E8009A422FD001F06AFCF868FFF7B5FF03464F
:1034F800012B25D1FB680433184601F065FBFB68F6
:10350800DA6A134B1B689A4203D9FB68DA6A104BD4
:103518001A60FB68DA6A13469B0013449B000D4A45
:103528001A44FB6804331046194601F0F1FAFB68A7
:10353800DA6A064B1B68DB6A9A4201D301F02EFC5B
:1035480001F04CFC1037BD4680BD00BF9804002038
:10355800780500209C04002080B586B004AF0023C5
:10356800009300230193002302930023039312483E
:1035780012494FF480720023FFF7ACFD78607B6836
:10358800012B02D101F0D6FC78607B68012B0AD1AF
:1035980001F036FC0A4B01221A600A4B00221A601D
:1035A80001F096FB05E07B68002B02D101F028FCB6
:1035B800FEE70837BD4680BD153D000814890008A0
:1035C8007C0500207405002080B400AF044B1B6804
:1035D8005A1C034B1A60BD465DF8047B704700BF58
:1035E8008005002080B582B000AF00237B60384B97
:1035F8001B68002B02D101F003FCFEE701F0DEFBA3
:10360800334B1B685A1E324B1A60314B1B68002B18
:1036180056D1304B1B68002B52D02FE02E4BDB6865
:10362800DB683B603B681833184601F0CDFA3B680D
:103638000433184601F0C8FA3B68DA6A274B1B685E
:103648009A4203D93B68DA6A244B1A603B68DA6A03
:1036580013469B0013449B00214A1A443B680433D9
:103668001046194601F054FA3B68DA6A1D4B1B688C
:10367800DB6A9A4202D31C4B01221A60164B1B6864
:10368800002BCBD1194B1B68002B11D00CE000F09C
:10369800BDF80346002B02D0134B01221A60134BCE
:1036A8001B685A1E114B1A60104B1B68002BEED179
:1036B8000D4B1B68012B03D101237B6001F06EFBCE
:1036C80001F08CFB7B6818460837BD4680BD00BFFB
:1036D80080050020700500203005002078050020B6
:1036E8009C04002098040020880500208405002000
:1036F80080B582B000AF01F061FB054B1B687B60B1
:1037080001F06CFB7B6818460837BD4680BD00BFDA
:103718007405002080B586B000AFF860B9607A60A3
:1037280000237B6105233B61FFF74EFF314B1B688C
:10373800BA689A4257D33B69013B3B617B695B019D
:10374800FA68D1183A6913469B0013449B002A4A29
:10375800134408461946012200F012FC03467A6910
:1037680013447B613B69002BE5D17B695B01FA68F7
:103778001A44224B1B6810461946022200F000FC2E
:1037880003467A6913447B617B695B01FA681A44D2
:103798001B4B1B6810461946022200F0F1FB03463A
:1037A8007A6913447B617B695B01FA6813441846A4
:1037B8001449042200F0E4FB03467A6913447B6150
:1037C8007B695B01FA68134418460F49032200F02D
:1037D800D7FB03467A6913447B617B68002B02D0D0
:1037E8007B6800221A60FFF7FDFE7B6918461837D0
:1037F800BD4680BD700500209C04002028050020DF
:103808002C050020440500205C05002080B586B00A
:1038180000AF00237B615D4B1B68002B40F0A48048
:103828005B4B1B685A1C5A4B1A60594B1B683B610F
:103838003B69002B2ED1574B1B681B68002B02D00D
:1038480001F0DEFAFEE7534B1B68FB60524B1A6827
:10385800504B1A60504BFA681A60504B1B685A1C40
:103868004E4B1A604B4B1B681B68002B01D1012380
:1038780000E00023002B04D0494B4FF0FF321A60C0
:1038880008E0444B1B68DB68DB68BB60BB685A68B0
:10389800434B1A60424B1B683A699A424FD33D4BDF
:1038A8001B681B68002B01D1012300E00023002BBB
:1038B80004D03B4B4FF0FF321A6040E0354B1B6899
:1038C800DB68DB68BB60BB685B687B603A697B6808
:1038D8009A4203D2324B7A681A6030E0BB680433EC
:1038E800184601F071F9BB689B6A002B04D0BB68CD
:1038F8001833184601F068F9BB68DA6A294B1B6867
:103908009A4203D9BB68DA6A264B1A60BB68DA6A3E
:1039180013469B0013449B00234A1A44BB68043394
:103928001046194601F0F4F8BB68DA6A1F4B1B68A9
:10393800DB6A9A4202D301237B61B0E7AFE71B4BF6
:103948001B68DA6A184913469B0013449B000B4412
:103958001B68012B01D901237B61154B1B68002BC8
:1039680009D1FFF777FA06E0114B1B685A1C104B78
:103978001A60FFF76FFA0F4B1B68002B01D0012369
:103988007B617B6918461837BD4680BD80050020DD
:1039980074050020280500202C0500208C05002037
:1039A80008000020780500209C04002098040020CE
:1039B800840500208805002080B582B000AF354B13
:1039C8001B68002B03D0344B01221A605EE0324B97
:1039D80000221A60314B1B681A68304B1B681B6B3E
:1039E8009A4208D82D4B1A682C4B1B683433104662
:1039F8001946FFF77DFA294B1B681B6B18462849A7
:103A0800142204F015FB0346002B09D0234B1A6837
:103A1800224B1B68343310461946FFF769FA0CE04D
:103A28000BE0204B1B68002B02D101F0E9F9FEE7FF
:103A38001C4B1B685A1E1B4B1A601A4B1A681A49F2
:103A480013469B0013449B000B441B68002BE8D0D3
:103A5800144B1A6813469B0013449B00124A1344E4
:103A68007B607B685B685A687B685A607B685A68C9
:103A78007B6808339A4204D17B685B685A687B6824
:103A88005A607B685B68DA68044B1A600837BD4681
:103A980080BD00BF80050020880500209804002014
:103AA800B88E0008780500209C04002080B584B0FA
:103AB80000AF786039607B68002B02D101F0A0F973
:103AC800FEE7124B1B6818337868194601F044F872
:103AD8000E4B1B680433184601F076F83B68B3F1C7
:103AE800FF3F07D1094B1B6804330948194601F009
:103AF8000FF807E0074B1A683B681344FB60F86847
:103B080000F0D6F91037BD4680BD00BF98040020EC
:103B18005C0500207405002080B584B000AF786093
:103B280039607B68002B02D101F06AF9FEE70C4B83
:103B38001B6818337868194600F0EAFF084B1B68C1
:103B48000433184601F040F8064B1A683B681344E2
:103B5800FB60F86800F0ACF91037BD4680BD00BFC7
:103B6800980400207405002080B584B000AF786008
:103B78007B68DB68DB68BB60BB68002B02D101F0A7
:103B88003FF9FEE7BB681833184601F01DF81E4BD5
:103B98001B68002B1DD1BB680433184601F014F8CC
:103BA800BB68DA6A194B1B689A4203D9BB68DA6AA0
:103BB800164B1A60BB68DA6A13469B0013449B00D5
:103BC800134A1A44BB6804331046194600F0A0FF94
:103BD80005E0BB6818330F48194600F099FFBB6829
:103BE800DA6A0D4B1B68DB6A9A4205D30123FB6036
:103BF8000A4B01221A6001E00023FB60FB681846AB
:103C08001037BD4680BD00BF800500207805002024
:103C18009C0400203005002098040020880500201E
:103C280080B582B000AF78607B68002B02D101F0CC
:103C3800E7F8FEE7054B1A687B681A60044B1A68B8
:103C48007B685A600837BD4680BD00BF8C050020E0
:103C58007405002080B584B000AF786039607B6857
:103C6800002B02D101F0CCF8FEE73B68002B02D113
:103C780001F0C6F8FEE701F0A1F81C4B1B68BB6019
:103C88003B681B68B3F1FF3F02D10023FB6026E0CD
:103C98007B681A68164B1B689A4207D07B685A687B
:103CA800BB689A4202D80123FB6018E07B685B6816
:103CB800BA68D21A3B681B689A420ED23B681A68E7
:103CC8007B685968BB68CB1A1A443B681A607868E5
:103CD800FFF7A6FF0023FB6001E00123FB6001F072
:103CE8007DF8FB6818461037BD4680BD7405002076
:103CF8008C05002080B400AF034B01221A60BD463A
:103D08005DF8047B704700BF8805002080B582B04D
:103D180000AF786000F092F8044B1B68012B01D9C2
:103D280001F03CF8FFF7DEF8F4E700BF9C04002040
:103D380080B586B000AFF860B9607A603B60002358
:103D48007B6112E0BA687B6913441A78F9687B6969
:103D58000B4430331A71BA687B6913441B78002B03
:103D680000D105E07B6901337B617B69092BE9D9C7
:103D7800FB68002283F83D207B68042B01D90423CB
:103D88007B60FB687A68DA62FB687A689A64FB6829
:103D98000433184600F0B0FEFB681833184600F0EC
:103DA800ABFEFB68FA681A617B68C3F10502FB6821
:103DB8009A61FB68FA685A621837BD4680BD00BF31
:103DC80080B582B000AF00237B600CE07A681346B0
:103DD8009B0013449B00114A1344184600F06CFEE4
:103DE8007B6801337B607B68042BEFD90C4800F0BB
:103DF80063FE0C4800F060FE0B4800F05DFE0B48C7
:103E080000F05AFE0A4800F057FE0A4B044A1A60AE
:103E1800094B044A1A600837BD4680BD9C0400203F
:103E2800000500201405002030050020440500206E
:103E38005C050020280500202C05002080B582B0F4
:103E480000AF28E0FFF7C0FB164B1B68002B14BF20
:103E580000230123DBB27B60FFF7C4FB7B68002BE8
:103E680019D100F0ABFF0F4BDB68DB683B603B68A8
:103E78000433184600F0A8FE0B4B1B685A1E0A4B69
:103E88001A600A4B1B685A1E084B1A6000F0A6FFFE
:103E9800386800F00FF9054B1B68002BD2D10837A2
:103EA800BD4680BD4405002070050020580500204F
:103EB80080B582B000AF7860134B1B687A685A608F
:103EC800124B1B687A689A4209D2114B1A680E4B3A
:103ED8001B6804331046194600F03EFE10E00D4BF7
:103EE8001A68094B1B6804331046194600F034FE63
:103EF800094B1B687A689A4202D2074B7A681A60A3
:103F08000837BD4680BD00BF980400207405002016
:103F18002C050020280500200800002080B584B06A
:103F280000AF03463960FB804C2001F0EBFBF860E2
:103F3800FB68002B1FD03B68002B06D1FB889B0039
:103F4800184601F0DFFB034600E03B68FA6813639C
:103F5800FB681B6B002B05D1F86801F05FFC0023A0
:103F6800FB6008E0FB681A6BFB889B001046A521E4
:103F78001A4604F091F8FB6818461037BD4680BD14
:103F880090B58BB000AFF860B9601346FB710023A1
:103F98007B62BB681B68002B6BD0BB683B623B6ACB
:103FA8005B685A683B6A5A603B6A5A683B6A0833DE
:103FB8009A4204D13B6A5B685A683B6A5A603B6A1A
:103FC8005B68DB68FB61BB68BB61BB695B685A689F
:103FD800BB695A60BB695A68BB6908339A4204D105
:103FE800BB695B685A68BB695A60BB695B68DB6818
:103FF8007B617B6A5B01FA6813447A691A607B6AA1
:104008005B01FA6813447A6934325A607B6A5B014F
:10401800FA6813447A69126C9A607B6A5B01FA68E1
:104028001344FA791A737B6A5B01FA6813447A6954
:10403800D26A1A617B6A5B01FA6813447A69926CE6
:104048005A617B6A5B01FA68134400229A617B6AB1
:104058005B01FA68D4187B691B6B184600F00EF8F0
:104068000346A3837B6A01337B627A69FB699A42C0
:10407800A9D17B6A18462C37BD4690BD80B485B05F
:1040880000AF78600023FB8105E07B6801337B602B
:10409800FB890133FB817B681B78A52BF5D0FB8955
:1040A8009B08FB81FB8918461437BD465DF8047BE5
:1040B800704700BF80B582B000AF78607B681B6B2B
:1040C800184601F0ABFB786801F0A8FB0837BD463D
:1040D80080BD00BF80B483B000AF054B1B687B6018
:1040E8007B6818460C37BD465DF8047B704700BFF7
:1040F8009804002080B483B000AF0B4B1B68002BE2
:1041080002D100237B6008E0084B1B68002B02D11A
:1041180001237B6001E002237B607B6818460C3733
:10412800BD465DF8047B70477C05002080050020B3
:1041380080B584B000AF78607B68FB607B68002B3B
:1041480046D0FB68DA6A244B1B68DB6A9A423FD286
:10415800214B1B68DB6AC3F10502FB689A61FB68A7
:104168005969FB68DA6A13469B0013449B001B4A93
:104178001344994201D1012300E00023002B22D0EF
:10418800FB680433184600F01FFD134B1B68DA6AFE
:10419800FB68DA62FB68DA6A114B1B689A4203D93A
:1041A800FB68DA6A0E4B1A60FB68DA6A13469B00F2
:1041B80013449B00094A1A44FB6804331046194605
:1041C80000F0A6FC04E0044B1B68DA6AFB68DA62BC
:1041D8001037BD4680BD00BF980400209C04002015
:1041E8007805002080B584B000AF78607B68FB60FC
:1041F8007B68002B2CD0FB68DA6AFB689B6C9A42C0
:1042080026D0FB680433184600F0DEFCFB689A6C85
:10421800FB68DA62FB68DB6AC3F10502FB689A6136
:10422800FB68DA6A0C4B1B689A4203D9FB68DA6AA6
:10423800094B1A60FB68DA6A13469B0013449B001B
:10424800064A1A44FB6804331046194600F060FC1D
:104258001037BD4680BD00BF780500209C040020B3
:10426800B0B58AB004AF78607B6800221A70354B0D
:104278001B68FB60334B1B685B01184601F042FA70
:1042880038613B69002B5AD0FB683869194600220F
:10429800FFF740FA0346FB600023BB6048E0BB68B9
:1042A8005B013A6913441B7B013B032B16D801A21F
:1042B80052F823F0CD420008D3420008D942000842
:1042C800DF4200085223FB750BE04223FB7508E030
:1042D8005323FB7505E04423FB7502E00023FB75BF
:1042E80000BFBB685B013A6913445A68FB7DB96833
:1042F8004901386901440C69B968490138690144C0
:10430800898B0846B96849013D6929448968009440
:104318000190029178680C49FEF7EEFC786803F08A
:1043280063FF03467A6813447B60BB680133BB6054
:10433800BA68FB689A42B2D3386901F06FFA183745
:10434800BD46B0BD700500201C89000880B584B04A
:1043580000AF786039607B68FB60FB68002B02D196
:1043680000F04EFDFEE700F029FDFB681A68FB68C7
:10437800DB6BF968096C01FB03F31A44FB685A60AC
:10438800FB6800229A63FB681A68FB689A60FB68FE
:104398001A68FB68DB6B013BF968096C01FB03F3E6
:1043A8001A44FB68DA60FB684FF0FF325A64FB6816
:1043B8004FF0FF329A643B68002B0ED1FB681B69F3
:1043C800002B14D0FB6810331846FFF7CDFB0346CB
:1043D800012B0CD100F0E2FC09E0FB681033184611
:1043E80000F06AFBFB682433184600F065FB00F018
:1043F800F5FC012318461037BD4680BD80B588B04E
:1044080000AFF860B9601346FB710023FB61FB68DD
:10441800002B2AD0502001F075F9B861BB69002B38
:1044280023D0FB68BA6802FB03F301337B61786928
:1044380001F068F90246BB691A60BB691B68002B6A
:1044480010D0BB69FA68DA63BB69BA681A64B869DC
:104458000121FFF77BFFBB69FA7983F84D20BB691F
:10446800FB6102E0B86901F0D9F9FB69002B02D1C0
:1044780000F0C6FCFEE7FB6918462037BD4680BD44
:1044880080B588B000AFF860B9607A603B600023FF
:10449800FB61FB68BB61BB69002B02D100F0B0FC7B
:1044A800FEE7BB68002B03D1BB691B6C002B01D155
:1044B800012300E00023002B02D100F0A1FCFEE75D
:1044C8003B68022B03D1BB69DB6B012B01D10123B4
:1044D80000E00023002B02D100F092FCFEE700F080
:1044E8006DFCBB699A6BBB69DB6B9A4202D33B6874
:1044F800022B16D1B869B9683A6800F0A9F9BB6906
:104508005B6A002B09D0BB6924331846FFF72CFBE4
:104518000346012B01D100F041FC00F05FFC0123B0
:1045280059E07B68002B03D100F058FC002352E0CF
:10453800FB69002B06D107F110031846FFF770FB43
:104548000123FB6100F04AFCFFF73EF800F036FC5F
:10455800BB695B6CB3F1FF3F02D1BB6900225A64AF
:10456800BB699B6CB3F1FF3F02D1BB6900229A641F
:1045780000F034FC07F110023B1D10461946FFF706
:1045880069FB0346002B1ED1B86900F051FA0346B7
:10459800002B12D0BB6903F110027B681046194644
:1045A800FFF784FAB86900F0E1F9FFF71BF8034652
:1045B800002B0FD100F0F2FB0CE0B86900F0D6F93F
:1045C800FFF710F88BE7B86900F0D0F9FFF70AF8A1
:1045D800002300E083E718462037BD4680BD00BFB2
:1045E80080B588B000AFF860B9607A603B60FB685E
:1045F800BB61BB69002B02D100F002FCFEE7BB687F
:10460800002B03D1BB691B6C002B01D1012300E0F7
:104618000023002B02D100F0F3FBFEE73B68022BDE
:1046280003D1BB69DB6B012B01D1012300E000231F
:10463800002B02D100F0E4FBFEE700F04FFC00F095
:10464800DFFB7861BB699A6BBB69DB6B9A4202D36B
:104658003B68022B24D1B869B9683A6800F0F8F8C9
:10466800BB699B6CB3F1FF3F12D1BB695B6A002B3E
:1046780013D0BB6924331846FFF776FA0346002B9C
:104688000BD07B68002B08D07B6801221A6004E0FD
:10469800BB699B6C5A1CBB699A640123FB6101E0EE
:1046A8000023FB61786900F0B5FBFB6918462037E9
:1046B800BD4680BD80B58AB000AFF860B9607A6049
:1046C8003B6000237B62FB683B623B6A002B02D1A4
:1046D80000F096FBFEE7BB68002B03D13B6A1B6C1E
:1046E800002B01D1012300E00023002B02D100F0B0
:1046F80087FBFEE700F062FB3B6A9B6B002B3BD01D
:104708003B6ADB68FB61386AB96800F009F93B6805
:10471800002B1CD13B6A9B6B5A1E3B6A9A633B6A0F
:104728001B68002B04D1FFF7D5FC02463B6A5A6090
:104738003B6A1B69002B1BD03B6A10331846FFF7F6
:1047480013FA0346012B13D100F028FB10E03B6A53
:10475800FA69DA603B6A5B6A002B09D03B6A24334A
:104768001846FFF701FA0346002B01D000F016FBAC
:1047780000F034FB012366E07B68002B03D100F0D6
:104788002DFB00235FE07B6A002B06D107F11403A1
:104798001846FFF745FA01237B6200F01FFBFEF77E
:1047A80013FF00F00BFB3B6A5B6CB3F1FF3F02D1D8
:1047B8003B6A00225A643B6A9B6CB3F1FF3F02D10B
:1047C8003B6A00229A6400F009FB07F114023B1DC2
:1047D80010461946FFF73EFA0346002B2BD1386ADC
:1047E80000F010F90346002B1FD03B6A1B68002B12
:1047F80008D100F0E3FA3B6A5B681846FFF798FCBB
:1048080000F0ECFA3B6A03F124027B681046194673
:10481800FFF74CF9386A00F0A9F8FEF7E3FE034603
:10482800002B0FD100F0BAFA0CE0386A00F09EF8BD
:10483800FEF7D8FE5EE7386A00F098F8FEF7D2FE79
:10484800002300E056E718462837BD4680BD00BF64
:1048580080B584B000AFF860B9607A60FB681B6C03
:10486800002B0CD1FB681B68002B51D1FB685B68DF
:104878001846FFF7B7FCFB6800225A6048E07B68DF
:10488800002B1AD1FB689A68FB681B6C1046B96844
:104898001A46FBF79FFCFB689A68FB681B6C1A4476
:1048A800FB689A60FB689A68FB685B689A422FD33A
:1048B800FB681A68FB689A602AE0FB68DA68FB689C
:1048C8001B6C1046B9681A46FBF784FCFB68DA686B
:1048D800FB681B6C5B421A44FB68DA60FB68DA68A9
:1048E800FB681B689A4207D2FB685A68FB681B6C16
:1048F8005B421A44FB68DA607B68022B08D1FB68CC
:104908009B6B002B04D0FB689B6B5A1EFB689A6359
:10491800FB689B6B5A1CFB689A631037BD4680BDC9
:1049280080B582B000AF786039607B681B68002B67
:1049380019D07B68DA687B681B6C1A447B68DA607C
:104948007B68DA687B685B689A4203D37B681A687D
:104958007B68DA607B68DA687B681B6C38681146AC
:104968001A46FBF737FC0837BD4680BD80B582B0D4
:1049780000AF786000F022FA14E07B685B6A002BD5
:104988000AD07B6824331846FFF7EEF80346002B5D
:1049980003D0FFF7AFF900E008E07B689B6C5A1E74
:1049A8007B689A647B689B6C002BE6DC7B684FF025
:1049B800FF329A6400F012FA00F000FA14E07B6803
:1049C8001B69002B0FD07B6810331846FFF7CCF813
:1049D8000346002B01D0FFF78DF97B685B6C5A1EEC
:1049E8007B685A6400E003E07B685B6C002BE6DCC4
:1049F8007B684FF0FF325A6400F0F0F90837BD4683
:104A080080BD00BF80B584B000AF786000F0D6F9F3
:104A18007B689B6B002B02D10123FB6001E0002324
:104A2800FB6000F0DBF9FB6818461037BD4680BD17
:104A380080B584B000AF786000F0C0F97B689A6BED
:104A48007B68DB6B9A4202D10123FB6001E0002303
:104A5800FB6000F0C3F9FB6818461037BD4680BDFF
:104A680080B584B000AF786039607B68FB6000F087
:104A7800A5F9FB685B6CB3F1FF3F02D1FB6800222C
:104A88005A64FB689B6CB3F1FF3F02D1FB680022BC
:104A98009A6400F0A3F9FB689B6B002B05D1FB68B7
:104AA800243318463968FFF737F8F868FFF75EFFD0
:104AB8001037BD4680BD00BF80B483B000AF7860BA
:104AC8007B6803F108027B685A607B684FF0FF320D
:104AD8009A607B6803F108027B68DA607B6803F1FF
:104AE80008027B681A617B6800221A600C37BD4691
:104AF8005DF8047B704700BF80B483B000AF786076
:104B08007B6800221A610C37BD465DF8047B70474C
:104B180080B485B000AF786039607B685B68FB6003
:104B28003B68FA685A60FB689A683B689A60FB6859
:104B38009B683A685A60FB683A689A603B687A688A
:104B48001A617B681B685A1C7B681A601437BD465B
:104B58005DF8047B704700BF80B485B000AF786013
:104B680039603B681B68BB60BB68B3F1FF3F03D18A
:104B78007B681B69FB600CE07B680833FB6002E024
:104B8800FB685B68FB60FB685B681A68BB689A42F5
:104B9800F6D9FB685A683B685A603B685B683A68B4
:104BA8009A603B68FA689A60FB683A685A603B68A2
:104BB8007A681A617B681B685A1C7B681A6014370C
:104BC800BD465DF8047B704780B485B000AF78605F
:104BD8007B685B687A6892689A607B689B687A6889
:104BE80052685A607B681B69FB60FB685A687B687F
:104BF8009A4203D17B689A68FB685A607B680022F6
:104C08001A61FB681B685A1EFB681A60FB681B6800
:104C180018461437BD465DF8047B704780B485B0EC
:104C280000AFF860B9607A60FB68043BFB60FB6822
:104C38004FF080721A60FB68043BFB60BA68FB683F
:104C48001A60FB68043BFB600C4AFB681A60FB684F
:104C5800143BFB607A68FB681A60FB68043BFB60E6
:104C6800FB686FF002021A60FB68203BFB60FB6880
:104C780018461437BD465DF8047B7047894C000818
:104C880080B500AF054B1B68B3F1FF3F02D000F0C1
:104C9800B7F8FEE700F0B4F8FEE700BF0C0000200C
:104CA800054B19680868B0E8F04F80F309884FF0A1
:104CB800000080F3118870479804002003480068BA
:104CC800006880F3088862B600DF00BF08ED00E0E6
:104CD80080B584B000AF2B4BFB60FB681B78DBB260
:104CE800BB60FB68FF221A70FB681B78DBB2FB71A4
:104CF800FB79DBB203F05003DAB2234B1A70234B73
:104D080007221A6009E0214B1B685A1E1F4B1A60C4
:104D1800FB79DBB25B00DBB2FB71FB79DBB2DBB2A8
:104D28005BB2002BEFDB194B1B681A02174B1A609A
:104D3800164B1B6803F4E062144B1A60BB68DAB2C6
:104D4800FB681A70124B124A126842F470021A6019
:104D58000F4B0F4A126842F070421A6000F09AF83E
:104D68000C4B00221A6000F0AFF80B4B0A4A12688D
:104D780042F040421A60FFF7A1FF0023184610379F
:104D8800BD4680BD00E400E09405002098050020A1
:104D980020ED00E00C00002034EF00E080B400AF0C
:104DA800054B4FF080521A60BFF34F8FBFF36F8FE0
:104DB800BD465DF8047B704704ED00E080B500AFA8
:104DC80000F01EF8044B1B685A1C034B1A60BFF313
:104DD8004F8FBFF36F8F80BD0C00002080B500AFF0
:104DE800064B1B685A1E054B1A60044B1B68002BA8
:104DF80002D1002000F00EF880BD00BF0C0000209A
:104E0800EFF311804FF0500181F3118870470023B0
:104E1800184600BF80F31188704700BFEFF3098080
:104E2800114B1A681EF0100F08BF20ED108A20E9F8
:104E3800F04F10602DE908404FF0500080F31188C2
:104E4800FEF7BAFD4FF0000080F31188BDE8084076
:104E580019680868B0E8F04F1EF0100F08BFB0ECF2
:104E6800108A80F3098870479804002080B500AF45
:104E7800FFF7C6FFFEF7CAFC0346002B03D0044B1E
:104E88004FF080521A600020FFF7C4FF80BD00BFBA
:104E980004ED00E080B400AF074B084A1168084AE7
:104EA800A2FB01029209013A1A60064B07221A6016
:104EB800BD465DF8047B704714E000E00400002064
:104EC800D34D621010E000E0DFF80C00016841F4F7
:104ED800700101607047000088ED00E080B582B085
:104EE80000AFEFF305837B607B680F2B0CD90D4A6D
:104EF8007B6813441B78FB700B4B1B78FA789A423B
:104F080002D2FFF77DFFFEE7084B1B6803F4E0625F
:104F1800074B1B689A4202D9FFF772FFFEE7083772
:104F2800BD4680BDF0E300E0940500200CED00E0F4
:104F38009805002080B586B004AF00237B6000F0A0
:104F480045FA0F4B1B68002B0FD002230093002358
:104F5800019300230293002303930A480A494FF45C
:104F680000720023FEF7B6F878607B68002B02D148
:104F7800FFF746FFFEE77B6818460837BD4680BD49
:104F8800CC050020915000083089000880B588B011
:104F980000AFF860B9607A603B600023FB611D4B8D
:104FA8001B68002B30D0BB683B617B687B61FB686A
:104FB800BB613B68002B1CD1FFF79CF80346012B13
:104FC8000BD1144B1A6807F1100310461946BA6A38
:104FD8000023FFF755FAF86116E00E4B1A6807F13F
:104FE80010031046194600220023FFF749FAF8611A
:104FF8000AE0084B1A6807F11003104619463A6888
:105008000023FFF7EDFAF861FB6918462037BD4623
:1050180080BD00BFCC05002080B586B002AF7860A7
:105028003960184B1B68DB68DB68FB60FB6804337E
:105038001846FFF7C9FDFB68DB69012B1BD1FB682C
:105048009A697B681344F86819463A687B6800F0E7
:10505800A9F80346012B0ED100230093F86800211C
:105068007A680023FFF792FFB860BB68002B02D173
:10507800FFF7C6FEFEE7FB685B6AF86898471037DB
:10508800BD4680BDC405002080B584B000AF7860FF
:1050980007F10803184600F03FF8F860BB68F868A5
:1050A800194600F003F800F0BFF8F1E780B584B0C6
:1050B80000AF78603960FEF787FA07F108031846F1
:1050C80000F04EF8F860BB68002B1ED13B68002B3F
:1050D8000AD17A68FB689A4206D8FEF783FA78689C
:1050E800F968FFF799FF12E00A4B1A687968FB68BC
:1050F800CB1A10461946FFF7B3FCFEF773FA0346BE
:10510800002B04D1FFF74AFE01E0FEF76BFA1037D7
:10511800BD4680BDCC05002080B485B000AF786066
:105128000E4B1B681B68002B14BF00230123DBB246
:105138001A467B681A607B681B68002B05D1074BF1
:105148001B68DB681B68FB6001E00023FB60FB68F1
:1051580018461437BD465DF8047B7047C405002027
:1051680080B584B000AF7860FEF7C2FAF8600C4BE7
:105178001B68FA689A4208D2094B1B68184600F067
:10518800CBF87B6801221A6002E07B6800221A6073
:10519800034BFA681A60FB6818461037BD4680BD95
:1051A800D005002080B586B000AFF860B9607A609D
:1051B8003B6000237B61FB68BA685A60FB68FA6849
:1051C8001A61BA687B689A4212D87A683B68D21A20
:1051D800FB689B699A4202D301237B611BE0104B59
:1051E8001A68FB68043310461946FFF7B5FC12E04D
:1051F8007A683B689A4206D2BA683B689A4202D3F8
:1052080001237B6107E0074B1A68FB6804331046EB
:105218001946FFF7A1FC7B6918461837BD4680BDC3
:10522800C8050020C405002080B58AB002AF60E040
:105238003B69FB61FB695B69002B04D0FB690433A4
:105248001846FFF7C1FC3B1D1846FFF789FFB861F8
:10525800BB68032B4CD801A252F823F07552000802
:10526800F9520008C7520008F1520008FA68FB69B1
:105278009B691A44FB68F8691146BA69FFF792FFFF
:105288000346012B1AD1FB695B6AF8699847FB69E9
:10529800DB69012B12D1FA68FB699B691344002270
:1052A8000092F86900211A460023FFF76FFE786123
:1052B8007B69002B02D1FFF7A3FDFEE719E0FA682E
:1052C800FB699A61FB699B69002B02D1FFF798FD86
:1052D800FEE7FB699A69BB691344F8691946BA691C
:1052E800BB69FFF75FFF04E0F86900F097FA00E098
:1052F80000BF084B1A6807F1080310461946002238
:105308000023FFF7D7F90346002B91D12037BD467C
:1053180080BD00BFCC05002080B58AB002AF7860A0
:105328003DE0284B1B68DB681B68FB61254B1B684D
:10533800DB68DB68BB61BB6904331846FFF744FCD4
:10534800BB695B6AB8699847BB69DB69012B26D1E1
:10535800BB699A69FB6913447B617A69FB699A4264
:105368000ED9BB697A695A60BB69BA691A61154B6B
:105378001A68BB69043310461946FFF7EDFB0EE0C7
:1053880000230093B8690021FA690023FFF7FEFDA6
:1053980038613B69002B02D1FFF732FDFEE7094B6C
:1053A8001B681B68002BBCD1064B1B68FB60064BB7
:1053B8001A68044B1A60044BFA681A602037BD4615
:1053C80080BD00BFC4050020C805002080B500AF1F
:1053D800FFF7F4FC0D4B1B68002B13D10C48FFF7AB
:1053E8006BFB0C48FFF768FB0B4B094A1A600B4B29
:1053F800084A1A600A200C210022FEF7FFFF024625
:10540800024B1A60FFF7EAFC80BD00BFCC05002004
:105418009C050020B0050020C4050020C805002018
:1054280080B584B000AF78600023FB607B68002BF8
:1054380002D1FFF7E5FCFEE7082000F063F9B86049
:10544800BB68002B02D1FFF7DBFCFEE7BB68002B33
:1054580012D0FFF7B3FCBB687A681A60BB680022F9
:105468005A60084B1B68BA685A60064BBA681A60DB
:10547800FFF7B4FC0123FB60FB6818461037BD46F4
:1054880080BD00BF1800002080B588B000AFF8606C
:10549800B9607A600123FB613A4B1B68002B41D14C
:1054A800384B394A1A6039E0364B1B681B681B6851
:1054B800BB61B86902F098FE7861FA687B691344A9
:1054C8001B785BB2202B05D0FA687B6913441B78E4
:1054D800002B1ED1F868B9697A6902F0B5FE034657
:1054E800002B16D1274B1B681B681B7B5BB2002B5C
:1054F8000EDBF86800F0D8F803461A46214B1B6803
:105508001B681B7B5BB29A4202D00023FB6109E057
:1055180008E01C4B1B685A681A4B1A60194B1B6829
:10552800002BC1D1174B1B68002B0BD0FB69002B3C
:1055380008D1B86815497A6802F0E0FE114B0022DC
:105548001A601AE00F4B1B68002B0FD00D4B1B681D
:105558001B689B68B8687968FA689847F861FB69BE
:10556800002B0AD1074B00221A6006E0B8680849E8
:105578007A6802F0C3FE0023FB61FB6918462037F6
:10558800BD4680BDD40500201000002070890008A9
:10559800C889000880B487B000AFF860B9607A6045
:1055A80000237B6100233B617B6800221A6041E095
:1055B80002E0FB680133FB60FB681B78002B04D01A
:1055C800FB681B785BB2202BF3D102E0FB68013348
:1055D800FB60FB681B78002B04D0FB681B785BB270
:1055E800202BF3D0FB681B78002B22D07B6901337A
:1055F8007B617A69BB689A421CD1FB683B6107E012
:105608007B681B685A1C7B681A60FB680133FB6067
:10561800FB681B78002B04D0FB681B785BB2202B3F
:10562800EED17B681B68002B02D100233B6105E0AB
:1056380004E003E07A69BB689A42B9D33B6918462B
:105648001C37BD465DF8047B704700BF80B586B047
:1056580000AFF860B9607A60114B1B68002B02D16B
:105668000F4B104A1A600E4B1B681B685B68F86882
:105678001946BA6802F042FE094B1B685A68084B83
:105688001A60074B1B68002B02D100237B6101E0E5
:1056980001237B617B6918461837BD4680BD00BF72
:1056A800D80500201000002080B485B000AF7860D5
:1056B8000023FB730023BB6012E07B681B785BB29E
:1056C800202B08D1BB68012B07D0FB7B0133FB7370
:1056D8000123BB6001E00023BB607B6801337B6072
:1056E8007B681B78002BE8D1BB68012B02D1FB7BC0
:1056F800013BFB73FB7B5BB218461437BD465DF874
:10570800047B704780B586B000AF78600023FB60EB
:10571800FDF75AFF3D4B1B68002B01D100F0C8F87C
:105728003B4B1A687B681340002B63D17B68002BC6
:105738000DD008237A6813447B607B6803F0070365
:10574800002B04D07B6823F0070308337B607B6859
:10575800002B4FD02F4B1B687A689A424AD82E4BA1
:105768003B612D4B1B687B6104E07B693B617B6976
:105778001B687B617B695A687B689A4203D27B69A4
:105788001B68002BF1D1214B1B687A699A4231D0F2
:105798003B691A6808231344FB607B691A683B69F4
:1057A8001A607B695A687B68D21A08235B009A42A0
:1057B8000FD97A697B681344BB607B695A687B6838
:1057C800D21ABB685A607B697A685A60B86800F078
:1057D800BDF8104B1A687B695B68D21A0D4B1A60CA
:1057E8007B695A680A4B1B681A437B695A607B6954
:1057F80000221A60FDF7F6FEFB68002B01D1FDF7C9
:105808006BFBFB6818461837BD4680BDE4310120A4
:10581800E83101201C000020DC31012080B584B073
:1058280000AF78607B68FB607B68002B38D008236A
:105838005B42FA681344FB60FB68BB60BB685A684C
:10584800194B1B681340002B02D1FFF7D9FAFEE76A
:10585800BB681B68002B02D0FFF7D2FAFEE7BB68D3
:105868005A68114B1B681340002B19D0BB681B6882
:10587800002B15D1BB685A680B4B1B68DB431A40D9
:10588800BB685A60FDF7A0FEBB685A68074B1B68E7
:105898001A44064B1A60B86800F058F8FDF7A2FEE3
:1058A8001037BD4680BD00BFE83101201C00002034
:1058B80080B584B000AF1F4B23F00703FB601E4B7D
:1058C800FA681A601C4B00225A601C4BFA68134491
:1058D800BB6008235B42BA681344BB60184BBA68C4
:1058E8001A60174B1B6803F00703002B02D0FFF761
:1058F80087FAFEE7124B1B6800225A60104B1B68A0
:1059080000221A60FB687B600C4A0823D21A7B6865
:105918005A600B4B1A687B681A600A4B1A6808238E
:10592800D21A084B1A60084B4FF000421A60103721
:10593800BD4680BDE4050020DC310120F82B0100C4
:10594800E43101201C000020E831012080B485B03A
:1059580000AF7860274BFB6002E0FB681B68FB60C8
:10596800FB681A687B689A42F7D3FB68BB60FB68E0
:105978005B68BA681A447B689A4208D1FB685A681F
:105988007B685B681A44FB685A60FB687B607B68CD
:10599800BB607B685B68BA681A44FB681B689A42FC
:1059A80018D1FB681A68144B1B689A420DD07B68A3
:1059B8005A68FB681B685B681A447B685A60FB6816
:1059C8001B681A687B681A6008E00B4B1A687B68CA
:1059D8001A6003E0FB681A687B681A60FA687B68DB
:1059E8009A4202D0FB687A681A601437BD465DF89F
:1059F800047B7047DC310120E431012080B582B09E
:105A080000AF78607B68B3F5E06F13D07B68B3F5BF
:105A1800C06F0FD07B68B3F5A06F0BD07B68B3F570
:105A2800806F07D07B68B3F5407F03D006487321A9
:105A3800FDF766FA054A7B6843F0BF6343F4003319
:105A4800D3600837BD4680BD188A000800ED00E025
:105A580080B584B000AF78600023FB730023BB736C
:105A68000F237B737B68DB78002B07D07B68DB78A0
:105A7800012B03D030488721FDF742FA7B685B7819
:105A88000F2B03D92C488821FDF73AFA7B689B78BD
:105A98000F2B03D928488921FDF732FA7B68DB7878
:105AA800002B37D0254BDB68DB4303F4E0631B0A8C
:105AB800FB73FB7BC3F10403BB737A7BFB7B42FA6A
:105AC80003F37B737B685B781A46BB7B02FA03F3AC
