:020000040800F2
:10000000000002201D1E00087D1E00087D1E000845
:100010007D1E00087D1E00087D1E000800000000F7
:1000200000000000000000000000000091380008FF
:100030007D1E0008000000000D3A00085D3A00082F
:100040007D1E00087D1E00087D1E00087D1E000824
:100050007D1E00087D1E00087D1E00087D1E000814
:100060007D1E00087D1E0008211500087D1E000869
:100070007D1E00087D1E00087D1E00087D1E0008F4
:100080007D1E00087D1E00087D1E00087D1E0008E4
:100090007D1E00087D1E00087D1E00087D1E0008D4
:1000A0007D1E00087D1E00087D1E00087D1E0008C4
:1000B000BD1D0008811D00087D1E00087D1E000872
:1000C0007D1E00087D1E00087D1E00087D1E0008A4
:1000D0007D1E00087D1E00087D1E00087D1E000894
:1000E0007D1E00087D1E00087D1E00087D1E000884
:1000F0007D1E00087D1E00087D1E00087D1E000874
:100100007D1E00087D1E00087D1E00087D1E000863
:100110007D1E00087D1E00087D1E00087D1E000853
:100120007D1E00087D1E000835060008D106000867
:100130007D1E00087D1E00087D1E00087D1E000833
:100140007D1E00087D1E00087D1E00087D1E000823
:100150007D1E00087D1E00087D1E00086D1600082B
:100160007D1E00087D1E00087D1E00087D1E000803
:100170007D1E00087D1E00087D1E00087D1E0008F3
:080180007D1E00087D1E000831
:1001880010B5054C237833B9044B13B10448AFF3C9
:1001980000800123237010BD6004002000000000CF
:1001A800A076000808B5064B1BB106480649AFF310
:1001B80000800648036813B1054B03B1984708BD92
:1001C80000000000A07600086404002060040020FD
:1001D80000000000844641EA000313F003036DD1D8
:1001E800403A41D351F8043B40F8043B51F8043BF2
:1001F80040F8043B51F8043B40F8043B51F8043BF9
:1002080040F8043B51F8043B40F8043B51F8043BE8
:1002180040F8043B51F8043B40F8043B51F8043BD8
:1002280040F8043B51F8043B40F8043B51F8043BC8
:1002380040F8043B51F8043B40F8043B51F8043BB8
:1002480040F8043B51F8043B40F8043B51F8043BA8
:1002580040F8043B51F8043B40F8043B51F8043B98
:1002680040F8043B403ABDD2303211D351F8043B38
:1002780040F8043B51F8043B40F8043B51F8043B78
:1002880040F8043B51F8043B40F8043B103AEDD2E7
:100298000C3205D351F8043B40F8043B043AF9D238
:1002A800043208D0D2071CBF11F8013B00F8013B0B
:1002B80001D30B8803806046704700BF082A13D318
:1002C8008B078DD010F003038AD0C3F10403D21A30
:1002D800DB071CBF11F8013B00F8013B80D331F864
:1002E800023B20F8023B7BE7043AD9D3013A11F8E4
:1002F800013B00F8013BF9D20B7803704B7843704F
:100308008B7883706046704780B59AB000AF012043
:10031800012105F0DBFD0120012105F0D7FD0120B9
:10032800012105F0D3FD80233B66022387F8643062
:10033800002387F86630032387F86530022387F89F
:10034800673007F16003B148194605F0D7FA202352
:100358003B66022387F86430002387F8663003235E
:1003680087F86530022387F8673007F16003A748EC
:10037800194605F0C3FA40233B66022387F8643028
:10038800012387F86630032387F86530002387F850
:10039800673007F160039D48194605F0AFFA9B489E
:1003A8000621052205F0C0FB98480721052205F023
:1003B800BBFB96480521052205F0B6FB0420012168
:1003C80005F084FD0420012105F080FD10233B6623
:1003D800012387F86430002387F86630032387F801
:1003E8006530012387F8673007F1600387481946AD
:1003F80005F084FA854B854A128B92B242F01002BE
:1004080092B21A8320233B66012387F864300023C5
:1004180087F86630032387F86530012387F867304B
:1004280007F160037A48194605F068FA784B784A6C
:10043800128B92B242F0200292B21A834FF480508B
:10044800012105F07BFD0023A7F84C304FF482739F
:10045800A7F84E300023A7F850300023A7F85230F1
:100468000023A7F854304FF44073A7F856300823F8
:10047800A7F858300023A7F85A3007F14C0365480D
:10048800194605F093FD6348012105F081FE4FF4FC
:100498008000012105F01AFD5F4804F047F95F4824
:1004A80004F044F900BF5C4804F050FD0346002BFB
:1004B800F9D100BF594804F049FD0346002BF9D192
:1004C80007F11003184604F00BFC00233B634FF4BC
:1004D8008063BB6200237B63514B7B610023BB6459
:1004E8000023FB6200237B624FF40033BB634FF0B1
:1004F800C0633B614023FB614A4BBB614FF4FA6325
:100508003B6207F110034448194604F025FA4FF0FE
:10051800C0633B610023FB61434BBB614FF4FA634B
:100528003B6207F110033D48194604F015FA3A48B2
:100538001021012204F088FD38481021012204F01E
:1005480083FD3448022105F021FF3248012105F0DE
:100558001DFF3B233B7306237B730123BB730123DE
:10056800FB7307F10C03184604F066F83A233B7353
:1005780006237B730223BB730123FB7307F10C0370
:10058800184604F059F823480221012205F042FEDA
:1005980020480121012205F03DFE10233B6600237F
:1005A80087F86430002387F86630002387F86730BF
:1005B800032387F8653007F160031548194605F0ED
:1005C8009DF94FF48040012105F0B8FC0220042178
:1005D80005F016FF10237B6000233B720C237B720F
:1005E8000123BB723B1D184605F04CF80A233B70EB
:1005F8000A237B700323BB700123FB703B4618461C
:1006080004F01AF86837BD4680BD00BF00000240FC
:100618000008024000300140586402404064024033
:100628000C300140D83901200432012080B500AFD8
:100638001D481E4904F0BEFD0346002B2AD01A4867
:100648001A4904F073FF00BF1948802105F040FEE5
:100658000346012BF8D0174B164A128B92B242F080
:10066800100292B21A831448002104F06FFB0E485E
:10067800002104F06BFB03F095F9104B00221A607F
:100688000F4B1B68184600210C4A002302F09CFD02
:1006980003F098F9094B1B68002B03D0094B4FF066
:1006A80080521A6080BD00BF406402400080201064
:1006B8000030014000000240586402407C040020E1
:1006C800EC31012004ED00E080B500AF1D481E4963
:1006D80004F070FD0346002B2AD01A481A4904F08A
:1006E80025FF00BF1948802105F0F2FD0346012BC4
:1006F800F8D0174B164A128B92B242F0100292B2FF
:100708001A831048002104F021FB1248002104F04C
:100718001DFB03F047F9104B00221A600F4B1B68B2
:10072800184600210C4A002302F04EFD03F04AF956
:10073800094B1B68002B03D0094B4FF080521A60FD
:1007480080BD00BF5864024000800018003001409E
:1007580000000240406402407C040020EC3101208B
:1007680004ED00E02DE9F04387B000AF0B463A6096
:100778000246FA80BB806B461E46BB88191D4B1E7D
:100788003B610B461A464FF000034FEAC30949EA9A
:1007980052794FEAC2080B461A464FF00003DD00B3
:1007A80045EA5275D4000B460733DB08DB00ADEB96
:1007B800030D6B460033FB60FB881B0A9BB2DAB261
:1007C800FB681A70FB88DAB2FB685A70BB8803F4BE
:1007D800FE431B12DBB263F07F03DBB2DAB2FB68C5
:1007E8009A70BB88DAB2FB68DA7004237B610BE08D
:1007F8007B69043B3A6813441A78F9687B690B44AF
:100808001A707B6901337B61BB881A1D7B699A4228
:10081800EEDCBB8804339BB21248194604F022FB75
:10082800104BFA68DA60104B0F4A528B92B242F0C2
:10083800100292B25A830B48012104F087FA0B4840
:10084800012104F083FA0A4B1B68184600214FF077
:10085800FF32002302F022FDB5461C37BD46BDE835
:10086800F08300BF58640240000002404064024028
:10087800EC31012080B584B000AF02460B46FA8007
:10088800BB800223FB81FB881B0A9BB2DBB23B7255
:10089800FB88DBB27B72FB8903F4FE431B12DBB2DD
:1008A80063F07F03DBB2DBB2BB72FB89DBB2FB72A6
:1008B800BB881B0A9BB2DBB23B73BB88DBB27B7382
:1008C8001148062104F0CEFA0F4B07F10802DA604E
:1008D8000E4B0E4A528B92B242F0100292B25A83D9
:1008E8000948012104F032FA0948012104F02EFADE
:1008F800084B1B68184600214FF0FF32002302F016
:10090800CDFC1037BD4680BD58640240000002404F
:1009180040640240EC31012080B584B000AF02464B
:100928000B46FA807B710123FB81FB881B0A9BB273
:10093800DBB23B72FB88DBB27B72FB8903F4FE43BC
:100948001B12DBB263F07F03DBB2DBB2BB72FB8945
:10095800DBB2FB727B793B731148052104F082FA04
:100968000F4B07F10802DA600E4B0E4A528B92B217
:1009780042F0100292B25A830948012104F0E6F9C4
:100988000948012104F0E2F9084B1B6818460021C8
:100998004FF0FF32002302F081FC1037BD4680BDC6
:1009A800586402400000024040640240EC310120DB
:1009B8002DE9F04186B000AFF880B98069468846D5
:1009C800B9880E1D711E3961314608464FF0000185
:1009D800CD0045EA5075C400314608464FF0000185
:1009E800CB0043EA5073C20033460733DB08DB0011
:1009F800ADEB030D6B460033FB60FB881B0A9BB213
:100A0800DAB2FB681A70FB88DAB2FB685A70BB88E6
:100A180003F4FE431B12DAB2FB689A70BB88DAB2A1
:100A2800FB68DA7004237B6107E0FA687B6913448A
:100A380000221A707B6901337B61BB881A1D7B69B0
:100A48009A42F2DCBB8804339BB21748194604F07B
:100A580009FABB8804339BB21448194604F002FA19
:100A6800124BFA68DA60104B114ADA60114B114ADE
:100A7800528B92B242F0100292B25A830B48012173
:100A880004F064F90848012104F060F90A4B1B6876
:100A9800184600214FF0FF32002302F0FFFBC54645
:100AA8001837BD46BDE8F0814064024058640240F2
:100AB8000432012000000240EC31012080B58AB0E8
:100AC80000AF5C4A07F118031068186092889A8092
:100AD800594A07F1140310681860584A07F11003BF
:100AE80010681860564A07F10C0310681860012056
:100AF8000021032202F076FA0246524B1A6001F0F6
:100B080077FD0346BB60504B4F4A528B92B242F07E
:100B1800200292B25A834C4B4B4A128B92B242F04B
:100B2800200292B21A834FF4FA7001F0A5FB012358
:100B38003B6200208021FFF7EFFE8023FB7100BF9E
:100B480000200021FFF7E8FE1620FF21FFF7E4FE52
:100B580036200021FFF7E0FE1720C821FFF7DCFE52
:100B680019200321FFF7D8FE00237B6200237B6254
:100B78002BE07B6A9BB21B029BB203F580431E33BA
:100B88009BB218460221FFF7C7FE7B6A9BB21B0285
:100B98009BB203F580431F339BB218460221FFF72F
:100BA800BBFE7B6A9BB21B029BB203F580432C33CE
:100BB8009BB21846FF21FFF7AFFE244A7B6A134415
:100BC80000221A707B6A01337B627B6A072BD0DDB7
:100BD80007F1080318464FF4FA7101F0F5FA07F126
:100BE800140107F1100207F10C03084611461A46D2
:100BF80000F03CF807F11803184600F02BF807F14D
:100C0800080318464FF4FA7101F0DEFA012050216A
:100C1800002200F017FA03461A460D4B1A600C4BD7
:100C28001B68184600F0ECFB002001F087FA283713
:100C3800BD4680BDB8700008C0700008C4700008C8
:100C4800C8700008EC310120000802408004002030
:100C5800F831012080B582B000AF78600920062104
:100C68007A68FFF77FFD0837BD4680BD80B584B040
:100C780000AFF860B9607A600F200421FA68FFF7C6
:100C880071FD05200421BA68FFF76CFD01200421DD
:100C98007A68FFF767FD1037BD4680BD80B584B020
:100CA80000AF0346FB71FB799BB21B029BB203F5B5
:100CB800804301339BB218460121FFF779FE044BAC
:100CC8001B78FB73FB7B18461037BD4680BD00BF01
:100CD8000832012080B584B000AF0346FB71FB7970
:100CE8009BB21B029BB203F5804303339BB21846A9
:100CF8000121FFF75DFE044B1B78FB73FB7B184655
:100D08001037BD4680BD00BF0832012080B584B0D1
:100D180000AF0346FB71FB799BB21B029BB203F544
:100D2800804320339BB218460221FFF741FE084A50
:100D380007F10C0312881A803B7B1B029AB27B7B5B
:100D480013439BB29BB218461037BD4680BD00BF07
:100D58000832012080B584B000AF0346FB71FB79EF
:100D68009BB21B029BB203F5804324339BB2184607
:100D78000221FFF71DFE084A07F10C0312881A80AA
:100D88003B7B1B029AB27B7B13439BB29BB21846F8
:100D98001037BD4680BD00BF0832012080B584B041
:100DA80000AF0346FB71FB799BB21B029BB203F5B4
:100DB800804322339BB218460221FFF7F9FD084A07
:100DC80007F10C0312881A803B7B1B029AB27B7BCB
:100DD80013439BB29BB218461037BD4680BD00BF77
:100DE8000832012080B582B000AF02460B46FA7186
:100DF800BB80FB799BB21B029BB203F58043243373
:100E08009AB2BB8810461946FFF734FD0837BD462D
:100E180080BD00BF80B584B000AF0346FB71FB798D
:100E28009BB21B029BB203F5804326339BB2184644
:100E38000221FFF7BDFD084A07F10C0312881A804A
:100E48003B7B1B029AB27B7B13439BB29BB2184637
:100E58001037BD4680BD00BF0832012080B584B080
:100E680000AF0346FB71FB799BB21B029BB203F5F3
:100E7800804328339BB218460221FFF799FD084AA0
:100E880007F10C0312881A803B7B1B029AB27B7B0A
:100E980013439BB29BB218461037BD4680BD00BFB6
:100EA8000832012080B582B000AF02460B46FA71C5
:100EB800BB80FB799BB21B029BB203F580432833AE
:100EC8009AB2BB8810461946FFF7D4FC0837BD46CE
:100ED80080BD00BF80B586B000AFBA600246FA7325
:100EE8000A46BA81FB80BB89C3F30A03FB82FB7BFA
:100EF8009BB2DB009BB21B029AB2FB8A13449BB2E3
:100F0800A3F50043BB82FA8AFB881A44FB7B1B02C9
:100F180003F5804320339A422ADDFB7B9BB2DB003A
:100F28009BB21B029AB2FB8AD31A9BB2A3F5004369
:100F38007B82BA8A7B8A10461946BA68FFF712FC88
:100F48007B8ABA681344BB60FA887B8AD31A3B82CF
:100F5800FB7B9BB2DB009BB21B029BB2A3F5004359
:100F68009AB23B8A10461946BA68FFF7FBFB06E0BF
:100F7800BA8AFB8810461946BA68FFF7F3FB183798
:100F8800BD4680BD80B586B000AFBA600246FA7330
:100F98000A46BA81FB80BB89C3F30A03FB82FB7B49
:100FA8009BB2DB009BB21B029AB2FB8A13449BB232
:100FB800A3F58043BB82FA8AFB881344B3F5006F1C
:100FC8002FDDFB8AC3F500637B82BA8A7B8A1046D1
:100FD8001946FFF7EDFC7B8AB86819491A46FFF7EE
:100FE800F9F87B8ABA681344BB60FA887B8AD31AFB
:100FF8003B82FB7B9BB2DB009BB21B029BB2A3F53F
:1010080080439AB23B8A10461946FFF7D1FC7B8A87
:10101800BA681A443B8A104609491A46FFF7DAF8B3
:101028000BE0BA8AFB8810461946FFF7C1FCFB881B
:10103800B86803491A46FFF7CDF81837BD4680BD92
:101048000832012080B584B000AF13460246FA7119
:101058000A46BA80BB710023FB730CE0FB7B4C4A49
:10106800D35C002B04D1FB7B494A0121D15405E014
:10107800FB7B0133FB73FB7B072BEFD9FB7B072B38
:1010880001D9FF237FE0FB7903F00F03082B01DD73
:10109800FF2378E0FB7903F00F03022B05D0FB79DF
:1010A8005BB2002B01DAFF236DE0FB7903F00F033D
:1010B800012B06D0FB7903F02003002B01D0FF237E
:1010C80061E0FB7B9BB21B029BB203F580439AB2A3
:1010D800FB7910461946FFF71FFCFB7903F00F0355
:1010E800FB71FB79012B29DB022B02DD032B18D0C6
:1010F80024E0BB881B0A9BB2DBB23B73BB88DBB224
:101108007B73FB7B9BB21B029BB203F580430433CA
:101118009AB207F10C03104602211A46FFF722FB88
:101128000CE0FB7B9BB21B029BB203F5804314339C
:101138009AB2BB7910461946FFF7EEFBFB7B9BB2D0
:101148001B029BB203F5804301339BB21846012171
:10115800FFF7E2FB00BFFB7B1846FFF79FFD034646
:10116800002BF8D1FB7B1846FFF7B4FD0346132B81
:101178000CBF00230123DBB2BB73BB7B002B01D068
:10118800FF2300E0FB7B18461037BD4680BD00BF3B
:10119800800400202DE9F0438BB000AFB960014610
:1011A800F973BA81FB80FB7B1846FFF793FD034672
:1011B800BB84FB7B072B04D8FB7B564AD35C012BF3
:1011C80002D04FF0FF33A0E0BB68002B02D0BB89F0
:1011D800002B02D14FF0FF3397E0FB7B1846FFF757
:1011E80079FD0346172B01D000238EE004E0FB882D
:1011F800012B01D1002388E0FB7B1846FFF786FD11
:101208000346FB84FB8C002BF1D0FB7B1846FFF7D1
:10121800A1FD03467B84FA8CBB899A4201D9BB891C
:10122800FB84F97B7A8CFB8C08461146BA68FFF779
:1012380051FE7A8CFB8C13447B84FA7B7B8C1046A2
:101248001946FFF7CFFDFB7B1846FFF7A7FD0346BE
:101258003B84FB7B1846FFF77DFD0346FB837A8CB6
:101268003B8CD11A6B461E464B1EBB610B461A4679
:101278004FF000034FEAC30949EA52794FEAC2081E
:101288000B461A464FF00003DD0045EA5275D400BC
:101298000B460733DB08DB00ADEB030D6B46003371
:1012A8007B613B8CA3F500439AB2798C3B8CCB1ABB
:1012B8009BB210461946FFF77BFB7A69798C3B8C09
:1012C800CB1A104614491A46FEF784FFFB7B9BB2E3
:1012D8001B029BB203F5804301339BB218462021C1
:1012E800FFF71AFB00BFFB7B1846FFF7D7FC034646
:1012F800002BF8D100BFFB7B1846FFF74FFD0346D4
:101308007A8C9A42F7D1FB8CB54618462C37BD46E5
:10131800BDE8F083800400200832012080B584B045
:1013280000AF39600146F971BA80BB71FB79072BB0
:1013380004D8FB79314AD35C012B02D04FF0FF333C
:1013480057E03B68002B02D0BB88002B02D14FF03E
:10135800FF334EE0FB791846FFF7BCFC0346172B1A
:1013680001D0002345E004E0BB79012B01D1002323
:101378003FE0FB791846FFF74DFD0346FB81FB89EB
:10138800002BF1D0FB791846FFF768FD0346BB81B7
:10139800BA88FB899A4238BF13469BB2F979BA8951
:1013A800084611463A68FFF7EDFDBA89FB891344F0
:1013B800BB81FA79BB8910461946FFF773FDFB79A3
:1013C8009BB21B029BB203F5804301339BB21846C4
:1013D8004021FFF7A1FA00BFFB791846FFF75EFC32
:1013E8000346002BF8D1BA88FB899A4238BF1346C6
:1013F8009BB218461037BD4680BD00BF8004002050
:1014080080B584B000AF78607B68002B08DB7B6810
:10141800072B05DC224A7B6813441B78012B02D07A
:101428004FF0FF3338E07B68DBB21846FFF752FC19
:101438000346132B02D04FF0FF332DE07B689BB29D
:101448001B029BB203F5804302339BB2184601216D
:10145800FFF7AEFA134B1B78FB737B689BB21B023A
:101468009BB203F5804301339BB218460221FFF774
:1014780053FA00BF7B68DBB21846FFF70FFC034640
:10148800002BF7D100BF7B68DBB21846FFF722FCC0
:101498000346142BF7D1002318461037BD4680BDEC
:1014A800800400200832012080B582B000AF0423F8
:1014B800FB7136200121FFF77BFA154B1B78FB7176
:1014C800FB791B029BB203F5804302339BB218469B
:1014D8000121FFF76DFA0E4B1B78FB7144F20200F5
:1014E800FF21FFF719FAFB79022B0AD0042B02D04F
:1014F800012B08D008E0074B1B68184600F05EFF78
:1015080002E000BF00E000BF0837BD4680BD00BF55
:1015180008320120B841012080B500AF102004F046
:101528006FF90346002B04D0FFF7BEFF102004F02C
:101538004DF980BD80B58EB000AF7860002000F016
:10154800C3FE0B4B1B68DAB207F12003104619469D
:1015580014220023FFF7E2FE786307F1200207F167
:101568000C03104619460F2202F082FDE6E700BF81
:10157800F831012080B588B000AF2020012104F0A7
:10158800DDFC0420012104F0A1FC0420012104F069
:101598009DFC4020012104F099FCC023BB6102237B
:1015A8003B7703237B770023BB770123FB7707F186
:1015B80018032948194604F0A1F94FF48073BB6158
:1015C80001233B770023BB7703237B770123FB773A
:1015D80007F118032148194604F090F91F4B1F4AD8
:1015E800128B92B242F4807292B21A831A48062180
:1015F800082204F099FA18480721082204F094FAFE
:101608004FF41643BB600023BB810023FB810023FA
:101618003B820023BB820C237B8207F1080310481E
:10162800194604F07FFF0E4840F22551012205F0CB
:1016380033F947233B7109237B710623BB710123CF
:10164800FB713B1D184602F0F7FF0548012105F024
:10165800CFF82037BD4680BD000802400018024080
:101668000014014080B582B000AF234840F22551F4
:1016780005F0D0F90346002B33D01F4B9B889BB253
:10168800FB711E4B00221A601D4B1B781A461D4B1E
:101698001B689A4211DA1A4B1B78DBB25BB2002B3B
:1016A8000BDB174B1B78184AF979D154144B1B786C
:1016B8000133DAB2124B1A7013E0114B1B78124A3D
:1016C800F979D1540E4B00221A7002F06BF90F4BC6
:1016D8001B6818460021094A002301F075FD02F035
:1016E80071F9064B1B68002B03D0094B4FF0805251
:1016F8001A600837BD4680BD0014014088040020E8
:101708008C040020D4410120D8410120A8410120A7
:1017180004ED00E080B485B000AFF860B9607A608D
:10172800002318461437BD465DF8047B704700BF98
:101738002DE9F04391B000AFF860B9607A6007F125
:101748001803786801211A4602F018FDF86307F1BA
:101758001403786802211A4602F010FDB863F86B8A
:101768004949052205F006FB0346002B40F0868018
:101778007B69023BBA6B134400221A70B86B05F000
:101788001FFA03463B613B69092B02DD3B69642B69
:101798003FDD6B461E46B86B05F0BCFA03460B33BB
:1017A8007B62796A4B1E3B620B461A464FF0000378
:1017B8004FEAC30949EA52794FEAC2080B461A466A
:1017C8004FF00003DD0045EA5275D4000B4607339D
:1017D800DB08DB00ADEB030D6B460033FB61FA69F8
:1017E8003B69104629491A4600F026FA284BDAB216
:1017F800FB699A73274B1B68D9B2FA697B6A9BB25B
:10180800084611461A460023FFF7C4FC0023B546D4
:1018180035E03B69642202FB03F33B611E4B1A6807
:1018280007F11003104619464FF4FA72002301F02D
:101838001BFC0346002B10D1184B7B6319233B6319
:10184800144B1B68DAB23B6B9BB21046796B1A4695
:101858000023FFF79FFC012311E0114BFB621623C5
:10186800BB620C4B1B68DAB2BB6A9BB21046F96AC2
:101878001A460023FFF78EFC002300E000231846D9
:101888004437BD46BDE8F083207100082871000880
:1018980038710008F8310120FC3101203C71000842
:1018A8005871000880B483B000AF786039607B68F5
:1018B800002B09D07B681B683A68D2B21A707B6823
:1018C8001B685A1C7B681A600C37BD465DF8047BA0
:1018D800704700BF2DE9F04184B000AFF860B960EF
:1018E8007A603B60002420267B68002B19DD0025E8
:1018F800D7F8088002E0013508F1010898F80030AF
:10190800002BF8D17B689D4202DB00237B6002E05C
:101918007B685B1B7B603B6803F00203002B00D0F5
:1019280030263B6803F00103002B0BD107E0F86871
:101938003146FFF7B7FF01347B68013B7B607B686A
:10194800002BF4DC09E0BB681B78F8681946FFF740
:10195800A9FF0134BB680133BB60BB681B78002B4F
:10196800F1D107E0F8683146FFF79CFF01347B6846
:10197800013B7B607B68002BF4DC2346184610375C
:10198800BD46BDE8F08100BF2DE9F04389B000AF46
:10199800F860B9607A603B604FF000094FF00008CA
:1019A800BD68BB68002B0DD130233B7500237B75C8
:1019B80007F11403F86819463A6C7B6CFFF78AFF45
:1019C800034649E03B68002B0AD07B680A2B07D105
:1019D800BB68002B04DA4FF00109BB685B421D4667
:1019E80007F114040B340023237013E07B68B5FB64
:1019F800F3F203FB02F3EB1A1E46092E02DDBB6C61
:101A08003A3B1E44013CF3B23033DBB223707B68AF
:101A1800B5FBF3F5002DE9D1B9F1000F14D03B6CFB
:101A2800002B0ED07B6C03F00203002B09D0F86862
:101A38002D21FFF737FF08F101083B6C013B3B64A0
:101A480002E0013C2D232370F86821463A6C7B6C38
:101A5800FFF740FF0346434418462437BD46BDE818
:101A6800F08300BF2DE9F0418AB004AFF860B96097
:101A78007A600024CCE0BB681B78252B40F0BE8040
:101A8800BB680133BB6000263546BB681B78002B5A
:101A980000D1C2E0BB681B78252B00D1AEE0BB6843
:101AA8001B782D2B04D1BB680133BB60012605E0F0
:101AB80004E0BB680133BB6046F00206BB681B78D4
:101AC800302BF6D00BE02B469B002B445B001D46C9
:101AD800BB681B78303B1D44BB680133BB60BB68E7
:101AE8001B782F2B03D9BB681B78392BEBD9BB6824
:101AF8001B78732B13D17B681A1D7A601B68984674
:101B0800B8F1000F01D0434600E04A4BF868194687
:101B18002A463346FFF7DEFE03461C4475E0BB68E1
:101B28001B78642B03D0BB681B78692B10D17B68AA
:101B38001A1D7A601B680095019661220292F86866
:101B480019460A220123FFF71FFF03461C445CE0E5
:101B5800BB681B78782B10D17B681A1D7A601B68CC
:101B68000095019661220292F86819461022002316
:101B7800FFF70AFF03461C4447E0BB681B78582B55
:101B880010D17B681A1D7A601B6800950196412266
:101B98000292F868194610220023FFF7F5FE034663
:101BA8001C4432E0BB681B78752B10D17B681A1D6A
:101BB8007A601B680095019661220292F8681946BE
:101BC8000A220023FFF7E0FE03461C441DE0BB6821
:101BD8001B78632B19D17B681A1D7A601B68DBB2EE
:101BE8003B7500237B7507F11403F86819462A46EC
:101BF8003346FFF76FFE03461C4406E0BB681B78BC
:101C0800F8681946FFF74EFE0134BB680133BB6024
:101C1800BB681B78002B7FF42EAFFB68002B03D02A
:101C2800FB681B6800221A70234618461837BD4601
:101C3800BDE8F081707100080EB480B585B000AFC2
:101C4800786007F12003FB603B1D1846F969FA68C4
:101C5800FFF708FF034618461437BD46BDE8804025
:101C680003B0704780B483B000AF0346FB71094BE3
:101C780097F907205209F97901F01F01012000FAAC
:101C880001F1403243F822100C37BD465DF8047B61
:101C9800704700BF00E100E080B584B004AF00F0F9
:101CA80037F8144802F0B0F9134802F0ADF90120F2
:101CB8000421002201F096F90246104B1A600A200E
:101CC8000221002201F08EF902460D4B1A60012311
:101CD80000930C4B019300230293002303930A48BB
:101CE8000A4940F28A22002300F074F900F0B4FB9C
:101CF800FEE700BF6075000850750008FC31012040
:101D0800B0410120B84101203D150008CC71000800
:101D180080B584B004AF00F0AFF84FF4407002F023
:101D280061FCFEF7F1FAFFF725FC0223009300237C
:101D3800019300230293002303930448044940F2CB
:101D48008A22002300F046F9BD4680BDC50A000876
:101D5800D471000880B500AF064B1B685A1C054BB0
:101D68001A601C20FFF77EFF024B1B685A1E014BAE
:101D78001A6080BD9004002080B400AF0B4B1B6834
:101D88005A1C0A4B1A60094B1A68094B1B689A427D
:101D980003D9064B1A68064B1A60044B1B685A1E77
:101DA800024B1A60BD465DF8047B70479004002022
:101DB8009404002080B500AF064B1B685A1C054BE5
:101DC8001A601D20FFF74EFF024B1B685A1E014B7D
:101DD8001A6080BD9004002080B500AF01F004FEB9
:101DE800FEE700BF80B400AFBD465DF8047B7047D6
:101DF80080B582B000AF7860396001F0F5FDFEE78C
:101E080080B483B000AF786039600C37BD465DF8A8
:101E1800047B7047002100F004B8104B5B58435016
:101E280004310F480F4B42189A42FFF4F6AF0E4A9E
:101E380000F003B8002342F8043B0C4B9A42FFF42D
:101E4800F9AF0B48016841F47001016000F014F823
:101E580004F0BAFEFFF720FF70470000C4760008C0
:101E68000000002060040020600400205C42012083
:101E780088ED00E0FFF7FEBF80B500AF154B154AAF
:101E8800D2F8882042F47002C3F88820124B124A14
:101E9800126842F001021A600F4B00229A600E4A43
:101EA8000D4B1B6823F0847323F4803313600A4BB3
:101EB8000A4A5A60084B084A126822F480221A60BB
:101EC800054B0022DA6000F00BF8024B4FF000627D
:101ED8009A6080BD00ED00E0003802401030002418
:101EE80080B483B000AF00237B6000233B60354B98
:101EF800344A126842F480321A60324B1B6803F489
:101F080000333B607B6801337B603B68002B03D167
:101F18007B68B3F5A06FF0D12A4B1B6803F400333C
:101F2800002B02D001233B6001E000233B603B68AB
:101F3800012B42D1234B234A126C42F080521A647F
:101F4800214B214A126842F480421A601D4B1D4AF7
:101F580092689A601B4B1B4A926842F400429A604E
:101F6800184B184A926842F4A0529A60154B174AC7
:101F78005A60144B134A126842F080721A6000BF0C
:101F8800104B1B6803F00073002BF9D0104B40F284
:101F980004621A600B4B0B4A926822F003029A60A3
:101FA800084B084A926842F002029A6000BF054B4B
:101FB8009B6803F00C03082BF9D10C37BD465DF87C
:101FC800047B70470038024000700040194B4007FE
:101FD800003C024080B58AB002AFF860B9603B604F
:101FE8001346FB80FB68002B02D101F0FDFCFEE7E5
:101FF800BB6A042B02D901F0F7FCFEE7FB88184600
:10200800396B00F08FFEB861BB69002B72D0BB69D9
:102018001A6BFB8803F18043013B9B0013447B61EF
:102028007B6923F007037B617B6903F00703002BBF
:1020380002D001F0D9FCFEE7FB880093B869B968C3
:10204800BA6A7B6B00F078FD7869F9683A6801F044
:10205800D9FB0246BB691A60FB6A002B02D0FB6AF7
:10206800BA691A6001F09EFC2E4B1B685A1C2D4B56
:102078001A602D4B1B68002B09D12B4BBA691A60CB
:10208800284B1B68012B0FD100F09EFD0CE0274B5D
:102098001B68002B08D1244B1B68DA6ABB6A9A427A
:1020A80002D8214BBA691A60214B1B685A1C204B75
:1020B8001A601F4B1A68BB691A64BB69DA6A1D4B40
:1020C8001B689A4203D9BB69DA6A1A4B1A60BB6962
:1020D800DA6A13469B0013449B00174A1A44BB69EB
:1020E80004331046194601F007FB0123FB6101F098
:1020F80069FC02E04FF0FF33FB61FB69012B0BD158
:102108000A4B1B68002B07D0074B1B68DA6ABB6AAF
:102118009A4201D201F036FCFB6918462037BD46C9
:1021280080BD00BF70050020980400207C050020B9
:1021380090050020780500209C04002080B584B01C
:1021480000AF786001F02EFC7B68002B02D1194BA0
:102158001B6800E07B68FB60FB680433184601F0ED
:1021680027FBFB689B6A002B04D0FB6818331846D2
:1021780001F01EFBFB6804330F48194601F0BCFA56
:102188000E4B1B685A1C0D4B1A600D4B1B685A1CD2
:102198000B4B1A6001F016FC0A4B1B68002B06D08B
:1021A800044B1B68FA689A4201D101F0EBFB103727
:1021B800BD4680BD98040020440500205805002035
:1021C800900500207C05002080B586B000AF7860BF
:1021D800396000237B617B68002B02D101F004FC8D
:1021E800FEE73B68002B02D101F0FEFBFEE700F0A2
:1021F8006BF91F4B1B683B617B681A683B6813448B
:10220800FB607B681A683B699A420BD97B681A683D
:10221800FB689A4211D9FA683B699A420DD90123A1
:102228007B610AE07B681A68FB689A4203D8FA68FF
:102238003B699A4201D901237B617B68FA681A607D
:102248007B69002B08D00B4B1B680433184601F040
:10225800AFFAF86800F030FD00F044F9B860BB68E8
:10226800002B01D101F08EFB1837BD4680BD00BFA1
:10227800740500209804002080B584B000AF786011
:102288000023FB607B68002B12D000F01DF90C4B7B
:102298001A687B681344BB600A4B1B6804331846F2
:1022A80001F086FAB86800F007FD00F01BF9F86045
:1022B800FB68002B01D101F065FB1037BD4680BDDE
:1022C800740500209804002080B584B000AF7860C1
:1022D80001F068FB7B68002B02D11B4B1B6800E0F8
:1022E8007B68FB60FB680433184601F061FAFB6801
:1022F8009B6A002B04D0FB681833184601F058FA83
:10230800FB6804331148194601F0F6F901F05AFB4D
:102318000D4B1B68FA689A4212D10D4B1B68002BB3
:1023280002D001F02FFB0BE0084B1A68094B1B6821
:102338009A4203D1044B00221A6001E000F040FAEF
:102348001037BD4680BD00BF980400205C05002002
:102358007C0500207005002080B584B000AF78604F
:102368000023FB607B68BB607B68002B02D101F017
:102378003BFBFEE7BB685A690E4B9A4201D1012329
:1023880000E00023002B0FD0BB689A6A0A4B9A42E0
:102398000AD0BB689B6A002B01D1012300E000230F
:1023A800002B01D00123FB60FB6818461037BD469F
:1023B80080BD00BF5C0500203005002080B584B0DA
:1023C80000AF78607B68FB607B68002B02D101F06E
:1023D8000BFBFEE7FB68002B34D01C4B1B68FA682C
:1023E8009A422FD001F0DEFAF868FFF7B5FF0346EE
:1023F800012B25D1FB680433184601F0D9F9FB6895
:10240800DA6A134B1B689A4203D9FB68DA6A104BE5
:102418001A60FB68DA6A13469B0013449B000D4A56
:102428001A44FB6804331046194601F065F9FB6845
:10243800DA6A064B1B68DB6A9A4201D301F0A2FAFA
:1024480001F0C0FA1037BD4680BD00BF98040020D7
:10245800780500209C04002080B586B004AF0023D6
:10246800009300230193002302930023039312484F
:10247800124982220023FFF7ADFD78607B68012BAB
:1024880002D101F04BFB78607B68012B0AD101F087
:10249800ABFA0B4B01221A600A4B00221A6001F0BA
:1024A8000BFA05E07B68002B02D101F09DFAFEE7EC
:1024B8000837BD4680BD00BF1D2B0008E07100082D
:1024C8007C0500207405002080B400AF044B1B6815
:1024D8005A1C034B1A60BD465DF8047B704700BF69
:1024E8008005002080B582B000AF00237B60384BA8
:1024F8001B68002B02D101F077FAFEE701F052FACF
:10250800334B1B685A1E324B1A60314B1B68002B29
:1025180056D1304B1B68002B52D02FE02E4BDB6876
:10252800DB683B603B681833184601F041F93B68AB
:102538000433184601F03CF93B68DA6A274B1B68FC
:102548009A4203D93B68DA6A244B1A603B68DA6A14
:1025580013469B0013449B00214A1A443B680433EA
:102568001046194601F0C8F83B68DA6A1D4B1B682B
:10257800DB6A9A4202D31C4B01221A60164B1B6875
:10258800002BCBD1194B1B68002B11D00CE000F0AD
:1025980041F80346002B02D0134B01221A60134B5B
:1025A8001B685A1E114B1A60104B1B68002BEED18A
:1025B8000D4B1B68012B03D101237B6001F0E2F96D
:1025C80001F000FA7B6818460837BD4680BD00BF99
:1025D80080050020700500203005002078050020C7
:1025E8009C04002098040020880500208405002011
:1025F80080B582B000AF01F0D5F9054B1B687B6050
:1026080001F0E0F97B6818460837BD4680BD00BF79
:102618007405002080B586B000AF00237B615D4B58
:102628001B68002B40F0A4805B4B1B685A1C5A4B5C
:102638001A60594B1B683B613B69002B2ED1574BE5
:102648001B681B68002B02D001F0CEF9FEE7534B44
:102658001B68FB60524B1A68504B1A60504BFA6863
:102668001A60504B1B685A1C4E4B1A604B4B1B6828
:102678001B68002B01D1012300E00023002B04D0AC
:10268800494B4FF0FF321A6008E0444B1B68DB6887
:10269800DB68BB60BB685A68434B1A60424B1B68D7
:1026A8003A699A424FD33D4B1B681B68002B01D1F6
:1026B800012300E00023002B04D03B4B4FF0FF32F6
:1026C8001A6040E0354B1B68DB68DB68BB60BB68A1
:1026D8005B687B603A697B689A4203D2324B7A68BE
:1026E8001A6030E0BB680433184601F061F8BB6833
:1026F8009B6A002B04D0BB681833184601F058F8C1
:10270800BB68DA6A294B1B689A4203D9BB68DA6A44
:10271800264B1A60BB68DA6A13469B0013449B0079
:10272800234A1A44BB6804331046194600F0E4FFF4
:10273800BB68DA6A1F4B1B68DB6A9A4202D3012323
:102748007B61B0E7AFE71B4B1B68DA6A1849134691
:102758009B0013449B000B441B68012B01D90123E8
:102768007B61154B1B68002B09D1FFF7F3FA06E0D4
:10277800114B1B685A1C104B1A60FFF7EBFA0F4BF2
:102788001B68002B01D001237B617B691846183731
:10279800BD4680BD80050020740500202805002066
:1027A8002C0500208C05002004000020780500205E
:1027B8009C0400209804002084050020880500203F
:1027C80080B582B000AF354B1B68002B03D0344B6B
:1027D80001221A605EE0324B00221A60314B1B68FE
:1027E8001A68304B1B681B6B9A4208D82D4B1A6825
:1027F8002C4B1B68343310461946FFF7F9FA294B5E
:102808001B681B6B18462849142204F005FA034676
:10281800002B09D0234B1A68224B1B68343310460F
:102828001946FFF7E5FA0CE00BE0204B1B68002B7C
:1028380002D101F0D9F8FEE71C4B1B685A1E1B4B4E
:102848001A601A4B1A681A4913469B0013449B00D6
:102858000B441B68002BE8D0144B1A6813469B00E6
:1028680013449B00124A13447B607B685B685A6878
:102878007B685A607B685A687B6808339A4204D13F
:102888007B685B685A687B685A607B685B68DA6853
:10289800044B1A600837BD4680BD00BF8005002084
:1028A800880500209804002070750008780500202D
:1028B8009C04002080B584B000AF786039607B68E4
:1028C800002B02D101F090F8FEE7124B1B68183379
:1028D8007868194600F034FF0E4B1B68043318461D
:1028E80000F066FF3B68B3F1FF3F07D1094B1B6857
:1028F80004330948194600F0FFFE07E0074B1A6841
:102908003B681344FB60F86800F0D6F91037BD4601
:1029180080BD00BF980400205C05002074050020DD
:1029280080B584B000AF786039607B68002B02D135
:1029380001F05AF8FEE70C4B1B6818337868194603
:1029480000F0DAFE084B1B680433184600F030FF2D
:10295800064B1A683B681344FB60F86800F0ACF952
:102968001037BD4680BD00BF9804002074050020C4
:1029780080B584B000AF78607B68DB68DB68BB60DB
:10298800BB68002B02D101F02FF8FEE7BB681833B3
:10299800184600F00DFF1E4B1B68002B1DD1BB68AD
:1029A8000433184600F004FFBB68DA6A194B1B6849
:1029B8009A4203D9BB68DA6A164B1A60BB68DA6AAE
:1029C80013469B0013449B00134A1A44BB68043304
:1029D8001046194600F090FE05E0BB6818330F4812
:1029E800194600F089FEBB68DA6A0D4B1B68DB6A82
:1029F8009A4205D30123FB600A4B01221A6001E0C9
:102A08000023FB60FB6818461037BD4680BD00BF39
:102A180080050020780500209C0400203005002057
:102A2800980400208805002080B582B000AF786047
:102A38007B68002B02D100F0D7FFFEE7054B1A6830
:102A48007B681A60044B1A687B685A600837BD4671
:102A580080BD00BF8C0500207405002080B584B0BF
:102A680000AF786039607B68002B02D100F0BCFFB2
:102A7800FEE73B68002B02D100F0B6FFFEE700F04E
:102A880091FF1C4B1B68BB603B681B68B3F1FF3FA1
:102A980002D10023FB6026E07B681A68164B1B688E
:102AA8009A4207D07B685A68BB689A4202D80123C9
:102AB800FB6018E07B685B68BA68D21A3B681B68E1
:102AC8009A420ED23B681A687B685968BB68CB1A71
:102AD8001A443B681A607868FFF7A6FF0023FB607A
:102AE80001E00123FB6000F06DFFFB68184610371A
:102AF800BD4680BD740500208C05002080B400AF61
:102B0800034B01221A60BD465DF8047B704700BF85
:102B18008805002080B582B000AF786000F092F898
:102B2800044B1B68012B01D900F02CFFFFF75AF961
:102B3800F4E700BF9C04002080B586B000AFF860C1
:102B4800B9607A603B6000237B6112E0BA687B69F8
:102B580013441A78F9687B690B4430331A71BA68E0
:102B68007B6913441B78002B00D105E07B69013396
:102B78007B617B69092BE9D9FB68002283F83D203A
:102B88007B68042B01D904237B60FB687A68DA62CE
:102B9800FB687A689A64FB680433184600F0A0FD65
:102BA800FB681833184600F09BFDFB68FA681A6149
:102BB8007B68C3F10502FB689A61FB68FA685A6290
:102BC8001837BD4680BD00BF80B582B000AF002376
:102BD8007B600CE07A6813469B0013449B00114A03
:102BE8001344184600F05CFD7B6801337B607B680A
:102BF800042BEFD90C4800F053FD0C4800F050FDB1
:102C08000B4800F04DFD0B4800F04AFD0A4800F063
:102C180047FD0A4B044A1A60094B044A1A600837F0
:102C2800BD4680BD9C04002000050020140500203E
:102C380030050020440500205C0500202805002000
:102C48002C05002080B582B000AF28E0FFF73CFCDF
:102C5800164B1B68002B14BF00230123DBB27B60DB
:102C6800FFF740FC7B68002B19D100F09BFE0F4B4F
:102C7800DB68DB683B603B680433184600F098FD6E
:102C88000B4B1B685A1E0A4B1A600A4B1B685A1ECC
:102C9800084B1A6000F096FE386800F075F8054B8E
:102CA8001B68002BD2D10837BD4680BD44050020E3
:102CB800700500205805002080B582B000AF78600C
:102CC800134B1B687A685A60124B1B687A689A42E1
:102CD80009D2114B1A680E4B1B680433104619466B
:102CE80000F02EFD10E00D4B1A68094B1B680433E9
:102CF8001046194600F024FD094B1B687A689A4271
:102D080002D2074B7A681A600837BD4680BD00BFFB
:102D180098040020740500202C05002028050020B8
:102D28000400002080B584B000AF03463960FB8002
:102D38004C2001F0DBFAF860FB68002B1FD03B68E1
:102D4800002B06D1FB889B00184601F0CFFA0346FA
:102D580000E03B68FA681363FB681B6B002B05D126
:102D6800F86801F04FFB0023FB6008E0FB681A6B72
:102D7800FB889B001046A5211A4603F081FFFB68DB
:102D880018461037BD4680BD80B582B000AF786068
:102D98007B681B6B184601F035FB786801F032FB45
:102DA8000837BD4680BD00BF80B483B000AF054B77
:102DB8001B687B607B6818460C37BD465DF8047B52
:102DC800704700BF9804002080B483B000AF0B4B5D
:102DD8001B68002B02D100237B6008E0084B1B68AE
:102DE800002B02D101237B6001E002237B607B681A
:102DF80018460C37BD465DF8047B70477C050020FB
:102E08008005002080B584B000AF78607B68FB60E7
:102E18007B68002B46D0FB68DA6A244B1B68DB6AA8
:102E28009A423FD2214B1B68DB6AC3F10502FB685B
:102E38009A61FB685969FB68DA6A13469B00134478
:102E48009B001B4A1344994201D1012300E000234F
:102E5800002B22D0FB680433184600F0A9FC134B62
:102E68001B68DA6AFB68DA62FB68DA6A114B1B686E
:102E78009A4203D9FB68DA6A0E4B1A60FB68DA6A71
:102E880013469B0013449B00094A1A44FB68043309
:102E98001046194600F030FC04E0044B1B68DA6A5F
:102EA800FB68DA621037BD4680BD00BF9804002079
:102EB8009C0400207805002080B584B000AF7860BD
:102EC8007B68FB607B68002B2CD0FB68DA6AFB68A8
:102ED8009B6C9A4226D0FB680433184600F068FCC5
:102EE800FB689A6CFB68DA62FB68DB6AC3F105026F
:102EF800FB689A61FB68DA6A0C4B1B689A4203D933
:102F0800FB68DA6A094B1A60FB68DA6A13469B00A9
:102F180013449B00064A1A44FB68043310461946BA
:102F280000F0EAFB1037BD4680BD00BF78050020E1
:102F38009C04002080B584B000AF786039607B685D
:102F4800FB60FB68002B02D100F04EFDFEE700F0AD
:102F580029FDFB681A68FB68DB6BF968096C01FBE3
:102F680003F31A44FB685A60FB6800229A63FB6803
:102F78001A68FB689A60FB681A68FB68DB6B013BA0
:102F8800F968096C01FB03F31A44FB68DA60FB6813
:102F98004FF0FF325A64FB684FF0FF329A643B6887
:102FA800002B0ED1FB681B69002B14D0FB68103373
:102FB8001846FFF7DDFC0346012B0CD100F0E2FCBC
:102FC80009E0FB681033184600F06AFBFB682433FD
:102FD800184600F065FB00F0F5FC01231846103791
:102FE800BD4680BD80B588B000AFF860B9601346B3
:102FF800FB710023FB61FB68002B2AD0502001F0F5
:1030080075F9B861BB69002B23D0FB68BA6802FB6D
:1030180003F301337B61786901F068F90246BB6903
:103028001A60BB691B68002B10D0BB69FA68DA63A9
:10303800BB69BA681A64B8690121FFF77BFFBB69ED
:10304800FA7983F84D20BB69FB6102E0B86901F0A9
:10305800D9F9FB69002B02D100F0C6FCFEE7FB6939
:1030680018462037BD4680BD80B588B000AFF860EF
:10307800B9607A603B600023FB61FB68BB61BB6998
:10308800002B02D100F0B0FCFEE7BB68002B03D197
:10309800BB691B6C002B01D1012300E00023002B2E
:1030A80002D100F0A1FCFEE73B68022B03D1BB690B
:1030B800DB6B012B01D1012300E00023002B02D19F
:1030C80000F092FCFEE700F06DFCBB699A6BBB69EF
:1030D800DB6B9A4202D33B68022B16D1B869B968F8
:1030E8003A6800F0A9F9BB695B6A002B09D0BB6993
:1030F80024331846FFF73CFC0346012B01D100F0AE
:1031080041FC00F05FFC012359E07B68002B03D1F0
:1031180000F058FC002352E0FB69002B06D107F1B0
:1031280010031846FFF780FC0123FB6100F04AFCFE
:10313800FFF7CAF900F036FCBB695B6CB3F1FF3FDF
:1031480002D1BB6900225A64BB699B6CB3F1FF3F93
:1031580002D1BB6900229A6400F034FC07F1100226
:103168003B1D10461946FFF779FC0346002B1ED17C
:10317800B86900F051FA0346002B12D0BB6903F17D
:1031880010027B6810461946FFF794FBB86900F0F7
:10319800E1F9FFF7A7F90346002B0FD100F0F2FB86
:1031A8000CE0B86900F0D6F9FFF79CF98BE7B8692D
:1031B80000F0D0F9FFF796F9002300E083E71846FE
:1031C8002037BD4680BD00BF80B588B000AFF8602D
:1031D800B9607A603B60FB68BB61BB69002B02D1B8
:1031E80000F002FCFEE7BB68002B03D1BB691B6C37
:1031F800002B01D1012300E00023002B02D100F0B5
:10320800F3FBFEE73B68022B03D1BB69DB6B012BA9
:1032180001D1012300E00023002B02D100F0E4FBE0
:10322800FEE700F04FFC00F0DFFB7861BB699A6BAA
:10323800BB69DB6B9A4202D33B68022B24D1B86985
:10324800B9683A6800F0F8F8BB699B6CB3F1FF3FC6
:1032580012D1BB695B6A002B13D0BB6924331846B3
:10326800FFF786FB0346002B0BD07B68002B08D0AA
:103278007B6801221A6004E0BB699B6C5A1CBB691D
:103288009A640123FB6101E00023FB61786900F087
:10329800B5FBFB6918462037BD4680BD80B58AB0AE
:1032A80000AFF860B9607A603B6000237B62FB681E
:1032B8003B623B6A002B02D100F096FBFEE7BB683D
:1032C800002B03D13B6A1B6C002B01D1012300E0CA
:1032D8000023002B02D100F087FBFEE700F062FB21
:1032E8003B6A9B6B002B3BD03B6ADB68FB61386A0F
:1032F800B96800F009F93B68002B1CD13B6A9B6B4D
:103308005A1E3B6A9A633B6A1B68002B04D1FFF77D
:103318004BFD02463B6A5A603B6A1B69002B1BD077
:103328003B6A10331846FFF723FB0346012B13D1E2
:1033380000F028FB10E03B6AFA69DA603B6A5B6AD6
:10334800002B09D03B6A24331846FFF711FB0346CC
:10335800002B01D000F016FB00F034FB012366E0DF
:103368007B68002B03D100F02DFB00235FE07B6A14
:10337800002B06D107F114031846FFF755FB01236C
:103388007B6200F01FFBFFF79FF800F00BFB3B6A26
:103398005B6CB3F1FF3F02D13B6A00225A643B6A7F
:1033A8009B6CB3F1FF3F02D13B6A00229A6400F0A4
:1033B80009FB07F114023B1D10461946FFF74EFBA7
:1033C8000346002B2BD1386A00F010F90346002B76
:1033D8001FD03B6A1B68002B08D100F0E3FA3B6A58
:1033E8005B681846FFF70EFD00F0ECFA3B6A03F144
:1033F80024027B6810461946FFF75CFA386A00F029
:10340800A9F8FFF76FF80346002B0FD100F0BAFABE
:103418000CE0386A00F09EF8FFF764F85EE7386A57
:1034280000F098F8FFF75EF8002300E056E718462A
:103438002837BD4680BD00BF80B584B000AFF860B6
:10344800B9607A60FB681B6C002B0CD1FB681B68A9
:10345800002B51D1FB685B681846FFF72DFDFB6810
:1034680000225A6048E07B68002B1AD1FB689A68F2
:10347800FB681B6C1046B9681A46FCF7ABFEFB6884
:103488009A68FB681B6C1A44FB689A60FB689A6828
:10349800FB685B689A422FD3FB681A68FB689A60DE
:1034A8002AE0FB68DA68FB681B6C1046B9681A46A4
:1034B800FCF790FEFB68DA68FB681B6C5B421A44F9
:1034C800FB68DA60FB68DA68FB681B689A4207D217
:1034D800FB685A68FB681B6C5B421A44FB68DA603D
:1034E8007B68022B08D1FB689B6B002B04D0FB6820
:1034F8009B6B5A1EFB689A63FB689B6B5A1CFB68A4
:103508009A631037BD4680BD80B582B000AF786041
:1035180039607B681B68002B19D07B68DA687B6888
:103528001B6C1A447B68DA607B68DA687B685B68C6
:103538009A4203D37B681A687B68DA607B68DA682A
:103548007B681B6C386811461A46FCF743FE08373F
:10355800BD4680BD80B582B000AF786000F022FA29
:1035680014E07B685B6A002B0AD07B68243318461A
:10357800FFF7FEF90346002B03D0FFF7BFFA00E080
:1035880008E07B689B6C5A1E7B689A647B689B6C1E
:10359800002BE6DC7B684FF0FF329A6400F012FAE9
:1035A80000F000FA14E07B681B69002B0FD07B68E1
:1035B80010331846FFF7DCF90346002B01D0FFF75C
:1035C8009DFA7B685B6C5A1E7B685A6400E003E0D6
:1035D8007B685B6C002BE6DC7B684FF0FF325A643B
:1035E80000F0F0F90837BD4680BD00BF80B584B053
:1035F80000AF786000F0D6F97B689B6B002B02D196
:103608000123FB6001E00023FB6000F0DBF9FB68AD
:1036180018461037BD4680BD80B584B000AF7860CD
:1036280000F0C0F97B689A6B7B68DB6B9A4202D129
:103638000123FB6001E00023FB6000F0C3F9FB6895
:1036480018461037BD4680BD80B584B000AF78609D
:1036580039607B68FB6000F0A5F9FB685B6CB3F12F
:10366800FF3F02D1FB6800225A64FB689B6CB3F1F0
:10367800FF3F02D1FB6800229A6400F0A3F9FB68BF
:103688009B6B002B05D1FB68243318463968FFF77C
:1036980047F9F868FFF75EFF1037BD4680BD00BFE9
:1036A80080B483B000AF78607B6803F108027B6860
:1036B8005A607B684FF0FF329A607B6803F108021A
:1036C8007B68DA607B6803F108027B681A617B68B3
:1036D80000221A600C37BD465DF8047B704700BFB6
:1036E80080B483B000AF78607B6800221A610C3721
:1036F800BD465DF8047B704780B485B000AF786044
:1037080039607B685B68FB603B68FA685A60FB68F5
:103718009A683B689A60FB689B683A685A60FB68DD
:103728003A689A603B687A681A617B681B685A1C19
:103738007B681A601437BD465DF8047B704700BF8C
:1037480080B485B000AF786039603B681B68BB60A7
:10375800BB68B3F1FF3F03D17B681B69FB600CE0DA
:103768007B680833FB6002E0FB685B68FB60FB6812
:103778005B681A68BB689A42F6D9FB685A683B6866
:103788005A603B685B683A689A603B68FA689A6076
:10379800FB683A685A603B687A681A617B681B68FC
:1037A8005A1C7B681A601437BD465DF8047B704765
:1037B80080B485B000AF78607B685B687A6892688F
:1037C8009A607B689B687A6852685A607B681B6954
:1037D800FB60FB685A687B689A4203D17B689A68E9
:1037E800FB685A607B6800221A61FB681B685A1ED6
:1037F800FB681A60FB681B6818461437BD465DF8FD
:10380800047B704780B485B000AFF860B9607A6017
:10381800FB68043BFB60FB684FF080721A60FB6832
:10382800043BFB60BA68FB681A60FB68043BFB60FA
:103838000C4AFB681A60FB68143BFB607A68FB68FB
:103848001A60FB68043BFB60FB686FF002021A60B9
:10385800FB68203BFB60FB6818461437BD465DF8E3
:10386800047B70477138000880B500AF054B1B68B2
:10387800B3F1FF3F02D000F0B7F8FEE700F0B4F86C
:10388800FEE700BF08000020054B19680868B0E88B
:10389800F04F80F309884FF0000080F311887047DB
:1038A8009804002003480068006880F3088862B61E
:1038B80000DF00BF08ED00E080B584B000AF2B4BFF
:1038C800FB60FB681B78DBB2BB60FB68FF221A70E9
:1038D800FB681B78DBB2FB71FB79DBB203F05003AA
:1038E800DAB2234B1A70234B07221A6009E0214BE6
:1038F8001B685A1E1F4B1A60FB79DBB25B00DBB2F8
:10390800FB71FB79DBB2DBB25BB2002BEFDB194B4F
:103918001B681A02174B1A60164B1B6803F4E06207
:10392800144B1A60BB68DAB2FB681A70124B124A61
:10393800126842F470021A600F4B0F4A126842F084
:1039480070421A6000F09AF80C4B00221A6000F0DE
:10395800AFF80B4B0A4A126842F040421A60FFF770
:10396800A1FF002318461037BD4680BD00E400E0E3
:10397800940500209805002020ED00E008000020B4
:1039880034EF00E080B400AF054B4FF080521A606E
:10399800BFF34F8FBFF36F8FBD465DF8047B704751
:1039A80004ED00E080B500AF00F01EF8044B1B6882
:1039B8005A1C034B1A60BFF34F8FBFF36F8F80BD44
:1039C8000800002080B500AF064B1B685A1E054B47
:1039D8001A60044B1B68002B02D1002000F00EF87F
:1039E80080BD00BF08000020EFF311804FF05001A8
:1039F80081F3118870470023184600BF80F31188AF
:103A0800704700BFEFF30980114B1A681EF0100FC2
:103A180008BF20ED108A20E9F04F10602DE908401A
:103A28004FF0500080F31188FEF7CAFE4FF00000F7
:103A380080F31188BDE8084019680868B0E8F04FBD
:103A48001EF0100F08BFB0EC108A80F30988704789
:103A58009804002080B500AFFFF7C6FFFEF7DAFD37
:103A68000346002B03D0044B4FF080521A6000200D
:103A7800FFF7C4FF80BD00BF04ED00E080B400AFD5
:103A8800074B084A1168084AA2FB01029209013A49
:103A98001A60064B07221A60BD465DF8047B704722
:103AA80014E000E000000020D34D621010E000E0B8
:103AB800DFF80C00016841F47001016070470000F4
:103AC80088ED00E080B582B000AFEFF305837B603E
:103AD8007B680F2B0CD90D4A7B6813441B78FB704D
:103AE8000B4B1B78FA789A4202D2FFF77DFFFEE76C
:103AF800084B1B6803F4E062074B1B689A4202D923
:103B0800FFF772FFFEE70837BD4680BDF0E300E02F
:103B1800940500200CED00E09805002080B586B0E3
:103B280004AF00237B6000F045FA0F4B1B68002BA5
:103B38000FD0022300930023019300230293002354
:103B480003930A480A494FF482720023FEF742FAA7
:103B580078607B68002B02D1FFF746FFFEE77B68A1
:103B680018460837BD4680BDCC050020793C0008C2
:103B7800E871000880B588B000AFF860B9607A6075
:103B88003B600023FB611D4B1B68002B30D0BB68DA
:103B98003B617B687B61FB68BB613B68002B1CD188
:103BA800FFF712F90346012B0BD1144B1A6807F1E2
:103BB800100310461946BA6A0023FFF755FAF86150
:103BC80016E00E4B1A6807F110031046194600223A
:103BD8000023FFF749FAF8610AE0084B1A6807F171
:103BE8001003104619463A680023FFF7EDFAF8610A
:103BF800FB6918462037BD4680BD00BFCC050020B4
:103C080080B586B002AF78603960184B1B68DB68F6
:103C1800DB68FB60FB6804331846FFF7C9FDFB68E7
:103C2800DB69012B1BD1FB689A697B681344F86830
:103C380019463A687B6800F0A9F80346012B0ED1B3
:103C480000230093F86800217A680023FFF792FFA9
:103C5800B860BB68002B02D1FFF7C6FEFEE7FB6821
:103C68005B6AF86898471037BD4680BDC4050020D8
:103C780080B584B000AF786007F10803184600F0FB
:103C88003FF8F860BB68F868194600F003F800F0E0
:103C9800BFF8F1E780B584B000AF78603960FEF70F
:103CA80013FC07F10803184600F04EF8F860BB68EB
:103CB800002B1ED13B68002B0AD17A68FB689A4218
:103CC80006D8FEF70FFC7868F968FFF799FF12E04D
:103CD8000A4B1A687968FB68CB1A10461946FFF731
:103CE800B3FCFEF7FFFB0346002B04D1FFF74AFEA7
:103CF80001E0FEF7F7FB1037BD4680BDCC0500207C
:103D080080B485B000AF78600E4B1B681B68002B31
:103D180014BF00230123DBB21A467B681A607B6854
:103D28001B68002B05D1074B1B68DB681B68FB6011
:103D380001E00023FB60FB6818461437BD465DF8B8
:103D4800047B7047C405002080B584B000AF78605C
:103D5800FEF74EFCF8600C4B1B68FA689A4208D2D2
:103D6800094B1B68184600F0CBF87B6801221A60E3
:103D780002E07B6800221A60034BFA681A60FB684D
:103D880018461037BD4680BDD005002080B586B0E6
:103D980000AFF860B9607A603B6000237B61FB6824
:103DA800BA685A60FB68FA681A61BA687B689A420E
:103DB80012D87A683B68D21AFB689B699A4202D388
:103DC80001237B611BE0104B1A68FB680433104623
:103DD8001946FFF7B5FC12E07A683B689A4206D2AA
:103DE800BA683B689A4202D301237B6107E0074B1C
:103DF8001A68FB68043310461946FFF7A1FC7B6973
:103E080018461837BD4680BDC8050020C4050020E7
:103E180080B58AB002AF60E03B69FB61FB695B6912
:103E2800002B04D0FB6904331846FFF7C1FC3B1D87
:103E38001846FFF789FFB861BB68032B4CD801A26D
:103E480052F823F05D3E0008E13E0008AF3E00084E
:103E5800D93E0008FA68FB699B691A44FB68F8694F
:103E68001146BA69FFF792FF0346012B1AD1FB6985
:103E78005B6AF8699847FB69DB69012B12D1FA681C
:103E8800FB699B69134400220092F86900211A46D5
:103E98000023FFF76FFE78617B69002B02D1FFF7E3
:103EA800A3FDFEE719E0FA68FB699A61FB699B6963
:103EB800002B02D1FFF798FDFEE7FB699A69BB6901
:103EC8001344F8691946BA69BB69FFF75FFF04E054
:103ED800F86900F097FA00E000BF084B1A6807F18C
:103EE80008031046194600220023FFF7D7F90346B6
:103EF800002B91D12037BD4680BD00BFCC050020E6
:103F080080B58AB002AF78603DE0284B1B68DB685B
:103F18001B68FB61254B1B68DB68DB68BB61BB6901
:103F280004331846FFF744FCBB695B6AB8699847D5
:103F3800BB69DB69012B26D1BB699A69FB6913440C
:103F48007B617A69FB699A420ED9BB697A695A60C2
:103F5800BB69BA691A61154B1A68BB690433104604
:103F68001946FFF7EDFB0EE000230093B869002126
:103F7800FA690023FFF7FEFD38613B69002B02D187
:103F8800FFF732FDFEE7094B1B681B68002BBCD10D
:103F9800064B1B68FB60064B1A68044B1A60044BFF
:103FA800FA681A602037BD4680BD00BFC4050020EE
:103FB800C805002080B500AFFFF7F4FC0D4B1B6867
:103FC800002B13D10C48FFF76BFB0C48FFF768FB7D
:103FD8000B4B094A1A600B4B084A1A600A200C213D
:103FE8000022FEF7FFFF0246024B1A60FFF7EAFCC9
:103FF80080BD00BFCC0500209C050020B005002036
:10400800C4050020C805002080B584B000AF7860E2
:104018000023FB607B68002B02D1FFF7E5FCFEE77D
:10402800082000F063F9B860BB68002B02D1FFF7E5
:10403800DBFCFEE7BB68002B12D0FFF7B3FCBB68C4
:104048007A681A60BB6800225A60084B1B68BA6815
:104058005A60064BBA681A60FFF7B4FC0123FB608C
:10406800FB6818461037BD4680BD00BF140000200D
:1040780080B588B000AFF860B9607A600123FB6151
:104088003A4B1B68002B41D1384B394A1A6039E04A
:10409800364B1B681B681B68BB61B86902F03AFEA7
:1040A8007861FA687B6913441B785BB2202B05D0D2
:1040B800FA687B6913441B78002B1ED1F868B9692C
:1040C8007A6902F057FE0346002B16D1274B1B686E
:1040D8001B681B7B5BB2002B0EDBF86800F0D8F87E
:1040E80003461A46214B1B681B681B7B5BB29A422E
:1040F80002D00023FB6109E008E01C4B1B685A68EA
:104108001A4B1A60194B1B68002BC1D1174B1B683F
:10411800002B0BD0FB69002B08D1B86815497A68C9
:1041280002F082FE114B00221A601AE00F4B1B6846
:10413800002B0FD00D4B1B681B689B68B86879680B
:10414800FA689847F861FB69002B0AD1074B0022EF
:104158001A6006E0B86808497A6802F065FE00232C
:10416800FB61FB6918462037BD4680BDD405002099
:104178000C000020287200088072000880B487B004
:1041880000AFF860B9607A6000237B6100233B616F
:104198007B6800221A6041E002E0FB680133FB60A3
:1041A800FB681B78002B04D0FB681B785BB2202BC4
:1041B800F3D102E0FB680133FB60FB681B78002B3E
:1041C80004D0FB681B785BB2202BF3D0FB681B780C
:1041D800002B22D07B6901337B617A69BB689A42E4
:1041E8001CD1FB683B6107E07B681B685A1C7B6835
:1041F8001A60FB680133FB60FB681B78002B04D056
:10420800FB681B785BB2202BEED17B681B68002B08
:1042180002D100233B6105E004E003E07A69BB6852
:104228009A42B9D33B6918461C37BD465DF8047BF2
:10423800704700BF80B586B000AFF860B9607A609B
:10424800114B1B68002B02D10F4B104A1A600E4B02
:104258001B681B685B68F8681946BA6802F0E4FDD9
:10426800094B1B685A68084B1A60074B1B68002BE0
:1042780002D100237B6101E001237B617B69184641
:104288001837BD4680BD00BFD80500200C000020AF
:1042980080B485B000AF78600023FB730023BB6057
:1042A80012E07B681B785BB2202B08D1BB68012B1E
:1042B80007D0FB7B0133FB730123BB6001E00023C4
:1042C800BB607B6801337B607B681B78002BE8D17F
:1042D800BB68012B02D1FB7B013BFB73FB7B5BB211
:1042E80018461437BD465DF8047B704780B586B024
:1042F80000AF78600023FB60FEF7E6F83D4B1B68D3
:10430800002B01D100F0C8F83B4B1A687B681340BA
:10431800002B63D17B68002B0DD008237A681344E7
:104328007B607B6803F00703002B04D07B6823F0D5
:10433800070308337B607B68002B4FD02F4B1B682B
:104348007A689A424AD82E4B3B612D4B1B687B6199
:1043580004E07B693B617B691B687B617B695A6808
:104368007B689A4203D27B691B68002BF1D1214BF1
:104378001B687A699A4231D03B691A68082313444A
:10438800FB607B691A683B691A607B695A687B68BD
:10439800D21A08235B009A420FD97A697B681344C2
:1043A800BB607B695A687B68D21ABB685A607B69B4
:1043B8007A685A60B86800F0BDF8104B1A687B69D3
:1043C8005B68D21A0D4B1A607B695A680A4B1B68E6
:1043D8001A437B695A607B6900221A60FEF782F8EB
:1043E800FB68002B01D1FDF7F7FCFB68184618376E
:1043F800BD4680BDE4310120E831012018000020CD
:10440800DC31012080B584B000AF78607B68FB6048
:104418007B68002B38D008235B42FA681344FB60A2
:10442800FB68BB60BB685A68194B1B681340002BBC
:1044380002D1FFF7D9FAFEE7BB681B68002B02D050
:10444800FFF7D2FAFEE7BB685A68114B1B681340A6
:10445800002B19D0BB681B68002B15D1BB685A68A4
:104468000B4B1B68DB431A40BB685A60FEF72CF8FD
:10447800BB685A68074B1B681A44064B1A60B86831
:1044880000F058F8FEF72EF81037BD4680BD00BF83
:10449800E83101201800002080B584B000AF1F4B20
:1044A80023F00703FB601E4BFA681A601C4B0022BE
:1044B8005A601C4BFA681344BB6008235B42BA6815
:1044C8001344BB60184BBA681A60174B1B6803F09B
:1044D8000703002B02D0FFF787FAFEE7124B1B6891
:1044E80000225A60104B1B6800221A60FB687B6030
:1044F8000C4A0823D21A7B685A600B4B1A687B68EF
:104508001A600A4B1A680823D21A084B1A60084B1B
:104518004FF000421A601037BD4680BDE405002008
:10452800DC310120F82B0100E431012018000020C3
:10453800E831012080B485B000AF7860274BFB607C
:1045480002E0FB681B68FB60FB681A687B689A429C
:10455800F7D3FB68BB60FB685B68BA681A447B6882
:104568009A4208D1FB685A687B685B681A44FB6802
:104578005A60FB687B607B68BB607B685B68BA6875
:104588001A44FB681B689A4218D1FB681A68144BD6
:104598001B689A420DD07B685A68FB681B685B6889
:1045A8001A447B685A60FB681B681A687B681A6043
:1045B80008E00B4B1A687B681A6003E0FB681A680E
:1045C8007B681A60FA687B689A4202D0FB687A684E
:1045D8001A601437BD465DF8047B7047DC31012052
:1045E800E431012080B582B000AF78607B68B3F514
:1045F800E06F13D07B68B3F5C06F0FD07B68B3F55D
:10460800A06F0BD07B68B3F5806F07D07B68B3F5DC
:10461800407F03D006487321FDF7F2FB054A7B680B
:1046280043F0BF6343F40033D3600837BD4680BD11
:10463800D072000800ED00E080B584B000AF78606B
:104648000023FB730023BB730F237B737B68DB782A
:10465800002B07D07B68DB78012B03D030488721FB
:10466800FDF7CEFB7B685B780F2B03D92C4888219C
:10467800FDF7C6FB7B689B780F2B03D92848892157
:10468800FDF7BEFB7B68DB78002B37D0254BDB685A
:10469800DB4303F4E0631B0AFB73FB7BC3F10403F6
:1046A800BB737A7BFB7B42FA03F37B737B685B7893
:1046B8001A46BB7B02FA03F3FB737B689A787B7B11
:1046C8001340DAB2FB7B1343FB73FB7B1B01FB73C9
:1046D800154A7B681B781344FA7B83F80023124B36
:1046E8007A6812785209D2B27968097801F01F0104
:1046F800012000FA01F143F822100EE00A4B7A6813
:1047080012785209D2B27968097801F01F010120A4
:1047180000FA01F1203243F822101037BD4680BD5F
:10472800D072000800ED00E000E100E080B582B042
:1047380000AF78607A68724B9A423FD07A68714BC2
:104748009A423BD07A68704B9A4237D07A686F4B5E
:104758009A4233D07A686E4B9A422FD07A686D4B62
:104768009A422BD07A686C4B9A4227D07A686B4B66
:104778009A4223D07A686A4B9A421FD07A68694B6A
:104788009A421BD07A68684B9A4217D07A68674B6E
:104798009A4213D07A68664B9A420FD07A68654B72
:1047A8009A420BD07A68644B9A4207D07A68634B76
:1047B8009A4203D06248BF21FDF722FB7B681B6841
:1047C80023F001027B681A607B6800221A607B680C
:1047D80000225A607B6800229A607B680022DA60B7
:1047E8007B6800221A617B6821225A617A68444BEF
:1047F8009A4203D1534B3D229A607EE07A68414B3E
:104808009A4204D14F4B4FF474629A6075E07A680B
:104818003D4B9A4204D14B4B4FF474129A606CE0B2
:104828007A683A4B9A4204D1464B4FF074629A60C8
:1048380063E07A68364B9A4203D1424B424ADA60C7
:104848005BE07A68334B9A4203D13E4B3F4ADA60C9
:1048580053E07A68304B9A4203D13A4B3C4ADA60CB
:104868004BE07A682D4B9A4204D1364B4FF03D52BB
:10487800DA6042E07A682A4B9A4203D1354B3D22EE
:104888009A603AE07A68274B9A4204D1314B4FF448
:1048980074629A6031E07A68234B9A4204D12D4BB6
:1048A8004FF474129A6028E07A68204B9A4204D137
:1048B800284B4FF074629A601FE07A681C4B9A424A
:1048C80003D1244B204ADA6017E07A68194B9A42E0
:1048D80003D1204B1D4ADA600FE07A68164B9A42E2
:1048E80003D11C4B1A4ADA6007E07A68134B9A42E4
:1048F80003D1184B4FF03D52DA600837BD4680BDF2
:104908001060024028600240406002405860024047
:104918007060024088600240A0600240B8600240B7
:104928001064024028640240406402405864024017
:104938007064024088640240A0640240B864024087
:1049480018730008006002403D000020400F00205E
:1049580000003D200064024080B584B000AF78605C
:1049680039600023FB607A68984B9A4240D07A6895
:10497800974B9A423CD07A68964B9A4238D07A68DC
:10498800954B9A4234D07A68944B9A4230D07A68E0
:10499800934B9A422CD07A68924B9A4228D07A68E4
:1049A800914B9A4224D07A68904B9A4220D07A68E8
:1049B8008F4B9A421CD07A688E4B9A4218D07A68EC
:1049C8008D4B9A4214D07A688C4B9A4210D07A68F0
:1049D8008B4B9A420CD07A688A4B9A4208D07A68F4
:1049E800894B9A4204D089484FF49E71FDF708FA22
:1049F8003B681B68002B27D03B681B68B3F1007F1E
:104A080022D03B681B68B3F1806F1DD03B681B68E0
:104A1800B3F1C06F18D03B681B68B3F1006F13D0B7
:104A28003B681B68B3F1206F0ED03B681B68B3F17D
:104A3800406F09D03B681B68B3F1606F04D07348BE
:104A480040F23D11FDF7DCF93B68DB68002B0CD028
:104A58003B68DB68402B08D03B68DB68802B04D0C0
:104A68006A484FF49F71FDF7CBF93B681B69002B2F
:104A780004D03B681B69B3F5803F04D3634840F218
:104A88003F11FDF7BDF93B685B69B3F5007F08D0BE
:104A98003B685B69002B04D05C484FF4A071FDF7BC
:104AA800AFF93B689B69B3F5806F08D03B689B6999
:104AB800002B04D0554840F24111FDF7A1F93B689D
:104AC800DB69002B0ED03B68DB69B3F5006F09D0BA
:104AD8003B68DB69B3F5805F04D04C484FF4A171A3
:104AE800FDF78EF93B681B6A002B0ED03B681B6AEA
:104AF800B3F5005F09D03B681B6AB3F5804F04D05B
:104B0800424840F24311FDF77BF93B685B6A002B92
:104B180009D03B685B6AB3F5807F04D03B484FF40B
:104B2800A271FDF76DF93B689B6A002B13D03B68B7
:104B38009B6AB3F5803F0ED03B689B6AB3F5003F94
:104B480009D03B689B6AB3F5403F04D02F4840F238
:104B58004511FDF755F93B68DB6A002B08D03B6827
:104B6800DB6A042B04D029484FF4A371FDF748F9F8
:104B78003B681B6B002B10D03B681B6B012B0CD0C8
:104B88003B681B6B022B08D03B681B6B032B04D0C4
:104B98001E4840F24711FDF733F93B685B6B002B69
:104BA80036D03B685B6BB3F5000F31D03B685B6B6D
:104BB800B3F1807F2CD03B685B6BB3F1C07F27D00B
:104BC80012484FF4A471FDF71BF921E01060024070
:104BD8002860024040600240586002407060024015
:104BE80088600240A0600240B86002401064024041
:104BF80028640240406402405864024070640240E5
:104C080088640240A0640240B86402401873000837
:104C18003B689B6B002B13D03B689B6BB3F5001F65
:104C28000ED03B689B6BB3F5800F09D03B689B6B3C
:104C3800B3F5C00F04D0284840F24911FDF7E0F859
:104C48007B681B68FB60FA68244B1340FB603B6879
:104C58001A683B68DB681A433B685B691A433B6820
:104C68009B691A433B68DB691A433B681B6A1A4312
:104C78003B685B6A1A433B689B6A1A433B685B6BF9
:104C88001A433B689B6B1343FA681343FB607B68CA
:104C9800FA681A607B685B69FB60FB6823F00703AE
:104CA800FB603B68DA6A3B681B6B1343FA68134383
:104CB800FB607B68FA685A613B681A697B685A60CE
:104CC8003B685A687B689A603B689A687B68DA60D8
:104CD8001037BD4680BD00BF187300083F801CF028
:104CE80080B483B000AF78607B6800221A607B686C
:104CF80000225A607B6800229A607B680022DA6092
:104D08007B6800221A617B6800225A617B68002256
:104D18009A617B680022DA617B6800221A627B68EC
:104D280000225A627B6800229A627B680022DA625B
:104D38007B6800221A637B6800225A637B68002222
:104D48009A630C37BD465DF8047B704780B582B026
:104D580000AF78600B46FB707A68314B9A4240D0BE
:104D68007A68304B9A423CD07A682F4B9A4238D0B6
:104D78007A682E4B9A4234D07A682D4B9A4230D0BA
:104D88007A682C4B9A422CD07A682B4B9A4228D0BE
:104D98007A682A4B9A4224D07A68294B9A4220D0C2
:104DA8007A68284B9A421CD07A68274B9A4218D0C6
:104DB8007A68264B9A4214D07A68254B9A4210D0CA
:104DC8007A68244B9A420CD07A68234B9A4208D0CE
:104DD8007A68224B9A4204D0214840F2D911FDF753
:104DE8000FF8FB78002B07D0FB78012B04D01C4868
:104DF8004FF4ED71FDF704F8FB78002B06D07B68C3
:104E08001B6843F001027B681A6005E07B681B6839
:104E180023F001027B681A600837BD4680BD00BFD9
:104E28001060024028600240406002405860024022
:104E38007060024088600240A0600240B860024092
:104E480010640240286402404064024058640240F2
:104E58007064024088640240A0640240B864024062
:104E68001873000880B582B000AF78600B467B806D
:104E78007A68254B9A4240D07A68244B9A423CD0B3
:104E88007A68234B9A4238D07A68224B9A4234D0B7
:104E98007A68214B9A4230D07A68204B9A422CD0BB
:104EA8007A681F4B9A4228D07A681E4B9A4224D0BF
:104EB8007A681D4B9A4220D07A681C4B9A421CD0C3
:104EC8007A681B4B9A4218D07A681A4B9A4214D0C7
:104ED8007A68194B9A4210D07A68184B9A420CD0CB
:104EE8007A68174B9A4208D07A68164B9A4204D0CF
:104EF800154840F27521FCF783FF7A887B685A6071
:104F08000837BD4680BD00BF1060024028600240DF
:104F18004060024058600240706002408860024071
:104F2800A0600240B8600240106402402864024059
:104F38004064024058640240706402408864024041
:104F4800A0640240B86402401873000880B584B0B9
:104F580000AF78600023FB737A682A4B9A4240D0EE
:104F68007A68294B9A423CD07A68284B9A4238D0C2
:104F78007A68274B9A4234D07A68264B9A4230D0C6
:104F88007A68254B9A422CD07A68244B9A4228D0CA
:104F98007A68234B9A4224D07A68224B9A4220D0CE
:104FA8007A68214B9A421CD07A68204B9A4218D0D2
:104FB8007A681F4B9A4214D07A681E4B9A4210D0D6
:104FC8007A681D4B9A420CD07A681C4B9A4208D0DA
:104FD8007A681B4B9A4204D01A4840F2A231FCF777
:104FE8000FFF7B681B6803F00103002B02D001232D
:104FF800FB7301E00023FB73FB7B18461037BD46AB
:1050080080BD00BF1060024028600240406002403E
:10501800586002407060024088600240A060024010
:10502800B8600240106402402864024040640240B4
:10503800586402407064024088640240A0640240E0
:10504800B86402401873000880B584B000AFF860F7
:10505800B9601346FB71FA68454B9A4240D0FA682A
:10506800444B9A423CD0FA68434B9A4238D0FA688B
:10507800424B9A4234D0FA68414B9A4230D0FA688F
:10508800404B9A422CD0FA683F4B9A4228D0FA6893
:105098003E4B9A4224D0FA683D4B9A4220D0FA6897
:1050A8003C4B9A421CD0FA683B4B9A4218D0FA689B
:1050B8003A4B9A4214D0FA68394B9A4210D0FA689F
:1050C800384B9A420CD0FA68374B9A4208D0FA68A3
:1050D800364B9A4204D0364840F24F41FCF790FED6
:1050E800BB6823F09E03002B02D1BB68002B04D1C0
:1050F8002F484FF48A61FCF783FEFB79002B07D019
:10510800FB79012B04D02A4840F25141FCF778FE84
:10511800BB6803F08003002B0FD0FB79002B06D06F
:10512800FB685B6943F08002FB685A6105E0FB6835
:105138005B6923F08002FB685A61BB68802B14D03E
:10514800FB79002B08D0FB681A68BB6803F01E03C4
:105158001A43FB681A6008E0FB681A68BB6803F02A
:105168001E03DB431A40FB681A601037BD4680BD3A
:1051780010600240286002404060024058600240CF
:105188007060024088600240A0600240B86002403F
:10519800106402402864024040640240586402409F
:1051A8007064024088640240A0640240B86402400F
:1051B8001873000880B586B000AF786039600023A6
:1051C800FB750023FB600023BB607A68974B9A420B
:1051D80040D07A68964B9A423CD07A68954B9A426E
:1051E80038D07A68944B9A4234D07A68934B9A4272
:1051F80030D07A68924B9A422CD07A68914B9A4276
:1052080028D07A68904B9A4224D07A688F4B9A4279
:1052180020D07A688E4B9A421CD07A688D4B9A427D
:1052280018D07A688C4B9A4214D07A688B4B9A4281
:1052380010D07A688A4B9A420CD07A68894B9A4285
:1052480008D07A68884B9A4204D0884840F287414F
:10525800FCF7D6FD3A68864B9A4200F0A9803A6876
:10526800844B9A4200F0A4803A68834B9A4200F03B
:105278009F803A68814B9A4200F09A803A68804B46
:105288009A4200F095803A687E4B9A4200F09080EE
:105298003A687D4B9A4200F08B803A687B4B9A4281
:1052A80000F086803A687A4B9A4200F081803A682A
:1052B800784B9A427CD03A68774B9A4278D03A68D1
:1052C800764B9A4274D03A68754B9A4270D03A68D5
:1052D800744B9A426CD03A68734B9A4268D03A68D9
:1052E800724B9A4264D03A68714B9A4260D03A68DD
:1052F800704B9A425CD03A686F4B9A4258D03A68E1
:105308006E4B9A4254D03A686D4B9A4250D03A68E4
:105318006C4B9A424CD03A686B4B9A4248D03A68E8
:105328006A4B9A4244D03A68694B9A4240D03A68EC
:10533800684B9A423CD03A68674B9A4238D03A68F0
:10534800664B9A4234D03A68654B9A4230D03A68F4
:10535800644B9A422CD03A68634B9A4228D03A68F8
:10536800624B9A4224D03A68614B9A4220D03A68FC
:10537800604B9A421CD03A685F4B9A4218D03A6800
:105388005E4B9A4214D03A685D4B9A4210D03A6804
:105398005C4B9A420CD03A685B4B9A4208D03A6808
:1053A8005A4B9A4204D031484FF49161FCF728FDDA
:1053B8007A68574B9A4202D8564B3B6101E0564BEC
:1053C8003B613B6823F0F02323F0C313002B0AD082
:1053D8003B68DB0A03F01E03FB607B681A68FB6806
:1053E8001340BB6004E07B685B6903F08003BB602B
:1053F8003B6803F00053002B03D03B695B68FB60FC
:1054080002E03B691B68FB60FB6823F0F02323F094
:105418008213FB60FA683B681340002B7ED0BB68A0
:10542800002B7BD00123FB757AE000BF106002409F
:1054380028600240406002405860024070600240AC
:1054480088600240A0600240B860024010640240D8
:10545800286402404064024058640240706402407C
:1054680088640240A0640240B864024018730008CF
:1054780020800010104000100820001004100010B8
:105488000100009000880010004400100022001065
:105498000011001040000090008020100040101003
:1054A800002008100010041000000190008000186F
:1054B800004000140020001200100011000040906D
:1054C8002080002010400020082000200410002028
:1054D800010000A0008800200044002000220020D5
:1054E80000110020400000A0008020200040102073
:1054F8000020082000100420000001A000800028DF
:10550800004000240020002200100021000040A0DC
:105518000F64024000600240006402400023FB75F3
:10552800FB7D18461837BD4680BD00BF80B584B0E6
:1055380000AF786039607A683D4B9A4240D07A680B
:105548003C4B9A423CD07A683B4B9A4238D07A68B6
:105558003A4B9A4234D07A68394B9A4230D07A68BA
:10556800384B9A422CD07A68374B9A4228D07A68BE
:10557800364B9A4224D07A68354B9A4220D07A68C2
:10558800344B9A421CD07A68334B9A4218D07A68C6
:10559800324B9A4214D07A68314B9A4210D07A68CA
:1055A800304B9A420CD07A682F4B9A4208D07A68CE
:1055B8002E4B9A4204D02E4840F2D741FCF720FCEB
:1055C8003B6803F04053B3F1405F0CD03B6803F0F5
:1055D8004053002B07D03B68002B04D03A68254B7A
:1055E8001340002B04D022484FF49B61FCF708FCC1
:1055F8007A68214B9A4202D8204BFB6001E0204B8D
:10560800FB603B6803F00053002B07D03B6823F096
:10561800F02323F08213FA68D36006E03B6823F096
:10562800F02323F08213FA6893601037BD4680BDDB
:10563800106002402860024040600240586002400A
:105648007060024088600240A0600240B86002407A
:1056580010640240286402404064024058640240DA
:105668007064024088640240A0640240B86402404A
:1056780018730008820082400F64024000600240F4
:105688000064024080B584B000AF78600023FB60FE
:105698007B681B79002B07D07B681B79042B03D010
:1056A80048487C21FCF7ACFB7B685B79082B0BD066
:1056B8007B685B790C2B07D07B685B79102B03D058
:1056C80040487D21FCF79CFB7B681B68DB0DDB05F4
:1056D800002B03D17B681B68002B03D139487E213E
:1056E800FCF78EFB7B689B79002B07D07B689B7946
:1056F800012B03D033487F21FCF782FB324BFB6040
:105708007B689B79002B4DD02F4B2F4A11687A6804
:105718001268D2430A401A602B4B2B4A51687A68A8
:105728001268D2430A405A607B681B79FA681344AE
:10573800FB60FB68FA6811687A6812680A431A60A5
:10574800214B214A91687A681268D2430A409A60CC
:105758001D4B1D4AD1687A681268D2430A40DA6044
:105768007B685B79102B0ED1174B174A91687A68C2
:1057780012680A439A60144B134AD1687A6812680F
:105788000A43DA601BE0104BFB607B685B79FA68C0
:105798001344FB60FB68FA6811687A6812680A4368
:1057A8001A600CE07B681B79FA681344FB60FB689D
:1057B800FA6811687A681268D2430A401A6010378A
:1057C800BD4680BD68730008003C014080B582B0CA
:1057D80000AF78607B68DB0DDB05002B02D17B68AE
:1057E800002B03D10448F621FCF70AFB034B7A6827
:1057F8005A610837BD4680BD68730008003C014007
:1058080080B584B000AF78600023FB730023BB60D1
:105818007B68012B55D07B68022B52D07B68042B08
:105828004FD07B68082B4CD07B68102B49D07B6805
:10583800202B46D07B68402B43D07B68802B40D000
:105848007B68B3F5807F3CD07B68B3F5007F38D0A8
:105858007B68B3F5806F34D07B68B3F5006F30D0C8
:105868007B68B3F5805F2CD07B68B3F5005F28D0E8
:105878007B68B3F5804F24D07B68B3F5004F20D008
:105888007B68B3F5803F1CD07B68B3F5003F18D028
:105898007B68B3F5802F14D07B68B3F5002F10D048
:1058A8007B68B3F5801F0CD07B68B3F5001F08D068
:1058B8007B68B3F5800F04D00E484FF48371FCF772
:1058C8009FFA0D4B1A687B681340BB600A4B5A69F4
:1058D8007B681340002B05D0BB68002B02D0012346
:1058E800FB7301E00023FB73FB7B18461037BD46B2
:1058F80080BD00BF68730008003C014080B586B0D9
:1059080000AF7860396000237B6100233B6100238E
:10591800FB607A687A4B9A4223D07A68794B9A422C
:105928001FD07A68784B9A421BD07A68774B9A4294
:1059380017D07A68764B9A4213D07A68754B9A4298
:105948000FD07A68744B9A420BD07A68734B9A429C
:1059580007D07A68724B9A4203D07248BB21FCF791
:105968004FFA3B681B68002B03D16E48BC21FCF73B
:1059780047FA3B681B79002B0FD03B681B79012B3A
:105988000BD03B681B79022B07D03B681B79032B94
:1059980003D06448BD21FCF733FA3B68DB79002B60
:1059A8000BD03B68DB79012B07D03B68DB79022BF6
:1059B80003D05C48BE21FCF723FA00237B6197E003
:1059C8007B69012202FA03F33B613B681A683B6971
:1059D8001340FB60FA683B699A4240F086807B6816
:1059E8001A687B695B00032101FA03F3DB431A4061
:1059F8007B681A607B681A683B681B7919467B6963
:105A08005B0001FA03F31A437B681A603B681B7951
:105A1800012B03D03B681B79022B4ED13B685B7985
:105A2800002B0FD03B685B79012B0BD03B685B796F
:105A3800022B07D03B685B79032B03D03948D02170
:105A4800FCF7DEF97B689A687B695B00032101FA41
:105A580003F3DB431A407B689A607B689A683B686B
:105A68005B7919467B695B0001FA03F31A437B688B
:105A78009A603B689B79002B07D03B689B79012B88
:105A880003D02848D721FCF7BBF97B685A687B69A3
:105A98009BB2012101FA03F3DB431A407B685A6089
:105AA8007B685A683B689B7919467B699BB201FA07
:105AB80003F39BB21A437B685A607B68DA687B6998
:105AC8009BB25B00032101FA03F3DB431A407B68B6
