:020000040800F2
:100000000000022061350008C1350008C135000834
:10001000C1350008C1350008C135000800000000E6
:100020000000000000000000000000005552000821
:10003000C135000800000000D15300082154000819
:10004000C1350008C1350008C1350008C1350008B8
:10005000C1350008C1350008C1350008C1350008A8
:10006000C1350008C135000841160008C135000837
:10007000C1350008C1350008C1350008C135000888
:10008000C1350008C1350008C1350008C135000878
:10009000C1350008C1350008C1350008C135000868
:1000A000C1350008C1350008C1350008C135000858
:1000B00001350008C5340008C1350008C135000805
:1000C000C1350008C1350008C1350008C135000838
:1000D000C1350008C1350008C1350008C135000828
:1000E000C1350008C1350008C1350008C135000818
:1000F000C1350008C1350008C1350008C135000808
:10010000C1350008C1350008C1350008C1350008F7
:10011000C1350008C1350008C1350008C1350008E7
:10012000C1350008C135000835060008D1060008B1
:10013000C1350008C1350008C1350008C1350008C7
:10014000C1350008C1350008C1350008C1350008B7
:10015000C1350008C1350008C13500086D19000817
:10016000C1350008C1350008C1350008C135000897
:10017000C1350008C1350008C1350008C135000887
:08018000C1350008C13500087B
:1001880010B5054C237833B9044B13B10448AFF3C9
:1001980000800123237010BD7004002000000000BF
:1001A800DC9C000808B5064B1BB106480649AFF3AE
:1001B80000800648036813B1054B03B1984708BD92
:1001C80000000000DC9C000874040020700400207B
:1001D80000000000844641EA000313F003036DD1D8
:1001E800403A41D351F8043B40F8043B51F8043BF2
:1001F80040F8043B51F8043B40F8043B51F8043BF9
:1002080040F8043B51F8043B40F8043B51F8043BE8
:1002180040F8043B51F8043B40F8043B51F8043BD8
:1002280040F8043B51F8043B40F8043B51F8043BC8
:1002380040F8043B51F8043B40F8043B51F8043BB8
:1002480040F8043B51F8043B40F8043B51F8043BA8
:1002580040F8043B51F8043B40F8043B51F8043B98
:1002680040F8043B403ABDD2303211D351F8043B38
:1002780040F8043B51F8043B40F8043B51F8043B78
:1002880040F8043B51F8043B40F8043B103AEDD2E7
:100298000C3205D351F8043B40F8043B043AF9D238
:1002A800043208D0D2071CBF11F8013B00F8013B0B
:1002B80001D30B8803806046704700BF082A13D318
:1002C8008B078DD010F003038AD0C3F10403D21A30
:1002D800DB071CBF11F8013B00F8013B80D331F864
:1002E800023B20F8023B7BE7043AD9D3013A11F8E4
:1002F800013B00F8013BF9D20B7803704B7843704F
:100308008B7883706046704780B59AB000AF012043
:10031800012107F08BFC0120012107F087FC012057
:10032800012107F083FC80233B66022387F86430B1
:10033800002387F86630032387F86530022387F89F
:10034800673007F16003B148194607F087F92023A1
:100358003B66022387F86430002387F8663003235E
:1003680087F86530022387F8673007F16003A748EC
:10037800194607F073F940233B66022387F8643077
:10038800012387F86630032387F86530002387F850
:10039800673007F160039D48194607F05FF99B48ED
:1003A8000621052207F070FA98480721052207F070
:1003B8006BFA96480521052207F066FA0420012108
:1003C80007F034FC0420012107F030FC10233B66C1
:1003D800012387F86430002387F86630032387F801
:1003E8006530012387F8673007F1600387481946AD
:1003F80007F034F9854B854A128B92B242F010020D
:1004080092B21A8320233B66012387F864300023C5
:1004180087F86630032387F86530012387F867304B
:1004280007F160037A48194607F018F9784B784ABB
:10043800128B92B242F0200292B21A834FF480508B
:10044800012107F02BFC0023A7F84C304FF48273EE
:10045800A7F84E300023A7F850300023A7F85230F1
:100468000023A7F854304FF44073A7F856300823F8
:10047800A7F858300023A7F85A3007F14C0365480D
:10048800194607F043FC6348012107F031FD4FF49A
:100498008000012107F0CAFB5F4805F0F7FF5F48BD
:1004A80005F0F4FF00BF5C4806F000FC0346002B93
:1004B800F9D100BF594806F0F9FB0346002BF9D1E2
:1004C80007F11003184606F0BBFA00233B634FF40C
:1004D8008063BB6200237B63514B7B610023BB6459
:1004E8000023FB6200237B624FF40033BB634FF0B1
:1004F800C0633B614023FB614A4BBB614FF4FA6325
:100508003B6207F110034448194606F0D5F84FF04E
:10051800C0633B610023FB61434BBB614FF4FA634B
:100528003B6207F110033D48194606F0C5F83A4802
:100538001021012206F038FC38481021012206F06B
:1005480033FC3448022107F0D1FD3248012107F07D
:10055800CDFD3B233B7307237B730123BB7301232F
:10056800FB7307F10C03184605F016FF3A233B739B
:1005780007237B730123BB730123FB7307F10C0370
:10058800184605F009FF23480221012207F0F2FC72
:1005980020480121012207F0EDFC10233B660023CF
:1005A80087F86430002387F86630002387F86730BF
:1005B800032387F8653007F160031548194607F0EB
:1005C8004DF84FF48040012107F068FB0220042118
:1005D80007F0C6FD10237B6000233B720C237B725F
:1005E8000123BB723B1D184606F0FCFE0A233B7034
:1005F80009237B700323BB700123FB703B4618461D
:1006080005F0CAFE6837BD4680BD00BF0000024045
:100618000008024000300140586402404064024033
:100628000C3001404C3A01207432012080B582B070
:1006380000AF00237B601D481D4906F06BFC034694
:10064800002B28D019481A4906F020FE00BF194887
:10065800802107F0EDFC0346012BF8D0164B164A13
:10066800128B92B242F0100292B21A831348002100
:1006780006F01CFA0D48002106F018FA04F074FE82
:100688000F4B1A683B1D104600211A46002304F040
:100698007DFA04F079FE7B68002B03D0094B4FF0FC
:1006A80080521A600837BD4680BD00BF40640240D2
:1006B80000802010003001400000024058640240D1
:1006C8006032012004ED00E080B582B000AF002365
:1006D8007B601D481D4906F01DFC0346002B28D0F1
:1006E80019481A4906F0D2FD00BF1948802107F0C1
:1006F8009FFC0346012BF8D0164B164A128B92B278
:1007080042F0100292B21A830F48002106F0CEF987
:100718001148002106F0CAF904F026FE0F4B1A68AA
:100728003B1D104600211A46002304F02FFA04F05E
:100738002BFE7B68002B03D0094B4FF080521A60C8
:100748000837BD4680BD00BF5864024000800018CD
:100758000030014000000240406402406032012045
:1007680004ED00E02DE9F04387B000AF0B463A6096
:100778000246FA80BB806B461E46BB88191D4B1E7D
:100788003B610B461A464FF000034FEAC30949EA9A
:1007980052794FEAC2080B461A464FF00003DD00B3
:1007A80045EA5275D4000B460733DB08DB00ADEB96
:1007B800030D6B460033FB60FB881B0A9BB2DAB261
:1007C800FB681A70FB88DAB2FB685A70BB8803F4BE
:1007D800FE431B12DBB263F07F03DBB2DAB2FB68C5
:1007E8009A70BB88DAB2FB68DA7004237B610BE08D
:1007F8007B69043B3A6813441A78F9687B690B44AF
:100808001A707B6901337B61BB881A1D7B699A4228
:10081800EEDCBB8804339BB21248194606F0D2F9C5
:10082800104BFA68DA60104B0F4A528B92B242F0C2
:10083800100292B25A830B48012106F037F90B488F
:10084800012106F033F90A4B1B68184600214FF0C6
:10085800FF32002304F004FAB5461C37BD46BDE854
:10086800F08300BF58640240000002404064024028
:100878006032012080B584B000AF02460B46FA8092
:10088800BB800223FB81FB881B0A9BB2DBB23B7255
:10089800FB88DBB27B72FB8903F4FE431B12DBB2DD
:1008A80063F07F03DBB2DBB2BB72FB89DBB2FB72A6
:1008B800BB881B0A9BB2DBB23B73BB88DBB27B7382
:1008C8001148062106F07EF90F4B07F10802DA609D
:1008D8000E4B0E4A528B92B242F0100292B25A83D9
:1008E8000948012106F0E2F80948012106F0DEF87E
:1008F800084B1B68184600214FF0FF32002304F014
:10090800AFF91037BD4680BD586402400000024070
:10091800406402406032012080B584B000AF0246D6
:100928000B46FA807B710123FB81FB881B0A9BB273
:10093800DBB23B72FB88DBB27B72FB8903F4FE43BC
:100948001B12DBB263F07F03DBB2DBB2BB72FB8945
:10095800DBB2FB727B793B731148052106F032F953
:100968000F4B07F10802DA600E4B0E4A528B92B217
:1009780042F0100292B25A830948012106F096F813
:100988000948012106F092F8084B1B681846002117
:100998004FF0FF32002304F063F91037BD4680BDE5
:1009A8005864024000000240406402406032012066
:1009B8002DE9F04186B000AFF880B98069468846D5
:1009C800B9880E1D711E3961314608464FF0000185
:1009D800CD0045EA5075C400314608464FF0000185
:1009E800CB0043EA5073C20033460733DB08DB0011
:1009F800ADEB030D6B460033FB60FB881B0A9BB213
:100A0800DAB2FB681A70FB88DAB2FB685A70BB88E6
:100A180003F4FE431B12DAB2FB689A70BB88DAB2A1
:100A2800FB68DA7004237B6107E0FA687B6913448A
:100A380000221A707B6901337B61BB881A1D7B69B0
:100A48009A42F2DCBB8804339BB21748194606F079
:100A5800B9F8BB8804339BB21448194606F0B2F8BB
:100A6800124BFA68DA60104B114ADA60114B114ADE
:100A7800528B92B242F0100292B25A830B48012173
:100A880006F014F80848012106F010F80A4B1B6814
:100A9800184600214FF0FF32002304F0E1F8C54664
:100AA8001837BD46BDE8F0814064024058640240F2
:100AB80074320120000002406032012080B58AB003
:100AC80000AF5C4A07F118031068186092889A8092
:100AD800594A07F1140310681860584A07F11003BF
:100AE80010681860564A07F10C0310681860012056
:100AF8000021032203F058FF0246524B1A6003F00C
:100B0800CDF80346BB60504B4F4A528B92B242F02D
:100B1800200292B25A834C4B4B4A128B92B242F04B
:100B2800200292B21A834FF4FA7002F0C3FF012335
:100B38003B6200208021FFF7EFFE8023FB7100BF9E
:100B480000200021FFF7E8FE1620FF21FFF7E4FE52
:100B580036200021FFF7E0FE1720C821FFF7DCFE52
:100B680019200321FFF7D8FE00237B6200237B6254
:100B78002BE07B6A9BB21B029BB203F580431E33BA
:100B88009BB218460221FFF7C7FE7B6A9BB21B0285
:100B98009BB203F580431F339BB218460221FFF72F
:100BA800BBFE7B6A9BB21B029BB203F580432C33CE
:100BB8009BB21846FF21FFF7AFFE244A7B6A134415
:100BC80000221A707B6A01337B627B6A072BD0DDB7
:100BD80007F1080318464FF4FA7102F013FF07F102
:100BE800140107F1100207F10C03084611461A46D2
:100BF80000F03CF807F11803184600F02BF807F14D
:100C0800080318464FF4FA7102F0FCFE0120502147
:100C1800002200F017FA03461A460D4B1A600C4BD7
:100C28001B68184600F03CFC002002F0A5FE28379F
:100C3800BD4680BDC48F0008CC8F0008D08F000847
:100C4800D48F000860320120000802408C04002084
:100C58006832012080B582B000AF78600920062193
:100C68007A68FFF77FFD0837BD4680BD80B584B040
:100C780000AFF860B9607A600F200421FA68FFF7C6
:100C880071FD05200421BA68FFF76CFD01200421DD
:100C98007A68FFF767FD1037BD4680BD80B584B020
:100CA80000AF0346FB71FB799BB21B029BB203F5B5
:100CB800804301339BB218460121FFF779FE044BAC
:100CC8001B78FB73FB7B18461037BD4680BD00BF01
:100CD8007832012080B584B000AF0346FB71FB7900
:100CE8009BB21B029BB203F5804303339BB21846A9
:100CF8000121FFF75DFE044B1B78FB73FB7B184655
:100D08001037BD4680BD00BF7832012080B584B061
:100D180000AF0346FB71FB799BB21B029BB203F544
:100D2800804320339BB218460221FFF741FE084A50
:100D380007F10C0312881A803B7B1B029AB27B7B5B
:100D480013439BB29BB218461037BD4680BD00BF07
:100D58007832012080B584B000AF0346FB71FB797F
:100D68009BB21B029BB203F5804324339BB2184607
:100D78000221FFF71DFE084A07F10C0312881A80AA
:100D88003B7B1B029AB27B7B13439BB29BB21846F8
:100D98001037BD4680BD00BF7832012080B584B0D1
:100DA80000AF0346FB71FB799BB21B029BB203F5B4
:100DB800804322339BB218460221FFF7F9FD084A07
:100DC80007F10C0312881A803B7B1B029AB27B7BCB
:100DD80013439BB29BB218461037BD4680BD00BF77
:100DE8007832012080B582B000AF02460B46FA7116
:100DF800BB80FB799BB21B029BB203F58043243373
:100E08009AB2BB8810461946FFF734FD0837BD462D
:100E180080BD00BF80B584B000AF0346FB71FB798D
:100E28009BB21B029BB203F5804326339BB2184644
:100E38000221FFF7BDFD084A07F10C0312881A804A
:100E48003B7B1B029AB27B7B13439BB29BB2184637
:100E58001037BD4680BD00BF7832012080B584B010
:100E680000AF0346FB71FB799BB21B029BB203F5F3
:100E7800804328339BB218460221FFF799FD084AA0
:100E880007F10C0312881A803B7B1B029AB27B7B0A
:100E980013439BB29BB218461037BD4680BD00BFB6
:100EA8007832012080B582B000AF02460B46FA7155
:100EB800BB80FB799BB21B029BB203F580432833AE
:100EC8009AB2BB8810461946FFF7D4FC0837BD46CE
:100ED80080BD00BF80B586B000AFBA600246FA7325
:100EE8000A46BA81FB80BB89C3F30A03FB82FB7BFA
:100EF8009BB2DB009BB21B029AB2FB8A13449BB2E3
:100F0800A3F50043BB82FA8AFB881A44FB7B1B02C9
:100F180003F5804320339A422ADDFB7B9BB2DB003A
:100F28009BB21B029AB2FB8AD31A9BB2A3F5004369
:100F38007B82BA8A7B8A10461946BA68FFF712FC88
:100F48007B8ABA681344BB60FA887B8AD31A3B82CF
:100F5800FB7B9BB2DB009BB21B029BB2A3F5004359
:100F68009AB23B8A10461946BA68FFF7FBFB06E0BF
:100F7800BA8AFB8810461946BA68FFF7F3FB183798
:100F8800BD4680BD80B586B000AFBA600246FA7330
:100F98000A46BA81FB80BB89C3F30A03FB82FB7B49
:100FA8009BB2DB009BB21B029AB2FB8A13449BB232
:100FB800A3F58043BB82FA8AFB881344B3F5006F1C
:100FC8002FDDFB8AC3F500637B82BA8A7B8A1046D1
:100FD8001946FFF7EDFC7B8AB86819491A46FFF7EE
:100FE800F9F87B8ABA681344BB60FA887B8AD31AFB
:100FF8003B82FB7B9BB2DB009BB21B029BB2A3F53F
:1010080080439AB23B8A10461946FFF7D1FC7B8A87
:10101800BA681A443B8A104609491A46FFF7DAF8B3
:101028000BE0BA8AFB8810461946FFF7C1FCFB881B
:10103800B86803491A46FFF7CDF81837BD4680BD92
:101048007832012080B584B000AF13460246FA71A9
:101058000A46BA80BB710023FB730CE0FB7B4C4A49
:10106800D35C002B04D1FB7B494A0121D15405E014
:10107800FB7B0133FB73FB7B072BEFD9FB7B072B38
:1010880001D9FF237FE0FB7903F00F03082B01DD73
:10109800FF2378E0FB7903F00F03022B05D0FB79DF
:1010A8005BB2002B01DAFF236DE0FB7903F00F033D
:1010B800012B06D0FB7903F02003002B01D0FF237E
:1010C80061E0FB7B9BB21B029BB203F580439AB2A3
:1010D800FB7910461946FFF71FFCFB7903F00F0355
:1010E800FB71FB79012B29DB022B02DD032B18D0C6
:1010F80024E0BB881B0A9BB2DBB23B73BB88DBB224
:101108007B73FB7B9BB21B029BB203F580430433CA
:101118009AB207F10C03104602211A46FFF722FB88
:101128000CE0FB7B9BB21B029BB203F5804314339C
:101138009AB2BB7910461946FFF7EEFBFB7B9BB2D0
:101148001B029BB203F5804301339BB21846012171
:10115800FFF7E2FB00BFFB7B1846FFF79FFD034646
:10116800002BF8D1FB7B1846FFF7B4FD0346132B81
:101178000CBF00230123DBB2BB73BB7B002B01D068
:10118800FF2300E0FB7B18461037BD4680BD00BF3B
:101198008C04002080B582B000AF78607B68002B9B
:1011A80008DB7B68072B05DC184A7B6813441B782F
:1011B800012B02D04FF0FF3323E0144A7B6813441D
:1011C80000221A707B689BB21B029BB203F5804316
:1011D80001339BB218461021FFF79EFB00BF7B68C6
:1011E800DBB21846FFF75AFD0346002BF7D100BFC4
:1011F8007B68DBB21846FFF76DFD0346002BF7D17D
:10120800002318460837BD4680BD00BF8C04002067
:101218002DE9F0438BB000AFB9600146F973BA818C
:10122800FB8000233B6202E03B6A01333B623B6A7E
:10123800BA6813441B78002B03D0BA893B6A9A42D8
:10124800F2DC3B6ABB81FB7B1846FFF743FD034694
:10125800FB83FB7B072B04D8FB7B564AD35C012B13
:1012680002D04FF0FF33A0E0BB68002B02D0BB894F
:10127800002B02D14FF0FF3397E0FB7B1846FFF7B6
:1012880029FD0346172B01D000238EE004E0FB88DC
:10129800012B01D1002388E0FB7B1846FFF736FDC0
:1012A8000346FB84FB8C002BF1D0FB7B1846FFF731
:1012B80051FD0346BB83FA8CBB899A4201D9BB898D
:1012C800FB84F97BBA8BFB8C08461146BA68FFF79A
:1012D80001FEBA8BFB8C1344BB83FA7BBB8B104695
:1012E8001946FFF77FFDFB7B1846FFF757FD0346BE
:1012F8007B83FB7B1846FFF72DFD03463B83BA8BA8
:101308007B8BD11A6B461E464B1E7B610B461A46D9
:101318004FF000034FEAC30949EA52794FEAC2087D
:101328000B461A464FF00003DD0045EA5275D4001B
:101338000B460733DB08DB00ADEB030D6B460033D0
:101348003B617B8BA3F500439AB2B98B7B8BCB1A9D
:101358009BB210461946FFF72BFB3A69B98B7B8B7A
:10136800CB1A104614491A46FEF734FFFB7B9BB292
:101378001B029BB203F5804301339BB21846202120
:10138800FFF7CAFA00BFFB7B1846FFF787FC034646
:10139800002BF8D100BFFB7B1846FFF7FFFC034684
:1013A800BA8B9A42F7D1FB8CB54618462C37BD4606
:1013B800BDE8F0838C0400207832012080B586B027
:1013C80000AFB9600146F973BA81FB80FB7B072B3C
:1013D80004D8FB7B314AD35C012B02D04FF0FF339A
:1013E80057E0BB68002B02D0BB89002B02D14FF01D
:1013F800FF334EE0FB7B1846FFF76CFC0346172BC8
:1014080001D0002345E004E0FB88012B01D1002333
:101418003FE0FB7B1846FFF7FDFC0346FB82FB8A97
:10142800002BF1D0FB7B1846FFF718FD0346BB8263
:10143800BA89FB8A9A4238BF13469BB2F97BBA8AAB
:1014480008461146BA68FFF79DFDBA8AFB8A13441D
:10145800BB82FA7BBB8A10461946FFF723FDFB7B4C
:101468009BB21B029BB203F5804301339BB2184623
:101478004021FFF751FA00BFFB7B1846FFF70EFC2F
:101488000346002BF8D1BA89FB8A9A4238BF134623
:101498009BB218461837BD4680BD00BF8C0400209B
:1014A80080B584B000AF78607B68002B08DB7B6870
:1014B800072B05DC224A7B6813441B78012B02D0DA
:1014C8004FF0FF3338E07B68DBB21846FFF702FCC9
:1014D8000346132B02D04FF0FF332DE07B689BB2FD
:1014E8001B029BB203F5804302339BB218460121CD
:1014F800FFF75EFA134B1B78FB737B689BB21B02EA
:101508009BB203F5804301339BB218460221FFF7D3
:1015180003FA00BF7B68DBB21846FFF7BFFB034640
:10152800002BF7D100BF7B68DBB21846FFF7D2FB70
:101538000346142BF7D1002318461037BD4680BD4B
:101548008C0400207832012080B582B000AF3620AC
:101558000121FFF72DFA354B1B78FB71FB791B0234
:101568009BB203F5804302339BB218460121FFF773
:101578001FFA2E4B1B78BB71FB791B029BB203F53C
:10158800804302339BB21846FF21FFF7C5F9BB79A8
:10159800013B0F2B46D801A252F823F0E5150008AD
:1015A800FD1500082D160008151600082D16000850
:1015B8002D1600082D1600082D1600082D160008F7
:1015C8002D1600082D1600082D1600082D160008E7
:1015D8002D1600082D1600082D160008144B082299
:1015E8001A70144B1B68184611490022002303F097
:1015F8001DFA18E00E4B0A221A700E4B1B6818468B
:101608000B490022002303F011FA0CE0084B0922D1
:101618001A70084B1B68184605490022002303F07E
:1016280005FA00E000BF0837BD4680BD78320120CA
:10163800940400202442012080B500AF102005F05A
:101648008FFF0346002B04D0FFF77EFF102005F024
:101658006DFF80BD90B5EBB000AF3B1D18606A4BC5
:10166800C7F8A031694BC7F89C31694B1A6807F174
:101678000C03104619464FF0FF32002303F0F0FA2E
:101688000346002B00F0BF8007F10C031B78092BE1
:1016980019D00A2B00F09080082B00D0B3E05D48E9
:1016A80004F024FA5C4B1B68DCB2D7F8A00107F001
:1016B800B7FA03469BB22046D7F8A0111A46002372
:1016C800FFF7A6FD9FE0554804F010FA524B1B683F
:1016D800DAB207F5AE731046194664220023FFF705
:1016E8006DFEC7F89801D7F89831022B1FDC07F177
:1016F800280207F15C03104619464FF4807204F083
:1017080067FB07F15C03184607F08AFA0346C7F837
:101718009431414B1B68D8B2D7F894319AB2D7F8B4
:1017280090319BB207F15C01FFF772FD43E0D7F8F7
:101738009831023B07F5D4721344002203F84C2C6D
:1017480007F5AE7207F15C03104619464FF4807234
:1017580004F03EFB07F15C03184607F061FA034604
:10176800C7F8A4312C4B1B68D8B2D7F8A4319AB269
:10177800D7F890319BB207F15C01FFF749FD07F1FB
:10178800280207F5AE731046194607F0EBF9002357
:10179800C7F8A4310BE007F5AE72D7F8A4311344AB
:1017A80000221A70D7F8A4310133C7F8A431D7F84A
:1017B800A431092BEFDD26E0194804F097F9164B00
:1017C8001B68DCB2D7F89C0107F02AFA03469BB2E3
:1017D8002046D7F89C111A460023FFF719FD0E4B37
:1017E8001B681846FFF7D6FC012050210022FFF79E
:1017F80029FC03461A46084B1A60074B1B68184613
:10180800FFF74EFE00BF30E7D88F0008F48F0008BE
:10181800244201201090000868320120249000081A
:101828003890000880B588B000AF2020012106F06C
:1018380035FA0420012106F0F9F90420012106F007
:10184800F5F94020012106F0F1F9C023BB6102231C
:101858003B7703237B770023BB770123FB7707F1D3
:1018680018032948194605F0F9FE4FF48073BB6147
:1018780001233B770023BB7703237B770123FB7787
:1018880007F118032148194605F0E8FE1F4B1F4AC7
:10189800128B92B242F4807292B21A831A480621CD
:1018A800082205F0F1FF18480721082205F0ECFF8F
:1018B8004FF41643BB600023BB810023FB81002348
:1018C8003B820023BB820C237B8207F1080310486C
:1018D800194606F0D7FC0E4840F22551012206F0C1
:1018E8008BFE47233B7106237B710123BB710123C8
:1018F800FB713B1D184604F04FFD0548012106F019
:1019080027FE2037BD4680BD00080240001802406F
:101918000014014080B485B000AF786039600023BE
:10192800FB6010E000BF0E4B1B889BB203F0400326
:10193800002BF8D00A4BFA6879680A4412789A8022
:10194800FB680133FB60FA683B689A4203DA7B68FC
:101958001B78002BE6D11437BD465DF8047B704731
:101968000014014080B582B000AF00233B602148DD
:1019780040F2255106F0FEFE0346002B30D01D4BE9
:101988009B889BB2FB711C4B1B781A461B4B1B6830
:101998009A420FDA184B1B786F2B0BD8164B1B7813
:1019A800174AF979D154144B1B780133DAB2124B28
:1019B8001A7015E0104B1B78114AF979D1540E4B67
:1019C80000221A700B4840F2255106F0A9FF0D4B72
:1019D8001A683B46104600211A46002303F0D6F841
:1019E8003B68002B03D0084B4FF080521A60083731
:1019F800BD4680BD00140140B004002048420120CB
:101A08004C4201201C42012004ED00E080B485B066
:101A180000AF78600B467B80FF23FB73FF23BB730B
:101A280013E07B685A1C7A601A78FB7B5340DBB260
:101A3800BB600F4ABB6813441A78BB7B5340FB73E7
:101A48000C4ABB6813441B78BB737B885A1E7A8088
:101A5800002BE6D1FB7B1B029AB2BB7B9BB21343E4
:101A68009BB29BB218461437BD465DF8047B70479D
:101A78008C9900088C9A000880B586B000AFF86091
:101A8800B960FA80BB80BB88023B9BB2B868194634
:101A9800FFF7BCFF0346FB82BB88013BBA681344CF
:101AA8001B781A46FB8ADBB29A420FD1BB88023BED
:101AB800BA6813441B781A46FB8A1B0A9BB29A42DF
:101AC80004D1054804F012F8012300E00023184669
:101AD8001837BD4680BD00BFC890000880B586B0E5
:101AE80000AFF860B9607A603B603A687B6813447D
:101AF8005A1E2A4B1A602A4B294A128B92B242F478
:101B0800807292B21A8300237B6102E07B69013301
:101B18007B617B69B3F57A6FF8DBF8687968FFF762
:101B2800F9FE00237B6102E07B6901337B617B69FD
:101B3800B3F57A6FF8DB1A4B194A528B92B242F41A
:101B4800807292B25A83174B1B68184600214FF4D3
:101B5800FA72002303F084F800237B6114E07B69A8
:101B6800BA68134479697A680A440F498A5CD2B220
:101B78001A707B69BA6813441B780C48194603F03D
:101B8800B5FF7B6901337B617A693B689A42E6DB82
:101B9800074803F0ABFF1837BD4680BD4842012017
:101BA800001802401C4201204C420120D490000839
:101BB800DC90000880B5ADF5866D00AF07F108032D
:101BC80019603B1D1A6007F10E0302461A800023B4
:101BD800C7F828340023C7F8243407F505733622DC
:101BE8001A7007F505730F225A7007F10E031B8848
:101BF8001B0A9BB2DAB207F505739A7007F10E0358
:101C08001B88DAB207F50573DA7007F108031B6859
:101C18001B12DAB207F505731A7107F108031B687E
:101C2800DAB207F505735A710623C7F82C3407F1A1
:101C380008031B68002B00DA0733DB101A4607F18C
:101C480008031B6803F00703002B0CBF00230123C4
:101C5800DBB21344C7F81834D7F82C345A1CC7F829
:101C68002C24D7F81824D1B207F50572D1540023D3
:101C7800C7F820345CE00123C7F81C3407F5057267
:101C8800D7F82C34134400221A7038E0D7F82434DB
:101C98005A1CC7F824243A1D126813441B78002BD9
:101CA80013D007F50572D7F82C3413441B78DAB231
:101CB800D7F81C34DBB21343DBB2DAB207F505718F
:101CC800D7F82C340B441A7014E007F50572D7F8CE
:101CD8002C3413441B78DAB2D7F81C34DBB2DB435C
:101CE800DBB21340DBB2DAB207F50571D7F82C3452
:101CF8000B441A70D7F81C345B00C7F81C34D7F8AB
:101D08001C34DBB2002B09D0D7F828345A1CC7F88A
:101D1800282407F1080212689342B7DBD7F82C345D
:101D28000133C7F82C34D7F820340133C7F82034EE
:101D3800D7F82024D7F818349A429CDBD7F82C34EB
:101D48009BB207F5057210461946FFF75FFE03467A
:101D5800A7F81634D7F82C345A1CC7F82C24B7F82F
:101D68001624120A92B2D1B207F50572D154D7F8E7
:101D78002C345A1CC7F82C24B7F81624D1B207F50E
:101D88000572D15407F5057207F114031046194678
:101D9800D7F82C240823FFF7A1FED7F82C349BB2E0
:101DA80007F5057107F11402084611461A4608237B
:101DB800FFF762FE0346DBB2184607F58667BD46A5
:101DC80080BD00BF80B5ADF5846D00AF07F10C0391
:101DD800186007F1080319603B1D1A6007F50473C2
:101DE80036221A7007F5047310225A7007F10C0393
:101DF8001B681B12DAB207F504739A7007F10C031B
:101E08001B68DAB207F50473DA7007F108031B6878
:101E18001B12DAB207F504731A7107F108031B687D
:101E2800DAB207F504735A710623C7F8183407F1B4
:101E380008031B685B00C7F81434D7F818345A1C19
:101E4800C7F81824D7F81424D1B207F50472D1546E
:101E58000023C7F81C3426E0D7F818345A1CC7F8F2
:101E68001824D7F81C245200391D09680A4412881E
:101E7800120A92B2D1B207F50472D154D7F81834C5
:101E88005A1CC7F81824D7F81C245200391D0968B1
:101E98000A441288D1B207F50472D154D7F81C3419
:101EA8000133C7F81C3407F10803D7F81C241B6852
:101EB8009A42D1DBD7F818349BB207F50472104662
:101EC8001946FFF7A3FD0346A7F81234D7F81834CC
:101ED8005A1CC7F81824B7F81224120A92B2D1B2C1
:101EE80007F50472D154D7F818345A1CC7F81824C7
:101EF800B7F81224D1B207F50472D15407F5047269
:101F080007F1100310461946D7F818240823FFF7DD
:101F1800E5FDD7F818349BB207F5047107F11002F4
:101F2800084611461A460823FFF7A6FD0346DBB20A
:101F3800184607F58467BD4680BD00BF80B5ADF57E
:101F4800856D00AF07F10C03186007F108031960ED
:101F58003B1D1A6007F5057336221A7007F50573DD
:101F680004225A7007F10C031B681B12DAB207F53A
:101F780005739A7007F10C031B68DAB207F505734D
:101F8800DA7007F108031B681B12DAB207F505734C
:101F98001A7107F108031B68DAB207F505735A715D
:101FA8000623C7F8203407F108031B685B00C7F84D
:101FB8001C34D7F820345A1CC7F82024D7F81C241E
:101FC800D1B207F50572D154D7F820349BB207F582
:101FD800057210461946FFF719FD0346A7F81A348B
:101FE800D7F820345A1CC7F82024B7F81A24120A44
:101FF80092B2D1B207F50572D154D7F820345A1CE1
:10200800C7F82024B7F81A24D1B207F50572D154BD
:1020180007F108031B685B00053307F5057107F135
:10202800140208461146D7F82024FFF757FD02236B
:10203800C7F814340023C7F8243424E0D7F824342C
:102048005B003A1D12681344D7F81424511CD7F8C2
:10205800242452000A4407F114018A5C120291B246
:10206800D7F81424901CD7F824245200024407F10E
:102078001400825C0A4392B292B21A80D7F82434D0
:102088000133C7F8243407F10803D7F824241B6860
:102098009A42D3DBD7F820349AB207F108031B68B9
:1020A8009BB25B009BB205339BB207F5057007F145
:1020B8001401FFF7E1FC0346DBB2184607F5856714
:1020C800BD4680BD80B588B000AF78600023FB6155
:1020D8000948F96903F00AFD07F1080300200A21FD
:1020E8001A46FFF72BFFFB690133FB6140F6B83056
:1020F80001F0E0FCECE700BFE090000880B588B094
:1021080000AF786001233B7501237B750123BB7504
:102118000123FB7501200021032202F045FC024641
:10212800954B1A604FF0FF33FB61944B4FF47A7272
:102138001A81924B00225A81904B40F6CA029A812A
:102148008E4B0A22DA818D4B0A221A828B4B05228A
:102158005A608A4B00221A700023BB61884B1B68A7
:1021680018468649FA69002302F07AFD0346012BD6
:1021780040F00081814B1B78052B00F2EF8001A213
:1021880052F823F0A5210008312200086523000831
:1021980065230008792200080923000801233B75FC
:1021A80001237B750123BB750123FB7507F114031C
:1021B800002003211A46FFF7FDFC0346002B0BD134
:1021C800704B07221A706E4B1B6818466D49FA69E6
:1021D800002302F02BFCCDE04FF47A7001F06AFC8A
:1021E80000200521684AFFF7EDFD0346002B0BD1BF
:1021F800644B07221A70624B1B6818466149FA69DA
:10220800002302F013FCB5E04FF47A7001F052FCA1
:102218005C4B06221A705A4B1B6818465949FA69D2
:10222800002302F003FCA5E000200A21574AFFF72B
:1022380085FE0346002B0BD1524B07221A70504BD8
:102248001B6818464F49FA69002302F0EFFB91E03A
:102258004FF47A7001F02EFC4A4B06221A70484B54
:102268001B6818464749FA69002302F0DFFB81E042
:102278000123BB6101233B7501237B750123BB75DA
:102288000123FB7507F11403002003211A46FFF709
:1022980091FC0346002B0BD13A4B07221A70384B9E
:1022A8001B6818463749FA69002302F0BFFB61E052
:1022B8004FF47A7001F0FEFB00200521324AFFF747
:1022C80081FD0346002B0BD12E4B07221A702C4B95
:1022D8001B6818462B49FA69002302F0A7FB49E05E
:1022E8004FF47A7001F0E6FB264B06221A70244B55
:1022F8001B6818462349FA69002302F097FB39E066
:1023080000233B7501237B750123BB750123FB75F6
:1023180007F11403002003211A46FFF74BFC03467C
:10232800002B0BD1174B07221A70154B1B68184648
:102338001449FA69002302F079FB1BE04FF47A7024
:1023480001F0B8FB0F4B06221A700D4B1B6818469C
:102358000C49FA69002302F069FB0BE0094B0722DC
:102368001A70074B1B6818460649FA69002302F0E1
:102378005DFB00BFF2E600BF1C420120B404002050
:102388006C320120D0040020BC040020D8040020B6
:10239800B0B588B000AFF860B9607A603B60786823
:1023A800A549052206F06CFC0346002B40F0A280EC
:1023B800BB6B7A6B134400221A70786B06F028FB0B
:1023C8000346FB83FB8B002B02D0FB8B642B07D9C6
:1023D800FB8BF86899491A4600F00CFF0023A3E12B
:1023E800FB8B1A46920013441A4691001A460B4674
:1023F80013449B00FB83924B00225A81904B40F67A
:10240800CA029A818E4B0A22DA818D4B0A221A82DD
:102418008B4B05225A608A4B00221A70884B002287
:102428001A70874B05225A60854BFA8B1A81854BA7
:102438001A68854B1B68104681491A46002302F02A
:10244800F5FA0346012B42D17E4B1A687E4B1B6876
:1024580010467E491A46002302F002FC0346012B6F
:1024680024D17A4B1B78062B11D1FA68784B154684
:102478001C460FCC28606960AA60EB6003CC286119
:10248800696123882B831923BB6101234CE1FA6816
:10249800704B15461C460FCC28606960AA60EB603B
:1024A800206828611323BB6100233DE1FA686A4B69
:1024B80015461C460FCC28606960AA60EB6007CC03
:1024C80028616961AA611B23BB6100232CE1FA68BA
:1024D800624B14461D460FCD20606160A260E36028
:1024E80028682061AA88AB79A282A3751623BB61EC
:1024F800002319E178685A49062206F0C1FB034611
:10250800002B74D1BB6B7A6B134400221A70786B62
:1025180006F07EFA0346FB82FB8A0E2B03D9FB8A60
:10252800B3F5967F09D96423BB61FB8AF8684D49E6
:102538001A4600F05FFE0023F6E0414BFA8ADA8182
:102548003F4B05225A603E4B00221A703D4B1A68D9
:102558003D4B1B6810463A491A46002302F066FABA
:102568000346012B30D1374B1A68374B1B6810468E
:1025780036491A46002302F073FB0346002B36D077
:10258800324B1B78062B10D1FA68374B15461C4680
:102598000FCC28606960AA60EB6007CC286169618C
:1025A800AA611B23BB610123BEE0FA68294B1546CB
:1025B8001C460FCC28606960AA60EB60206828611F
:1025C8001323BB610023AFE0FA68244B14461D4671
:1025D8000FCD20606160A260E36028682061AA884E
:1025E800AB79A282A3751623BB6100239CE07868AF
:1025F8001E49082206F044FB0346002B40F0948055
:10260800BB6B7A6B134400221A70786B06F000FAE1
:102618000346BB82BB8A0E2B03D9BB8AB3F5967FD0
:1026280026D96423BB61BB8AF8680E491A4600F0B4
:10263800E1FD002378E000BF609100086891000880
:102648006C4401206C32012000000020504401201D
:1026580098910008B4910008C8910008E491000816
:10266800FC9100080492000838920008549200086F
:102678002F4BBA8ADA812E4B05225A602C4B002246
:102688001A702C4B1A682C4B1B68104628491A469E
:10269800002302F0CBF90346012B32D1254B1A68EF
:1026A800254B1B68104625491A46002302F0D8FA24
:1026B8000346002B38D0214B1B78062B12D1FA6821
:1026C8001F4B15461C460FCC28606960AA60EB605A
:1026D80007CC28616961AA612388AB831D23BB618C
:1026E800012321E0FA68174B15461C460FCC2860D9
:1026F8006960AA60EB60206828611323BB6100232E
:1027080012E0FA68104B14461D460FCD2060616038
:10271800A260E36028682061AA88AB79A282A375C9
:102728001623BB610023FFE718462037BD46B0BD1E
:102738006C4401206C32012000000020504401202C
:1027480060920008B4910008E4910008B0B586B022
:1027580000AFF860B9607A603B6078683B49052251
:1027680006F08EFA0346002B6CD1394B01221A7001
:10277800384B1A68384B1B68104635491A460023EF
:1027880002F054F90346012B49D1324B1A68324BF7
:102798001B68104631491A46002302F061FA0346C5
:1027A800012B2BD12D4B1B78062B18D12B4BDA89FB
:1027B8002B4BA3FB02035B099BB21A46274BDB8911
:1027C8002749A1FB03014909642000FB01F15B1AB9
:1027D8009BB2F868234900F00DFD012332E0FA6846
:1027E800214B15461C460FCC28606960AA60EB6037
:1027F8002068286113237B61002323E0FA681B4BC0
:1028080015461C460FCC28606960AA60EB6007CCAF
:1028180028616961AA611B237B61002312E0FA68C1
:10282800134B14461D460FCD20606160A260E36023
:1028380028682061AA88AB79A282A37516237B61D8
:102848000023FFE718461837BD46B0BD6091000861
:102858006C4401206C32012000000020504401200B
:102868001F85EB5180920008B4910008C8910008B8
:10287800E49100082DE9F04190B006AFF860B96026
:102888007A6007F11803786801211A4603F026FBDD
:1028980078627B6A002B0ED1FA689C4B15461C4661
:1028A8000FCC28606960AA60EB60206828612379F2
:1028B8002B75002336E2786A9549042206F0E0F980
:1028C8000346002B0BD1FA68924B11461A46BC23DB
:1028D800084611461A46FDF77DFC012322E2786A74
:1028E8008D49032206F0CCF90346002B33D107F1BA
:1028F8001403786802211A4603F0F0FA386207F1E7
:102908001003786803211A4603F0E8FAF861FB69B6
:10291800002B02D03B6A002B06D1804BF868194681
:1029280006F020F90023FDE17B697D4A10683969CA
:102938007C4A12680090F869019002910392F86845
:10294800B9683A6AFFF724FD0346002B01D001233A
:10295800E8E10023E6E1786A7349032206F090F97A
:102968000346002B40F0F48007F114037868022135
:102978001A4603F0B3FA38623B6A002B40F0B38082
:102988006A4B01221A70664B1A68694B1B6810461D
:1029980066491A46002302F049F80346002B00F066
:1029A8008F805F4B1A68624B1B68104661491A4654
:1029B800002302F055F90346012B70D15D4B1B78BB
:1029C800062B5DD15B4BDA895B4BA3FB02035B09EA
:1029D8009BB21A46574BDB895749A1FB038149092A
:1029E800642000FB01F15B1A9BB2F868534900F0C0
:1029F80001FC504B1B8B1A464E4BDB8A1C464D4B39
:102A08009B8A9E464B4BD9894B4BA3FB01C35B0961
:102A18009BB21E46474BDB894749A1FB0301490985
:102A2800642000FB01F15B1A9BB21D46414B1B8AD7
:102A38001846404B598A404BA3FB01835B099BB264
:102A480019463C4B5B8ADFF8F0C0ACFB038C4FEABD
:102A58005C1C4FF0640808FB0CFCCCEB03039BB236
:102A6800CDF800E001960295039004910593F8686B
:102A78003349234600F0BEFB3223BB60012351E1FA
:102A8800FA68304B15461C460FCC28606960AA606E
:102A9800EB60206828611323BB60002342E1FA68D9
:102AA800294B15461C460FCC28606960AA60EB606C
:102AB80007CC28616961AA611B23BB60002331E14F
:102AC800FA68224B14461D460FCD20606160A26053
:102AD800E36028682061AA88AB79A282A3751623CF
:102AE800BB6000231EE17B690D4A11680D4A12681C
:102AF80000910192F868B9683A6AFFF727FE034621
:102B0800002B01D001230DE100230BE1989200086E
:102B1800B0920008B892000878930008F490000872
:102B28006C320120683201207C9300086C4401203B
:102B380000000020504401201F85EB5180920008BE
:102B480080930008B4910008C8910008E491000837
:102B5800786A7749042206F093F80346002B69D176
:102B6800744B05221A70734B05225A60724B1A680F
:102B7800724B1B6810466F491A46002301F056FF36
:102B88000346002B43D06C4B1A686C4B1B681046ED
:102B98006B491A46002302F063F80346012B25D13E
:102BA800674B1B78062B12D1FA68664B15461C46F4
:102BB8000FCC28606960AA60EB6007CC2861696166
:102BC800AA612388AB831D23BB600123AAE0FA68AE
:102BD8005D4B15461C460FCC28606960AA60EB6007
:102BE800206828611323BB6000239BE0FA68574BD9
:102BF80015461C460FCC28606960AA60EB6007CCBC
:102C080028616961AA611B23BB6000238AE0FA6816
:102C18004F4B14461D460FCD20606160A260E360F3
:102C280028682061AA88AB79A282A3751623BB60A5
:102C3800002377E0786A4749052206F021F8034621
:102C4800002B69D13B4B04221A703A4B05225A607B
:102C5800394B1A68394B1B68104636491A46002307
:102C680001F0E4FE0346012B43D1334B1A68334B82
:102C78001B68104632491A46002301F0F1FF03464B
:102C8800012B25D12E4B1B78062B12D1FA68324B1B
:102C980015461C460FCC28606960AA60EB6007CC1B
:102CA80028616961AA612388AB831D23BB60012366
:102CB80038E0FA68244B15461C460FCC286069603A
:102CC800AA60EB60206828611323BB60002329E019
:102CD800FA681E4B15461C460FCC28606960AA602E
:102CE800EB6007CC28616961AA611B23BB600023E4
:102CF80018E0FA68164B14461D460FCD2060616037
:102D0800A260E36028682061AA88AB79A282A375D3
:102D18001623BB60002305E0104BF868194605F040
:102D280021FF002318462837BD46BDE8F08100BFC3
:102D3800CC9300086C4401206C3201200000002074
:102D480050440120D4930008B4910008C8910008A9
:102D5800E4910008F4930008FC930008F49000083C
:102D68002DE9F0418AB004AFF860B9607A6007F1E4
:102D78001003786801211A4603F0B0F878617B697E
:102D8800002B02D1F86801F041FD78692D4907222E
:102D980005F076FF0346002B1CD12B4B1B68184609
:102DA80000F0EAFDFB68294A14461D4604F1200894
:102DB8002E46A446BCE80F0030607160B260F36034
:102DC800103410354445F3D12B462246106818605C
:102DD800012331E078691E49052205F051FF0346B9
:102DE800002B28D101230093174B01930023029352
:102DF80000230393174818494FF40062002300F09A
:102E080007FDFB68154A14461D4604F120082E46A6
:102E1800A446BCE80F0030607160B260F360103403
:102E280010354445F3D12B462246106818601279B4
:102E38001A71012300E0002318461837BD46BDE883
:102E4800F08100BF1C940008443A01202494000833
:102E5800F4930008CD2000084C940008549400080E
:102E680080B483B000AF786039607B68002B09D0EC
:102E78007B681B683A68D2B21A707B681B685A1C58
:102E88007B681A600C37BD465DF8047B704700BF4D
:102E98002DE9F04184B000AFF860B9607A603B601A
:102EA800002420267B68002B19DD0025D7F8088030
:102EB80002E0013508F1010898F80030002BF8D13C
:102EC8007B689D4202DB00237B6002E07B685B1B22
:102ED8007B603B6803F00203002B00D030263B6880
:102EE80003F00103002B0BD107E0F8683146FFF728
:102EF800B7FF01347B68013B7B607B68002BF4DC07
:102F080009E0BB681B78F8681946FFF7A9FF013488
:102F1800BB680133BB60BB681B78002BF1D107E0AD
:102F2800F8683146FFF79CFF01347B68013B7B6002
:102F38007B68002BF4DC234618461037BD46BDE8F5
:102F4800F08100BF2DE9F04389B000AFF860B960A7
:102F58007A603B604FF000094FF00008BD68BB681D
:102F6800002B0DD130233B7500237B7507F114032B
:102F7800F86819463A6C7B6CFFF78AFF034649E00C
:102F88003B68002B0AD07B680A2B07D1BB68002B53
:102F980004DA4FF00109BB685B421D4607F11404CF
:102FA8000B340023237013E07B68B5FBF3F203FBBB
:102FB80002F3EB1A1E46092E02DDBB6C3A3B1E4497
:102FC800013CF3B23033DBB223707B68B5FBF3F519
:102FD800002DE9D1B9F1000F14D03B6C002B0ED0B5
:102FE8007B6C03F00203002B09D0F8682D21FFF752
:102FF80037FF08F101083B6C013B3B6402E0013CF0
:103008002D232370F86821463A6C7B6CFFF740FF4C
:103018000346434418462437BD46BDE8F08300BF45
:103028002DE9F0418AB004AFF860B9607A600024F5
:10303800CCE0BB681B78252B40F0BE80BB68013311
:10304800BB6000263546BB681B78002B00D1C2E068
:10305800BB681B78252B00D1AEE0BB681B782D2BF5
:1030680004D1BB680133BB60012605E004E0BB68FE
:103078000133BB6046F00206BB681B78302BF6D0E4
:103088000BE02B469B002B445B001D46BB681B785E
:10309800303B1D44BB680133BB60BB681B782F2BDA
:1030A80003D9BB681B78392BEBD9BB681B78732B0A
:1030B80013D17B681A1D7A601B689846B8F1000F17
:1030C80001D0434600E04A4BF86819462A46334681
:1030D800FFF7DEFE03461C4475E0BB681B78642BD3
:1030E80003D0BB681B78692B10D17B681A1D7A60E6
:1030F8001B680095019661220292F86819460A2217
:103108000123FFF71FFF03461C445CE0BB681B78E4
:10311800782B10D17B681A1D7A601B680095019680
:1031280061220292F868194610220023FFF70AFF6D
:1031380003461C4447E0BB681B78582B10D17B68BA
:103148001A1D7A601B680095019641220292F86860
:10315800194610220023FFF7F5FE03461C4432E00F
:10316800BB681B78752B10D17B681A1D7A601B68A9
:103178000095019661220292F86819460A220023F6
:10318800FFF7E0FE03461C441DE0BB681B78632B79
:1031980019D17B681A1D7A601B68DBB23B75002366
:1031A8007B7507F11403F86819462A463346FFF77A
:1031B8006FFE03461C4406E0BB681B78F868194696
:1031C800FFF74EFE0134BB680133BB60BB681B7858
:1031D800002B7FF42EAFFB68002B03D0FB681B6825
:1031E80000221A70234618461837BD46BDE8F081FC
:1031F8007C9400080EB480B585B000AF786007F104
:103208002003FB603B1D1846F969FA68FFF708FFC1
:10321800034618461437BD46BDE8804003B07047E2
:1032280080B483B000AF0346FB71094B97F90720C0
:103238005209F97901F01F01012000FA01F1403229
:1032480043F822100C37BD465DF8047B704700BF79
:1032580000E100E080B485B000AF78607A68154B73
:10326800A3FB02135B0C013BFB60134B4FF0807216
:10327800DA60124B20221A60114B01221A60114B9E
:1032880002221A60104BFA681A60104B4FF48072D1
:103298001A600F4B0F4A1A600F4B104A1A60104BF6
:1032A80001221A600F4B01221A601437BD465DF8DF
:1032B800047B7047C5B3A291F0ED00E0042004E060
:1032C800040004E0F00004E0100004E0040304E05B
:1032D800B00F00E055CEACC5800E00E0050001003F
:1032E800000E00E0400E00E080B584B004AF00F0AE
:1032F80099F9414B1B681846FFF7ACFF3F4802F0AD
:10330800F5FB00F0A7F801200021032201F04CFB97
:1033180002463B4B1A603B4802F026FD3A4802F051
:1033280023FD02201C21002201F03EFB0246374B00
:103338001A6002201C21002201F036FB0246344BA1
:103348001A6002230093334B019300230293002356
:103358000393314831494FF42062002300F058FAB2
:103368000346012B05D02E4802F0C0FB4FF0FF3377
:103378003EE02C4802F0BAFB022300932A4B01934B
:103388000023029300230393284829494FF420621D
:10339800002300F03DFA0346012B05D0254802F032
:1033A800A5FB4FF0FF3323E0234802F09FFB0223E5
:1033B8000093224B01930023029300230393204898
:1033C80020494FF4A062002300F022FA0346012BA3
:1033D80005D01D4802F08AFB4FF0FF3308E01B4878
:1033E80002F084FB00F08EFB194802F07FFBFEE739
:1033F8001846BD4680BD00BF04000020F8940008B0
:103408001C4201208C9B00089C9B00086C32012008
:10341800244201202C4201205D1600080495000872
:103428000C9500082C95000864320120052100083D
:1034380084940008509500086C950008443A0120CF
:10344800CD2000089095000898950008B8950008C8
:10345800DC95000880B584B004AF00F0AFF84FF4F5
:10346800407002F06FFFFCF74FFFFEF7DBF9032314
:10347800009300230193002302930023039304483D
:1034880004494FF48072002300F0C2F9BD4680BDA4
:10349800C50A0008FC95000880B500AF064B1B68FC
:1034A8005A1C054B1A601C20FFF7BAFE024B1B681A
:1034B8005A1E014B1A6080BDEC04002080B400AF96
:1034C8000B4B1B685A1C0A4B1A60094B1A68094BAC
:1034D8001B689A4203D9064B1A68064B1A60044BBC
:1034E8001B685A1E024B1A60BD465DF8047B704784
:1034F800EC040020F004002080B500AF064B1B68E8
:103508005A1C054B1A601D20FFF78AFE024B1B68E8
:103518005A1E014B1A6080BDEC04002080B500AF34
:1035280001F044FFFEE700BF80B400AFBD465DF880
:10353800047B704780B582B000AF7860396001F0D5
:1035480035FFFEE780B483B000AF786039600C3790
:10355800BD465DF8047B7047002100F004B8104BAD
:103568005B58435004310F480F4B42189A42FFF4FE
:10357800F6AF0E4A00F003B8002342F8043B0C4BA8
:103588009A42FFF4F9AF0B48016841F470010160F9
:1035980000F014F805F040FAFFF7A6FE70470000A7
:1035A800009D000800000020700400207004002026
:1035B8008844012088ED00E0FFF7FEBF80B500AF2A
:1035C800154B154AD2F8882042F47002C3F88820B7
:1035D800124B124A126842F001021A600F4B002285
:1035E8009A600E4A0D4B1B6823F0847323F48033D2
:1035F80013600A4B0A4A5A60084B084A126822F4B8
:1036080080221A60054B0022DA6000F087F8024B2E
:103618004FF000629A6080BD00ED00E00038024083
:103628001030002480B487B000AF00233B61002332
:103638007B610223FB600023BB6002237B60324B6B
:103648009B6803F00C033B613B69042B07D0082BF4
:1036580009D0002B3FD12D4B2D4A1A603FE02B4B50
:103668002C4A1A603BE0284B5B6803F480039B0DEF
:10367800BB60254B5B6803F03F037B60BB68002B96
:103688000DD0244A7B68B2FBF3F21F4B596847F60A
:10369800C0730B409B0903FB02F37B610CE01C4ADF
:1036A8007B68B2FBF3F2184B596847F6C0730B40BE
:1036B8009B0903FB02F37B61134B5B6803F4403304
:1036C8001B0C01335B00FB607A69FB68B2FBF3F209
:1036D8000E4B1A6003E00D4B0D4A1A6000BF0A4BEF
:1036E8009B6803F0F0031B090B4AD35CDBB23B6118
:1036F800064B1A683B69DA40044B1A601C37BD4612
:103708005DF8047B704700BF0038024004000020C9
:103718000024F40040787D010800002080B483B0C4
:1037280000AF00237B6000233B60354B344A1268AE
:1037380042F480321A60324B1B6803F400333B605A
:103748007B6801337B603B68002B03D17B68B3F552
:10375800A06FF0D12A4B1B6803F40033002B02D072
:1037680001233B6001E000233B603B68012B42D111
:10377800234B234A126C42F080521A64214B214A8F
:10378800126842F480421A601D4B1D4A92689A6082
:103798001B4B1B4A926842F400429A60184B184A25
:1037A800926842F4A0529A60154B174A5A60144B1B
:1037B800134A126842F080721A6000BF104B1B68EF
:1037C80003F00073002BF9D0104B40F204621A602A
:1037D8000B4B0B4A926822F003029A60084B084A86
:1037E800926842F002029A6000BF054B9B6803F0A2
:1037F8000C03082BF9D10C37BD465DF8047B7047E4
:103808000038024000700040194B4007003C02405D
:1038180080B58AB002AFF860B9603B601346FB80A0
:10382800FB68002B02D101F0C1FDFEE7BB6A042B47
:1038380002D901F0BBFDFEE7FB881846396B00F0A2
:1038480043FEB861BB69002B72D0BB691A6BFB8859
:1038580003F18043013B9B0013447B617B6923F0A8
:1038680007037B617B6903F00703002B02D001F09B
:103878009DFDFEE7FB880093B869B968BA6A7B6B5F
:1038880000F02CFD7869F9683A6801F09DFC024661
:10389800BB691A60FB6A002B02D0FB6ABA691A601E
:1038A80001F062FD2E4B1B685A1C2D4B1A602D4BE4
:1038B8001B68002B09D12B4BBA691A60284B1B686F
:1038C800012B0FD100F052FD0CE0274B1B68002B99
:1038D80008D1244B1B68DA6ABB6A9A4202D8214B8A
:1038E800BA691A60214B1B685A1C204B1A601F4B7F
:1038F8001A68BB691A64BB69DA6A1D4B1B689A426D
:1039080003D9BB69DA6A1A4B1A60BB69DA6A1346CB
:103918009B0013449B00174A1A44BB6904331046A2
:10392800194601F0CBFB0123FB6101F02DFD02E0FC
:103938004FF0FF33FB61FB69012B0BD10A4B1B686E
:10394800002B07D0074B1B68DA6ABB6A9A4201D280
:1039580001F0FAFCFB6918462037BD4680BD00BF60
:10396800CC050020F4040020D8050020EC05002038
:10397800D4050020F804002080B584B000AF78603A
:1039880001F0F2FC7B68002B02D1194B1B6800E0A8
:103998007B68FB60FB680433184601F0EBFBFB68AF
:1039A8009B6A002B04D0FB681833184601F0E2FB31
:1039B800FB6804330F48194601F080FB0E4B1B6867
:1039C8005A1C0D4B1A600D4B1B685A1C0B4B1A6086
:1039D80001F0DAFC0A4B1B68002B06D0044B1B686D
:1039E800FA689A4201D101F0AFFC1037BD4680BD9C
:1039F800F4040020A0050020B4050020EC050020F8
:103A0800D805002080B586B000AF78603960002303
:103A18007B617B68002B02D101F0C8FCFEE73B68A4
:103A2800002B02D101F0C2FCFEE700F0A3F81F4B07
:103A38001B683B617B681A683B681344FB607B68C2
:103A48001A683B699A420BD97B681A68FB689A42E4
:103A580011D9FA683B699A420DD901237B610AE0C2
:103A68007B681A68FB689A4203D8FA683B699A42ED
:103A780001D901237B617B68FA681A607B69002B96
:103A880008D00B4B1B680433184601F073FBF86829
:103A980000F0E4FC00F07CF8B860BB68002B01D1B2
:103AA80001F052FC1837BD4680BD00BFD00500208C
:103AB800F404002080B584B000AF78600023FB6078
:103AC8007B68002B12D000F055F80C4B1A687B6805
:103AD8001344BB600A4B1B680433184601F04AFBC9
:103AE800B86800F0BBFC00F053F8F860FB68002BE6
:103AF80001D101F029FC1037BD4680BDD00500205A
:103B0800F404002080B586B004AF0023009300239E
:103B180001930023029300230393124812494FF4A0
:103B280080720023FFF774FE78607B68012B02D156
:103B380001F0D6FC78607B68012B0AD101F036FCD5
:103B48000A4B01221A600A4B00221A6001F096FB08
:103B580005E07B68002B02D101F028FCFEE708375E
:103B6800BD4680BDC142000808960008D80500205F
:103B7800D005002080B400AF044B1B685A1C034BCF
:103B88001A60BD465DF8047B704700BFDC05002065
:103B980080B582B000AF00237B60384B1B68002BD8
:103BA80002D101F003FCFEE701F0DEFB334B1B689A
:103BB8005A1E324B1A60314B1B68002B56D1304BC2
:103BC8001B68002B52D02FE02E4BDB68DB683B6074
:103BD8003B681833184601F0CDFA3B6804331846A1
:103BE80001F0C8FA3B68DA6A274B1B689A4203D986
:103BF8003B68DA6A244B1A603B68DA6A13469B0012
:103C080013449B00214A1A443B6804331046194662
:103C180001F054FA3B68DA6A1D4B1B68DB6A9A426A
:103C280002D31C4B01221A60164B1B68002BCBD108
:103C3800194B1B68002B11D00CE000F0BDF80346AF
:103C4800002B02D0134B01221A60134B1B685A1E1B
:103C5800114B1A60104B1B68002BEED10D4B1B68E3
:103C6800012B03D101237B6001F06EFB01F08CFB7B
:103C78007B6818460837BD4680BD00BFDC050020BC
:103C8800CC0500208C050020D4050020F804002075
:103C9800F4040020E4050020E005002080B582B08F
:103CA80000AF01F061FB054B1B687B6001F06CFB0A
:103CB8007B6818460837BD4680BD00BFD005002088
:103CC80080B586B000AFF860B9607A6000237B6188
:103CD80005233B61FFF74EFF314B1B68BA689A42D8
:103CE80057D33B69013B3B617B695B01FA68D1189B
:103CF8003A6913469B0013449B002A4A134408461A
:103D08001946012200F012FC03467A6913447B61CC
:103D18003B69002BE5D17B695B01FA681A44224BA9
:103D28001B6810461946022200F000FC03467A6917
:103D380013447B617B695B01FA681A441B4B1B685F
:103D480010461946022200F0F1FB03467A69134433
:103D58007B617B695B01FA681344184614490422A5
:103D680000F0E4FB03467A6913447B617B695B01DD
:103D7800FA68134418460F49032200F0D7FB03469C
:103D88007A6913447B617B68002B02D07B68002230
:103D98001A60FFF7FDFE7B6918461837BD4680BDDF
:103DA800CC050020F80400208405002088050020A8
:103DB800A0050020B805002080B586B000AF00231C
:103DC8007B615D4B1B68002B40F0A4805B4B1B683C
:103DD8005A1C5A4B1A60594B1B683B613B69002BB4
:103DE8002ED1574B1B681B68002B02D001F0DEFA5E
:103DF800FEE7534B1B68FB60524B1A68504B1A6026
:103E0800504BFA681A60504B1B685A1C4E4B1A608C
:103E18004B4B1B681B68002B01D1012300E00023DA
:103E2800002B04D0494B4FF0FF321A6008E0444B96
:103E38001B68DB68DB68BB60BB685A68434B1A6069
:103E4800424B1B683A699A424FD33D4B1B681B682B
:103E5800002B01D1012300E00023002B04D03B4BB1
:103E68004FF0FF321A6040E0354B1B68DB68DB68B7
:103E7800BB60BB685B687B603A697B689A4203D227
:103E8800324B7A681A6030E0BB680433184601F098
:103E980071F9BB689B6A002B04D0BB6818331846BD
:103EA80001F068F9BB68DA6A294B1B689A4203D9A2
:103EB800BB68DA6A264B1A60BB68DA6A13469B004D
:103EC80013449B00234A1A44BB680433104619461E
:103ED80001F0F4F8BB68DA6A1F4B1B68DB6A9A4288
:103EE80002D301237B61B0E7AFE71B4B1B68DA6A9B
:103EF800184913469B0013449B000B441B68012B75
:103F080001D901237B61154B1B68002B09D1FFF7F1
:103F1800C3FA06E0114B1B685A1C104B1A60FFF7D6
:103F2800BBFA0F4B1B68002B01D001237B617B6917
:103F380018461837BD4680BDDC050020D005002096
:103F48008405002088050020E805002018000020CE
:103F5800D4050020F8040020F4040020E005002027
:103F6800E405002080B582B000AF354B1B68002BFC
:103F780003D0344B01221A605EE0324B00221A60F3
:103F8800314B1B681A68304B1B681B6B9A4208D868
:103F98002D4B1A682C4B1B68343310461946FFF713
:103FA800C9FA294B1B681B6B18462849142204F0D0
:103FB8005BFD0346002B09D0234B1A68224B1B6874
:103FC800343310461946FFF7B5FA0CE00BE0204BE6
:103FD8001B68002B02D101F0E9F9FEE71C4B1B68B6
:103FE8005A1E1B4B1A601A4B1A681A4913469B0033
:103FF80013449B000B441B68002BE8D0144B1A6831
:1040080013469B0013449B00124A13447B607B6851
:104018005B685A687B685A607B685A687B680833B3
:104028009A4204D17B685B685A687B685A607B68EF
:104038005B68DA68044B1A600837BD4680BD00BF6C
:10404800DC050020E4050020F4040020AC9B0008F7
:10405800D4050020F804002080B584B000AF786053
:1040680039607B68002B02D101F0A0F9FEE7124B02
:104078001B6818337868194601F044F80E4B1B6822
:104088000433184601F076F83B68B3F1FF3F07D1D7
:10409800094B1B6804330948194601F00FF807E07B
:1040A800074B1A683B681344FB60F86800F0D6F9C0
:1040B8001037BD4680BD00BFF4040020B8050020BD
:1040C800D005002080B584B000AF786039607B6887
:1040D800002B02D101F06AF9FEE70C4B1B6818337C
:1040E8007868194600F0EAFF084B1B680433184645
:1040F80001F040F8064B1A683B681344FB60F86807
:1041080000F0ACF91037BD4680BD00BFF4040020B4
:10411800D005002080B584B000AF78607B68DB688C
:10412800DB68BB60BB68002B02D101F03FF9FEE7FA
:10413800BB681833184601F01DF81E4B1B68002B8E
:104148001DD1BB680433184601F014F8BB68DA6A5D
:10415800194B1B689A4203D9BB68DA6A164B1A6076
:10416800BB68DA6A13469B0013449B00134A1A443F
:10417800BB6804331046194600F0A0FF05E0BB6891
:1041880018330F48194600F099FFBB68DA6A0D4BDF
:104198001B68DB6A9A4205D30123FB600A4B0122A4
:1041A8001A6001E00023FB60FB6818461037BD4623
:1041B80080BD00BFDC050020D4050020F8040020E5
:1041C8008C050020F4040020E405002080B582B0AE
:1041D80000AF78607B68002B02D101F0E7F8FEE7BA
:1041E800054B1A687B681A60044B1A687B685A602A
:1041F8000837BD4680BD00BFE8050020D005002077
:1042080080B584B000AF786039607B68002B02D13C
:1042180001F0CCF8FEE73B68002B02D101F0C6F8AC
:10422800FEE701F0A1F81C4B1B68BB603B681B68EC
:10423800B3F1FF3F02D10023FB6026E07B681A68D8
:10424800164B1B689A4207D07B685A68BB689A422B
:1042580002D80123FB6018E07B685B68BA68D21A51
:104268003B681B689A420ED23B681A687B6859689B
:10427800BB68CB1A1A443B681A607868FFF7A6FF38
:104288000023FB6001E00123FB6001F07DF8FB687F
:1042980018461037BD4680BDD0050020E80500202F
:1042A80080B400AF034B01221A60BD465DF8047B61
:1042B800704700BFE405002080B582B000AF786089
:1042C80000F092F8044B1B68012B01D901F03CF86F
:1042D800FFF72AF9F4E700BFF804002080B586B09C
:1042E80000AFF860B9607A603B6000237B6112E040
:1042F800BA687B6913441A78F9687B690B443033D0
:104308001A71BA687B6913441B78002B00D105E049
:104318007B6901337B617B69092BE9D9FB68002242
:1043280083F83D207B68042B01D904237B60FB685C
:104338007A68DA62FB687A689A64FB68043318461C
:1043480000F0B0FEFB681833184600F0ABFEFB68BF
:10435800FA681A617B68C3F10502FB689A61FB6819
:10436800FA685A621837BD4680BD00BF80B582B072
:1043780000AF00237B600CE07A6813469B0013446F
:104388009B00114A1344184600F06CFE7B68013309
:104398007B607B68042BEFD90C4800F063FE0C4867
:1043A80000F060FE0B4800F05DFE0B4800F05AFE7E
:1043B8000A4800F057FE0A4B044A1A60094B044A9F
:1043C8001A600837BD4680BDF80400205C0500204F
:1043D800700500208C050020A0050020B8050020ED
:1043E800840500208805002080B582B000AF28E051
:1043F800FFF7C0FB164B1B68002B14BF00230123DB
:10440800DBB27B60FFF7C4FB7B68002B19D100F09F
:10441800ABFF0F4BDB68DB683B603B680433184637
:1044280000F0A8FE0B4B1B685A1E0A4B1A600A4B79
:104438001B685A1E084B1A6000F0A6FF386800F087
:104448000FF9054B1B68002BD2D10837BD4680BD3C
:10445800A0050020CC050020B405002080B582B05E
:1044680000AF7860134B1B687A685A60124B1B6860
:104478007A689A4209D2114B1A680E4B1B680433AA
:104488001046194600F03EFE10E00D4B1A68094B25
:104498001B6804331046194600F034FE094B1B68AC
:1044A8007A689A4202D2074B7A681A600837BD4682
:1044B80080BD00BFF4040020D0050020880500203E
:1044C800840500201800002080B584B000AF0346A2
:1044D8003960FB804C2001F0B9FDF860FB68002BC7
:1044E8001FD03B68002B06D1FB889B00184601F0C3
:1044F800ADFD034600E03B68FA681363FB681B6B7D
:10450800002B05D1F86801F02DFE0023FB6008E0C0
:10451800FB681A6BFB889B001046A5211A4604F01D
:10452800D7FAFB6818461037BD4680BD90B58BB0EA
:1045380000AFF860B9601346FB7100237B62BB686B
:104548001B68002B6BD0BB683B623B6A5B685A6890
:104558003B6A5A603B6A5A683B6A08339A4204D1FC
:104568003B6A5B685A683B6A5A603B6A5B68DB680F
:10457800FB61BB68BB61BB695B685A68BB695A6011
:10458800BB695A68BB6908339A4204D1BB695B6846
:104598005A68BB695A60BB695B68DB687B617B6A88
:1045A8005B01FA6813447A691A607B6A5B01FA68EE
:1045B80013447A6934325A607B6A5B01FA6813449F
:1045C8007A69126C9A607B6A5B01FA681344FA791B
:1045D8001A737B6A5B01FA6813447A69D26A1A61B2
:1045E8007B6A5B01FA6813447A69926C5A617B6A48
:1045F8005B01FA68134400229A617B6A5B01FA68DE
:10460800D4187B691B6B184600F00EF80346A38389
:104618007B6A01337B627A69FB699A42A9D17B6A1A
:1046280018462C37BD4690BD80B485B000AF786081
:104638000023FB8105E07B6801337B60FB89013344
:10464800FB817B681B78A52BF5D0FB899B08FB8138
:10465800FB8918461437BD465DF8047B704700BFD8
:1046680080B582B000AF78607B681B6B184601F09C
:1046780079FD786801F076FD0837BD4680BD00BF3A
:1046880080B483B000AF054B1B687B607B6818461D
:104698000C37BD465DF8047B704700BFF40400206A
:1046A80080B483B000AF0B4B1B68002B02D10023F2
:1046B8007B6008E0084B1B68002B02D101237B605C
:1046C80001E002237B607B6818460C37BD465DF825
:1046D800047B7047D8050020DC05002080B584B035
:1046E80000AF78607B68FB607B68002B46D0FB6876
:1046F800DA6A244B1B68DB6A9A423FD2214B1B685B
:10470800DB6AC3F10502FB689A61FB685969FB68BB
:10471800DA6A13469B0013449B001B4A13449942D0
:1047280001D1012300E00023002B22D0FB680433D1
:10473800184600F01FFD134B1B68DA6AFB68DA6243
:10474800FB68DA6A114B1B689A4203D9FB68DA6A7C
:104758000E4B1A60FB68DA6A13469B0013449B00F1
:10476800094A1A44FB6804331046194600F0A6FCAF
:1047780004E0044B1B68DA6AFB68DA621037BD464E
:1047880080BD00BFF4040020F8040020D4050020F8
:1047980080B584B000AF78607B68FB607B68002BD5
:1047A8002CD0FB68DA6AFB689B6C9A4226D0FB68BF
:1047B8000433184600F0DEFCFB689A6CFB68DA628A
:1047C800FB68DB6AC3F10502FB689A61FB68DA6A79
:1047D8000C4B1B689A4203D9FB68DA6A094B1A60CA
:1047E800FB68DA6A13469B0013449B00064A1A4486
:1047F800FB6804331046194600F060FC1037BD46CC
:1048080080BD00BFD4050020F8040020B0B58AB0F0
:1048180004AF78607B6800221A70354B1B68FB6018
:10482800334B1B685B01184601F010FC38613B698B
:10483800002B5AD0FB68386919460022FFF740FA66
:104848000346FB600023BB6048E0BB685B013A6934
:1048580013441B7B013B032B16D801A252F823F00B
:10486800794800087F480008854800088B480008F8
:104878005223FB750BE04223FB7508E05323FB75BD
:1048880005E04423FB7502E00023FB7500BFBB680D
:104898005B013A6913445A68FB7DB9684901386974
:1048A80001440C69B968490138690144898B084693
:1048B800B96849013D6929448968009401900291C9
:1048C80078680C49FEF796FC786804F0A9F9034665
:1048D8007A6813447B60BB680133BB60BA68FB68C5
:1048E8009A42B2D3386901F03DFC1837BD46B0BDD5
:1048F800CC0500201096000880B584B000AF786021
:1049080039607B68FB60FB68002B02D100F04EFD2C
:10491800FEE700F029FDFB681A68FB68DB6BF968A5
:10492800096C01FB03F31A44FB685A60FB68002218
:104938009A63FB681A68FB689A60FB681A68FB68E8
:10494800DB6B013BF968096C01FB03F31A44FB6854
:10495800DA60FB684FF0FF325A64FB684FF0FF32B1
:104968009A643B68002B0ED1FB681B69002B14D09E
:10497800FB6810331846FFF7CDFB0346012B0CD11B
:1049880000F0E2FC09E0FB681033184600F06AFB0F
:10499800FB682433184600F065FB00F0F5FC0123A2
:1049A80018461037BD4680BD80B588B000AFF860A6
:1049B800B9601346FB710023FB61FB68002B2AD00A
:1049C800502001F043FBB861BB69002B23D0FB6882
:1049D800BA6802FB03F301337B61786901F036FBA7
:1049E8000246BB691A60BB691B68002B10D0BB6903
:1049F800FA68DA63BB69BA681A64B8690121FFF713
:104A08007BFFBB69FA7983F84D20BB69FB6102E043
:104A1800B86901F0A7FBFB69002B02D100F0C6FCC6
:104A2800FEE7FB6918462037BD4680BD80B588B0D3
:104A380000AFF860B9607A603B600023FB61FB68F7
:104A4800BB61BB69002B02D100F0B0FCFEE7BB687C
:104A5800002B03D1BB691B6C002B01D1012300E0A3
:104A68000023002B02D100F0A1FCFEE73B68022BDB
:104A780003D1BB69DB6B012B01D1012300E00023CB
:104A8800002B02D100F092FCFEE700F06DFCBB6940
:104A98009A6BBB69DB6B9A4202D33B68022B16D137
:104AA800B869B9683A6800F0A9F9BB695B6A002B74
:104AB80009D0BB6924331846FFF72CFB0346012BAA
:104AC80001D100F041FC00F05FFC012359E07B6854
:104AD800002B03D100F058FC002352E0FB69002BA7
:104AE80006D107F110031846FFF770FB0123FB619D
:104AF80000F04AFCFFF73EF800F036FCBB695B6C3F
:104B0800B3F1FF3F02D1BB6900225A64BB699B6CB9
:104B1800B3F1FF3F02D1BB6900229A6400F034FC74
:104B280007F110023B1D10461946FFF769FB0346C3
:104B3800002B1ED1B86900F051FA0346002B12D0A1
:104B4800BB6903F110027B6810461946FFF784FA27
:104B5800B86900F0E1F9FFF71BF80346002B0FD105
:104B680000F0F2FB0CE0B86900F0D6F9FFF710F896
:104B78008BE7B86900F0D0F9FFF70AF8002300E0E6
:104B880083E718462037BD4680BD00BF80B588B092
:104B980000AFF860B9607A603B60FB68BB61BB69D5
:104BA800002B02D100F002FCFEE7BB68002B03D10A
:104BB800BB691B6C002B01D1012300E00023002BF3
:104BC80002D100F0F3FBFEE73B68022B03D1BB697F
:104BD800DB6B012B01D1012300E00023002B02D164
:104BE80000F0E4FBFEE700F04FFC00F0DFFB78612B
:104BF800BB699A6BBB69DB6B9A4202D33B68022B99
:104C080024D1B869B9683A6800F0F8F8BB699B6CB8
:104C1800B3F1FF3F12D1BB695B6A002B13D0BB69AC
:104C280024331846FFF776FA0346002B0BD07B682F
:104C3800002B08D07B6801221A6004E0BB699B6CDA
:104C48005A1CBB699A640123FB6101E00023FB61E4
:104C5800786900F0B5FBFB6918462037BD4680BD72
:104C680080B58AB000AFF860B9607A603B60002315
:104C78007B62FB683B623B6A002B02D100F096FB2B
:104C8800FEE7BB68002B03D13B6A1B6C002B01D1EC
:104C9800012300E00023002B02D100F087FBFEE790
:104CA80000F062FB3B6A9B6B002B3BD03B6ADB68E6
:104CB800FB61386AB96800F009F93B68002B1CD120
:104CC8003B6A9B6B5A1E3B6A9A633B6A1B68002BC4
:104CD80004D1FFF7D5FC02463B6A5A603B6A1B6960
:104CE800002B1BD03B6A10331846FFF713FA034614
:104CF800012B13D100F028FB10E03B6AFA69DA6057
:104D08003B6A5B6A002B09D03B6A24331846FFF7DD
:104D180001FA0346002B01D000F016FB00F034FB2B
:104D2800012366E07B68002B03D100F02DFB0023F4
:104D38005FE07B6A002B06D107F114031846FFF7E2
:104D480045FA01237B6200F01FFBFEF713FF00F01A
:104D58000BFB3B6A5B6CB3F1FF3F02D13B6A00225D
:104D68005A643B6A9B6CB3F1FF3F02D13B6A002255
:104D78009A6400F009FB07F114023B1D104619461E
:104D8800FFF73EFA0346002B2BD1386A00F010F9E2
:104D98000346002B1FD03B6A1B68002B08D100F08C
:104DA800E3FA3B6A5B681846FFF798FC00F0ECFAF8
:104DB8003B6A03F124027B6810461946FFF74CF959
:104DC800386A00F0A9F8FEF7E3FE0346002B0FD17E
:104DD80000F0BAFA0CE0386A00F09EF8FEF7D8FE48
:104DE8005EE7386A00F098F8FEF7D2FE002300E08C
:104DF80056E718462837BD4680BD00BF80B584B049
:104E080000AFF860B9607A60FB681B6C002B0CD1AE
:104E1800FB681B68002B51D1FB685B681846FFF7DD
:104E2800B7FCFB6800225A6048E07B68002B1AD167
:104E3800FB689A68FB681B6C1046B9681A46FBF752
:104E4800C9F9FB689A68FB681B6C1A44FB689A608E
:104E5800FB689A68FB685B689A422FD3FB681A68FC
:104E6800FB689A602AE0FB68DA68FB681B6C1046EE
:104E7800B9681A46FBF7AEF9FB68DA68FB681B6C81
:104E88005B421A44FB68DA60FB68DA68FB681B68F7
:104E98009A4207D2FB685A68FB681B6C5B421A444B
:104EA800FB68DA607B68022B08D1FB689B6B002BE0
:104EB80004D0FB689B6B5A1EFB689A63FB689B6B6C
:104EC8005A1CFB689A631037BD4680BD80B582B016
:104ED80000AF786039607B681B68002B19D07B684D
:104EE800DA687B681B6C1A447B68DA607B68DA686E
:104EF8007B685B689A4203D37B681A687B68DA60D0
:104F08007B68DA687B681B6C386811461A46FBF7C1
:104F180061F90837BD4680BD80B582B000AF7860C2
:104F280000F022FA14E07B685B6A002B0AD07B68E9
:104F380024331846FFF7EEF80346002B03D0FFF79B
:104F4800AFF900E008E07B689B6C5A1E7B689A64A6
:104F58007B689B6C002BE6DC7B684FF0FF329A6421
:104F680000F012FA00F000FA14E07B681B69002BCD
:104F78000FD07B6810331846FFF7CCF80346002B98
:104F880001D0FFF78DF97B685B6C5A1E7B685A6409
:104F980000E003E07B685B6C002BE6DC7B684FF08D
:104FA800FF325A6400F0F0F90837BD4680BD00BFF3
:104FB80080B584B000AF786000F0D6F97B689B6B51
:104FC800002B02D10123FB6001E00023FB6000F00D
:104FD800DBF9FB6818461037BD4680BD80B584B044
:104FE80000AF786000F0C0F97B689A6B7B68DB6B78
:104FF8009A4202D10123FB6001E00023FB6000F02C
:10500800C3F9FB6818461037BD4680BD80B584B02B
:1050180000AF786039607B68FB6000F0A5F9FB6839
:105028005B6CB3F1FF3F02D1FB6800225A64FB6856
:105038009B6CB3F1FF3F02D1FB6800229A6400F039
:10504800A3F9FB689B6B002B05D1FB68243318463A
:105058003968FFF737F8F868FFF75EFF1037BD4685
:1050680080BD00BF80B483B000AF78607B6803F177
:1050780008027B685A607B684FF0FF329A607B6851
:1050880003F108027B68DA607B6803F108027B6839
:105098001A617B6800221A600C37BD465DF8047BF4
:1050A800704700BF80B483B000AF78607B6800228F
:1050B8001A610C37BD465DF8047B704780B485B033
:1050C80000AF786039607B685B68FB603B68FA68B2
:1050D8005A60FB689A683B689A60FB689B683A6804
:1050E8005A60FB683A689A603B687A681A617B681C
:1050F8001B685A1C7B681A601437BD465DF8047B30
:10510800704700BF80B485B000AF786039603B68F5
:105118001B68BB60BB68B3F1FF3F03D17B681B69A9
:10512800FB600CE07B680833FB6002E0FB685B68AF
:10513800FB60FB685B681A68BB689A42F6D9FB6833
:105148005A683B685A603B685B683A689A603B6893
:10515800FA689A60FB683A685A603B687A681A612C
:105168007B681B685A1C7B681A601437BD465DF85B
:10517800047B704780B485B000AF78607B685B685B
:105188007A6892689A607B689B687A6852685A6005
:105198007B681B69FB60FB685A687B689A4203D18D
:1051A8007B689A68FB685A607B6800221A61FB6812
:1051B8001B685A1EFB681A60FB681B681846143780
:1051C800BD465DF8047B704780B485B000AFF860D9
:1051D800B9607A60FB68043BFB60FB684FF0807243
:1051E8001A60FB68043BFB60BA68FB681A60FB68DE
:1051F800043BFB600C4AFB681A60FB68143BFB60CD
:105208007A68FB681A60FB68043BFB60FB686FF018
:1052180002021A60FB68203BFB60FB6818461437E3
:10522800BD465DF8047B70473552000880B500AF75
:10523800054B1B68B3F1FF3F02D000F0B7F8FEE75B
:1052480000F0B4F8FEE700BF1C000020054B196809
:105258000868B0E8F04F80F309884FF0000080F349
:1052680011887047F404002003480068006880F340
:10527800088862B600DF00BF08ED00E080B584B0A2
:1052880000AF2B4BFB60FB681B78DBB2BB60FB6895
:10529800FF221A70FB681B78DBB2FB71FB79DBB26B
:1052A80003F05003DAB2234B1A70234B07221A601B
:1052B80009E0214B1B685A1E1F4B1A60FB79DBB2B1
:1052C8005B00DBB2FB71FB79DBB2DBB25BB2002BBC
:1052D800EFDB194B1B681A02174B1A60164B1B6839
:1052E80003F4E062144B1A60BB68DAB2FB681A7008
:1052F800124B124A126842F470021A600F4B0F4A9E
:10530800126842F070421A6000F09AF80C4B0022C2
:105318001A6000F0AFF80B4B0A4A126842F040429C
:105328001A60FFF7A1FF002318461037BD4680BD5D
:1053380000E400E0F0050020F405002020ED00E086
:105348001C00002034EF00E080B400AF054B4FF0A4
:1053580080521A60BFF34F8FBFF36F8FBD465DF861
:10536800047B704704ED00E080B500AF00F01EF844
:10537800044B1B685A1C034B1A60BFF34F8FBFF3D3
:105388006F8F80BD1C00002080B500AF064B1B68E6
:105398005A1E054B1A60044B1B68002B02D10020D3
:1053A80000F00EF880BD00BF1C000020EFF3118054
:1053B8004FF0500181F3118870470023184600BF51
:1053C80080F31188704700BFEFF30980114B1A680A
:1053D8001EF0100F08BF20ED108A20E9F04F106072
:1053E8002DE908404FF0500080F31188FEF7BAFD10
:1053F8004FF0000080F31188BDE80840196808687C
:10540800B0E8F04F1EF0100F08BFB0EC108A80F320
:1054180009887047F404002080B500AFFFF7C6FF85
:10542800FEF7CAFC0346002B03D0044B4FF0805212
:105438001A600020FFF7C4FF80BD00BF04ED00E044
:1054480080B400AF074B084A1168084AA2FB010262
:105458009209013A1A60064B07221A60BD465DF8A8
:10546800047B704714E000E004000020D34D621074
:1054780010E000E0DFF80C00016841F47001016001
:105488007047000088ED00E080B582B000AFEFF310
:1054980005837B607B680F2B0CD90D4A7B6813440E
:1054A8001B78FB700B4B1B78FA789A4202D2FFF7F5
:1054B8007DFFFEE7084B1B6803F4E062074B1B689F
:1054C8009A4202D9FFF772FFFEE70837BD4680BD52
:1054D800F0E300E0F00500200CED00E0F40500200A
:1054E80080B586B004AF00237B6000F045FA0F4B0F
:1054F8001B68002B0FD00223009300230193002385
:105508000293002303930A480A494FF400720023C8
:10551800FEF77EF978607B68002B02D1FFF746FF23
:10552800FEE77B6818460837BD4680BD2806002080
:105538003D5600082496000880B588B000AFF86092
:10554800B9607A603B600023FB611D4B1B68002B30
:1055580030D0BB683B617B687B61FB68BB613B68A3
:10556800002B1CD1FFF79CF80346012B0BD1144BE1
:105578001A6807F1100310461946BA6A0023FFF7A4
:1055880055FAF86116E00E4B1A6807F11003104639
:10559800194600220023FFF749FAF8610AE0084B90
:1055A8001A6807F11003104619463A680023FFF7F6
:1055B800EDFAF861FB6918462037BD4680BD00BF8B
:1055C8002806002080B586B002AF78603960184B95
:1055D8001B68DB68DB68FB60FB6804331846FFF771
:1055E800C9FDFB68DB69012B1BD1FB689A697B68E5
:1055F8001344F86819463A687B6800F0A9F803462E
:10560800012B0ED100230093F86800217A6800234B
:10561800FFF792FFB860BB68002B02D1FFF7C6FE08
:10562800FEE7FB685B6AF86898471037BD4680BD9F
:105638002006002080B584B000AF786007F1080329
:10564800184600F03FF8F860BB68F868194600F0A3
:1056580003F800F0BFF8F1E780B584B000AF7860D8
:105668003960FEF787FA07F10803184600F04EF88C
:10567800F860BB68002B1ED13B68002B0AD17A6802
:10568800FB689A4206D8FEF783FA7868F968FFF74C
:1056980099FF12E00A4B1A687968FB68CB1A104622
:1056A8001946FFF7B3FCFEF773FA0346002B04D143
:1056B800FFF74AFE01E0FEF76BFA1037BD4680BDE2
:1056C8002806002080B485B000AF78600E4B1B68B8
:1056D8001B68002B14BF00230123DBB21A467B682A
:1056E8001A607B681B68002B05D1074B1B68DB68B9
:1056F8001B68FB6001E00023FB60FB681846143759
:10570800BD465DF8047B70472006002080B584B054
:1057180000AF7860FEF7C2FAF8600C4B1B68FA68B5
:105728009A4208D2094B1B68184600F0CBF87B68F0
:1057380001221A6002E07B6800221A60034BFA68B3
:105748001A60FB6818461037BD4680BD2C0600203D
:1057580080B586B000AFF860B9607A603B6000231E
:105768007B61FB68BA685A60FB68FA681A61BA68B4
:105778007B689A4212D87A683B68D21AFB689B69A0
:105788009A4202D301237B611BE0104B1A68FB6825
:10579800043310461946FFF7B5FC12E07A683B68F7
:1057A8009A4206D2BA683B689A4202D301237B61C7
:1057B80007E0074B1A68FB68043310461946FFF7E1
:1057C800A1FC7B6918461837BD4680BD2406002019
:1057D8002006002080B58AB002AF60E03B69FB611B
:1057E800FB695B69002B04D0FB6904331846FFF79B
:1057F800C1FC3B1D1846FFF789FFB861BB68032B46
:105808004CD801A252F823F021580008A5580008E6
:10581800735800089D580008FA68FB699B691A4488
:10582800FB68F8691146BA69FFF792FF0346012B36
:105838001AD1FB695B6AF8699847FB69DB69012B38
:1058480012D1FA68FB699B69134400220092F86937
:1058580000211A460023FFF76FFE78617B69002B51
:1058680002D1FFF7A3FDFEE719E0FA68FB699A6128
:10587800FB699B69002B02D1FFF798FDFEE7FB69E6
:105888009A69BB691344F8691946BA69BB69FFF795
:105898005FFF04E0F86900F065FC00E000BF084B1A
:1058A8001A6807F108031046194600220023FFF77B
:1058B800D7F90346002B91D12037BD4680BD00BFE4
:1058C8002806002080B58AB002AF78603DE0284BFA
:1058D8001B68DB681B68FB61254B1B68DB68DB68A2
:1058E800BB61BB6904331846FFF744FCBB695B6ABC
:1058F800B8699847BB69DB69012B26D1BB699A69EE
:10590800FB6913447B617A69FB699A420ED9BB69CA
:105918007A695A60BB69BA691A61154B1A68BB691A
:10592800043310461946FFF7EDFB0EE00023009301
:10593800B8690021FA690023FFF7FEFD38613B6969
:10594800002B02D1FFF732FDFEE7094B1B681B68ED
:10595800002BBCD1064B1B68FB60064B1A68044B36
:105968001A60044BFA681A602037BD4680BD00BF34
:10597800200600202406002080B500AFFFF7F4FCC5
:105988000D4B1B68002B13D10C48FFF76BFB0C4821
:10599800FFF768FB0B4B094A1A600B4B084A1A6061
:1059A8000A200C210022FEF7FFFF0246024B1A6074
:1059B800FFF7EAFC80BD00BF28060020F80500209C
:1059C8000C060020200600202406002080B483B0A6
:1059D80000AF7860134BDB6803F08073002B1AD09C
:1059E8004FF06043D3F8803E03F00103002B12D040
:1059F8004FF06043D3F8003E03F00103002B0AD0B8
:105A080000BF4FF060431B68002BFAD04FF0604393
:105A18007A68D2B21A707B6818460C37BD465DF8B2
:105A2800047B7047F0ED00E080B483B000AF03461C
:105A3800FB71064B1B68591C044A1160FA791A70ED
:105A48000C37BD465DF8047B704700BF3006002068
:105A580080B582B000AF0346FB71FB79092B07D9EB
:105A68000A4B1B78002B01D0372302E0572300E0B4
:105A78003023FA791344DBB21846FFF7D5FF044BFD
:105A880001221A700837BD4680BD00BF44060020B9
:105A98004506002080B584B000AF78600023FB7312
:105AA800104B1A680F4B1A6008E00E4B1A687B6897
:105AB800D21A0C4B1A60FB7B0133FB73094B1A6833
:105AC8007B689A42F1D2084B1B78002B02D1FB7BF2
