:020000040800F2
:100000000000022011310008713100087131000830
:1000100071310008713100087131000800000000E2
:100020000000000000000000000000009D4E0008DD
:1000300071310008000000001950000869500008E4
:100040007131000871310008713100087131000808
:1000500071310008713100087131000871310008F8
:1000600071310008713100085D1500087131000818
:1000700071310008713100087131000871310008D8
:1000800071310008713100087131000871310008C8
:1000900071310008713100087131000871310008B8
:1000A00071310008713100087131000871310008A8
:1000B000B130000875300008713100087131000856
:1000C0007131000871310008713100087131000888
:1000D0007131000871310008713100087131000878
:1000E0007131000871310008713100087131000868
:1000F0007131000871310008713100087131000858
:100100007131000871310008713100087131000847
:100110007131000871310008713100087131000837
:10012000713100087131000835060008BD0600086D
:100130007131000871310008713100087131000817
:100140007131000871310008713100087131000807
:10015000713100087131000871310008B5170008CD
:1001600071310008713100087131000871310008E7
:1001700071310008713100087131000871310008D7
:08018000713100087131000823
:1001880010B5054C237833B9044B13B10448AFF3C9
:1001980000800123237010BD6004002000000000CF
:1001A800F091000808B5064B1BB106480649AFF3A5
:1001B80000800648036813B1054B03B1984708BD92
:1001C80000000000F0910008640400206004002092
:1001D80000000000844641EA000313F003036DD1D8
:1001E800403A41D351F8043B40F8043B51F8043BF2
:1001F80040F8043B51F8043B40F8043B51F8043BF9
:1002080040F8043B51F8043B40F8043B51F8043BE8
:1002180040F8043B51F8043B40F8043B51F8043BD8
:1002280040F8043B51F8043B40F8043B51F8043BC8
:1002380040F8043B51F8043B40F8043B51F8043BB8
:1002480040F8043B51F8043B40F8043B51F8043BA8
:1002580040F8043B51F8043B40F8043B51F8043B98
:1002680040F8043B403ABDD2303211D351F8043B38
:1002780040F8043B51F8043B40F8043B51F8043B78
:1002880040F8043B51F8043B40F8043B103AEDD2E7
:100298000C3205D351F8043B40F8043B043AF9D238
:1002A800043208D0D2071CBF11F8013B00F8013B0B
:1002B80001D30B8803806046704700BF082A13D318
:1002C8008B078DD010F003038AD0C3F10403D21A30
:1002D800DB071CBF11F8013B00F8013B80D331F864
:1002E800023B20F8023B7BE7043AD9D3013A11F8E4
:1002F800013B00F8013BF9D20B7803704B7843704F
:100308008B7883706046704780B59AB000AF012043
:10031800012107F0E1F80120012107F0DDF80120B3
:10032800012107F0D9F880233B66022387F864305F
:10033800002387F86630032387F86530022387F89F
:10034800673007F16003B148194606F0DDFD202348
:100358003B66022387F86430002387F8663003235E
:1003680087F86530022387F8673007F16003A748EC
:10037800194606F0C9FD40233B66022387F864301E
:10038800012387F86630032387F86530002387F850
:10039800673007F160039D48194606F0B5FD9B4894
:1003A8000621052206F0C6FE98480721052206F018
:1003B800C1FE96480521052206F0BCFE0420012155
:1003C80007F08AF80420012107F086F810233B661D
:1003D800012387F86430002387F86630032387F801
:1003E8006530012387F8673007F1600387481946AD
:1003F80006F08AFD854B854A128B92B242F01002B4
:1004080092B21A8320233B66012387F864300023C5
:1004180087F86630032387F86530012387F867304B
:1004280007F160037A48194606F06EFD784B784A62
:10043800128B92B242F0200292B21A834FF480508B
:10044800012107F081F80023A7F84C304FF482739C
:10045800A7F84E300023A7F850300023A7F85230F1
:100468000023A7F854304FF44073A7F856300823F8
:10047800A7F858300023A7F85A3007F14C0365480D
:10048800194607F099F86348012107F087F94FF4F6
:100498008000012107F020F85F4805F04DFC5F4817
:1004A80005F04AFC00BF5C4806F056F80346002BEE
:1004B800F9D100BF594806F04FF80346002BF9D18F
:1004C80007F11003184605F011FF00233B634FF4B2
:1004D8008063BB6200237B63514B7B610023BB6459
:1004E8000023FB6200237B624FF40033BB634FF0B1
:1004F800C0633B614023FB614A4BBB614FF4FA6325
:100508003B6207F110034448194605F02BFD4FF0F4
:10051800C0633B610023FB61434BBB614FF4FA634B
:100528003B6207F110033D48194605F01BFD3A48A8
:100538001021012206F08EF838481021012206F019
:1005480089F83448022107F027FA3248012107F0D8
:1005580023FA3B233B7306237B730123BB730123DD
:10056800FB7307F10C03184605F06CFB3A233B7349
:1005780006237B730123BB730123FB7307F10C0371
:10058800184605F05FFB23480221012207F048F9CD
:1005980020480121012207F043F910233B6600237C
:1005A80087F86430002387F86630002387F86730BF
:1005B800032387F8653007F160031548194606F0EC
:1005C800A3FC4FF48040012106F0BEFF0220042165
:1005D80007F01CFA10237B6000233B720C237B720C
:1005E8000123BB723B1D184606F052FB0A233B70E1
:1005F8000A237B700323BB700123FB703B4618461C
:1006080005F020FB6837BD4680BD00BF00000240F2
:100618000008024000300140586402404064024033
:100628000C300140D83901200032012080B500AFDC
:1006380019481A4906F0C4F80346002B2AD0164870
:10064800164906F079FA00BF1548802107F046F9E7
:100658000346012BF8D0134B124A128B92B242F088
:10066800100292B21A831048002105F075FE0A485C
:10067800002105F071FE04F09BFC0C4B00221A606F
:100688000B4B1B6818460021084A002304F0A2F807
:1006980004F09EFC80BD00BF406402400080201032
:1006A8000030014000000240586402407C040020F1
:1006B800EC31012080B500AF19481A4906F080F8DE
:1006C8000346002B2AD01648164906F035FA00BF13
:1006D8001548802107F002F90346012BF8D0134B87
:1006E800124A128B92B242F0100292B21A830C484C
:1006F800002105F031FE0E48002105F02DFE04F022
:1007080057FC0C4B00221A600B4B1B681846002143
:10071800084A002304F05EF804F05AFC80BD00BFCC
:100728005864024000800018003001400000024078
:10073800406402407C040020EC3101202DE9F043A4
:1007480087B000AF0B463A600246FA80BB806B4622
:100758001E46BB88191D4B1E3B610B461A464FF0BF
:1007680000034FEAC30949EA52794FEAC2080B4627
:100778001A464FF00003DD0045EA5275D4000B46D7
:100788000733DB08DB00ADEB030D6B460033FB6082
:10079800FB881B0A9BB2DAB2FB681A70FB88DAB2D4
:1007A800FB685A70BB8803F4FE431B12DBB263F08C
:1007B8007F03DBB2DAB2FB689A70BB88DAB2FB68F7
:1007C800DA7004237B610BE07B69043B3A681344CD
:1007D8001A78F9687B690B441A707B6901337B616D
:1007E800BB881A1D7B699A42EEDCBB8804339BB236
:1007F8001248194605F03CFE104BFA68DA60104BB7
:100808000F4A528B92B242F0100292B25A830B48AE
:10081800012105F0A1FD0B48012105F09DFD0A4BC2
:100828001B68184600214FF0FF32002304F03CF803
:10083800B5461C37BD46BDE8F08300BF586402408A
:100848000000024040640240EC31012080B584B0D1
:1008580000AF02460B46FA80BB800223FB81FB886F
:100868001B0A9BB2DBB23B72FB88DBB27B72FB8953
:1008780003F4FE431B12DBB263F07F03DBB2DBB28F
:10088800BB72FB89DBB2FB72BB881B0A9BB2DBB273
:100898003B73BB88DBB27B731148062105F0E8FD8A
:1008A8000F4B07F10802DA600E4B0E4A528B92B2D8
:1008B80042F0100292B25A830948012105F04CFD1A
:1008C8000948012105F048FD084B1B68184600211E
:1008D8004FF0FF32002303F0E7FF1037BD4680BD1D
:1008E800586402400000024040640240EC3101209C
:1008F80080B584B000AF02460B46FA807B710123B5
:10090800FB81FB881B0A9BB2DBB23B72FB88DBB224
:100918007B72FB8903F4FE431B12DBB263F07F0397
:10092800DBB2DBB2BB72FB89DBB2FB727B793B7358
:100938001148052105F09CFD0F4B07F10802DA600C
:100948000E4B0E4A528B92B242F0100292B25A8368
:100958000948012105F000FD0948012105F0FCFCCA
:10096800084B1B68184600214FF0FF32002303F0A4
:100978009BFF1037BD4680BD58640240000002400E
:1009880040640240EC3101202DE9F04186B000AF0F
:10099800F880B98069468846B9880E1D711E39618C
:1009A800314608464FF00001CD0045EA5075C400B5
:1009B800314608464FF00001CB0043EA5073C200AD
:1009C80033460733DB08DB00ADEB030D6B46003322
:1009D800FB60FB881B0A9BB2DAB2FB681A70FB88C3
:1009E800DAB2FB685A70BB8803F4FE431B12DAB212
:1009F800FB689A70BB88DAB2FB68DA7004237B6103
:100A080007E0FA687B69134400221A707B69013396
:100A18007B61BB881A1D7B699A42F2DCBB88043370
:100A28009BB21748194605F023FDBB8804339BB2D7
:100A38001448194605F01CFD124BFA68DA60104B91
:100A4800114ADA60114B114A528B92B242F01002ED
:100A580092B25A830B48012105F07EFC0848012117
:100A680005F07AFC0A4B1B68184600214FF0FF324C
:100A7800002303F019FFC5461837BD46BDE8F081CD
:100A880040640240586402400032012000000240E5
:100A9800EC31012080B58AB000AF584A07F118033D
:100AA8001068186092889A80554A07F114031068F4
:100AB8001860544A07F1100310681860524A07F189
:100AC8000C031068186001200021032203F090FD38
:100AD80002464E4B1A6002F005FF0346BB604C4BC2
:100AE8004B4A528B92B242F0200292B25A83484B40
:100AF800474A128B92B242F0200292B21A834FF404
:100B0800FA7002F033FD01233B6200208021FFF7D9
:100B1800EFFE8023FB7100BF00200021FFF7E8FEF5
:100B28001620FF21FFF7E4FE36200021FFF7E0FE44
:100B38001720C821FFF7DCFE19200321FFF7D8FE94
:100B480000237B6200237B622BE07B6A9BB21B0243
:100B58009BB203F580431E339BB218460221FFF770
:100B6800C7FE7B6A9BB21B029BB203F580431F330F
:100B78009BB218460221FFF7BBFE7B6A9BB21B02A1
:100B88009BB203F580432C339BB21846FF21FFF735
:100B9800AFFE204A7B6A134400221A707B6A013335
:100BA8007B627B6A072BD0DD07F1080318464FF4F8
:100BB800FA7102F083FC07F1140107F1100207F142
:100BC8000C03084611461A4600F034F807F11803DA
:100BD800184600F023F807F1080318464FF4FA7195
:100BE80002F06CFC0C4B1B68184602F061FD0020FB
:100BF80002F01EFC2837BD4680BD00BF8087000874
:100C0800888700088C87000890870008EC3101204D
:100C18000008024080040020B841012080B582B05D
:100C280000AF7860092006217A68FFF787FD08374A
:100C3800BD4680BD80B584B000AFF860B9607A6009
:100C48000F200421FA68FFF779FD05200421BA680E
:100C5800FFF774FD012004217A68FFF76FFD103754
:100C6800BD4680BD80B584B000AF0346FB71FB79FB
:100C78009BB21B029BB203F5804301339BB218461B
:100C88000121FFF781FE044B1B78FB73FB7B1846A1
:100C98001037BD4680BD00BF0432012080B584B046
:100CA80000AF0346FB71FB799BB21B029BB203F5B5
:100CB800804303339BB218460121FFF765FE044BBE
:100CC8001B78FB73FB7B18461037BD4680BD00BF01
:100CD8000432012080B584B000AF0346FB71FB7974
:100CE8009BB21B029BB203F5804320339BB218468C
:100CF8000221FFF749FE084A07F10C0312881A80FF
:100D08003B7B1B029AB27B7B13439BB29BB2184678
:100D18001037BD4680BD00BF0432012080B584B0C5
:100D280000AF0346FB71FB799BB21B029BB203F534
:100D3800804324339BB218460221FFF725FE084A58
:100D480007F10C0312881A803B7B1B029AB27B7B4B
:100D580013439BB29BB218461037BD4680BD00BFF7
:100D68000432012080B584B000AF0346FB71FB79E3
:100D78009BB21B029BB203F5804322339BB21846F9
:100D88000221FFF701FE084A07F10C0312881A80B6
:100D98003B7B1B029AB27B7B13439BB29BB21846E8
:100DA8001037BD4680BD00BF0432012080B582B037
:100DB80000AF02460B46FA71BB80FB799BB21B025F
:100DC8009BB203F5804324339AB2BB881046194678
:100DD800FFF73CFD0837BD4680BD00BF80B584B035
:100DE80000AF0346FB71FB799BB21B029BB203F574
:100DF800804326339BB218460221FFF7C5FD084AF7
:100E080007F10C0312881A803B7B1B029AB27B7B8A
:100E180013439BB29BB218461037BD4680BD00BF36
:100E28000432012080B584B000AF0346FB71FB7922
:100E38009BB21B029BB203F5804328339BB2184632
:100E48000221FFF7A1FD084A07F10C0312881A8056
:100E58003B7B1B029AB27B7B13439BB29BB2184627
:100E68001037BD4680BD00BF0432012080B582B076
:100E780000AF02460B46FA71BB80FB799BB21B029E
:100E88009BB203F5804328339AB2BB8810461946B3
:100E9800FFF7DCFC0837BD4680BD00BF80B586B0D3
:100EA80000AFBA600246FA730A46BA81FB80BB8972
:100EB800C3F30A03FB82FB7B9BB2DB009BB21B02E2
:100EC8009AB2FB8A13449BB2A3F50043BB82FA8A09
:100ED800FB881A44FB7B1B0203F5804320339A42AC
:100EE8002ADDFB7B9BB2DB009BB21B029AB2FB8A1A
:100EF800D31A9BB2A3F500437B82BA8A7B8A104639
:100F08001946BA68FFF71AFC7B8ABA681344BB60B3
:100F1800FA887B8AD31A3B82FB7B9BB2DB009BB2AD
:100F28001B029BB2A3F500439AB23B8A10461946AE
:100F3800BA68FFF703FC06E0BA8AFB881046194630
:100F4800BA68FFF7FBFB1837BD4680BD80B586B091
:100F580000AFBA600246FA730A46BA81FB80BB89C1
:100F6800C3F30A03FB82FB7B9BB2DB009BB21B0231
:100F78009AB2FB8A13449BB2A3F58043BB82FA8AD8
:100F8800FB881344B3F5006F2FDDFB8AC3F50063BC
:100F98007B82BA8A7B8A10461946FFF7F5FC7B8A62
:100FA800B86819491A46FFF715F97B8ABA681344D5
:100FB800BB60FA887B8AD31A3B82FB7B9BB2DB003F
:100FC8009BB21B029BB2A3F580439AB23B8A1046A0
:100FD8001946FFF7D9FC7B8ABA681A443B8A10463F
:100FE80009491A46FFF7F6F80BE0BA8AFB8810465B
:100FF8001946FFF7C9FCFB88B86803491A46FFF78A
:10100800E9F81837BD4680BD0432012080B584B0A8
:1010180000AF13460246FA710A46BA80BB71002334
:10102800FB730CE0FB7B4C4AD35C002B04D1FB7BAD
:10103800494A0121D15405E0FB7B0133FB73FB7B5B
:10104800072BEFD9FB7B072B01D9FF237FE0FB7927
:1010580003F00F03082B01DDFF2378E0FB7903F091
:101068000F03022B05D0FB795BB2002B01DAFF23BB
:101078006DE0FB7903F00F03012B06D0FB7903F039
:101088002003002B01D0FF2361E0FB7B9BB21B02F6
:101098009BB203F580439AB2FB7910461946FFF7D5
:1010A80027FCFB7903F00F03FB71FB79012B29DB8C
:1010B800022B02DD032B18D024E0BB881B0A9BB24D
:1010C800DBB23B73BB88DBB27B73FB7B9BB21B023F
:1010D8009BB203F5804304339AB207F10C03104620
:1010E80002211A46FFF72AFB0CE0FB7B9BB21B028E
:1010F8009BB203F5804314339AB2BB791046194664
:10110800FFF7F6FBFB7B9BB21B029BB203F5804308
:1011180001339BB218460121FFF7EAFB00BFFB7BB6
:101128001846FFF79FFD0346002BF8D1FB7B1846B6
:10113800FFF7B4FD0346132B0CBF00230123DBB2DA
:10114800BB73BB7B002B01D0FF2300E0FB7B184661
:101158001037BD4680BD00BF800400202DE9F04354
:101168008BB000AFB9600146F973BA81FB800023E8
:101178003B6202E03B6A01333B623B6ABA68134454
:101188001B78002B03D0BA893B6A9A42F2DC3B6A8F
:10119800BB81FB7B1846FFF781FD0346FB83FB7B86
:1011A800072B04D8FB7B564AD35C012B02D04FF0A7
:1011B800FF33A0E0BB68002B02D0BB89002B02D113
:1011C8004FF0FF3397E0FB7B1846FFF767FD0346B8
:1011D800172B01D000238EE004E0FB88012B01D1FE
:1011E800002388E0FB7B1846FFF774FD0346FB8469
:1011F800FB8C002BF1D0FB7B1846FFF78FFD0346D5
:10120800BB83FA8CBB899A4201D9BB89FB84F97BE1
:10121800BA8BFB8C08461146BA68FFF73FFEBA8BBB
:10122800FB8C1344BB83FA7BBB8B10461946FFF734
:10123800BDFDFB7B1846FFF795FD03467B83FB7BD3
:101248001846FFF76BFD03463B83BA8B7B8BD11A9D
:101258006B461E464B1E7B610B461A464FF0000339
:101268004FEAC30949EA52794FEAC2080B461A46BF
:101278004FF00003DD0045EA5275D4000B460733F2
:10128800DB08DB00ADEB030D6B4600333B617B8B6A
:10129800A3F500439AB2B98B7B8BCB1A9BB210464D
:1012A8001946FFF771FB3A69B98B7B8BCB1A10464D
:1012B80014491A46FEF78EFFFB7B9BB21B029BB2BA
:1012C80003F5804301339BB218462021FFF710FB3A
:1012D80000BFFB7B1846FFF7C5FC0346002BF8D17F
:1012E80000BFFB7B1846FFF73DFD0346BA8B9A42C9
:1012F800F7D1FB8CB54618462C37BD46BDE8F083C0
:10130800800400200432012080B586B000AFB960A7
:101318000146F973BA81FB80FB7B072B04D8FB7B62
:10132800314AD35C012B02D04FF0FF3357E0BB6842
:10133800002B02D0BB89002B02D14FF0FF334EE0C7
:10134800FB7B1846FFF7AAFC0346172B01D00023A6
:1013580045E004E0FB88012B01D100233FE0FB7B43
:101368001846FFF73BFD0346FB82FB8A002BF1D0B2
:10137800FB7B1846FFF756FD0346BB82BA89FB8AFA
:101388009A4238BF13469BB2F97BBA8A084611467F
:10139800BA68FFF7DBFDBA8AFB8A1344BB82FA7B83
:1013A800BB8A10461946FFF761FDFB7B9BB21B0207
:1013B8009BB203F5804301339BB218464021FFF7E7
:1013C80097FA00BFFB7B1846FFF74CFC0346002B3F
:1013D800F8D1BA89FB8A9A4238BF13469BB218469D
:1013E8001837BD4680BD00BF8004002080B584B09A
:1013F80000AF78607B68002B08DB7B68072B05DC77
:10140800224A7B6813441B78012B02D04FF0FF332C
:1014180038E07B68DBB21846FFF740FC0346132B25
:1014280002D04FF0FF332DE07B689BB21B029BB2CA
:1014380003F5804302339BB218460121FFF7A4FA53
:10144800134B1B78FB737B689BB21B029BB203F5A3
:10145800804301339BB218460221FFF749FA00BFC7
:101468007B68DBB21846FFF7FDFB0346002BF7D17C
:1014780000BF7B68DBB21846FFF710FC0346142B4D
:10148800F7D1002318461037BD4680BD80040020E0
:101498000432012080B582B000AF36200121FFF769
:1014A80073FA294B1B78FB71FB791B029BB203F57E
:1014B800804302339BB218460121FFF765FA224B9D
:1014C8001B78BB71FB791B029BB203F58043023387
:1014D8009BB21846FF21FFF70BFABB79013B0F2B94
:1014E8002DD801A252F823F0471500084715000827
:1014F800471500083115000847150008471500086A
:101508004715000847150008471500084715000843
:101518004715000847150008471500084715000833
:101528004715000847150008084B1B68184602F0C5
:10153800BFF8074B1B68184602F0BAF800E000BF76
:101548000837BD4680BD00BF04320120F0310120BC
:10155800B841012080B500AF102005F057FC0346C4
:10156800002B04D0FFF796FF102005F035FC80BD56
:1015780080B5E0B000AF3B1D1860002002F01EF8F7
:10158800012050210022FFF741FD03461A46364B41
:101598001A60354B1B681846FFF728FF002002F039
:1015A8000DF8314B1B68DAB207F59E7310461946E1
:1015B80064220023FFF7A8FEC7F87C01D7F87C3126
:1015C800022B1FDC07F1080207F13C0310461946FD
:1015D8004FF4807204F052F807F13C03184606F005
:1015E800FDFE0346C7F878311F4B1B68D8B2D7F801
:1015F80078319AB2D7F874319BB207F13C01FFF702
:10160800ADFDCBE7D7F87C31023B07F5C072134438
:10161800002203F8442C07F59E7207F13C0310469C
:1016280019464FF4807204F029F807F13C03184674
:1016380006F0D4FE0346C7F870310B4B1B68D8B2CE
:10164800D7F870319AB2D7F874319BB207F13C01E0
:10165800FFF784FD07F1080207F59E731046194647
:1016680006F05EFE9AE700BFF431012080B588B02D
:1016780000AF2020012105F067FF0420012105F0BB
:101688002BFF0420012105F027FF4020012105F050
:1016980023FFC023BB6102233B7703237B7700230F
:1016A800BB770123FB7707F118032948194605F092
:1016B8002BFC4FF48073BB6101233B770023BB777E
:1016C80003237B770123FB7707F118032148194689
:1016D80005F01AFC1F4B1F4A128B92B242F480721B
:1016E80092B21A831A480621082205F023FD1848E9
:1016F8000721082205F01EFD4FF41643BB600023A6
:10170800BB810023FB8100233B820023BB820C2387
:101718007B8207F108031048194606F009FA0E48BB
:1017280040F22551012206F0BDFB47233B710923F6
:101738007B710623BB710123FB713B1D184604F026
:1017480081FA0548012106F059FB2037BD4680BDC6
:1017580000080240001802400014014080B485B01F
:1017680000AF786039600023FB6010E000BF0E4BCB
:101778001B889BB203F04003002BF8D00A4BFA6891
:1017880079680A4412789A80FB680133FB60FA682A
:101798003B689A4203DA7B681B78002BE6D1143742
:1017A800BD465DF8047B70470014014080B582B0E7
:1017B80000AF1E4840F2255106F032FC0346002BCC
:1017C80030D01A4B9B889BB2DBB2FB71184B0022BE
:1017D8001A60184B1B781A46174B1B689A420CDA8A
:1017E800144B1B78FA79D1B2144AD154114B1B7897
:1017F8000133DAB20F4B1A7014E00E4B1B78FA79EA
:10180800D1B20E4AD1540B4B00221A7003F0D0FB10
:101818000B4B1B6818460021054A002302F0DAFF2B
:1018280003F0D6FB0837BD4680BD00BF0014014059
:10183800880400208C040020D4410120D8410120D4
:10184800A841012080B485B000AF78600B467B804A
:10185800FF23FB73FF23BB7313E07B685A1C7A607A
:101868001A78FB7B5340DBB2BB600F4ABB6813445A
:101878001A78BB7B5340FB730C4ABB6813441B7834
:10188800BB737B885A1E7A80002BE6D1FB7B1B0238
:101898009AB2BB7B9BB213439BB29BB218461437D8
:1018A800BD465DF8047B7047A08E0008A08F000835
:1018B80080B586B000AFF860B960FA80BB80BB889D
:1018C800023B9BB2B8681946FFF7BCFF0346FB8290
:1018D800BB88013BBA6813441B781A46FB8ADBB203
:1018E8009A420CD1BB88023BBA6813441B781A464B
:1018F800FB8A1B0A9BB29A4201D1012300E0002314
:1019080018461837BD4680BD80B586B000AFF86070
:10191800B9607A603B603A687B6813445A1E254B6D
:101928001A60254B244A128B92B242F4807292B20A
:101938001A8300237B6102E07B6901337B617B6949
:10194800B3F57A6FF8DBF8687968FFF707FF0023CB
:101958007B6102E07B6901337B617A6941F20303B1
:101968009A42F7DD144B144A528B92B242F48072B9
:1019780092B25A83114B1B68184600214FF0FF3270
:10198800002302F091FF00237B610CE07B69BA68B9
:10199800134479697A680A4409498A5CD2B21A7090
:1019A8007B6901337B617A693B689A42EEDB1837C1
:1019B800BD4680BDD441012000180240A841012045
:1019C800D841012080B5ADF5866D00AF07F1080359
:1019D80019603B1D1A6007F10E0302461A800023A6
:1019E800C7F828340023C7F8243407F505733622CE
:1019F8001A7007F505730F225A7007F10E031B883A
:101A08001B0A9BB2DAB207F505739A7007F10E0349
:101A18001B88DAB207F50573DA7007F108031B684B
:101A28001B12DAB207F505731A7107F108031B6870
:101A3800DAB207F505735A710623C7F82C3407F193
:101A480008031B68002B00DA0733DB101A4607F17E
:101A580008031B6803F00703002B0CBF00230123B6
:101A6800DBB21344C7F81834D7F82C345A1CC7F81B
:101A78002C24D7F81824D1B207F50572D1540023C5
:101A8800C7F820345CE00123C7F81C3407F5057259
:101A9800D7F82C34134400221A7038E0D7F82434CD
:101AA8005A1CC7F824243A1D126813441B78002BCB
:101AB80013D007F50572D7F82C3413441B78DAB223
:101AC800D7F81C34DBB21343DBB2DAB207F5057181
:101AD800D7F82C340B441A7014E007F50572D7F8C0
:101AE8002C3413441B78DAB2D7F81C34DBB2DB434E
:101AF800DBB21340DBB2DAB207F50571D7F82C3444
:101B08000B441A70D7F81C345B00C7F81C34D7F89C
:101B18001C34DBB2002B09D0D7F828345A1CC7F87C
:101B2800282407F1080212689342B7DBD7F82C344F
:101B38000133C7F82C34D7F820340133C7F82034E0
:101B4800D7F82024D7F818349A429CDBD7F82C34DD
:101B58009BB207F5057210461946FFF773FE034658
:101B6800A7F81634D7F82C345A1CC7F82C24B7F821
:101B78001624120A92B2D1B207F50572D154D7F8D9
:101B88002C345A1CC7F82C24B7F81624D1B207F500
:101B98000572D15407F5057207F11403104619466A
:101BA800D7F82C240823FFF7AFFED7F82C349BB2C4
:101BB80007F5057107F11402084611461A4608236D
:101BC800FFF776FE0346DBB2184607F58667BD4683
:101BD80080BD00BF80B5ADF5846D00AF07F10C0383
:101BE800186007F1080319603B1D1A6007F50473B4
:101BF80036221A7007F5047310225A7007F10C0385
:101C08001B681B12DAB207F504739A7007F10C030C
:101C18001B68DAB207F50473DA7007F108031B686A
:101C28001B12DAB207F504731A7107F108031B686F
:101C3800DAB207F504735A710623C7F8183407F1A6
:101C480008031B685B00C7F81434D7F818345A1C0B
:101C5800C7F81824D7F81424D1B207F50472D15460
:101C68000023C7F81C3426E0D7F818345A1CC7F8E4
:101C78001824D7F81C245200391D09680A44128810
:101C8800120A92B2D1B207F50472D154D7F81834B7
:101C98005A1CC7F81824D7F81C245200391D0968A3
:101CA8000A441288D1B207F50472D154D7F81C340B
:101CB8000133C7F81C3407F10803D7F81C241B6844
:101CC8009A42D1DBD7F818349BB207F50472104654
:101CD8001946FFF7B7FD0346A7F81234D7F81834AA
:101CE8005A1CC7F81824B7F81224120A92B2D1B2B3
:101CF80007F50472D154D7F818345A1CC7F81824B9
:101D0800B7F81224D1B207F50472D15407F504725A
:101D180007F1100310461946D7F818240823FFF7CF
:101D2800F3FDD7F818349BB207F5047107F11002D8
:101D3800084611461A460823FFF7BAFD0346DBB2E8
:101D4800184607F58467BD4680BD00BF80B5ADF570
:101D5800856D00AF07F10C03186007F108031960DF
:101D68003B1D1A6007F5057336221A7007F50573CF
:101D780004225A7007F10C031B681B12DAB207F52C
:101D880005739A7007F10C031B68DAB207F505733F
:101D9800DA7007F108031B681B12DAB207F505733E
:101DA8001A7107F108031B68DAB207F505735A714F
:101DB8000623C7F8203407F108031B685B00C7F83F
:101DC8001C34D7F820345A1CC7F82024D7F81C2410
:101DD800D1B207F50572D154D7F820349BB207F574
:101DE800057210461946FFF72DFD0346A7F81A3469
:101DF800D7F820345A1CC7F82024B7F81A24120A36
:101E080092B2D1B207F50572D154D7F820345A1CD2
:101E1800C7F82024B7F81A24D1B207F50572D154AF
:101E280007F108031B685B00053307F5057107F127
:101E3800140208461146D7F82024FFF765FD02234F
:101E4800C7F814340023C7F8243424E0D7F824341E
:101E58005B003A1D12681344D7F81424511CD7F8B4
:101E6800242452000A4407F114018A5C120291B238
:101E7800D7F81424901CD7F824245200024407F100
:101E88001400825C0A4392B292B21A80D7F82434C2
:101E98000133C7F8243407F10803D7F824241B6852
:101EA8009A42D3DBD7F820349AB207F108031B68AB
:101EB8009BB25B009BB205339BB207F5057007F137
:101EC8001401FFF7F5FC0346DBB2184607F58567F2
:101ED800BD4680BD80B588B000AF7860002001F0B5
:101EE8006DFB07F10C0300200A211A46FFF72EFFAD
:101EF8004FF47A7001F03AFBF3E700BF80B596B073
:101F080000AF7860012387F84C30012387F84D3003
:101F1800012387F84E30012387F84F300120002134
:101F2800032202F065FB02467C4B1A604FF0FF3338
:101F38007B6500233B657A4B1A6807F1240310463A
:101F480019467A6D002302F0AFFC0346012B40F0DE
:101F5800E48097F82430052B00F2D28001A252F8D1
:101F680023F000BF851F0008F91F00080921000899
:101F78000921000835200008B7200008012387F848
:101F88004C30012387F84D30012387F84E30012368
:101F980087F84F3007F14C03002003211A46FFF75A
:101FA80011FD0346002B01D107233B724FF47A70D1
:101FB80001F0DCFA07F124030833002005211A4652
:101FC800FFF708FE0346002B01D107233B724FF4AD
:101FD8007A7001F0CBFA06233B72514B1A6807F16D
:101FE8000803104619467A6D002302F043FB94E07B
:101FF80007F10803083300200A211A46FFF7A6FE56
:102008000346002B01D107233B724FF47A7001F08D
:10201800ADFA06233B72424B1A6807F108031046D3
:1020280019467A6D002302F025FB76E001233B6513
:10203800012387F84C30012387F84D30012387F8B6
:102048004E30012387F84F3007F14C03002003215D
:102058001A46FFF7B7FC0346002B01D107233B7252
:102068004FF47A7001F082FA07F124030833002054
:1020780005211A46FFF7AEFD0346002B01D10723C1
:102088003B724FF47A7001F071FA264B1B681846C0
:1020980001F00EFB06233B72214B1A6807F1080377
:1020A800104619467A6D002302F0E4FA35E0002361
:1020B80087F84C30002387F84D30002387F84E30DE
:1020C800002387F84F3007F14C03002003211A46FC
:1020D800FFF778FC0346002B01D107233B724FF42E
:1020E8007A7001F043FA06233B720D4B1A6807F128
:1020F8000803104619467A6D002302F0BBFA0CE07B
:1021080007233B72064B1A6807F108031046194665
:102118007A6D002302F0AEFA00BF0CE7A841012057
:10212800F8310120D0390120B0B588B000AFF8608F
:10213800B9607A603B6078689349052206F07EF9B9
:102148000346002B40F0A280BB6B7A6B134400223D
:102158001A70786B06F03AF80346FB83FB8B002B6A
:1021680002D0FB8B642B07D9FB8BF86887491A468A
:1021780000F0B8FE0023B8E1FB8B1A469200134426
:102188001A4691001A460B4613449B00FB83804B6A
:1021980000225A817E4B40F6CA029A817C4B0A2261
:1021A800DA817B4B0A221A82794B05225A60784BD6
:1021B80000221A70764B00221A70754B05225A605D
:1021C800734BFA8B1A81734B1A68734B1B68104652
:1021D8006F491A46002302F04DFA0346012B42D1FB
:1021E8006C4B1A686C4B1B68104669491A460023E9
:1021F80002F05AFB0346012B24D1654B1B78062BB2
:1022080011D1FA68654B15461C460FCC28606960E9
:10221800AA60EB6003CC2861696123882B831923AA
:10222800BB61012361E1FA685D4B15461C460FCC82
:1022380028606960AA60EB60206828611323BB618D
:10224800002352E1FA68574B15461C460FCC28600C
:102258006960AA60EB6007CC28616961AA611B23E9
:10226800BB61002341E1FA684F4B14461D460FCD70
:1022780020606160A260E36028682061AA88AB7969
:10228800A282A3751623BB6100232EE17868474913
:10229800062206F0D3F80346002B40F08D80BB6B76
:1022A8007A6B134400221A70786B05F08FFF03468F
:1022B800FB82FB8A0E2B03D9FB8AB3F5967F09D9DB
:1022C8006423BB61FB8AF86839491A4600F00AFEA4
:1022D80000230AE12E4BFA8ADA812D4B05225A6037
:1022E8002B4B00221A702B4B1A682B4B1B6810467D
:1022F80027491A46002302F0BDF90346012B30D1C5
:10230800244B1A68244B1B68104621491A4600239F
:1023180002F0CAFA0346002B4ED01D4B1B78062B41
:1023280010D1FA68234B15461C460FCC286069600B
:10233800AA60EB6007CC28616961AA611B23BB61B5
:102348000123D2E0FA68164B15461C460FCC2860CC
:102358006960AA60EB60206828611323BB610023D1
:10236800C3E0FA68104B14461D460FCD206061602B
:10237800A260E36028682061AA88AB79A282A3756D
:102388001623BB610023B0E0088800081088000805
:10239800DC430120F83101200000002040880008BB
:1023A8005C880008708800088C880008A4880008E9
:1023B800AC880008DC88000878684E49082206F0D6
:1023C8003DF80346002B40F08A80BB6B023B7A6BDA
:1023D800134400221A70786B05F0F8FE0346BB829E
:1023E800BB8A092B02D9BB8A642B12D9786B05F0FA
:1023F800F5FF03460B33BB61BB8AF8683E491A46B2
:1024080000F070FDFB680E333C4AD2B21A7000230C
:102418006BE0BB8A1A46920013441A4691001A468A
:102428000B4613449B00BB82354BBA8A1A81344B46
:1024380001225A60324B00221A70324B1A68324B12
:102448001B6810462E491A46002302F013F903466A
:10245800012B31D12B4B1A682B4B1B68104628498E
:102468001A46002302F020FA0346002B37D0244BEB
:102478001B78062B11D1FA68244B15461C460FCC45
:1024880028606960AA60EB6003CC286169612388D1
:102498002B831923BB61012327E0FA681C4B1546DF
:1024A8001C460FCC28606960AA60EB602068286130
:1024B8001323BB61002318E0FA68164B14461D4627
:1024C8000FCD20606160A260E36028682061AA885F
:1024D800AB79A282A3751623BB61002305E00E4BDE
:1024E800F868194605F01CFF002318462037BD463A
:1024F800B0BD00BFF88800080489000814890008E6
:10250800DC430120F8310120000000204088000849
:102518005C8800088C8800089C870008B0B586B0E5
:1025280000AFF860B9607A603B6078689649052228
:1025380005F084FF0346002B6CD1944B01221A70DE
:10254800934B1A68934B1B68104690491A46002310
:1025580002F090F80346012B49D18D4B1A688D4B38
:102568001B68104689491A46002302F09DF9034664
:10257800012B2BD1854B1B78062B18D1834BDA897D
:10258800854BA3FB02035B099BB21A467F4BDB8991
:102598008149A1FB03014909642000FB01F15B1A91
:1025A8009BB2F8687D4900F09DFC0123E8E0FA68D9
:1025B8007B4B15461C460FCC28606960AA60EB600F
:1025C8002068286113237B610023D9E0FA68754BE2
:1025D80015461C460FCC28606960AA60EB6007CCE2
:1025E80028616961AA611B237B610023C8E0FA683E
:1025F8006D4B14461D460FCD20606160A260E360FC
:1026080028682061AA88AB79A282A37516237B610A
:102618000023B5E078686549062205F00FFF0346F8
:10262800002B4DD1594B01221A70594B1A68594B3E
:102638001B68104655491A46002302F01BF803464A
:10264800012B2AD1524B1A68524B1B6810464F492E
:102658001A46002302F028F90346002B30D04B4BD2
:102668001B78062B0AD1494BDB89F86850491A4672
:1026780000F038FC19237B61012381E0FA68484B9C
:1026880015461C460FCC28606960AA60EB6020687C
:10269800286113237B61002372E0FA68424B1446D9
:1026A8001D460FCD20606160A260E360286820614C
:1026B800AA88AB79A282A37516237B6100235FE009
:1026C80078683C49082205F0B9FE0346002B51D131
:1026D8002F4B1A682F4B1B6810462C491A460023AB
:1026E80001F0C8FF0346012B31D1294B1A68294B49
:1026F8001B68104625491A46002302F0D5F8034600
:10270800002B37D0214B1B78062B11D1FA682A4BA6
:1027180015461C460FCC28606960AA60EB6003CCA4
:102728002861696123882B8319237B61012327E0B2
:10273800FA681B4B15461C460FCC28606960AA60D6
:10274800EB602068286113237B61002318E0FA6896
:10275800154B14461D460FCD20606160A260E360F2
:1027680028682061AA88AB79A282A37516237B61A9
:10277800002305E0114BF868194605F0D1FD002348
:1027880018461837BD46B0BD08880008DC4301204C
:10279800F8310120000000201F85EB51188900083E
:1027A8005C880008708800088C880008A4880008E5
:1027B80030890008F8880008408800089C870008CD
:1027C800B0B58EB004AFF860B9607A6007F118034D
:1027D800786801211A4602F0D7FF78627B6A002BDD
:1027E8000ED1FA689F4B15461C460FCC28606960CD
:1027F800AA60EB602068286123792B7500238CE19F
:10280800786A9949042205F019FE0346002B0BD17A
:10281800FA68964B11461A46BC23084611461A46D2
:10282800FDF7D8FC012378E1786A9149032205F085
:1028380005FE0346002B33D107F114037868022103
:102848001A4602F0A1FF386207F1100378680321E5
:102858001A4602F099FFF861FB69002B02D03B6A27
:10286800002B06D1834BF868194605F059FD002363
:1028780053E17B69804A10683969804A1268009080
:10288800F869019002910392F868B9683A6AFFF70B
:102898004BFC0346002B01D001233EE100233CE121
:1028A800786A7749032205F0C9FD0346002B27D132
:1028B80007F11403786802211A4602F065FF3862AE
:1028C800FB69002B02D03B6A002B06D1694BF868E4
:1028D800194605F025FD00231FE17B69664A11684A
:1028E800664A126800910192F868B9683A6AFFF777
:1028F80015FE0346002B01D001230EE100230CE155
:10290800786A6049042205F099FD0346002B69D1D5
:102918005D4B05221A705C4B00225A60564B1A68B0
:102928005A4B1B68104658491A46002301F0A2FE6C
:102938000346002B43D0504B1A68544B1B68104673
:1029480051491A46002301F0AFFF0346012B25D158
:102958004D4B1B78062B12D1FA684D4B15461C4679
:102968000FCC28606960AA60EB6007CC28616961B8
:10297800AA612388AB831D23BB600123CDE0FA68DD
:10298800444B15461C460FCC28606960AA60EB6072
:10299800206828611323BB600023BEE0FA683E4B21
:1029A80015461C460FCC28606960AA60EB6007CC0E
:1029B80028616961AA611B23BB600023ADE0FA6846
:1029C800364B14461D460FCD20606160A260E3605F
:1029D80028682061AA88AB79A282A3751623BB60F8
:1029E80000239AE0786A2E49052205F027FD034660
:1029F800002B40F08C80244B04221A70224B0022BA
:102A08005A601D4B1A68214B1B6810461E491A460E
:102A1800002301F02FFE0346012B65D1164B1A68DF
:102A28001A4B1B68104618491A46002301F03CFF50
:102A38000346012B47D1144B1B78062B34D1FA6877
:102A4800184B15461C460FCC28606960AA60EB60DD
:102A580007CC28616961AA612388AB831D23BB6009
:102A680001235AE04C890008648900086C89000831
:102A78002C8A00089C870008F8310120F4310120D5
:102A8800308A0008348A0008DC4301200000002056
:102A98003C8A00085C880008708800088C88000858
:102AA8005C8A0008648A0008FA681E4B15461C46B2
:102AB8000FCC28606960AA60EB6020682861132346
:102AC800BB60002329E0FA68174B15461C460FCC5B
:102AD80028606960AA60EB6007CC28616961AA6117
:102AE8001B23BB60002318E0FA68104B14461D46F0
:102AF8000FCD20606160A260E36028682061AA8829
:102B0800AB79A282A3751623BB60002305E0084BAE
:102B1800F868194605F004FC002318462837BD4616
:102B2800B0BD00BF5C880008708800088C88000869
:102B38009C87000880B584B000AFF860B9607A60FF
:102B4800F86801F087FC002318461037BD4680BDA1
:102B580080B483B000AF786039607B68002B09D0FF
:102B68007B681B683A68D2B21A707B681B685A1C6B
:102B78007B681A600C37BD465DF8047B704700BF60
:102B88002DE9F04184B000AFF860B9607A603B602D
:102B9800002420267B68002B19DD0025D7F8088043
:102BA80002E0013508F1010898F80030002BF8D14F
:102BB8007B689D4202DB00237B6002E07B685B1B35
:102BC8007B603B6803F00203002B00D030263B6893
:102BD80003F00103002B0BD107E0F8683146FFF73B
:102BE800B7FF01347B68013B7B607B68002BF4DC1A
:102BF80009E0BB681B78F8681946FFF7A9FF01349C
:102C0800BB680133BB60BB681B78002BF1D107E0C0
:102C1800F8683146FFF79CFF01347B68013B7B6015
:102C28007B68002BF4DC234618461037BD46BDE808
:102C3800F08100BF2DE9F04389B000AFF860B960BA
:102C48007A603B604FF000094FF00008BD68BB6830
:102C5800002B0DD130233B7500237B7507F114033E
:102C6800F86819463A6C7B6CFFF78AFF034649E01F
:102C78003B68002B0AD07B680A2B07D1BB68002B66
:102C880004DA4FF00109BB685B421D4607F11404E2
:102C98000B340023237013E07B68B5FBF3F203FBCE
:102CA80002F3EB1A1E46092E02DDBB6C3A3B1E44AA
:102CB800013CF3B23033DBB223707B68B5FBF3F52C
:102CC800002DE9D1B9F1000F14D03B6C002B0ED0C8
:102CD8007B6C03F00203002B09D0F8682D21FFF765
:102CE80037FF08F101083B6C013B3B6402E0013C03
:102CF8002D232370F86821463A6C7B6CFFF740FF60
:102D08000346434418462437BD46BDE8F08300BF58
:102D18002DE9F0418AB004AFF860B9607A60002408
:102D2800CCE0BB681B78252B40F0BE80BB68013324
:102D3800BB6000263546BB681B78002B00D1C2E07B
:102D4800BB681B78252B00D1AEE0BB681B782D2B08
:102D580004D1BB680133BB60012605E004E0BB6811
:102D68000133BB6046F00206BB681B78302BF6D0F7
:102D78000BE02B469B002B445B001D46BB681B7871
:102D8800303B1D44BB680133BB60BB681B782F2BED
:102D980003D9BB681B78392BEBD9BB681B78732B1D
:102DA80013D17B681A1D7A601B689846B8F1000F2A
:102DB80001D0434600E04A4BF86819462A46334694
:102DC800FFF7DEFE03461C4475E0BB681B78642BE6
:102DD80003D0BB681B78692B10D17B681A1D7A60F9
:102DE8001B680095019661220292F86819460A222A
:102DF8000123FFF71FFF03461C445CE0BB681B78F8
:102E0800782B10D17B681A1D7A601B680095019693
:102E180061220292F868194610220023FFF70AFF80
:102E280003461C4447E0BB681B78582B10D17B68CD
:102E38001A1D7A601B680095019641220292F86873
:102E4800194610220023FFF7F5FE03461C4432E022
:102E5800BB681B78752B10D17B681A1D7A601B68BC
:102E68000095019661220292F86819460A22002309
:102E7800FFF7E0FE03461C441DE0BB681B78632B8C
:102E880019D17B681A1D7A601B68DBB23B75002379
:102E98007B7507F11403F86819462A463346FFF78D
:102EA8006FFE03461C4406E0BB681B78F8681946A9
:102EB800FFF74EFE0134BB680133BB60BB681B786B
:102EC800002B7FF42EAFFB68002B03D0FB681B6838
:102ED80000221A70234618461837BD46BDE8F0810F
:102EE800848A00080EB480B585B000AF786007F119
:102EF8002003FB603B1D1846F969FA68FFF708FFD5
:102F0800034618461437BD46BDE8804003B07047F5
:102F180080B483B000AF0346FB71094B97F90720D3
:102F28005209F97901F01F01012000FA01F140323C
:102F380043F822100C37BD465DF8047B704700BF8C
:102F480000E100E080B586B004AF00F05BF82148EE
:102F580002F060FB204802F05DFB1C237B60042329
:102F68007B6002201C21002201F042FB02461B4B21
:102F78001A60012300931A4B019300230293002344
:102F88000393184818494FF46062002300F09CF935
:102F980001230093154B019300230293002303930D
:102FA800134814494FF49852002300F08DF9012377
:102FB8000093114B019300230293002303930F48BE
:102FC8000F494FF4A062002300F07EF900F0BEFB29
:102FD800FEE700BFA0900008B0900008F83101207B
:102FE800B841012079150008008B0008F031012054
:102FF800051F00088C8A0008D0390120DD1E000852
:10300800088B000880B584B004AF00F0AFF84FF427
:10301800407002F0EDFDFDF777F9FEF727FB02237C
:103028000093002301930023029300230393044891
:1030380004494FF4A062002300F046F9BD4680BD64
:103048009D0A0008108B000880B500AF064B1B686E
:103058005A1C054B1A601C20FFF75AFF024B1B68CD
:103068005A1E014B1A6080BD9004002080B400AF46
:103078000B4B1B685A1C0A4B1A60094B1A68094B00
:103088001B689A4203D9064B1A68064B1A60044B10
:103098001B685A1E024B1A60BD465DF8047B7047D8
:1030A800900400209404002080B500AF064B1B68F4
:1030B8005A1C054B1A601D20FFF72AFF024B1B689C
:1030C8005A1E014B1A6080BD9004002080B500AFE5
:1030D80001F090FFFEE700BF80B400AFBD465DF889
:1030E800047B704780B582B000AF7860396001F02A
:1030F80081FFFEE780B483B000AF786039600C3799
:10310800BD465DF8047B7047002100F004B8104B01
:103118005B58435004310F480F4B42189A42FFF452
:10312800F6AF0E4A00F003B8002342F8043B0C4BFC
:103138009A42FFF4F9AF0B48016841F4700101604D
:1031480000F014F805F046F8FFF7FCFE70470000A1
:103158001492000800000020600400206004002091
:10316800F843012088ED00E0FFF7FEBF80B500AF0F
:10317800154B154AD2F8882042F47002C3F888200B
:10318800124B124A126842F001021A600F4B0022D9
:103198009A600E4A0D4B1B6823F0847323F4803326
:1031A80013600A4B0A4A5A60084B084A126822F40C
:1031B80080221A60054B0022DA6000F00BF8024BFF
:1031C8004FF000629A6080BD00ED00E000380240D8
:1031D8001030002480B483B000AF00237B6000234C
:1031E8003B60354B344A126842F480321A60324BE5
:1031F8001B6803F400333B607B6801337B603B68EA
:10320800002B03D17B68B3F5A06FF0D12A4B1B6864
:1032180003F40033002B02D001233B6001E00023BC
:103228003B603B68012B42D1234B234A126C42F08E
:1032380080521A64214B214A126842F480421A6073
:103248001D4B1D4A92689A601B4B1B4A926842F4B8
:1032580000429A60184B184A926842F4A0529A6049
:10326800154B174A5A60144B134A126842F0807281
:103278001A6000BF104B1B6803F00073002BF9D0D5
:10328800104B40F204621A600B4B0B4A926822F012
:1032980003029A60084B084A926842F002029A6058
:1032A80000BF054B9B6803F00C03082BF9D10C37C2
:1032B800BD465DF8047B704700380240007000404E
:1032C800194B4007003C024080B58AB002AFF86055
:1032D800B9603B601346FB80FB68002B02D101F00C
:1032E80089FEFEE7BB6A042B02D901F083FEFEE7E4
:1032F800FB881846396B00F00BFFB861BB69002BDF
:1033080072D0BB691A6BFB8803F18043013B9B00B9
:1033180013447B617B6923F007037B617B6903F0BE
:103328000703002B02D001F065FEFEE7FB8800933F
:10333800B869B968BA6A7B6B00F0F4FD7869F96816
:103348003A6801F065FD0246BB691A60FB6A002B0A
:1033580002D0FB6ABA691A6001F02AFE2E4B1B687C
:103368005A1C2D4B1A602D4B1B68002B09D12B4B77
:10337800BA691A60284B1B68012B0FD100F01AFE9E
:103388000CE0274B1B68002B08D1244B1B68DA6A1A
:10339800BB6A9A4202D8214BBA691A60214B1B6852
:1033A8005A1C204B1A601F4B1A68BB691A64BB6908
:1033B800DA6A1D4B1B689A4203D9BB69DA6A1A4B51
:1033C8001A60BB69DA6A13469B0013449B00174ACC
:1033D8001A44BB6904331046194601F093FC0123D3
:1033E800FB6101F0F5FD02E04FF0FF33FB61FB6983
:1033F800012B0BD10A4B1B68002B07D0074B1B680E
:10340800DA6ABB6A9A4201D201F0C2FDFB6918462A
:103418002037BD4680BD00BF7005002098040020FD
:103428007C05002090050020780500209C040020E1
:1034380080B584B000AF786001F0BAFD7B68002BDE
:1034480002D1194B1B6800E07B68FB60FB68043302
:10345800184601F0B3FCFB689B6A002B04D0FB689C
:103468001833184601F0AAFCFB6804330F481946C4
:1034780001F048FC0E4B1B685A1C0D4B1A600D4B93
:103488001B685A1C0B4B1A6001F0A2FD0A4B1B6803
:10349800002B06D0044B1B68FA689A4201D101F050
:1034A80077FD1037BD4680BD9804002044050020F4
:1034B80058050020900500207C05002080B586B0C6
:1034C80000AF7860396000237B617B68002B02D1F4
:1034D80001F090FDFEE73B68002B02D101F08AFD68
:1034E800FEE700F06BF91F4B1B683B617B681A68AD
:1034F8003B681344FB607B681A683B699A420BD9A6
:103508007B681A68FB689A4211D9FA683B699A4243
:103518000DD901237B610AE07B681A68FB689A422F
:1035280003D8FA683B699A4201D901237B617B6819
:10353800FA681A607B69002B08D00B4B1B680433B0
:10354800184601F03BFCF86800F0ACFD00F044F9C7
:10355800B860BB68002B01D101F01AFD1837BD46D1
:1035680080BD00BF740500209804002080B584B099
:1035780000AF78600023FB607B68002B12D000F05E
:103588001DF90C4B1A687B681344BB600A4B1B6817
:103598000433184601F012FCB86800F083FD00F00F
:1035A8001BF9F860FB68002B01D101F0F1FC103722
:1035B800BD4680BD740500209804002080B584B005
:1035C80000AF786001F0F4FC7B68002B02D11B4B44
:1035D8001B6800E07B68FB60FB680433184601F059
:1035E800EDFBFB689B6A002B04D0FB681833184678
:1035F80001F0E4FBFB6804331148194601F082FB33
:1036080001F0E6FC0D4B1B68FA689A4212D10D4B8B
:103618001B68002B02D001F0BBFC0BE0084B1A68BA
:10362800094B1B689A4203D1044B00221A6001E03F
:1036380000F0BCFA1037BD4680BD00BF98040020DA
:103648005C0500207C0500207005002080B584B052
:1036580000AF78600023FB607B68BB607B68002B51
:1036680002D101F0C7FCFEE7BB685A690E4B9A42CB
:1036780001D1012300E00023002B0FD0BB689A6A18
:103688000A4B9A420AD0BB689B6A002B01D10123DE
:1036980000E00023002B01D00123FB60FB681846E3
:1036A8001037BD4680BD00BF5C05002030050020F6
:1036B80080B584B000AF78607B68FB607B68002BC6
:1036C80002D101F097FCFEE7FB68002B34D01C4BBD
:1036D8001B68FA689A422FD001F06AFCF868FFF775
:1036E800B5FF0346012B25D1FB680433184601F0CA
:1036F80065FBFB68DA6A134B1B689A4203D9FB68BF
:10370800DA6A104B1A60FB68DA6A13469B001344A6
:103718009B000D4A1A44FB6804331046194601F011
:10372800F1FAFB68DA6A064B1B68DB6A9A4201D336
:1037380001F02EFC01F04CFC1037BD4680BD00BFE7
:1037480098040020780500209C04002080B586B0ED
:1037580004AF002300930023019300230293002366
:103768000393124812494FF480720023FFF7ACFD0F
:1037780078607B68012B02D101F0D6FC78607B6809
:10378800012B0AD101F036FC0A4B01221A600A4BC0
:1037980000221A6001F096FB05E07B68002B02D13D
:1037A80001F028FCFEE70837BD4680BD093F000848
:1037B8001C8B00087C0500207405002080B400AF35
:1037C800044B1B685A1C034B1A60BD465DF8047B0A
:1037D800704700BF8005002080B582B000AF00238D
:1037E8007B60384B1B68002B02D101F003FCFEE71D
:1037F80001F0DEFB334B1B685A1E324B1A60314B0B
:103808001B68002B56D1304B1B68002B52D02FE081
:103818002E4BDB68DB683B603B681833184601F0C9
:10382800CDFA3B680433184601F0C8FA3B68DA6AF7
:10383800274B1B689A4203D93B68DA6A244B1A6003
:103848003B68DA6A13469B0013449B00214A1A44DA
:103858003B6804331046194601F054FA3B68DA6AAB
:103868001D4B1B68DB6A9A4202D31C4B01221A606B
:10387800164B1B68002BCBD1194B1B68002B11D0A2
:103888000CE000F0BDF80346002B02D0134B0122D8
:103898001A60134B1B685A1E114B1A60104B1B6899
:1038A800002BEED10D4B1B68012B03D101237B604C
:1038B80001F06EFB01F08CFB7B6818460837BD46AB
:1038C80080BD00BF80050020700500203005002065
:1038D800780500209C04002098040020880500201A
:1038E8008405002080B582B000AF01F061FB054B74
:1038F8001B687B6001F06CFB7B6818460837BD4687
:1039080080BD00BF7405002080B586B000AFF860A8
:10391800B9607A6000237B6105233B61FFF74EFFA6
:10392800314B1B68BA689A4257D33B69013B3B61EC
:103938007B695B01FA68D1183A6913469B00134406
:103948009B002A4A134408461946012200F012FC3B
:1039580003467A6913447B613B69002BE5D17B6997
:103968005B01FA681A44224B1B681046194602226A
:1039780000F000FC03467A6913447B617B695B01B4
:10398800FA681A441B4B1B6810461946022200F0BD
:10399800F1FB03467A6913447B617B695B01FA6832
:1039A800134418461449042200F0E4FB03467A69DC
:1039B80013447B617B695B01FA68134418460F491D
:1039C800032200F0D7FB03467A6913447B617B68C6
:1039D800002B02D07B6800221A60FFF7FDFE7B698E
:1039E80018461837BD4680BD700500209C0400208D
:1039F800280500202C050020440500205C05002037
:103A080080B586B000AF00237B615D4B1B68002B3F
:103A180040F0A4805B4B1B685A1C5A4B1A60594BE8
:103A28001B683B613B69002B2ED1574B1B681B68F9
:103A3800002B02D001F0DEFAFEE7534B1B68FB6057
:103A4800524B1A68504B1A60504BFA681A60504B28
:103A58001B685A1C4E4B1A604B4B1B681B68002B8B
:103A680001D1012300E00023002B04D0494B4FF083
:103A7800FF321A6008E0444B1B68DB68DB68BB60F8
:103A8800BB685A68434B1A60424B1B683A699A42B2
:103A98004FD33D4B1B681B68002B01D1012300E06D
:103AA8000023002B04D03B4B4FF0FF321A6040E05C
:103AB800354B1B68DB68DB68BB60BB685B687B6099
:103AC8003A697B689A4203D2324B7A681A6030E0CE
:103AD800BB680433184601F071F9BB689B6A002B78
:103AE80004D0BB681833184601F068F9BB68DA6A75
:103AF800294B1B689A4203D9BB68DA6A264B1A60BD
:103B0800BB68DA6A13469B0013449B00234A1A4495
:103B1800BB6804331046194601F0F4F8BB68DA6A4A
:103B28001F4B1B68DB6A9A4202D301237B61B0E713
:103B3800AFE71B4B1B68DA6A184913469B0013440E
:103B48009B000B441B68012B01D901237B61154B9A
:103B58001B68002B09D1FFF777FA06E0114B1B68A9
:103B68005A1C104B1A60FFF76FFA0F4B1B68002B9B
:103B780001D001237B617B6918461837BD4680BD9B
:103B88008005002074050020280500202C05002051
:103B98008C05002008000020780500209C040020E7
:103BA80098040020840500208805002080B582B094
:103BB80000AF354B1B68002B03D0344B01221A6031
:103BC8005EE0324B00221A60314B1B681A68304B9A
:103BD8001B681B6B9A4208D82D4B1A682C4B1B6824
:103BE800343310461946FFF77DFA294B1B681B6BC7
:103BF80018462849142204F015FB0346002B09D067
:103C0800234B1A68224B1B68343310461946FFF7BA
:103C180069FA0CE00BE0204B1B68002B02D101F085
:103C2800E9F9FEE71C4B1B685A1E1B4B1A601A4B1E
:103C38001A681A4913469B0013449B000B441B68DF
:103C4800002BE8D0144B1A6813469B0013449B00C2
:103C5800124A13447B607B685B685A687B685A60C9
:103C68007B685A687B6808339A4204D17B685B6832
:103C78005A687B685A607B685B68DA68044B1A602C
:103C88000837BD4680BD00BF80050020880500209C
:103C980098040020C0900008780500209C040020AB
:103CA80080B584B000AF786039607B68002B02D1A2
:103CB80001F0A0F9FEE7124B1B6818337868194623
:103CC80001F044F80E4B1B680433184601F076F8EF
:103CD8003B68B3F1FF3F07D1094B1B680433094820
:103CE800194601F00FF807E0074B1A683B681344C0
:103CF800FB60F86800F0D6F91037BD4680BD00BFFC
:103D0800980400205C0500207405002080B584B06C
:103D180000AF786039607B68002B02D101F06AF946
:103D2800FEE70C4B1B6818337868194600F0EAFF69
:103D3800084B1B680433184601F040F8064B1A6814
:103D48003B681344FB60F86800F0ACF91037BD46D7
:103D580080BD00BF980400207405002080B584B0A1
:103D680000AF78607B68DB68DB68BB60BB68002BF2
:103D780002D101F03FF9FEE7BB681833184601F09D
:103D88001DF81E4B1B68002B1DD1BB680433184659
:103D980001F014F8BB68DA6A194B1B689A4203D918
:103DA800BB68DA6A164B1A60BB68DA6A13469B006E
:103DB80013449B00134A1A44BB680433104619463F
:103DC80000F0A0FF05E0BB6818330F48194600F063
:103DD80099FFBB68DA6A0D4B1B68DB6A9A4205D308
:103DE8000123FB600A4B01221A6001E00023FB60FB
:103DF800FB6818461037BD4680BD00BF800500200F
:103E0800780500209C04002030050020980400203C
:103E18008805002080B582B000AF78607B68002BF1
:103E280002D101F0E7F8FEE7054B1A687B681A60D3
:103E3800044B1A687B685A600837BD4680BD00BFCE
:103E48008C0500207405002080B584B000AF786030
:103E580039607B68002B02D101F0CCF8FEE73B68A3
:103E6800002B02D101F0C6F8FEE701F0A1F81C4BC7
:103E78001B68BB603B681B68B3F1FF3F02D100239E
:103E8800FB6026E07B681A68164B1B689A4207D0CD
:103E98007B685A68BB689A4202D80123FB6018E025
:103EA8007B685B68BA68D21A3B681B689A420ED274
:103EB8003B681A687B685968BB68CB1A1A443B6828
:103EC8001A607868FFF7A6FF0023FB6001E0012372
:103ED800FB6001F07DF8FB6818461037BD4680BDD1
:103EE800740500208C05002080B400AF034B01222C
:103EF8001A60BD465DF8047B704700BF8805002046
:103F080080B582B000AF786000F092F8044B1B686F
:103F1800012B01D901F03CF8FFF7DEF8F4E700BF08
:103F28009C04002080B586B000AFF860B9607A6064
:103F38003B6000237B6112E0BA687B6913441A78FE
:103F4800F9687B690B4430331A71BA687B6913448A
:103F58001B78002B00D105E07B6901337B617B690D
:103F6800092BE9D9FB68002283F83D207B68042BE4
:103F780001D904237B60FB687A68DA62FB687A6897
:103F88009A64FB680433184600F0B0FEFB681833E7
:103F9800184600F0ABFEFB68FA681A617B68C3F14B
:103FA8000502FB689A61FB68FA685A621837BD46D1
:103FB80080BD00BF80B582B000AF00237B600CE0FD
:103FC8007A6813469B0013449B00114A1344184611
:103FD80000F06CFE7B6801337B607B68042BEFD9B3
:103FE8000C4800F063FE0C4800F060FE0B4800F03F
:103FF8005DFE0B4800F05AFE0A4800F057FE0A4BD7
:10400800044A1A60094B044A1A600837BD4680BD45
:104018009C04002000050020140500203005002025
:10402800440500205C050020280500202C05002000
:1040380080B582B000AF28E0FFF7C0FB164B1B68C5
:10404800002B14BF00230123DBB27B60FFF7C4FB06
:104058007B68002B19D100F0ABFF0F4BDB68DB68E6
:104068003B603B680433184600F0A8FE0B4B1B6806
:104078005A1E0A4B1A600A4B1B685A1E084B1A60D4
:1040880000F0A6FF386800F00FF9054B1B68002BFD
:10409800D2D10837BD4680BD4405002070050020F8
:1040A8005805002080B582B000AF7860134B1B68BC
:1040B8007A685A60124B1B687A689A4209D2114B87
:1040C8001A680E4B1B6804331046194600F03EFE72
:1040D80010E00D4B1A68094B1B680433104619464B
:1040E80000F034FE094B1B687A689A4202D2074BEB
:1040F8007A681A600837BD4680BD00BF9804002062
:10410800740500202C050020280500200800002048
:1041180080B584B000AF03463960FB804C2001F0C5
:10412800EBFBF860FB68002B1FD03B68002B06D127
:10413800FB889B00184601F0DFFB034600E03B6864
:10414800FA681363FB681B6B002B05D1F86801F054
:104158005FFC0023FB6008E0FB681A6BFB889B0090
:104168001046A5211A4604F091F8FB681846103746
:10417800BD4680BD90B58BB000AFF860B9601346FE
:10418800FB7100237B62BB681B68002B6BD0BB688C
:104198003B623B6A5B685A683B6A5A603B6A5A688A
:1041A8003B6A08339A4204D13B6A5B685A683B6AA7
:1041B8005A603B6A5B68DB68FB61BB68BB61BB69D3
:1041C8005B685A68BB695A60BB695A68BB6908333F
:1041D8009A4204D1BB695B685A68BB695A60BB697B
:1041E8005B68DB687B617B6A5B01FA6813447A6908
:1041F8001A607B6A5B01FA6813447A6934325A6040
:104208007B6A5B01FA6813447A69126C9A607B6A6C
:104218005B01FA681344FA791A737B6A5B01FA68DE
:1042280013447A69D26A1A617B6A5B01FA6813449B
:104238007A69926C5A617B6A5B01FA6813440022BE
:104248009A617B6A5B01FA68D4187B691B6B184614
:1042580000F00EF80346A3837B6A01337B627A6918
:10426800FB699A42A9D17B6A18462C37BD4690BD96
:1042780080B485B000AF78600023FB8105E07B68DF
:1042880001337B60FB890133FB817B681B78A52B9D
:10429800F5D0FB899B08FB81FB8918461437BD467E
:1042A8005DF8047B704700BF80B582B000AF7860CE
:1042B8007B681B6B184601F0ABFB786801F0A8FB24
:1042C8000837BD4680BD00BF80B483B000AF054B42
:1042D8001B687B607B6818460C37BD465DF8047B1D
:1042E800704700BF9804002080B483B000AF0B4B28
:1042F8001B68002B02D100237B6008E0084B1B6879
:10430800002B02D101237B6001E002237B607B68E4
:1043180018460C37BD465DF8047B70477C050020C5
:104328008005002080B584B000AF78607B68FB60B2
:104338007B68002B46D0FB68DA6A244B1B68DB6A73
:104348009A423FD2214B1B68DB6AC3F10502FB6826
:104358009A61FB685969FB68DA6A13469B00134443
:104368009B001B4A1344994201D1012300E000231A
:10437800002B22D0FB680433184600F01FFD134BB6
:104388001B68DA6AFB68DA62FB68DA6A114B1B6839
:104398009A4203D9FB68DA6A0E4B1A60FB68DA6A3C
:1043A80013469B0013449B00094A1A44FB680433D4
:1043B8001046194600F0A6FC04E0044B1B68DA6AB4
:1043C800FB68DA621037BD4680BD00BF9804002044
:1043D8009C0400207805002080B584B000AF786088
:1043E8007B68FB607B68002B2CD0FB68DA6AFB6873
:1043F8009B6C9A4226D0FB680433184600F0DEFC1A
:10440800FB689A6CFB68DA62FB68DB6AC3F1050239
:10441800FB689A61FB68DA6A0C4B1B689A4203D9FD
:10442800FB68DA6A094B1A60FB68DA6A13469B0074
:1044380013449B00064A1A44FB6804331046194685
:1044480000F060FC1037BD4680BD00BF7805002035
:104458009C040020B0B58AB004AF78607B68002265
:104468001A70354B1B68FB60334B1B685B011846A1
:1044780001F042FA38613B69002B5AD0FB68386971
:1044880019460022FFF740FA0346FB600023BB6091
:1044980048E0BB685B013A6913441B7B013B032B73
:1044A80016D801A252F823F0C1440008C7440008F6
:1044B800CD440008D34400085223FB750BE0422387
:1044C800FB7508E05323FB7505E04423FB7502E008
:1044D8000023FB7500BFBB685B013A6913445A6847
:1044E800FB7DB9684901386901440C69B96849011B
:1044F80038690144898B0846B96849013D692944EE
:10450800896800940190029178680C49FEF7EAFCEA
:10451800786803F063FF03467A6813447B60BB68DE
:104528000133BB60BA68FB689A42B2D3386901F0BC
:104538006FFA1837BD46B0BD70050020248B0008FF
:1045480080B584B000AF786039607B68FB60FB6839
:10455800002B02D100F04EFDFEE700F029FDFB68BC
:104568001A68FB68DB6BF968096C01FB03F31A44F2
:10457800FB685A60FB6800229A63FB681A68FB684C
:104588009A60FB681A68FB68DB6B013BF968096C89
:1045980001FB03F31A44FB68DA60FB684FF0FF3253
:1045A8005A64FB684FF0FF329A643B68002B0ED1C7
:1045B800FB681B69002B14D0FB6810331846FFF703
:1045C800CDFB0346012B0CD100F0E2FC09E0FB68AF
:1045D8001033184600F06AFBFB682433184600F0D5
:1045E80065FB00F0F5FC012318461037BD4680BD79
:1045F80080B588B000AFF860B9601346FB7100233E
:10460800FB61FB68002B2AD0502001F075F9B861D6
:10461800BB69002B23D0FB68BA6802FB03F30133A4
:104628007B61786901F068F90246BB691A60BB6969
:104638001B68002B10D0BB69FA68DA63BB69BA68DB
:104648001A64B8690121FFF77BFFBB69FA7983F81F
:104658004D20BB69FB6102E0B86901F0D9F9FB693B
:10466800002B02D100F0C6FCFEE7FB691846203794
:10467800BD4680BD80B588B000AFF860B9607A608B
:104688003B600023FB61FB68BB61BB69002B02D167
:1046980000F0B0FCFEE7BB68002B03D1BB691B6CC4
:1046A800002B01D1012300E00023002B02D100F0F0
:1046B800A1FCFEE73B68022B03D1BB69DB6B012B36
:1046C80001D1012300E00023002B02D100F092FC6D
:1046D800FEE700F06DFCBB699A6BBB69DB6B9A4225
:1046E80002D33B68022B16D1B869B9683A6800F062
:1046F800A9F9BB695B6A002B09D0BB69243318464A
:10470800FFF72CFB0346012B01D100F041FC00F020
:104718005FFC012359E07B68002B03D100F058FCB3
:10472800002352E0FB69002B06D107F1100318465D
:10473800FFF770FB0123FB6100F04AFCFFF73EF82E
:1047480000F036FCBB695B6CB3F1FF3F02D1BB697B
:1047580000225A64BB699B6CB3F1FF3F02D1BB696D
:1047680000229A6400F034FC07F110023B1D104649
:104778001946FFF769FB0346002B1ED1B86900F004
:1047880051FA0346002B12D0BB6903F110027B6873
:1047980010461946FFF784FAB86900F0E1F9FFF707
:1047A8001BF80346002B0FD100F0F2FB0CE0B869B0
:1047B80000F0D6F9FFF710F88BE7B86900F0D0F9E8
:1047C800FFF70AF8002300E083E718462037BD46C4
:1047D80080BD00BF80B588B000AFF860B9607A606E
:1047E8003B60FB68BB61BB69002B02D100F002FC97
:1047F800FEE7BB68002B03D1BB691B6C002B01D102
:10480800012300E00023002B02D100F0F3FBFEE7B8
:104818003B68022B03D1BB69DB6B012B01D1012360
:1048280000E00023002B02D100F0E4FBFEE700F0DB
:104838004FFC00F0DFFB7861BB699A6BBB69DB6BEF
:104848009A4202D33B68022B24D1B869B9683A6806
:1048580000F0F8F8BB699B6CB3F1FF3F12D1BB695C
:104868005B6A002B13D0BB6924331846FFF776FA2E
:104878000346002B0BD07B68002B08D07B680122F5
:104888001A6004E0BB699B6C5A1CBB699A640123DB
:10489800FB6101E00023FB61786900F0B5FBFB696F
:1048A80018462037BD4680BD80B58AB000AFF86095
:1048B800B9607A603B6000237B62FB683B623B6ABD
:1048C800002B02D100F096FBFEE7BB68002B03D15A
:1048D8003B6A1B6C002B01D1012300E00023002B55
:1048E80002D100F087FBFEE700F062FB3B6A9B6B9E
:1048F800002B3BD03B6ADB68FB61386AB96800F083
:1049080009F93B68002B1CD13B6A9B6B5A1E3B6A1A
:104918009A633B6A1B68002B04D1FFF7D5FC02465B
:104928003B6A5A603B6A1B69002B1BD03B6A1033F9
:104938001846FFF713FA0346012B13D100F028FBA2
:1049480010E03B6AFA69DA603B6A5B6A002B09D0BF
:104958003B6A24331846FFF701FA0346002B01D0BF
:1049680000F016FB00F034FB012366E07B68002BA7
:1049780003D100F02DFB00235FE07B6A002B06D1FA
:1049880007F114031846FFF745FA01237B6200F08C
:104998001FFBFEF713FF00F00BFB3B6A5B6CB3F1E8
:1049A800FF3F02D13B6A00225A643B6A9B6CB3F119
:1049B800FF3F02D13B6A00229A6400F009FB07F12D
:1049C80014023B1D10461946FFF73EFA0346002B1A
:1049D8002BD1386A00F010F90346002B1FD03B6A30
:1049E8001B68002B08D100F0E3FA3B6A5B681846A5
:1049F800FFF798FC00F0ECFA3B6A03F124027B68AD
:104A080010461946FFF74CF9386A00F0A9F8FEF786
:104A1800E3FE0346002B0FD100F0BAFA0CE0386A27
:104A280000F09EF8FEF7D8FE5EE7386A00F098F8C6
:104A3800FEF7D2FE002300E056E718462837BD46A9
:104A480080BD00BF80B584B000AFF860B9607A60FF
:104A5800FB681B6C002B0CD1FB681B68002B51D129
:104A6800FB685B681846FFF7B7FCFB6800225A60D2
:104A780048E07B68002B1AD1FB689A68FB681B6CBE
:104A88001046B9681A46FBF7A5FBFB689A68FB68ED
:104A98001B6C1A44FB689A60FB689A68FB685B6841
:104AA8009A422FD3FB681A68FB689A602AE0FB6871
:104AB800DA68FB681B6C1046B9681A46FBF78AFB74
:104AC800FB68DA68FB681B6C5B421A44FB68DA60B7
:104AD800FB68DA68FB681B689A4207D2FB685A6869
:104AE800FB681B6C5B421A44FB68DA607B68022B2C
:104AF80008D1FB689B6B002B04D0FB689B6B5A1E8C
:104B0800FB689A63FB689B6B5A1CFB689A631037B7
:104B1800BD4680BD80B582B000AF786039607B68E3
:104B28001B68002B19D07B68DA687B681B6C1A44F9
:104B38007B68DA607B68DA687B685B689A4203D3D3
:104B48007B681A687B68DA607B68DA687B681B6C4C
:104B5800386811461A46FBF73DFB0837BD4680BD4D
:104B680080B582B000AF786000F022FA14E07B686C
:104B78005B6A002B0AD07B6824331846FFF7EEF8EF
:104B88000346002B03D0FFF7AFF900E008E07B688D
:104B98009B6C5A1E7B689A647B689B6C002BE6DCD6
:104BA8007B684FF0FF329A6400F012FA00F000FAC6
:104BB80014E07B681B69002B0FD07B681033184604
:104BC800FFF7CCF80346002B01D0FFF78DF97B687F
:104BD8005B6C5A1E7B685A6400E003E07B685B6C80
:104BE800002BE6DC7B684FF0FF325A6400F0F0F9E6
:104BF8000837BD4680BD00BF80B584B000AF78607F
:104C080000F0D6F97B689B6B002B02D10123FB6077
:104C180001E00023FB6000F0DBF9FB681846103761
:104C2800BD4680BD80B584B000AF786000F0C0F9A3
:104C38007B689A6B7B68DB6B9A4202D10123FB602D
:104C480001E00023FB6000F0C3F9FB681846103749
:104C5800BD4680BD80B584B000AF786039607B68A0
:104C6800FB6000F0A5F9FB685B6CB3F1FF3F02D174
:104C7800FB6800225A64FB689B6CB3F1FF3F02D1CA
:104C8800FB6800229A6400F0A3F9FB689B6B002B79
:104C980005D1FB68243318463968FFF737F8F868F8
:104CA800FFF75EFF1037BD4680BD00BF80B483B0FC
:104CB80000AF78607B6803F108027B685A607B6804
:104CC8004FF0FF329A607B6803F108027B68DA6074
:104CD8007B6803F108027B681A617B6800221A600E
:104CE8000C37BD465DF8047B704700BF80B483B0C5
:104CF80000AF78607B6800221A610C37BD465DF80A
:104D0800047B704780B485B000AF786039607B68F9
:104D18005B68FB603B68FA685A60FB689A683B68A6
:104D28009A60FB689B683A685A60FB683A689A60C0
:104D38003B687A681A617B681B685A1C7B681A6032
:104D48001437BD465DF8047B704700BF80B485B05A
:104D580000AF786039603B681B68BB60BB68B3F123
:104D6800FF3F03D17B681B69FB600CE07B6808335D
:104D7800FB6002E0FB685B68FB60FB685B681A68C5
:104D8800BB689A42F6D9FB685A683B685A603B6828
:104D98005B683A689A603B68FA689A60FB683A68A8
:104DA8005A603B687A681A617B681B685A1C7B6882
:104DB8001A601437BD465DF8047B704780B485B02F
:104DC80000AF78607B685B687A6892689A607B68F5
:104DD8009B687A6852685A607B681B69FB60FB684D
:104DE8005A687B689A4203D17B689A68FB685A6064
:104DF8007B6800221A61FB681B685A1EFB681A60F0
:104E0800FB681B6818461437BD465DF8047B70477D
:104E180080B485B000AFF860B9607A60FB68043B85
:104E2800FB60FB684FF080721A60FB68043BFB6014
:104E3800BA68FB681A60FB68043BFB600C4AFB68B5
:104E48001A60FB68143BFB607A68FB681A60FB68B1
:104E5800043BFB60FB686FF002021A60FB68203BB2
:104E6800FB60FB6818461437BD465DF8047B704745
:104E78007D4E000880B500AF054B1B68B3F1FF3FBE
:104E880002D000F0B7F8FEE700F0B4F8FEE700BF84
:104E98000C000020054B19680868B0E8F04F80F353
:104EA80009884FF0000080F31188704798040020AB
:104EB80003480068006880F3088862B600DF00BF16
:104EC80008ED00E080B584B000AF2B4BFB60FB68B9
:104ED8001B78DBB2BB60FB68FF221A70FB681B788B
:104EE800DBB2FB71FB79DBB203F05003DAB2234B80
:104EF8001A70234B07221A6009E0214B1B685A1EBF
:104F08001F4B1A60FB79DBB25B00DBB2FB71FB79EC
:104F1800DBB2DBB25BB2002BEFDB194B1B681A026A
:104F2800174B1A60164B1B6803F4E062144B1A60A7
:104F3800BB68DAB2FB681A70124B124A126842F464
:104F480070021A600F4B0F4A126842F070421A60E2
:104F580000F09AF80C4B00221A6000F0AFF80B4BE7
:104F68000A4A126842F040421A60FFF7A1FF002384
:104F780018461037BD4680BD00E400E094050020C7
:104F88009805002020ED00E00C00002034EF00E040
:104F980080B400AF054B4FF080521A60BFF34F8FBB
:104FA800BFF36F8FBD465DF8047B704704ED00E0EA
:104FB80080B500AF00F01EF8044B1B685A1C034B69
:104FC8001A60BFF34F8FBFF36F8F80BD0C000020B6
:104FD80080B500AF064B1B685A1E054B1A60044B80
:104FE8001B68002B02D1002000F00EF880BD00BF26
:104FF8000C000020EFF311804FF0500181F311886D
:1050080070470023184600BF80F31188704700BF1F
:10501800EFF30980114B1A681EF0100F08BF20ED3E
:10502800108A20E9F04F10602DE908404FF0500039
:1050380080F31188FEF7BAFD4FF0000080F3118865
:10504800BDE8084019680868B0E8F04F1EF0100F76
:1050580008BFB0EC108A80F30988704798040020D4
:1050680080B500AFFFF7C6FFFEF7CAFC0346002B6A
:1050780003D0044B4FF080521A600020FFF7C4FFA2
:1050880080BD00BF04ED00E080B400AF074B084AC4
:105098001168084AA2FB01029209013A1A60064BFC
:1050A80007221A60BD465DF8047B704714E000E0F3
:1050B80004000020D34D621010E000E0DFF80C007F
:1050C800016841F4700101607047000088ED00E05C
:1050D80080B582B000AFEFF305837B607B680F2B50
:1050E8000CD90D4A7B6813441B78FB700B4B1B785B
:1050F800FA789A4202D2FFF77DFFFEE7084B1B6859
:1051080003F4E062074B1B689A4202D9FFF772FF6B
:10511800FEE70837BD4680BDF0E300E094050020B7
:105128000CED00E09805002080B586B004AF0023A0
:105138007B6000F045FA0F4B1B68002B0FD0022351
:1051480000930023019300230293002303930A484A
:105158000A494FF400720023FEF7B6F878607B68BE
:10516800002B02D1FFF746FFFEE77B681846083799
:10517800BD4680BDCC05002085520008388B00084C
:1051880080B588B000AFF860B9607A603B600023F2
:10519800FB611D4B1B68002B30D0BB683B617B68F3
:1051A8007B61FB68BB613B68002B1CD1FFF79CF857
:1051B8000346012B0BD1144B1A6807F11003104654
:1051C8001946BA6A0023FFF755FAF86116E00E4B44
:1051D8001A6807F110031046194600220023FFF74A
:1051E80049FAF8610AE0084B1A6807F110031046FB
:1051F80019463A680023FFF7EDFAF861FB6918468B
:105208002037BD4680BD00BFCC05002080B586B0E4
:1052180002AF78603960184B1B68DB68DB68FB609D
:10522800FB6804331846FFF7C9FDFB68DB69012BEF
:105238001BD1FB689A697B681344F86819463A6879
:105248007B6800F0A9F80346012B0ED100230093D8
:10525800F86800217A680023FFF792FFB860BB68FE
:10526800002B02D1FFF7C6FEFEE7FB685B6AF86811
:1052780098471037BD4680BDC405002080B584B06E
:1052880000AF786007F10803184600F03FF8F860AF
:10529800BB68F868194600F003F800F0BFF8F1E7BA
:1052A80080B584B000AF78603960FEF787FA07F1FF
:1052B8000803184600F04EF8F860BB68002B1ED1B2
:1052C8003B68002B0AD17A68FB689A4206D8FEF739
:1052D80083FA7868F968FFF799FF12E00A4B1A68B1
:1052E8007968FB68CB1A10461946FFF7B3FCFEF73E
:1052F80073FA0346002B04D1FFF74AFE01E0FEF7DC
:105308006BFA1037BD4680BDCC05002080B485B04F
:1053180000AF78600E4B1B681B68002B14BF00237E
:105328000123DBB21A467B681A607B681B68002B76
:1053380005D1074B1B68DB681B68FB6001E0002395
:10534800FB60FB6818461437BD465DF8047B704760
:10535800C405002080B584B000AF7860FEF7C2FABB
:10536800F8600C4B1B68FA689A4208D2094B1B6814
:10537800184600F0CBF87B6801221A6002E07B68CF
:1053880000221A60034BFA681A60FB681846103747
:10539800BD4680BDD005002080B586B000AFF8605E
:1053A800B9607A603B6000237B61FB68BA685A6029
:1053B800FB68FA681A61BA687B689A4212D87A68F8
:1053C8003B68D21AFB689B699A4202D301237B612E
:1053D8001BE0104B1A68FB68043310461946FFF7A8
:1053E800B5FC12E07A683B689A4206D2BA683B6814
:1053F8009A4202D301237B6107E0074B1A68FB68D6
:10540800043310461946FFF7A1FC7B691846183784
:10541800BD4680BDC8050020C405002080B58AB0FF
:1054280002AF60E03B69FB61FB695B69002B04D05C
:10543800FB6904331846FFF7C1FC3B1D1846FFF70C
:1054480089FFB861BB68032B4CD801A252F823F03E
:1054580069540008ED540008BB540008E5540008DE
:10546800FA68FB699B691A44FB68F8691146BA69CE
:10547800FFF792FF0346012B1AD1FB695B6AF869B3
:105488009847FB69DB69012B12D1FA68FB699B69B4
:10549800134400220092F86900211A460023FFF7FE
:1054A8006FFE78617B69002B02D1FFF7A3FDFEE751
:1054B80019E0FA68FB699A61FB699B69002B02D1C4
:1054C800FFF798FDFEE7FB699A69BB691344F86921
:1054D8001946BA69BB69FFF75FFF04E0F86900F095
:1054E80097FA00E000BF084B1A6807F10803104656
:1054F800194600220023FFF7D7F90346002B91D164
:105508002037BD4680BD00BFCC05002080B58AB0DD
:1055180002AF78603DE0284B1B68DB681B68FB61C5
:10552800254B1B68DB68DB68BB61BB690433184625
:10553800FFF744FCBB695B6AB8699847BB69DB69DC
:10554800012B26D1BB699A69FB6913447B617A698F
:10555800FB699A420ED9BB697A695A60BB69BA6914
:105568001A61154B1A68BB69043310461946FFF7D0
:10557800EDFB0EE000230093B8690021FA690023CF
:10558800FFF7FEFD38613B69002B02D1FFF732FDC2
:10559800FEE7094B1B681B68002BBCD1064B1B6838
:1055A800FB60064B1A68044B1A60044BFA681A60D1
:1055B8002037BD4680BD00BFC4050020C8050020B7
:1055C80080B500AFFFF7F4FC0D4B1B68002B13D11F
:1055D8000C48FFF76BFB0C48FFF768FB0B4B094ABD
:1055E8001A600B4B084A1A600A200C210022FEF7A9
:1055F800FFFF0246024B1A60FFF7EAFC80BD00BFBE
:10560800CC0500209C050020B0050020C405002022
:10561800C805002080B584B000AF78600023FB6027
:105628007B68002B02D1FFF7E5FCFEE7082000F0BD
:1056380063F9B860BB68002B02D1FFF7DBFCFEE71B
:10564800BB68002B12D0FFF7B3FCBB687A681A60FE
:10565800BB6800225A60084B1B68BA685A60064B40
:10566800BA681A60FFF7B4FC0123FB60FB681846B0
:105678001037BD4680BD00BF1800002080B588B037
:1056880000AFF860B9607A600123FB613A4B1B6890
:10569800002B41D1384B394A1A6039E0364B1B6828
:1056A8001B681B68BB61B86902F098FE7861FA68EC
:1056B8007B6913441B785BB2202B05D0FA687B69A1
:1056C80013441B78002B1ED1F868B9697A6902F077
:1056D800B5FE0346002B16D1274B1B681B681B7BA6
:1056E8005BB2002B0EDBF86800F0D8F803461A46C8
:1056F800214B1B681B681B7B5BB29A4202D00023BC
:10570800FB6109E008E01C4B1B685A681A4B1A60D9
:10571800194B1B68002BC1D1174B1B68002B0BD0F2
:10572800FB69002B08D1B86815497A6802F0E0FED9
:10573800114B00221A601AE00F4B1B68002B0FD088
:105748000D4B1B681B689B68B8687968FA689847AE
:10575800F861FB69002B0AD1074B00221A6006E0AA
:10576800B86808497A6802F0C3FE0023FB61FB6948
:1057780018462037BD4680BDD40500201000002003
:10578800788B0008D08B000880B487B000AFF86031
:10579800B9607A6000237B6100233B617B6800224B
:1057A8001A6041E002E0FB680133FB60FB681B788C
:1057B800002B04D0FB681B785BB2202BF3D102E0EE
:1057C800FB680133FB60FB681B78002B04D0FB6887
:1057D8001B785BB2202BF3D0FB681B78002B22D000
:1057E8007B6901337B617A69BB689A421CD1FB688B
:1057F8003B6107E07B681B685A1C7B681A60FB6882
:105808000133FB60FB681B78002B04D0FB681B7816
:105818005BB2202BEED17B681B68002B02D10023E2
:105828003B6105E004E003E07A69BB689A42B9D3BA
:105838003B6918461C37BD465DF8047B704700BFBE
:1058480080B586B000AFF860B9607A60114B1B680C
:10585800002B02D10F4B104A1A600E4B1B681B68B5
:105868005B68F8681946BA6802F042FE094B1B6883
:105878005A68084B1A60074B1B68002B02D100239B
:105888007B6101E001237B617B6918461837BD46BF
:1058980080BD00BFD80500201000002080B485B06E
:1058A80000AF78600023FB730023BB6012E07B68C5
:1058B8001B785BB2202B08D1BB68012B07D0FB7B80
:1058C8000133FB730123BB6001E00023BB607B68ED
:1058D80001337B607B681B78002BE8D1BB68012B08
:1058E80002D1FB7B013BFB73FB7B5BB21846143791
:1058F800BD465DF8047B704780B586B000AF786020
:105908000023FB60FDF75AFF3D4B1B68002B01D1BC
:1059180000F0C8F83B4B1A687B681340002B63D132
:105928007B68002B0DD008237A6813447B607B6862
:1059380003F00703002B04D07B6823F00703083328
:105948007B607B68002B4FD02F4B1B687A689A428C
:105958004AD82E4B3B612D4B1B687B6104E07B6969
:105968003B617B691B687B617B695A687B689A42EB
:1059780003D27B691B68002BF1D1214B1B687A6924
:105988009A4231D03B691A6808231344FB607B694B
:105998001A683B691A607B695A687B68D21A0823BF
:1059A8005B009A420FD97A697B681344BB607B69B4
:1059B8005A687B68D21ABB685A607B697A685A60F1
:1059C800B86800F0BDF8104B1A687B695B68D21A9A
:1059D8000D4B1A607B695A680A4B1B681A437B692E
:1059E8005A607B6900221A60FDF7F6FEFB68002BFF
:1059F80001D1FDF76BFBFB6818461837BD4680BD23
:105A0800E4310120E83101201C000020DC310120B4
:105A180080B584B000AF78607B68FB607B68002B42
:105A280038D008235B42FA681344FB60FB68BB600C
:105A3800BB685A68194B1B681340002B02D1FFF74B
:105A4800D9FAFEE7BB681B68002B02D0FFF7D2FA31
:105A5800FEE7BB685A68114B1B681340002B19D02E
:105A6800BB681B68002B15D1BB685A680B4B1B68B9
:105A7800DB431A40BB685A60FDF7A0FEBB685A6852
:105A8800074B1B681A44064B1A60B86800F058F8B0
:105A9800FDF7A2FE1037BD4680BD00BFE8310120EA
:105AA8001C00002080B584B000AF1F4B23F0070313
:105AB800FB601E4BFA681A601C4B00225A601C4B94
:105AC800FA681344BB6008235B42BA681344BB609E
