:020000040800F2
:10000000000002206D2F0008CD2F0008CD2F000822
:10001000CD2F0008CD2F0008CD2F000800000000D4
:10002000000000000000000000000000E14900089E
:10003000CD2F0008000000005D4B0008AD4B00080C
:10004000CD2F0008CD2F0008CD2F0008CD2F0008A0
:10005000CD2F0008CD2F0008CD2F0008CD2F000890
:10006000CD2F0008CD2F000871150008CD2F0008F6
:10007000CD2F0008CD2F0008CD2F0008CD2F000870
:10008000CD2F0008CD2F0008CD2F0008CD2F000860
:10009000CD2F0008CD2F0008CD2F0008CD2F000850
:1000A000CD2F0008CD2F0008CD2F0008CD2F000840
:1000B0000D2F0008D12E0008CD2F0008CD2F0008ED
:1000C000CD2F0008CD2F0008CD2F0008CD2F000820
:1000D000CD2F0008CD2F0008CD2F0008CD2F000810
:1000E000CD2F0008CD2F0008CD2F0008CD2F000800
:1000F000CD2F0008CD2F0008CD2F0008CD2F0008F0
:10010000CD2F0008CD2F0008CD2F0008CD2F0008DF
:10011000CD2F0008CD2F0008CD2F0008CD2F0008CF
:10012000CD2F0008CD2F000835060008D1060008A5
:10013000CD2F0008CD2F0008CD2F0008CD2F0008AF
:10014000CD2F0008CD2F0008CD2F0008CD2F00089F
:10015000CD2F0008CD2F0008CD2F00083117000843
:10016000CD2F0008CD2F0008CD2F0008CD2F00087F
:10017000CD2F0008CD2F0008CD2F0008CD2F00086F
:08018000CD2F0008CD2F00086F
:1001880010B5054C237833B9044B13B10448AFF3C9
:1001980000800123237010BD6004002000000000CF
:1001A800948A000808B5064B1BB106480649AFF308
:1001B80000800648036813B1054B03B1984708BD92
:1001C80000000000948A00086404002060040020F5
:1001D80000000000844641EA000313F003036DD1D8
:1001E800403A41D351F8043B40F8043B51F8043BF2
:1001F80040F8043B51F8043B40F8043B51F8043BF9
:1002080040F8043B51F8043B40F8043B51F8043BE8
:1002180040F8043B51F8043B40F8043B51F8043BD8
:1002280040F8043B51F8043B40F8043B51F8043BC8
:1002380040F8043B51F8043B40F8043B51F8043BB8
:1002480040F8043B51F8043B40F8043B51F8043BA8
:1002580040F8043B51F8043B40F8043B51F8043B98
:1002680040F8043B403ABDD2303211D351F8043B38
:1002780040F8043B51F8043B40F8043B51F8043B78
:1002880040F8043B51F8043B40F8043B103AEDD2E7
:100298000C3205D351F8043B40F8043B043AF9D238
:1002A800043208D0D2071CBF11F8013B00F8013B0B
:1002B80001D30B8803806046704700BF082A13D318
:1002C8008B078DD010F003038AD0C3F10403D21A30
:1002D800DB071CBF11F8013B00F8013B80D331F864
:1002E800023B20F8023B7BE7043AD9D3013A11F8E4
:1002F800013B00F8013BF9D20B7803704B7843704F
:100308008B7883706046704780B59AB000AF012043
:10031800012106F083FE0120012106F07FFE012065
:10032800012106F07BFE80233B66022387F86430B8
:10033800002387F86630032387F86530022387F89F
:10034800673007F16003B148194606F07FFB2023A8
:100358003B66022387F86430002387F8663003235E
:1003680087F86530022387F8673007F16003A748EC
:10037800194606F06BFB40233B66022387F864307E
:10038800012387F86630032387F86530002387F850
:10039800673007F160039D48194606F057FB9B48F4
:1003A8000621052206F068FC98480721052206F078
:1003B80063FC96480521052206F05EFC0420012115
:1003C80006F02CFE0420012106F028FE10233B66CF
:1003D800012387F86430002387F86630032387F801
:1003E8006530012387F8673007F1600387481946AD
:1003F80006F02CFB854B854A128B92B242F0100214
:1004080092B21A8320233B66012387F864300023C5
:1004180087F86630032387F86530012387F867304B
:1004280007F160037A48194606F010FB784B784AC2
:10043800128B92B242F0200292B21A834FF480508B
:10044800012106F023FE0023A7F84C304FF48273F5
:10045800A7F84E300023A7F850300023A7F85230F1
:100468000023A7F854304FF44073A7F856300823F8
:10047800A7F858300023A7F85A3007F14C0365480D
:10048800194606F03BFE6348012106F029FF4FF4A8
:100498008000012106F0C2FD5F4805F0EFF95F48D2
:1004A80005F0ECF900BF5C4805F0F8FD0346002BA9
:1004B800F9D100BF594805F0F1FD0346002BF9D1E9
:1004C80007F11003184605F0B3FC00233B634FF413
:1004D8008063BB6200237B63514B7B610023BB6459
:1004E8000023FB6200237B624FF40033BB634FF0B1
:1004F800C0633B614023FB614A4BBB614FF4FA6325
:100508003B6207F110034448194605F0CDFA4FF055
:10051800C0633B610023FB61434BBB614FF4FA634B
:100528003B6207F110033D48194605F0BDFA3A4809
:100538001021012205F030FE38481021012205F073
:100548002BFE3448022106F0C9FF3248012106F08B
:10055800C5FF3B233B7306237B730123BB73012336
:10056800FB7307F10C03184605F00EF93A233B73A9
:1005780006237B730223BB730123FB7307F10C0370
:10058800184605F001F923480221012206F0EAFE87
:1005980020480121012206F0E5FE10233B660023D6
:1005A80087F86430002387F86630002387F86730BF
:1005B800032387F8653007F160031548194606F0EC
:1005C80045FA4FF48040012106F060FD0220042125
:1005D80006F0BEFF10237B6000233B720C237B7266
:1005E8000123BB723B1D184606F0F4F80A233B7042
:1005F8000A237B700323BB700123FB703B4618461C
:1006080005F0C2F86837BD4680BD00BF0000024053
:100618000008024000300140586402404064024033
:100628000C300140D83901200032012080B500AFDC
:100638001D481E4905F066FE0346002B2AD01A48BD
:100648001A4906F01BF800BF1948802106F0E8FE99
:100658000346012BF8D0174B164A128B92B242F080
:10066800100292B21A831448002105F017FC0E48B4
:10067800002105F013FC04F03DFA104B00221A602B
:100688000F4B1B68184600210C4A002303F044FE58
:1006980004F040FA094B1B68002B03D0094B4FF0BC
:1006A80080521A6080BD00BF406402400080201064
:1006B8000030014000000240586402407C040020E1
:1006C800EC31012004ED00E080B500AF1D481E4963
:1006D80005F018FE0346002B2AD01A481A4905F0DF
:1006E800CDFF00BF1948802106F09AFE0346012B72
:1006F800F8D0174B164A128B92B242F0100292B2FF
:100708001A831048002105F0C9FB1248002105F0A2
:10071800C5FB04F0EFF9104B00221A600F4B1B6861
:10072800184600210C4A002303F0F6FD04F0F2F904
:10073800094B1B68002B03D0094B4FF080521A60FD
:1007480080BD00BF5864024000800018003001409E
:1007580000000240406402407C040020EC3101208B
:1007680004ED00E02DE9F04387B000AF0B463A6096
:100778000246FA80BB806B461E46BB88191D4B1E7D
:100788003B610B461A464FF000034FEAC30949EA9A
:1007980052794FEAC2080B461A464FF00003DD00B3
:1007A80045EA5275D4000B460733DB08DB00ADEB96
:1007B800030D6B460033FB60FB881B0A9BB2DAB261
:1007C800FB681A70FB88DAB2FB685A70BB8803F4BE
:1007D800FE431B12DBB263F07F03DBB2DAB2FB68C5
:1007E8009A70BB88DAB2FB68DA7004237B610BE08D
:1007F8007B69043B3A6813441A78F9687B690B44AF
:100808001A707B6901337B61BB881A1D7B699A4228
:10081800EEDCBB8804339BB21248194605F0CAFBCC
:10082800104BFA68DA60104B0F4A528B92B242F0C2
:10083800100292B25A830B48012105F02FFB0B4896
:10084800012105F02BFB0A4B1B68184600214FF0CD
:10085800FF32002303F0CAFDB5461C37BD46BDE88C
:10086800F08300BF58640240000002404064024028
:10087800EC31012080B584B000AF02460B46FA8007
:10088800BB800223FB81FB881B0A9BB2DBB23B7255
:10089800FB88DBB27B72FB8903F4FE431B12DBB2DD
:1008A80063F07F03DBB2DBB2BB72FB89DBB2FB72A6
:1008B800BB881B0A9BB2DBB23B73BB88DBB27B7382
:1008C8001148062105F076FB0F4B07F10802DA60A4
:1008D8000E4B0E4A528B92B242F0100292B25A83D9
:1008E8000948012105F0DAFA0948012105F0D6FA8C
:1008F800084B1B68184600214FF0FF32002303F015
:1009080075FD1037BD4680BD5864024000000240A6
:1009180040640240EC31012080B584B000AF02464B
:100928000B46FA807B710123FB81FB881B0A9BB273
:10093800DBB23B72FB88DBB27B72FB8903F4FE43BC
:100948001B12DBB263F07F03DBB2DBB2BB72FB8945
:10095800DBB2FB727B793B731148052105F02AFB5A
:100968000F4B07F10802DA600E4B0E4A528B92B217
:1009780042F0100292B25A830948012105F08EFA1A
:100988000948012105F08AFA084B1B68184600211E
:100998004FF0FF32002303F029FD1037BD4680BD1C
:1009A800586402400000024040640240EC310120DB
:1009B8002DE9F04186B000AFF880B98069468846D5
:1009C800B9880E1D711E3961314608464FF0000185
:1009D800CD0045EA5075C400314608464FF0000185
:1009E800CB0043EA5073C20033460733DB08DB0011
:1009F800ADEB030D6B460033FB60FB881B0A9BB213
:100A0800DAB2FB681A70FB88DAB2FB685A70BB88E6
:100A180003F4FE431B12DAB2FB689A70BB88DAB2A1
:100A2800FB68DA7004237B6107E0FA687B6913448A
:100A380000221A707B6901337B61BB881A1D7B69B0
:100A48009A42F2DCBB8804339BB21748194605F07A
:100A5800B1FABB8804339BB21448194605F0AAFAC8
:100A6800124BFA68DA60104B114ADA60114B114ADE
:100A7800528B92B242F0100292B25A830B48012173
:100A880005F00CFA0848012105F008FA0A4B1B6822
:100A9800184600214FF0FF32002303F0A7FCC5469B
:100AA8001837BD46BDE8F0814064024058640240F2
:100AB8000032012000000240EC31012080B58AB0EC
:100AC80000AF584A07F118031068186092889A8096
:100AD800554A07F1140310681860544A07F11003C7
:100AE80010681860524A07F10C031068186001205A
:100AF8000021032203F01EFB02464E4B1A6002F04F
:100B08001FFE0346BB604C4B4B4A528B92B242F0DD
:100B1800200292B25A83484B474A128B92B242F053
:100B2800200292B21A834FF4FA7002F04DFC0123AE
:100B38003B6200208021FFF7EFFE8023FB7100BF9E
:100B480000200021FFF7E8FE1620FF21FFF7E4FE52
:100B580036200021FFF7E0FE1720C821FFF7DCFE52
:100B680019200321FFF7D8FE00237B6200237B6254
:100B78002BE07B6A9BB21B029BB203F580431E33BA
:100B88009BB218460221FFF7C7FE7B6A9BB21B0285
:100B98009BB203F580431F339BB218460221FFF72F
:100BA800BBFE7B6A9BB21B029BB203F580432C33CE
:100BB8009BB21846FF21FFF7AFFE204A7B6A134419
:100BC80000221A707B6A01337B627B6A072BD0DDB7
:100BD80007F1080318464FF4FA7102F09DFB07F17C
:100BE800140107F1100207F10C03084611461A46D2
:100BF80000F034F807F11803184600F023F807F15D
:100C0800080318464FF4FA7102F086FB0C4B1B6878
:100C1800184602F07BFC002002F038FB2837BD465E
:100C280080BD00BF088200081082000814820008F6
:100C380018820008EC3101200008024080040020DE
:100C4800B841012080B582B000AF78600920062144
:100C58007A68FFF787FD0837BD4680BD80B584B048
:100C680000AFF860B9607A600F200421FA68FFF7D6
:100C780079FD05200421BA68FFF774FD01200421DD
:100C88007A68FFF76FFD1037BD4680BD80B584B028
:100C980000AF0346FB71FB799BB21B029BB203F5C5
:100CA800804301339BB218460121FFF781FE044BB4
:100CB8001B78FB73FB7B18461037BD4680BD00BF11
:100CC8000432012080B584B000AF0346FB71FB7984
:100CD8009BB21B029BB203F5804303339BB21846B9
:100CE8000121FFF765FE044B1B78FB73FB7B18465D
:100CF8001037BD4680BD00BF0432012080B584B0E6
:100D080000AF0346FB71FB799BB21B029BB203F554
:100D1800804320339BB218460221FFF749FE084A58
:100D280007F10C0312881A803B7B1B029AB27B7B6B
:100D380013439BB29BB218461037BD4680BD00BF17
:100D48000432012080B584B000AF0346FB71FB7903
:100D58009BB21B029BB203F5804324339BB2184617
:100D68000221FFF725FE084A07F10C0312881A80B2
:100D78003B7B1B029AB27B7B13439BB29BB2184608
:100D88001037BD4680BD00BF0432012080B584B055
:100D980000AF0346FB71FB799BB21B029BB203F5C4
:100DA800804322339BB218460221FFF701FE084A0E
:100DB80007F10C0312881A803B7B1B029AB27B7BDB
:100DC80013439BB29BB218461037BD4680BD00BF87
:100DD8000432012080B582B000AF02460B46FA719A
:100DE800BB80FB799BB21B029BB203F58043243383
:100DF8009AB2BB8810461946FFF73CFD0837BD4636
:100E080080BD00BF80B584B000AF0346FB71FB799D
:100E18009BB21B029BB203F5804326339BB2184654
:100E28000221FFF7C5FD084A07F10C0312881A8052
:100E38003B7B1B029AB27B7B13439BB29BB2184647
:100E48001037BD4680BD00BF0432012080B584B094
:100E580000AF0346FB71FB799BB21B029BB203F503
:100E6800804328339BB218460221FFF7A1FD084AA8
:100E780007F10C0312881A803B7B1B029AB27B7B1A
:100E880013439BB29BB218461037BD4680BD00BFC6
:100E98000432012080B582B000AF02460B46FA71D9
:100EA800BB80FB799BB21B029BB203F580432833BE
:100EB8009AB2BB8810461946FFF7DCFC0837BD46D6
:100EC80080BD00BF80B586B000AFBA600246FA7335
:100ED8000A46BA81FB80BB89C3F30A03FB82FB7B0A
:100EE8009BB2DB009BB21B029AB2FB8A13449BB2F3
:100EF800A3F50043BB82FA8AFB881A44FB7B1B02DA
:100F080003F5804320339A422ADDFB7B9BB2DB004A
:100F18009BB21B029AB2FB8AD31A9BB2A3F5004379
:100F28007B82BA8A7B8A10461946BA68FFF71AFC90
:100F38007B8ABA681344BB60FA887B8AD31A3B82DF
:100F4800FB7B9BB2DB009BB21B029BB2A3F5004369
:100F58009AB23B8A10461946BA68FFF703FC06E0C6
:100F6800BA8AFB8810461946BA68FFF7FBFB1837A0
:100F7800BD4680BD80B586B000AFBA600246FA7340
:100F88000A46BA81FB80BB89C3F30A03FB82FB7B59
:100F98009BB2DB009BB21B029AB2FB8A13449BB242
:100FA800A3F58043BB82FA8AFB881344B3F5006F2C
:100FB8002FDDFB8AC3F500637B82BA8A7B8A1046E1
:100FC8001946FFF7F5FC7B8AB86819491A46FFF7F6
:100FD80001F97B8ABA681344BB60FA887B8AD31A02
:100FE8003B82FB7B9BB2DB009BB21B029BB2A3F54F
:100FF80080439AB23B8A10461946FFF7D9FC7B8A90
:10100800BA681A443B8A104609491A46FFF7E2F8BB
:101018000BE0BA8AFB8810461946FFF7C9FCFB8823
:10102800B86803491A46FFF7D5F81837BD4680BD9A
:101038000432012080B584B000AF13460246FA712D
:101048000A46BA80BB710023FB730CE0FB7B4C4A59
:10105800D35C002B04D1FB7B494A0121D15405E024
:10106800FB7B0133FB73FB7B072BEFD9FB7B072B48
:1010780001D9FF237FE0FB7903F00F03082B01DD83
:10108800FF2378E0FB7903F00F03022B05D0FB79EF
:101098005BB2002B01DAFF236DE0FB7903F00F034D
:1010A800012B06D0FB7903F02003002B01D0FF238E
:1010B80061E0FB7B9BB21B029BB203F580439AB2B3
:1010C800FB7910461946FFF727FCFB7903F00F035D
:1010D800FB71FB79012B29DB022B02DD032B18D0D6
:1010E80024E0BB881B0A9BB2DBB23B73BB88DBB234
:1010F8007B73FB7B9BB21B029BB203F580430433DB
:101108009AB207F10C03104602211A46FFF72AFB90
:101118000CE0FB7B9BB21B029BB203F580431433AC
:101128009AB2BB7910461946FFF7F6FBFB7B9BB2D8
:101138001B029BB203F5804301339BB21846012181
:10114800FFF7EAFB00BFFB7B1846FFF79FFD03464E
:10115800002BF8D1FB7B1846FFF7B4FD0346132B91
:101168000CBF00230123DBB2BB73BB7B002B01D078
:10117800FF2300E0FB7B18461037BD4680BD00BF4B
:10118800800400202DE9F0438BB000AFB960014620
:10119800F973BA81FB80FB7B1846FFF793FD034682
:1011A800BB84FB7B072B04D8FB7B564AD35C012B03
:1011B80002D04FF0FF33A0E0BB68002B02D0BB8900
:1011C800002B02D14FF0FF3397E0FB7B1846FFF767
:1011D80079FD0346172B01D000238EE004E0FB883D
:1011E800012B01D1002388E0FB7B1846FFF786FD21
:1011F8000346FB84FB8C002BF1D0FB7B1846FFF7E2
:10120800A1FD03467B84FA8CBB899A4201D9BB892C
:10121800FB84F97B7A8CFB8C08461146BA68FFF789
:1012280051FE7A8CFB8C13447B84FA7B7B8C1046B2
:101238001946FFF7CFFDFB7B1846FFF7A7FD0346CE
:101248003B84FB7B1846FFF77DFD0346FB837A8CC6
:101258003B8CD11A6B461E464B1EBB610B461A4689
:101268004FF000034FEAC30949EA52794FEAC2082E
:101278000B461A464FF00003DD0045EA5275D400CC
:101288000B460733DB08DB00ADEB030D6B46003381
:101298007B613B8CA3F500439AB2798C3B8CCB1ACB
:1012A8009BB210461946FFF783FB7A69798C3B8C11
:1012B800CB1A104614491A46FEF78CFFFB7B9BB2EB
:1012C8001B029BB203F5804301339BB218462021D1
:1012D800FFF722FB00BFFB7B1846FFF7D7FC03464E
:1012E800002BF8D100BFFB7B1846FFF74FFD0346E4
:1012F8007A8C9A42F7D1FB8CB54618462C37BD46F6
:10130800BDE8F083800400200432012080B586B057
:1013180000AFB9600146F973BA81FB80FB7B072BEC
:1013280004D8FB7B314AD35C012B02D04FF0FF334A
:1013380057E0BB68002B02D0BB89002B02D14FF0CD
:10134800FF334EE0FB7B1846FFF7BCFC0346172B28
:1013580001D0002345E004E0FB88012B01D10023E4
:101368003FE0FB7B1846FFF74DFD0346FB82FB8AF7
:10137800002BF1D0FB7B1846FFF768FD0346BB82C4
:10138800BA89FB8A9A4238BF13469BB2F97BBA8A5C
:1013980008461146BA68FFF7EDFDBA8AFB8A13447E
:1013A800BB82FA7BBB8A10461946FFF773FDFB7BAD
:1013B8009BB21B029BB203F5804301339BB21846D4
:1013C8004021FFF7A9FA00BFFB7B1846FFF75EFC38
:1013D8000346002BF8D1BA89FB8A9A4238BF1346D4
:1013E8009BB218461837BD4680BD00BF8004002058
:1013F80080B584B000AF78607B68002B08DB7B6821
:10140800072B05DC224A7B6813441B78012B02D08A
:101418004FF0FF3338E07B68DBB21846FFF752FC29
:101428000346132B02D04FF0FF332DE07B689BB2AD
:101438001B029BB203F5804302339BB2184601217D
:10144800FFF7B6FA134B1B78FB737B689BB21B0242
:101458009BB203F5804301339BB218460221FFF784
:101468005BFA00BF7B68DBB21846FFF70FFC034648
:10147800002BF7D100BF7B68DBB21846FFF722FCD0
:101488000346142BF7D1002318461037BD4680BDFC
:10149800800400200432012080B582B000AF04230C
:1014A800FB7136200121FFF783FA2C4B1B78FB7167
:1014B800FB791B029BB203F5804302339BB21846AB
:1014C8000121FFF775FA254B1B78FB7144F20200E6
:1014D800FF21FFF721FAFB79013B0F2B39D801A235
:1014E80052F823F02D150008391500085B1500087F
:1014F800451500085B1500085B1500085B1500081A
:101508005B1500085B1500085B1500085B150008F3
:101518005B1500085B1500085B1500085B150008E3
:101528005B1500080E4B1B68184601F075FF11E0AB
:101538000B4B1B68184601F06FFF0BE0084B1B684C
:10154800184601F0E3FF074B1B68184601F0DEFF61
:1015580000E000BF0837BD4680BD00BF043201204F
:10156800F0310120B841012080B500AF102005F00E
:10157800EFF90346002B04D0FFF78EFF102005F08B
:10158800CDF980BD80B5B6B000AF7860002001F01D
:1015980043FF012050210022FFF74CFD03461A4665
:1015A800104B1A600F4B1B681846FFF721FF0020ED
:1015B80001F032FF0B4B1B68DAB207F170031046DB
:1015C800194664220023FFF7A1FEC7F8D40007F1EB
:1015D800700207F10C0310461946642203F0F0FD6F
:1015E800E5E700BFF431012080B588B000AF2020C6
:1015F800012105F04BFD0420012105F00FFD042019
:10160800012105F00BFD4020012105F007FDC02355
:10161800BB6102233B7703237B770023BB7701233E
:10162800FB7707F118032948194605F00FFA4FF41C
:101638008073BB6101233B770023BB7703237B7750
:101648000123FB7707F118032148194605F0FEF935
:101658001F4B1F4A128B92B242F4807292B21A83C5
:101668001A480621082205F007FB18480721082216
:1016780005F002FB4FF41643BB600023BB81002337
:10168800FB8100233B820023BB820C237B8207F172
:1016980008031048194605F0EDFF0E4840F22551A1
:1016A800012206F0A1F947233B7109237B71062328
:1016B800BB710123FB713B1D184604F065F8054812
:1016C800012106F03DF92037BD4680BD00080240E3
:1016D800001802400014014080B485B000AF786063
:1016E80039600023FB6010E000BF0E4B1B889BB2E3
:1016F80003F04003002BF8D00A4BFA6879680A44D3
:1017080012789A80FB680133FB60FA683B689A425A
:1017180003DA7B681B78002BE6D11437BD465DF8E9
:10172800047B70470014014080B582B000AF2348A5
:1017380040F2255106F016FA0346002B33D01F4B12
:101748009B889BB2FB711E4B00221A601D4B1B78B5
:101758001A461D4B1B689A4211DA1A4B1B78DBB2EA
:101768005BB2002B0BDB174B1B78184AF979D15465
:10177800144B1B780133DAB2124B1A7013E0114B79
:101788001B78124AF979D1540E4B00221A7003F0D3
:10179800B1F90F4B1B6818460021094A002302F0D3
:1017A800BBFD03F0B7F9064B1B68002B03D0094BB0
:1017B8004FF080521A600837BD4680BD00140140C2
:1017C800880400208C040020D4410120D841012045
:1017D800A841012004ED00E080B485B000AF786036
:1017E8000B467B80FF23FB73FF23BB7313E07B68EF
:1017F8005A1C7A601A78FB7B5340DBB2BB600F4AF5
:10180800BB6813441A78BB7B5340FB730C4ABB6814
:1018180013441B78BB737B885A1E7A80002BE6D151
:10182800FB7B1B029AB2BB7B9BB213439BB29BB25E
:1018380018461437BD465DF8047B70475487000886
:101848005488000880B586B000AFF860B9607A6047
:101858003B603A687B6813445A1E254B1A60254B37
:10186800244A128B92B242F4807292B21A830023F5
:101878007B6102E07B6901337B617B69B3F57A6F39
:10188800F8DBF8687968FFF727FF00237B6102E03F
:101898007B6901337B617B69B3F57A6FF8DB154BA4
:1018A800144A528B92B242F4807292B25A83124B0B
:1018B8001B68184600214FF0FF32002302F096FD06
:1018C80000237B610CE07B69BA68134479697A6804
:1018D8000A440A498A5CD2B21A707B6901337B6177
:1018E8007A693B689A42EEDB1837BD4680BD00BF77
:1018F800D441012000180240A8410120D84101200C
:1019080080B5ADF50C7D00AF07F1080319603B1DEC
:101918001A6007F10E0302461A800023C7F828321E
:101928000023C7F8243207F1140336221A7007F18E
:1019380014030F225A7007F10E031B881B0A9BB26F
:10194800DAB207F114039A7007F10E031B88DAB2B2
:1019580007F11403DA7007F108031B681B12DAB2E7
:1019680007F114031A7107F108031B68DAB207F1CB
:1019780014035A710623C7F82C3207F108031B68B1
:10198800002B00DA0733DB101A4607F108031B683F
:1019980003F00703002B0CBF00230123DBB2134421
:1019A800C7F81832D7F82C325A1CC7F82C22D7F8A7
:1019B8001822D1B207F11402D1540023C7F82032FB
:1019C8005CE00123C7F81C3207F11402D7F82C3267
:1019D800134400221A7038E0D7F824325A1CC7F88A
:1019E80024223A1D126813441B78002B13D007F1E8
:1019F8001402D7F82C3213441B78DAB2D7F81C3209
:101A0800DBB21343DBB2DAB207F11401D7F82C3298
:101A18000B441A7014E007F11402D7F82C3213445F
:101A28001B78DAB2D7F81C32DBB2DB43DBB21340E7
:101A3800DBB2DAB207F11401D7F82C320B441A7072
:101A4800D7F81C325B00C7F81C32D7F81C32DBB25F
:101A5800002B09D0D7F828325A1CC7F8282207F1DA
:101A6800080212689342B7DBD7F82C320133C7F863
:101A78002C32D7F820320133C7F82032D7F8202289
:101A8800D7F818329A429CDBD7F82C329BB207F170
:101A9800140210461946FFF79FFE0346A7F81632B0
:101AA800D7F82C325A1CC7F82C22B7F81622120A7B
:101AB80092B2D1B207F11402D154D7F82C325A1C81
:101AC800C7F82C22B7F81622D1B207F11402D15464
:101AD80007F1140207F1140310461946D7F82C220F
:101AE8000823FFF7AFFE07F50C77BD4680BD00BFA2
:101AF80080B5ADF5087D00AF07F10C03186007F15C
:101B0800080319603B1D1A6007F1100336221A708A
:101B180007F1100310225A7007F10C031B681B12FF
:101B2800DAB207F110039A7007F10C031B68DAB2F6
:101B380007F11003DA7007F108031B681B12DAB209
:101B480007F110031A7107F108031B68DAB207F1ED
:101B580010035A710623C7F8183207F108031B68E7
:101B68005B00C7F81432D7F818325A1CC7F8182285
:101B7800D7F81422D1B207F11002D1540023C7F8C4
:101B88001C3226E0D7F818325A1CC7F81822D7F8A2
:101B98001C225200391D09680A441288120A92B29E
:101BA800D1B207F11002D154D7F818325A1CC7F82D
:101BB8001822D7F81C225200391D09680A441288D5
:101BC800D1B207F11002D154D7F81C320133C7F84B
:101BD8001C3207F10803D7F81C221B689A42D1DB94
:101BE800D7F818329BB207F1100210461946FFF7D2
:101BF800F3FD0346A7F81232D7F818325A1CC7F873
:101C08001822B7F81222120A92B2D1B207F11002C2
:101C1800D154D7F818325A1CC7F81822B7F812222C
:101C2800D1B207F11002D15407F1100207F11003E5
:101C380010461946D7F818220823FFF703FE07F5C0
:101C48000877BD4680BD00BF80B5ADF5856D00AF96
:101C580007F10C03186007F1080319603B1D1A60AF
:101C680007F5057336221A7007F5057304225A70B2
:101C780007F10C031B681B12DAB207F505739A709B
:101C880007F10C031B68DAB207F50573DA7007F180
:101C980008031B681B12DAB207F505731A7107F1FE
:101CA80008031B68DAB207F505735A710623C7F8EB
:101CB800203407F108031B685B00C7F81C34D7F809
:101CC80020345A1CC7F82024D7F81C24D1B207F5B1
:101CD8000572D154D7F820349BB207F50572104627
:101CE8001946FFF779FD0346A7F81A34D7F82034C8
:101CF8005A1CC7F82024B7F81A24120A92B2D1B293
:101D080007F50572D154D7F820345A1CC7F8202497
:101D1800B7F81A24D1B207F50572D15407F10803B0
:101D28001B685B00053307F5057107F114020846C7
:101D38001146D7F82024FFF785FD0223C7F814348D
:101D48000023C7F8243424E0D7F824345B003A1D74
:101D580012681344D7F81424511CD7F824245200CD
:101D68000A4407F114018A5C120291B2D7F81424CC
:101D7800901CD7F824245200024407F11400825C16
:101D88000A4392B292B21A80D7F824340133C7F8C2
:101D9800243407F10803D7F824241B689A42D3DBBC
:101DA80000BF07F58567BD4680BD00BF80B588B018
:101DB80000AF7860002001F02FFB07F10C03002032
:101DC8000A211A46FFF740FF4FF47A7001F0FCFA37
:101DD800F3E700BF80B59CB000AF7860002387F8B8
:101DE8006430012387F86530012387F866300123C2
:101DF80087F86730012387F86830012387F869304E
:101E0800012387F86A30012387F86B3040F2DC53EE
:101E1800A7F844300023A7F8463040F6CA03A7F8CD
:101E280048300A23A7F84A300A23A7F84C30012083
:101E38000021032202F07EF90246504B1A604FF44B
:101E4800FA73FB664E4B1A6807F1280310461946C9
:101E5800FA6E002302F0CAFA0346012B40F086808E
:101E680097F82830052B74D801A252F823F000BF48
:101E7800911E0008C91E00085B1F00085B1F0008B0
:101E8800F31E0008331F000807F168030020032130
:101E98001A46FFF735FD07F128030833002005210E
:101EA8001A46FFF725FE06233B73354B1A6807F1E0
:101EB8000C0310461946FA6E002302F07DF955E02E
:101EC80007F10C03083300200A211A46FFF7BCFE6D
:101ED80006233B732A4B1A6807F10C031046194670
:101EE800FA6E002302F068F940E007F16803002069
:101EF80003211A46FFF704FD07F1440300200521DA
:101F08001A46FFF7F5FD1F4B1B68184601F0FEFA4D
:101F180006233B731A4B1A6807F10C03104619463F
:101F2800FA6E002302F048F920E007F1640300206C
:101F380003211A46FFF7E4FC06233B73104B1A688B
:101F480007F10C0310461946FA6E002302F034F923
:101F58000CE007233B730A4B1A6807F10C03104681
:101F68001946FA6E002302F027F900BF07F1500363
:101F780000200A211A46FFF767FE63E7A8410120FF
:101F8800F8310120D039012084B02DE9904FA3B059
:101F980000AF07F1A80C8CE80F00D7F8C400A649D9
:101FA800052205F08FFF0346002B40F0D880D7F8B4
:101FB800D430023BD7F8D020134400221A70D7F847
:101FC800D00005F0A5FE0346A7F88630B7F886309E
:101FD800092B03D9B7F88630642B48D96B461C46C1
:101FE800D7F8D00005F03EFF03460B33BB66B96E49
:101FF8004B1E7B660B461A464FF00003D800F8616B
:10200800D7F81CC04CEA527CC7F81CC0D0000B465D
:102018001A464FF000034FEAC30CC7F814C078699A
:1020280040EA527078614FEAC20C0B460733DB086E
:10203800DB00ADEB030D6B4600333B663A6EB7F839
:10204800863010467D491A4600F080FE7C4BDAB295
:102058003B6E9A737B4B1B68DAB23B6E104619468F
:102068000E220023FFF78EF80023A54607E2B7F8F3
:1020780086301A46920013441A4691001A460B46B7
:1020880013449B00A7F88630B7F88630A7F8B0301D
:102098000023A7F8B23040F6CA03A7F8B4300A23E1
:1020A800A7F8B6300A23A7F8B8300523C7F8AC302C
:1020B800002387F8A830644B1A68644B1B681046E5
:1020C80007F1A8011A46002302F076F80346012B0F
:1020D80034D15D4B1A685D4B1B68104607F1A801A7
:1020E8001A46002302F082F90346012B15D1062374
:1020F80087F8A830564BC7F880301923FB67D7F804
:10210800D830DAB2FB6F9BB21046D7F880101A4667
:102118000023FFF737F80123B1E14E4BBB671B23C0
:102128007B67484B1B68DAB27B6F9BB21046B96F6E
:102138001A460023FFF726F80023A0E1464B3B6729
:102148001623FB66D7F8D830DAB2FB6E9BB210467E
:10215800396F1A460023FFF715F800238FE1D7F8E7
:10216800C4003E49062205F0ADFE0346002B40F0B0
:10217800CF80D7F8D430023BD7F8D02013440022C0
:102188001A70D7F8D00005F0C3FD0346A7F85E30F3
:10219800B7F85E30092B03D9B7F85E30642B5FD9E6
:1021A8006B461C46D7F8D00005F05CFE03460B339F
:1021B800BB64B96C4B1E7B640B461A464FF0000398
:1021C800D800F860D7F80CC04CEA527CC7F80CC0AD
:1021D800D0000B461A464FF000034FEAC30CC7F86D
:1021E80004C0786840EA527078604FEAC20C0B4627
:1021F8000733DB08DB00ADEB030D6B4600333B64B4
:102208003A6CB7F85E3010460C491A4600F09EFD4D
:102218000B4BDAB23B6C9A730A4B1B68D9B23A6C17
:10222800BB6C9BB2084611461A460023FEF7AAFF6C
:102238000023A54623E100BF7082000878820008C9
:1022480088820008F4310120F831012000000020C4
:102258008C820008A8820008C4820008DC8200087A
:10226800B7F85E301A46920013441A4691001A468F
:102278000B4613449B00A7F85E30B7F85E30A7F80A
:10228800B0300123C7F8AC30002387F8A8307F4B63
:102298001A687F4B1B68104607F1A8011A460023ED
:1022A80001F08AFF0346012B21D1784B1A68784B3D
:1022B8001B68104607F1A8011A46002302F096F899
:1022C8000346002B24D0062387F8A830714BBB6542
:1022D80019237B65D7F8D830DAB27B6D9BB21046EC
:1022E800B96D1A460023FEF74DFF0123C7E06A4B7C
:1022F8003B651623FB64D7F8D830DAB2FB6C9BB287
:102308001046396D1A460023FEF73CFF0023B6E05D
:10231800D7F8C4006149082205F0D4FD0346002B14
:1023280040F0AC80D7F8D430023BD7F8D020134423
:1023380000221A70D7F8D00005F0EAFC0346FB87A4
:10234800FB8F092B02D9FB8F642B42D96B461C46A5
:10235800D7F8D00005F086FD03460B33BB62B96A97
:102368004B1E7B620B461A464FF000034FEAC30B25
:102378004BEA527B4FEAC20A0B461A464FF000035B
:102388004FEAC30949EA52794FEAC2080B460733B4
:10239800DB08DB00ADEB030D6B4600333B623A6AAA
:1023A800FB8F10463E491A4600F0D0FC3D4BDAB28E
:1023B8003B6A9A733C4B1B68D9B23A6ABB6A9BB2B8
:1023C800084611461A460023FEF7DCFE0023A54600
:1023D80055E0FB8F1A46920013441A4691001A469C
:1023E8000B4613449B00FB87FB8FA7F8B0300123F3
:1023F800C7F8AC30002387F8A830244B1A68244B60
:102408001B68104607F1A8011A46002301F0D4FE04
:102418000346012B21D11D4B1A681D4B1B68104622
:1024280007F1A8011A46002301F0E0FF0346002B3C
:1024380024D0062387F8A830164BBB6319237B6387
:10244800D7F8D830DAB27B6B9BB21046B96B1A4614
:102458000023FEF797FE012311E00F4B3B63162381
:10246800FB62D7F8D830DAB2FB6A9BB21046396BF8
:102478001A460023FEF786FE002300E000231846D4
:102488008C37BD46BDE8904F04B07047F831012045
:10249800000000208C820008C4820008E482000842
:1024A8007882000888820008F431012084B080B561
:1024B8009AB000AF07F1700C8CE80F00D7F88C00C9
:1024C8008749052205F0FEFC0346002B6BD101234A
:1024D80087F87030834B1A68834B1B68104607F1E6
:1024E80070011A46002301F067FE0346012B49D10B
:1024F8007C4B1A687C4B1B68104607F170011A4622
:10250800002301F073FF0346012B2AD1062387F825
:102518007030B7F87E20754BA3FB02035B099BB2B2
:102528001A46B7F87E307149A1FB03C149096420F6
:1025380000FB01F15B1A9BB2394608466C4900F072
:1025480005FC13237B66D7F89830D9B27B6E9BB213
:102558003A46084611461A460023FEF713FE0123A1
:10256800B6E0644B3B661B23FB65634B1B68DAB222
:10257800FB6D9BB21046396E1A460023FEF702FE29
:102588000023A5E05D4BBB6516237B65D7F8983023
:10259800DAB27B6D9BB21046B96D1A460023FEF77E
:1025A800F1FD002394E0D7F88C005549062205F088
:1025B80089FC0346002B40D14A4B1A684A4B1B68DA
:1025C800104607F170011A46002301F0F5FD034695
:1025D800012B21D1434B1A68434B1B68104607F166
:1025E80070011A46002301F001FF0346002B24D096
:1025F800062387F87030434B3B651923FB64D7F8F3
:102608009830DAB2FB6C9BB21046396D1A4600233B
:10261800FEF7B8FD01235BE0384BBB6416237B64EF
:10262800D7F89830DAB27B6C9BB21046B96C1A4670
:102638000023FEF7A7FD00234AE0D7F88C003249B3
:10264800082205F03FFC0346002B40D1254B1A68B1
:10265800254B1B68104607F170011A46002301F04C
:10266800ABFD0346012B21D11E4B1A681E4B1B687C
:10267800104607F170011A46002301F0B7FE034621
:10268800002B24D0062387F870301E4B3B64192397
:10269800FB63D7F89830DAB2FB6B9BB21046396C03
:1026A8001A460023FEF76EFD012311E0134BBB63AE
:1026B80016237B63D7F89830DAB27B6B9BB210464F
:1026C800B96B1A460023FEF75DFD002300E00023E6
:1026D80018466837BD46BDE8804004B0704700BF63
:1026E80070820008F8310120000000201F85EB519E
:1026F800F0820008A8820008F4310120C482000892
:10270800DC8200088C820008E482000890B5A9B039
:102718000AAFF860B9607A6007F138037868012178
:102728001A4602F0D3FD7867786F9749032205F0BF
:10273800C9FB0346002B34D107F134037868022122
:102748001A4602F0C3FD386707F1300378680321A1
:102758001A4602F0BBFDF866FB6E002B01D1002380
:102768000EE1786B894B19683A6B894B1B683C6F93
:10277800039404900591F96E0691079208936B46AD
:1027880007F1240207CA83E8070007F114030FCBF7
:10279800FFF7FAFB0346002B01D00123F0E00023EA
:1027A800EEE0786F7B49032205F08CFB0346002B93
:1027B80028D107F13403786802211A4602F086FD11
:1027C80038673B6F002B01D10023D9E0796B6F4B41
:1027D8001A686F4B1B68386F039004910592069333
:1027E8006B4607F1240207CA83E8070007F11403C0
:1027F8000FCBFFF75BFE0346002B01D00123BFE0A0
:102808000023BDE0786F6449042205F05BFB0346B2
:10281800002B55D105233B750023BB615B4B196821
:102828005E4B1B6807F11402084611461A4600233E
:1028380001F0C2FC0346002B32D0544B1968574BA9
:102848001B6807F11402084611461A46002301F0D6
:10285800CDFD0346002B12D006233B75504BBB66BB
:102868001D237B664A4B1B68DAB27B6E9BB210460F
:10287800B96E1A460023FEF785FC012380E0494B18
:102888003B661B23FB65424B1B68DAB2FB6D9BB2B0
:102898001046396E1A460023FEF774FC00236FE0D9
:1028A800414BBB6516237B65404BDAB27B6D9BB20F
:1028B8001046B96D1A460023FEF764FC00235FE05A
:1028C800786F3B49052205F0FDFA0346002B56D1E7
:1028D80004233B750023BB612C4B19682F4B1B68E5
:1028E80007F11402084611461A46002301F064FC59
:1028F8000346012B32D1254B1968284B1B6807F179
:102908001402084611461A46002301F06FFD0346DB
:10291800012B12D106233B75264B3B651D23FB6417
:102928001B4B1B68DAB2FB6C9BB21046396D1A461A
:102938000023FEF727FC012322E01A4BBB641B236C
:102948007B64134B1B68DAB27B6C9BB21046B96C84
:102958001A460023FEF716FC002311E0124B3B64D5
:102968001623FB630A4B1B68DAB2FB6B9BB210465B
:10297800396C1A460023FEF705FC002300E000230B
:1029880018467C37BD4690BD08830008F831012001
:10299800F43101200C830008108300080000002097
:1029A80018830008A8820008C48200083D100008A7
:1029B800388300084083000880B483B000AF786093
:1029C80039607B68002B09D07B681B683A68D2B2F3
:1029D8001A707B681B685A1C7B681A600C37BD46E6
:1029E8005DF8047B704700BF2DE9F04184B000AF6B
:1029F800F860B9607A603B60002420267B68002B71
:102A080019DD0025D7F8088002E0013508F1010832
:102A180098F80030002BF8D17B689D4202DB002338
:102A28007B6002E07B685B1B7B603B6803F0020312
:102A3800002B00D030263B6803F00103002B0BD19C
:102A480007E0F8683146FFF7B7FF01347B68013BC0
:102A58007B607B68002BF4DC09E0BB681B78F868B6
:102A68001946FFF7A9FF0134BB680133BB60BB6897
:102A78001B78002BF1D107E0F8683146FFF79CFF7F
:102A880001347B68013B7B607B68002BF4DC2346C8
:102A980018461037BD46BDE8F08100BF2DE9F04368
:102AA80089B000AFF860B9607A603B604FF0000908
:102AB8004FF00008BD68BB68002B0DD130233B7573
:102AC80000237B7507F11403F86819463A6C7B6C90
:102AD800FFF78AFF034649E03B68002B0AD07B6872
:102AE8000A2B07D1BB68002B04DA4FF00109BB6839
:102AF8005B421D4607F114040B340023237013E0D6
:102B08007B68B5FBF3F203FB02F3EB1A1E46092EB2
:102B180002DDBB6C3A3B1E44013CF3B23033DBB2FE
:102B280023707B68B5FBF3F5002DE9D1B9F1000FEF
:102B380014D03B6C002B0ED07B6C03F00203002BEF
:102B480009D0F8682D21FFF737FF08F101083B6C21
:102B5800013B3B6402E0013C2D232370F8682146C9
:102B68003A6C7B6CFFF740FF034643441846243712
:102B7800BD46BDE8F08300BF2DE9F0418AB004AF3F
:102B8800F860B9607A600024CCE0BB681B78252B1C
:102B980040F0BE80BB680133BB6000263546BB6889
:102BA8001B78002B00D1C2E0BB681B78252B00D115
:102BB800AEE0BB681B782D2B04D1BB680133BB602A
:102BC800012605E004E0BB680133BB6046F002065D
:102BD800BB681B78302BF6D00BE02B469B002B44B0
:102BE8005B001D46BB681B78303B1D44BB68013346
:102BF800BB60BB681B782F2B03D9BB681B78392BAC
:102C0800EBD9BB681B78732B13D17B681A1D7A60CC
:102C18001B689846B8F1000F01D0434600E04A4BC4
:102C2800F86819462A463346FFF7DEFE03461C4479
:102C380075E0BB681B78642B03D0BB681B78692BD5
:102C480010D17B681A1D7A601B6800950196612275
:102C58000292F86819460A220123FFF71FFF03466C
:102C68001C445CE0BB681B78782B10D17B681A1D6C
:102C78007A601B680095019661220292F8681946ED
:102C880010220023FFF70AFF03461C4447E0BB68F5
:102C98001B78582B10D17B681A1D7A601B68009529
:102CA800019641220292F868194610220023FFF784
:102CB800F5FE03461C4432E0BB681B78752B10D127
:102CC8007B681A1D7A601B68009501966122029242
:102CD800F86819460A220023FFF7E0FE03461C4461
:102CE8001DE0BB681B78632B19D17B681A1D7A60BD
:102CF8001B68DBB23B7500237B7507F11403F8688A
:102D080019462A463346FFF76FFE03461C4406E081
:102D1800BB681B78F8681946FFF74EFE0134BB689C
:102D28000133BB60BB681B78002B7FF42EAFFB68B8
:102D3800002B03D0FB681B6800221A702346184634
:102D48001837BD46BDE8F081608300080EB480B531
:102D580085B000AF786007F12003FB603B1D184683
:102D6800F969FA68FFF708FF034618461437BD46A5
:102D7800BDE8804003B0704780B483B000AF03461D
:102D8800FB71094B97F907205209F97901F01F01E6
:102D9800012000FA01F1403243F822100C37BD46F9
:102DA8005DF8047B704700BF00E100E080B586B0A5
:102DB80004AF00F055F81F4802F0CEF91C237B60E1
:102DC80004237B6001201C21002201F0B3F9024694
:102DD800194B1A6001230093184B019300230293A7
:102DE800002303931648174940F28A22002300F073
:102DF80099F901230093144B0193002302930023B4
:102E080003931248124940F62822002300F08AF959
:102E1800012300930F4B0193002302930023039394
:102E28000D480E498222002300F07CF900F0BCFB1B
:102E3800FEE700BF54890008F8310120B84101209D
:102E48008D150008BC830008F0310120DD1D000845
:102E5800C4830008D0390120B51D0008CC830008C0
:102E680080B584B004AF00F0AFF84FF4407002F0C2
:102E780061FCFDF749FAFEF7B7FB02230093002334
:102E8800019300230293002303930448044940F26A
:102E98008A22002300F046F9BD4680BDC50A000815
:102EA800D883000880B500AF064B1B685A1C054B39
:102EB8001A601C20FFF760FF024B1B685A1E014B6B
:102EC8001A6080BD9004002080B400AF0B4B1B68D3
:102ED8005A1C0A4B1A60094B1A68094B1B689A421C
:102EE80003D9064B1A68064B1A60044B1B685A1E16
:102EF800024B1A60BD465DF8047B704790040020C1
:102F08009404002080B500AF064B1B685A1C054B83
:102F18001A601D20FFF730FF024B1B685A1E014B39
:102F28001A6080BD9004002080B500AF01F004FE57
:102F3800FEE700BF80B400AFBD465DF8047B704774
:102F480080B582B000AF7860396001F0F5FDFEE72A
:102F580080B483B000AF786039600C37BD465DF847
:102F6800047B7047002100F004B8104B5B584350B5
:102F780004310F480F4B42189A42FFF4F6AF0E4A3D
:102F880000F003B8002342F8043B0C4B9A42FFF4CC
:102F9800F9AF0B48016841F47001016000F014F8C2
:102FA80004F0BAFEFFF702FF70470000B88A000875
:102FB8000000002060040020600400205C42012022
:102FC80088ED00E0FFF7FEBF80B500AF154B154A4E
:102FD800D2F8882042F47002C3F88820124B124AB3
:102FE800126842F001021A600F4B00229A600E4AE2
:102FF8000D4B1B6823F0847323F4803313600A4B52
:103008000A4A5A60084B084A126822F480221A6059
:10301800054B0022DA6000F00BF8024B4FF000621B
:103028009A6080BD00ED00E00038024010300024B6
:1030380080B483B000AF00237B6000233B60354B36
:10304800344A126842F480321A60324B1B6803F427
:1030580000333B607B6801337B603B68002B03D106
:103068007B68B3F5A06FF0D12A4B1B6803F40033DB
:10307800002B02D001233B6001E000233B603B684A
:10308800012B42D1234B234A126C42F080521A641E
:10309800214B214A126842F480421A601D4B1D4A96
:1030A80092689A601B4B1B4A926842F400429A60ED
:1030B800184B184A926842F4A0529A60154B174A66
:1030C8005A60144B134A126842F080721A6000BFAB
:1030D800104B1B6803F00073002BF9D0104B40F223
:1030E80004621A600B4B0B4A926822F003029A6042
:1030F800084B084A926842F002029A6000BF054BEA
:103108009B6803F00C03082BF9D10C37BD465DF81A
:10311800047B70470038024000700040194B40079C
:10312800003C024080B58AB002AFF860B9603B60ED
:103138001346FB80FB68002B02D101F0FDFCFEE783
:10314800BB6A042B02D901F0F7FCFEE7FB8818469E
:10315800396B00F08FFEB861BB69002B72D0BB6978
:103168001A6BFB8803F18043013B9B0013447B618E
:103178007B6923F007037B617B6903F00703002B5E
:1031880002D001F0D9FCFEE7FB880093B869B96862
:10319800BA6A7B6B00F078FD7869F9683A6801F0E3
:1031A800D9FB0246BB691A60FB6A002B02D0FB6A96
:1031B800BA691A6001F09EFC2E4B1B685A1C2D4BF5
:1031C8001A602D4B1B68002B09D12B4BBA691A606A
:1031D800284B1B68012B0FD100F09EFD0CE0274BFC
:1031E8001B68002B08D1244B1B68DA6ABB6A9A4219
:1031F80002D8214BBA691A60214B1B685A1C204B14
:103208001A601F4B1A68BB691A64BB69DA6A1D4BDE
:103218001B689A4203D9BB69DA6A1A4B1A60BB6900
:10322800DA6A13469B0013449B00174A1A44BB6989
:1032380004331046194601F007FB0123FB6101F036
:1032480069FC02E04FF0FF33FB61FB69012B0BD1F6
:103258000A4B1B68002B07D0074B1B68DA6ABB6A4E
:103268009A4201D201F036FCFB6918462037BD4668
:1032780080BD00BF70050020980400207C05002058
:1032880090050020780500209C04002080B584B0BB
:1032980000AF786001F02EFC7B68002B02D1194B3F
:1032A8001B6800E07B68FB60FB680433184601F08C
:1032B80027FBFB689B6A002B04D0FB681833184671
:1032C80001F01EFBFB6804330F48194601F0BCFAF5
:1032D8000E4B1B685A1C0D4B1A600D4B1B685A1C71
:1032E8000B4B1A6001F016FC0A4B1B68002B06D02A
:1032F800044B1B68FA689A4201D101F0EBFB1037C6
:10330800BD4680BD980400204405002058050020D3
:10331800900500207C05002080B586B000AF78605D
:10332800396000237B617B68002B02D101F004FC2B
:10333800FEE73B68002B02D101F0FEFBFEE700F040
:103348006BF91F4B1B683B617B681A683B68134429
:10335800FB607B681A683B699A420BD97B681A68DC
:10336800FB689A4211D9FA683B699A420DD9012340
:103378007B610AE07B681A68FB689A4203D8FA689E
:103388003B699A4201D901237B617B68FA681A601C
:103398007B69002B08D00B4B1B680433184601F0DF
:1033A800AFFAF86800F030FD00F044F9B860BB6887
:1033B800002B01D101F08EFB1837BD4680BD00BF40
:1033C800740500209804002080B584B000AF7860B0
:1033D8000023FB607B68002B12D000F01DF90C4B1A
:1033E8001A687B681344BB600A4B1B680433184691
:1033F80001F086FAB86800F007FD00F01BF9F860E4
:10340800FB68002B01D101F065FB1037BD4680BD7C
:10341800740500209804002080B584B000AF78605F
:1034280001F068FB7B68002B02D11B4B1B6800E096
:103438007B68FB60FB680433184601F061FAFB689F
:103448009B6A002B04D0FB681833184601F058FA21
:10345800FB6804331148194601F0F6F901F05AFBEC
:103468000D4B1B68FA689A4212D10D4B1B68002B52
:1034780002D001F02FFB0BE0084B1A68094B1B68C0
:103488009A4203D1044B00221A6001E000F040FA8E
:103498001037BD4680BD00BF980400205C050020A1
:1034A8007C0500207005002080B584B000AF7860EE
:1034B8000023FB607B68BB607B68002B02D101F0B6
:1034C8003BFBFEE7BB685A690E4B9A4201D10123C8
:1034D80000E00023002B0FD0BB689A6A0A4B9A427F
:1034E8000AD0BB689B6A002B01D1012300E00023AE
:1034F800002B01D00123FB60FB6818461037BD463E
:1035080080BD00BF5C0500203005002080B584B078
:1035180000AF78607B68FB607B68002B02D101F00C
:103528000BFBFEE7FB68002B34D01C4B1B68FA68CA
:103538009A422FD001F0DEFAF868FFF7B5FF03468C
:10354800012B25D1FB680433184601F0D9F9FB6833
:10355800DA6A134B1B689A4203D9FB68DA6A104B84
:103568001A60FB68DA6A13469B0013449B000D4AF5
:103578001A44FB6804331046194601F065F9FB68E4
:10358800DA6A064B1B68DB6A9A4201D301F0A2FA99
:1035980001F0C0FA1037BD4680BD00BF9804002076
:1035A800780500209C04002080B586B004AF002375
:1035B80000930023019300230293002303931248EE
:1035C800124982220023FFF7ADFD78607B68012B4A
:1035D80002D101F04BFB78607B68012B0AD101F026
:1035E800ABFA0B4B01221A600A4B00221A6001F059
:1035F8000BFA05E07B68002B02D101F09DFAFEE78B
:103608000837BD4680BD00BF6D3C0008E483000854
:103618007C0500207405002080B400AF044B1B68B3
:103628005A1C034B1A60BD465DF8047B704700BF07
:103638008005002080B582B000AF00237B60384B46
:103648001B68002B02D101F077FAFEE701F052FA6D
:10365800334B1B685A1E324B1A60314B1B68002BC8
:1036680056D1304B1B68002B52D02FE02E4BDB6815
:10367800DB683B603B681833184601F041F93B684A
:103688000433184601F03CF93B68DA6A274B1B689B
:103698009A4203D93B68DA6A244B1A603B68DA6AB3
:1036A80013469B0013449B00214A1A443B68043389
:1036B8001046194601F0C8F83B68DA6A1D4B1B68CA
:1036C800DB6A9A4202D31C4B01221A60164B1B6814
:1036D800002BCBD1194B1B68002B11D00CE000F04C
:1036E80041F80346002B02D0134B01221A60134BFA
:1036F8001B685A1E114B1A60104B1B68002BEED129
:103708000D4B1B68012B03D101237B6001F0E2F90B
:1037180001F000FA7B6818460837BD4680BD00BF37
:103728008005002070050020300500207805002065
:103738009C040020980400208805002084050020AF
:1037480080B582B000AF01F0D5F9054B1B687B60EE
:1037580001F0E0F97B6818460837BD4680BD00BF18
:103768007405002080B586B000AF00237B615D4BF7
:103778001B68002B40F0A4805B4B1B685A1C5A4BFB
:103788001A60594B1B683B613B69002B2ED1574B84
:103798001B681B68002B02D001F0CEF9FEE7534BE3
:1037A8001B68FB60524B1A68504B1A60504BFA6802
:1037B8001A60504B1B685A1C4E4B1A604B4B1B68C7
:1037C8001B68002B01D1012300E00023002B04D04B
:1037D800494B4FF0FF321A6008E0444B1B68DB6826
:1037E800DB68BB60BB685A68434B1A60424B1B6876
:1037F8003A699A424FD33D4B1B681B68002B01D195
:10380800012300E00023002B04D03B4B4FF0FF3294
:103818001A6040E0354B1B68DB68DB68BB60BB683F
:103828005B687B603A697B689A4203D2324B7A685C
:103838001A6030E0BB680433184601F061F8BB68D1
:103848009B6A002B04D0BB681833184601F058F85F
:10385800BB68DA6A294B1B689A4203D9BB68DA6AE3
:10386800264B1A60BB68DA6A13469B0013449B0018
:10387800234A1A44BB6804331046194600F0E4FF93
:10388800BB68DA6A1F4B1B68DB6A9A4202D30123C2
:103898007B61B0E7AFE71B4B1B68DA6A1849134630
:1038A8009B0013449B000B441B68012B01D9012387
:1038B8007B61154B1B68002B09D1FFF7F3FA06E073
:1038C800114B1B685A1C104B1A60FFF7EBFA0F4B91
:1038D8001B68002B01D001237B617B6918461837D0
:1038E800BD4680BD80050020740500202805002005
:1038F8002C0500208C0500200800002078050020F9
:103908009C040020980400208405002088050020DD
:1039180080B582B000AF354B1B68002B03D0344B09
:1039280001221A605EE0324B00221A60314B1B689C
:103938001A68304B1B681B6B9A4208D82D4B1A68C3
:103948002C4B1B68343310461946FFF7F9FA294BFC
:103958001B681B6B18462849142204F005FA034615
:10396800002B09D0234B1A68224B1B6834331046AE
:103978001946FFF7E5FA0CE00BE0204B1B68002B1B
:1039880002D101F0D9F8FEE71C4B1B685A1E1B4BED
:103998001A601A4B1A681A4913469B0013449B0075
:1039A8000B441B68002BE8D0144B1A6813469B0085
:1039B80013449B00124A13447B607B685B685A6817
:1039C8007B685A607B685A687B6808339A4204D1DE
:1039D8007B685B685A687B685A607B685B68DA68F2
:1039E800044B1A600837BD4680BD00BF8005002023
:1039F80088050020980400206489000878050020C4
:103A08009C04002080B584B000AF786039607B6882
:103A1800002B02D101F090F8FEE7124B1B68183317
:103A28007868194600F034FF0E4B1B6804331846BB
:103A380000F066FF3B68B3F1FF3F07D1094B1B68F5
:103A480004330948194600F0FFFE07E0074B1A68DF
:103A58003B681344FB60F86800F0D6F91037BD46A0
:103A680080BD00BF980400205C050020740500207C
:103A780080B584B000AF786039607B68002B02D1D4
:103A880001F05AF8FEE70C4B1B68183378681946A2
:103A980000F0DAFE084B1B680433184600F030FFCC
:103AA800064B1A683B681344FB60F86800F0ACF9F1
:103AB8001037BD4680BD00BF980400207405002063
:103AC80080B584B000AF78607B68DB68DB68BB607A
:103AD800BB68002B02D101F02FF8FEE7BB68183352
:103AE800184600F00DFF1E4B1B68002B1DD1BB684C
:103AF8000433184600F004FFBB68DA6A194B1B68E8
:103B08009A4203D9BB68DA6A164B1A60BB68DA6A4C
:103B180013469B0013449B00134A1A44BB680433A2
:103B28001046194600F090FE05E0BB6818330F48B0
:103B3800194600F089FEBB68DA6A0D4B1B68DB6A20
:103B48009A4205D30123FB600A4B01221A6001E067
:103B58000023FB60FB6818461037BD4680BD00BFD8
:103B680080050020780500209C04002030050020F6
:103B7800980400208805002080B582B000AF7860E6
:103B88007B68002B02D100F0D7FFFEE7054B1A68CF
:103B98007B681A60044B1A687B685A600837BD4610
:103BA80080BD00BF8C0500207405002080B584B05E
:103BB80000AF786039607B68002B02D100F0BCFF51
:103BC800FEE73B68002B02D100F0B6FFFEE700F0ED
:103BD80091FF1C4B1B68BB603B681B68B3F1FF3F40
:103BE80002D10023FB6026E07B681A68164B1B682D
:103BF8009A4207D07B685A68BB689A4202D8012368
:103C0800FB6018E07B685B68BA68D21A3B681B687F
:103C18009A420ED23B681A687B685968BB68CB1A0F
:103C28001A443B681A607868FFF7A6FF0023FB6018
:103C380001E00123FB6000F06DFFFB6818461037B8
:103C4800BD4680BD740500208C05002080B400AFFF
:103C5800034B01221A60BD465DF8047B704700BF24
:103C68008805002080B582B000AF786000F092F837
:103C7800044B1B68012B01D900F02CFFFFF75AF900
:103C8800F4E700BF9C04002080B586B000AFF86060
:103C9800B9607A603B6000237B6112E0BA687B6997
:103CA80013441A78F9687B690B4430331A71BA687F
:103CB8007B6913441B78002B00D105E07B69013335
:103CC8007B617B69092BE9D9FB68002283F83D20D9
:103CD8007B68042B01D904237B60FB687A68DA626D
:103CE800FB687A689A64FB680433184600F0A0FD04
:103CF800FB681833184600F09BFDFB68FA681A61E8
:103D08007B68C3F10502FB689A61FB68FA685A622E
:103D18001837BD4680BD00BF80B582B000AF002314
:103D28007B600CE07A6813469B0013449B00114AA1
:103D38001344184600F05CFD7B6801337B607B68A8
:103D4800042BEFD90C4800F053FD0C4800F050FD4F
:103D58000B4800F04DFD0B4800F04AFD0A4800F002
:103D680047FD0A4B044A1A60094B044A1A6008378F
:103D7800BD4680BD9C0400200005002014050020DD
:103D880030050020440500205C050020280500209F
:103D98002C05002080B582B000AF28E0FFF73CFC7E
:103DA800164B1B68002B14BF00230123DBB27B607A
:103DB800FFF740FC7B68002B19D100F09BFE0F4BEE
:103DC800DB68DB683B603B680433184600F098FD0D
:103DD8000B4B1B685A1E0A4B1A600A4B1B685A1E6B
:103DE800084B1A6000F096FE386800F075F8054B2D
:103DF8001B68002BD2D10837BD4680BD4405002082
:103E0800700500205805002080B582B000AF7860AA
:103E1800134B1B687A685A60124B1B687A689A427F
:103E280009D2114B1A680E4B1B6804331046194609
:103E380000F02EFD10E00D4B1A68094B1B68043387
:103E48001046194600F024FD094B1B687A689A420F
:103E580002D2074B7A681A600837BD4680BD00BF9A
:103E680098040020740500202C0500202805002057
:103E78000800002080B584B000AF03463960FB809D
:103E88004C2001F0DBFAF860FB68002B1FD03B6880
:103E9800002B06D1FB889B00184601F0CFFA034699
:103EA80000E03B68FA681363FB681B6B002B05D1C5
:103EB800F86801F04FFB0023FB6008E0FB681A6B11
:103EC800FB889B001046A5211A4603F081FFFB687A
:103ED80018461037BD4680BD80B582B000AF786007
:103EE8007B681B6B184601F035FB786801F032FBE4
:103EF8000837BD4680BD00BF80B483B000AF054B16
:103F08001B687B607B6818460C37BD465DF8047BF0
:103F1800704700BF9804002080B483B000AF0B4BFB
:103F28001B68002B02D100237B6008E0084B1B684C
:103F3800002B02D101237B6001E002237B607B68B8
:103F480018460C37BD465DF8047B70477C05002099
:103F58008005002080B584B000AF78607B68FB6086
:103F68007B68002B46D0FB68DA6A244B1B68DB6A47
:103F78009A423FD2214B1B68DB6AC3F10502FB68FA
:103F88009A61FB685969FB68DA6A13469B00134417
:103F98009B001B4A1344994201D1012300E00023EE
:103FA800002B22D0FB680433184600F0A9FC134B01
:103FB8001B68DA6AFB68DA62FB68DA6A114B1B680D
:103FC8009A4203D9FB68DA6A0E4B1A60FB68DA6A10
:103FD80013469B0013449B00094A1A44FB680433A8
:103FE8001046194600F030FC04E0044B1B68DA6AFE
:103FF800FB68DA621037BD4680BD00BF9804002018
:104008009C0400207805002080B584B000AF78605B
:104018007B68FB607B68002B2CD0FB68DA6AFB6846
:104028009B6C9A4226D0FB680433184600F068FC63
:10403800FB689A6CFB68DA62FB68DB6AC3F105020D
:10404800FB689A61FB68DA6A0C4B1B689A4203D9D1
:10405800FB68DA6A094B1A60FB68DA6A13469B0048
:1040680013449B00064A1A44FB6804331046194659
:1040780000F0EAFB1037BD4680BD00BF7805002080
:104088009C04002080B584B000AF786039607B68FC
:10409800FB60FB68002B02D100F04EFDFEE700F04C
:1040A80029FDFB681A68FB68DB6BF968096C01FB82
:1040B80003F31A44FB685A60FB6800229A63FB68A2
:1040C8001A68FB689A60FB681A68FB68DB6B013B3F
:1040D800F968096C01FB03F31A44FB68DA60FB68B2
:1040E8004FF0FF325A64FB684FF0FF329A643B6826
:1040F800002B0ED1FB681B69002B14D0FB68103312
:104108001846FFF7DDFC0346012B0CD100F0E2FC5A
:1041180009E0FB681033184600F06AFBFB6824339B
:10412800184600F065FB00F0F5FC0123184610372F
:10413800BD4680BD80B588B000AFF860B960134651
:10414800FB710023FB61FB68002B2AD0502001F093
:1041580075F9B861BB69002B23D0FB68BA6802FB0C
:1041680003F301337B61786901F068F90246BB69A2
:104178001A60BB691B68002B10D0BB69FA68DA6348
:10418800BB69BA681A64B8690121FFF77BFFBB698C
:10419800FA7983F84D20BB69FB6102E0B86901F048
:1041A800D9F9FB69002B02D100F0C6FCFEE7FB69D8
:1041B80018462037BD4680BD80B588B000AFF8608E
:1041C800B9607A603B600023FB61FB68BB61BB6937
:1041D800002B02D100F0B0FCFEE7BB68002B03D136
:1041E800BB691B6C002B01D1012300E00023002BCD
:1041F80002D100F0A1FCFEE73B68022B03D1BB69AA
:10420800DB6B012B01D1012300E00023002B02D13D
:1042180000F092FCFEE700F06DFCBB699A6BBB698D
:10422800DB6B9A4202D33B68022B16D1B869B96896
:104238003A6800F0A9F9BB695B6A002B09D0BB6931
:1042480024331846FFF73CFC0346012B01D100F04C
:1042580041FC00F05FFC012359E07B68002B03D18F
:1042680000F058FC002352E0FB69002B06D107F14F
:1042780010031846FFF780FC0123FB6100F04AFC9D
:10428800FFF7CAF900F036FCBB695B6CB3F1FF3F7E
:1042980002D1BB6900225A64BB699B6CB3F1FF3F32
:1042A80002D1BB6900229A6400F034FC07F11002C5
:1042B8003B1D10461946FFF779FC0346002B1ED11B
:1042C800B86900F051FA0346002B12D0BB6903F11C
:1042D80010027B6810461946FFF794FBB86900F096
:1042E800E1F9FFF7A7F90346002B0FD100F0F2FB25
:1042F8000CE0B86900F0D6F9FFF79CF98BE7B869CC
:1043080000F0D0F9FFF796F9002300E083E718469C
:104318002037BD4680BD00BF80B588B000AFF860CB
:10432800B9607A603B60FB68BB61BB69002B02D156
:1043380000F002FCFEE7BB68002B03D1BB691B6CD5
:10434800002B01D1012300E00023002B02D100F053
:10435800F3FBFEE73B68022B03D1BB69DB6B012B48
:1043680001D1012300E00023002B02D100F0E4FB7F
:10437800FEE700F04FFC00F0DFFB7861BB699A6B49
:10438800BB69DB6B9A4202D33B68022B24D1B86924
:10439800B9683A6800F0F8F8BB699B6CB3F1FF3F65
:1043A80012D1BB695B6A002B13D0BB692433184652
:1043B800FFF786FB0346002B0BD07B68002B08D049
:1043C8007B6801221A6004E0BB699B6C5A1CBB69BC
:1043D8009A640123FB6101E00023FB61786900F026
:1043E800B5FBFB6918462037BD4680BD80B58AB04D
:1043F80000AFF860B9607A603B6000237B62FB68BD
:104408003B623B6A002B02D100F096FBFEE7BB68DB
:10441800002B03D13B6A1B6C002B01D1012300E068
:104428000023002B02D100F087FBFEE700F062FBBF
:104438003B6A9B6B002B3BD03B6ADB68FB61386AAD
:10444800B96800F009F93B68002B1CD13B6A9B6BEB
:104458005A1E3B6A9A633B6A1B68002B04D1FFF71C
:104468004BFD02463B6A5A603B6A1B69002B1BD016
:104478003B6A10331846FFF723FB0346012B13D181
:1044880000F028FB10E03B6AFA69DA603B6A5B6A75
:10449800002B09D03B6A24331846FFF711FB03466B
:1044A800002B01D000F016FB00F034FB012366E07E
:1044B8007B68002B03D100F02DFB00235FE07B6AB3
:1044C800002B06D107F114031846FFF755FB01230B
:1044D8007B6200F01FFBFFF79FF800F00BFB3B6AC5
:1044E8005B6CB3F1FF3F02D13B6A00225A643B6A1E
:1044F8009B6CB3F1FF3F02D13B6A00229A6400F043
:1045080009FB07F114023B1D10461946FFF74EFB45
:104518000346002B2BD1386A00F010F90346002B14
:104528001FD03B6A1B68002B08D100F0E3FA3B6AF6
:104538005B681846FFF70EFD00F0ECFA3B6A03F1E2
:1045480024027B6810461946FFF75CFA386A00F0C7
:10455800A9F8FFF76FF80346002B0FD100F0BAFA5D
:104568000CE0386A00F09EF8FFF764F85EE7386AF6
:1045780000F098F8FFF75EF8002300E056E71846C9
:104588002837BD4680BD00BF80B584B000AFF86055
:10459800B9607A60FB681B6C002B0CD1FB681B6848
:1045A800002B51D1FB685B681846FFF72DFDFB68AF
:1045B80000225A6048E07B68002B1AD1FB689A6891
:1045C800FB681B6C1046B9681A46FBF703FEFB68CC
:1045D8009A68FB681B6C1A44FB689A60FB689A68C7
:1045E800FB685B689A422FD3FB681A68FB689A607D
:1045F8002AE0FB68DA68FB681B6C1046B9681A4643
:10460800FBF7E8FDFB68DA68FB681B6C5B421A4441
:10461800FB68DA60FB68DA68FB681B689A4207D2B5
:10462800FB685A68FB681B6C5B421A44FB68DA60DB
:104638007B68022B08D1FB689B6B002B04D0FB68BE
:104648009B6B5A1EFB689A63FB689B6B5A1CFB6842
:104658009A631037BD4680BD80B582B000AF7860E0
:1046680039607B681B68002B19D07B68DA687B6827
:104678001B6C1A447B68DA607B68DA687B685B6865
:104688009A4203D37B681A687B68DA607B68DA68C9
:104698007B681B6C386811461A46FBF79BFD083788
:1046A800BD4680BD80B582B000AF786000F022FAC8
:1046B80014E07B685B6A002B0AD07B6824331846B9
:1046C800FFF7FEF90346002B03D0FFF7BFFA00E01F
:1046D80008E07B689B6C5A1E7B689A647B689B6CBD
:1046E800002BE6DC7B684FF0FF329A6400F012FA88
:1046F80000F000FA14E07B681B69002B0FD07B6880
:1047080010331846FFF7DCF90346002B01D0FFF7FA
:104718009DFA7B685B6C5A1E7B685A6400E003E074
:104728007B685B6C002BE6DC7B684FF0FF325A64D9
:1047380000F0F0F90837BD4680BD00BF80B584B0F1
:1047480000AF786000F0D6F97B689B6B002B02D134
:104758000123FB6001E00023FB6000F0DBF9FB684C
:1047680018461037BD4680BD80B584B000AF78606C
:1047780000F0C0F97B689A6B7B68DB6B9A4202D1C8
:104788000123FB6001E00023FB6000F0C3F9FB6834
:1047980018461037BD4680BD80B584B000AF78603C
:1047A80039607B68FB6000F0A5F9FB685B6CB3F1CE
:1047B800FF3F02D1FB6800225A64FB689B6CB3F18F
:1047C800FF3F02D1FB6800229A6400F0A3F9FB685E
:1047D8009B6B002B05D1FB68243318463968FFF71B
:1047E80047F9F868FFF75EFF1037BD4680BD00BF88
:1047F80080B483B000AF78607B6803F108027B68FF
:104808005A607B684FF0FF329A607B6803F10802B8
:104818007B68DA607B6803F108027B681A617B6851
:1048280000221A600C37BD465DF8047B704700BF54
:1048380080B483B000AF78607B6800221A610C37BF
:10484800BD465DF8047B704780B485B000AF7860E2
:1048580039607B685B68FB603B68FA685A60FB6894
:104868009A683B689A60FB689B683A685A60FB687C
:104878003A689A603B687A681A617B681B685A1CB8
:104888007B681A601437BD465DF8047B704700BF2B
:1048980080B485B000AF786039603B681B68BB6046
:1048A800BB68B3F1FF3F03D17B681B69FB600CE079
:1048B8007B680833FB6002E0FB685B68FB60FB68B1
:1048C8005B681A68BB689A42F6D9FB685A683B6805
:1048D8005A603B685B683A689A603B68FA689A6015
:1048E800FB683A685A603B687A681A617B681B689B
:1048F8005A1C7B681A601437BD465DF8047B704704
:1049080080B485B000AF78607B685B687A6892682D
:104918009A607B689B687A6852685A607B681B69F2
:10492800FB60FB685A687B689A4203D17B689A6887
:10493800FB685A607B6800221A61FB681B685A1E74
:10494800FB681A60FB681B6818461437BD465DF89B
:10495800047B704780B485B000AFF860B9607A60B6
:10496800FB68043BFB60FB684FF080721A60FB68D1
:10497800043BFB60BA68FB681A60FB68043BFB6099
:104988000C4AFB681A60FB68143BFB607A68FB689A
:104998001A60FB68043BFB60FB686FF002021A6058
:1049A800FB68203BFB60FB6818461437BD465DF882
:1049B800047B7047C149000880B500AF054B1B68F0
:1049C800B3F1FF3F02D000F0B7F8FEE700F0B4F80B
:1049D800FEE700BF0C000020054B19680868B0E826
:1049E800F04F80F309884FF0000080F3118870477A
:1049F8009804002003480068006880F3088862B6BD
:104A080000DF00BF08ED00E080B584B000AF2B4B9D
:104A1800FB60FB681B78DBB2BB60FB68FF221A7087
:104A2800FB681B78DBB2FB71FB79DBB203F0500348
:104A3800DAB2234B1A70234B07221A6009E0214B84
:104A48001B685A1E1F4B1A60FB79DBB25B00DBB296
:104A5800FB71FB79DBB2DBB25BB2002BEFDB194BEE
:104A68001B681A02174B1A60164B1B6803F4E062A6
:104A7800144B1A60BB68DAB2FB681A70124B124A00
:104A8800126842F470021A600F4B0F4A126842F023
:104A980070421A6000F09AF80C4B00221A6000F07D
:104AA800AFF80B4B0A4A126842F040421A60FFF70F
:104AB800A1FF002318461037BD4680BD00E400E082
:104AC800940500209805002020ED00E00C0000204F
:104AD80034EF00E080B400AF054B4FF080521A600D
:104AE800BFF34F8FBFF36F8FBD465DF8047B7047F0
:104AF80004ED00E080B500AF00F01EF8044B1B6821
:104B08005A1C034B1A60BFF34F8FBFF36F8F80BDE2
:104B18000C00002080B500AF064B1B685A1E054BE1
:104B28001A60044B1B68002B02D1002000F00EF81D
:104B380080BD00BF0C000020EFF311804FF0500142
:104B480081F3118870470023184600BF80F311884D
:104B5800704700BFEFF30980114B1A681EF0100F61
:104B680008BF20ED108A20E9F04F10602DE90840B9
:104B78004FF0500080F31188FEF7CAFE4FF0000096
:104B880080F31188BDE8084019680868B0E8F04F5C
:104B98001EF0100F08BFB0EC108A80F30988704728
:104BA8009804002080B500AFFFF7C6FFFEF7DAFDD6
:104BB8000346002B03D0044B4FF080521A600020AC
:104BC800FFF7C4FF80BD00BF04ED00E080B400AF74
:104BD800074B084A1168084AA2FB01029209013AE8
:104BE8001A60064B07221A60BD465DF8047B7047C1
:104BF80014E000E004000020D34D621010E000E053
:104C0800DFF80C00016841F4700101607047000092
:104C180088ED00E080B582B000AFEFF305837B60DC
:104C28007B680F2B0CD90D4A7B6813441B78FB70EB
:104C38000B4B1B78FA789A4202D2FFF77DFFFEE70A
:104C4800084B1B6803F4E062074B1B689A4202D9C1
:104C5800FFF772FFFEE70837BD4680BDF0E300E0CE
:104C6800940500200CED00E09805002080B586B082
:104C780004AF00237B6000F045FA0F4B1B68002B44
:104C88000FD00223009300230193002302930023F3
:104C980003930A480A494FF482720023FEF742FA46
:104CA80078607B68002B02D1FFF746FFFEE77B6840
:104CB80018460837BD4680BDCC050020C94D000800
:104CC800EC83000880B588B000AFF860B9607A60FE
:104CD8003B600023FB611D4B1B68002B30D0BB6879
:104CE8003B617B687B61FB68BB613B68002B1CD127
:104CF800FFF712F90346012B0BD1144B1A6807F181
:104D0800100310461946BA6A0023FFF755FAF861EE
:104D180016E00E4B1A6807F11003104619460022D8
:104D28000023FFF749FAF8610AE0084B1A6807F10F
:104D38001003104619463A680023FFF7EDFAF861A8
:104D4800FB6918462037BD4680BD00BFCC05002052
:104D580080B586B002AF78603960184B1B68DB6895
:104D6800DB68FB60FB6804331846FFF7C9FDFB6886
:104D7800DB69012B1BD1FB689A697B681344F868CF
:104D880019463A687B6800F0A9F80346012B0ED152
:104D980000230093F86800217A680023FFF792FF48
:104DA800B860BB68002B02D1FFF7C6FEFEE7FB68C0
:104DB8005B6AF86898471037BD4680BDC405002077
:104DC80080B584B000AF786007F10803184600F09A
:104DD8003FF8F860BB68F868194600F003F800F07F
:104DE800BFF8F1E780B584B000AF78603960FEF7AE
:104DF80013FC07F10803184600F04EF8F860BB688A
:104E0800002B1ED13B68002B0AD17A68FB689A42B6
:104E180006D8FEF70FFC7868F968FFF799FF12E0EB
:104E28000A4B1A687968FB68CB1A10461946FFF7CF
:104E3800B3FCFEF7FFFB0346002B04D1FFF74AFE45
:104E480001E0FEF7F7FB1037BD4680BDCC0500201A
:104E580080B485B000AF78600E4B1B681B68002BD0
:104E680014BF00230123DBB21A467B681A607B68F3
:104E78001B68002B05D1074B1B68DB681B68FB60B0
:104E880001E00023FB60FB6818461437BD465DF857
:104E9800047B7047C405002080B584B000AF7860FB
:104EA800FEF74EFCF8600C4B1B68FA689A4208D271
:104EB800094B1B68184600F0CBF87B6801221A6082
:104EC80002E07B6800221A60034BFA681A60FB68EC
:104ED80018461037BD4680BDD005002080B586B085
:104EE80000AFF860B9607A603B6000237B61FB68C3
:104EF800BA685A60FB68FA681A61BA687B689A42AD
:104F080012D87A683B68D21AFB689B699A4202D326
:104F180001237B611BE0104B1A68FB6804331046C1
:104F28001946FFF7B5FC12E07A683B689A4206D248
:104F3800BA683B689A4202D301237B6107E0074BBA
:104F48001A68FB68043310461946FFF7A1FC7B6911
:104F580018461837BD4680BDC8050020C405002086
:104F680080B58AB002AF60E03B69FB61FB695B69B1
:104F7800002B04D0FB6904331846FFF7C1FC3B1D26
:104F88001846FFF789FFB861BB68032B4CD801A20C
:104F980052F823F0AD4F000831500008FF4F0008C9
:104FA80029500008FA68FB699B691A44FB68F8698C
:104FB8001146BA69FFF792FF0346012B1AD1FB6924
:104FC8005B6AF8699847FB69DB69012B12D1FA68BB
:104FD800FB699B69134400220092F86900211A4674
:104FE8000023FFF76FFE78617B69002B02D1FFF782
:104FF800A3FDFEE719E0FA68FB699A61FB699B6902
:10500800002B02D1FFF798FDFEE7FB699A69BB699F
:105018001344F8691946BA69BB69FFF75FFF04E0F2
:10502800F86900F097FA00E000BF084B1A6807F12A
:1050380008031046194600220023FFF7D7F9034654
:10504800002B91D12037BD4680BD00BFCC05002084
:1050580080B58AB002AF78603DE0284B1B68DB68FA
:105068001B68FB61254B1B68DB68DB68BB61BB69A0
:1050780004331846FFF744FCBB695B6AB869984774
:10508800BB69DB69012B26D1BB699A69FB691344AB
:105098007B617A69FB699A420ED9BB697A695A6061
:1050A800BB69BA691A61154B1A68BB6904331046A3
:1050B8001946FFF7EDFB0EE000230093B8690021C5
:1050C800FA690023FFF7FEFD38613B69002B02D126
:1050D800FFF732FDFEE7094B1B681B68002BBCD1AC
:1050E800064B1B68FB60064B1A68044B1A60044B9E
:1050F800FA681A602037BD4680BD00BFC40500208D
:10510800C805002080B500AFFFF7F4FC0D4B1B6805
:10511800002B13D10C48FFF76BFB0C48FFF768FB1B
:105128000B4B094A1A600B4B084A1A600A200C21DB
:105138000022FEF7FFFF0246024B1A60FFF7EAFC67
:1051480080BD00BFCC0500209C050020B0050020D4
:10515800C4050020C805002080B584B000AF786081
:105168000023FB607B68002B02D1FFF7E5FCFEE71C
:10517800082000F063F9B860BB68002B02D1FFF784
:10518800DBFCFEE7BB68002B12D0FFF7B3FCBB6863
:105198007A681A60BB6800225A60084B1B68BA68B4
:1051A8005A60064BBA681A60FFF7B4FC0123FB602B
:1051B800FB6818461037BD4680BD00BF18000020A8
:1051C80080B588B000AFF860B9607A600123FB61F0
:1051D8003A4B1B68002B41D1384B394A1A6039E0E9
:1051E800364B1B681B681B68BB61B86902F03AFE46
:1051F8007861FA687B6913441B785BB2202B05D071
:10520800FA687B6913441B78002B1ED1F868B969CA
:105218007A6902F057FE0346002B16D1274B1B680C
:105228001B681B7B5BB2002B0EDBF86800F0D8F81C
:1052380003461A46214B1B681B681B7B5BB29A42CC
:1052480002D00023FB6109E008E01C4B1B685A6888
:105258001A4B1A60194B1B68002BC1D1174B1B68DE
:10526800002B0BD0FB69002B08D1B86815497A6868
:1052780002F082FE114B00221A601AE00F4B1B68E5
:10528800002B0FD00D4B1B681B689B68B8687968AA
:10529800FA689847F861FB69002B0AD1074B00228E
:1052A8001A6006E0B86808497A6802F065FE0023CB
:1052B800FB61FB6918462037BD4680BDD405002038
:1052C800100000202C8400088484000880B487B073
:1052D80000AFF860B9607A6000237B6100233B610E
:1052E8007B6800221A6041E002E0FB680133FB6042
:1052F800FB681B78002B04D0FB681B785BB2202B63
:10530800F3D102E0FB680133FB60FB681B78002BDC
:1053180004D0FB681B785BB2202BF3D0FB681B78AA
:10532800002B22D07B6901337B617A69BB689A4282
:105338001CD1FB683B6107E07B681B685A1C7B68D3
:105348001A60FB680133FB60FB681B78002B04D0F4
:10535800FB681B785BB2202BEED17B681B68002BA7
:1053680002D100233B6105E004E003E07A69BB68F1
:105378009A42B9D33B6918461C37BD465DF8047B91
:10538800704700BF80B586B000AFF860B9607A603A
:10539800114B1B68002B02D10F4B104A1A600E4BA1
:1053A8001B681B685B68F8681946BA6802F0E4FD78
:1053B800094B1B685A68084B1A60074B1B68002B7F
:1053C80002D100237B6101E001237B617B691846E0
:1053D8001837BD4680BD00BFD8050020100000204A
:1053E80080B485B000AF78600023FB730023BB60F6
:1053F80012E07B681B785BB2202B08D1BB68012BBD
:1054080007D0FB7B0133FB730123BB6001E0002362
:10541800BB607B6801337B607B681B78002BE8D11D
:10542800BB68012B02D1FB7B013BFB73FB7B5BB2AF
:1054380018461437BD465DF8047B704780B586B0C2
:1054480000AF78600023FB60FEF7E6F83D4B1B6871
:10545800002B01D100F0C8F83B4B1A687B68134059
:10546800002B63D17B68002B0DD008237A68134486
:105478007B607B6803F00703002B04D07B6823F074
:10548800070308337B607B68002B4FD02F4B1B68CA
:105498007A689A424AD82E4B3B612D4B1B687B6138
:1054A80004E07B693B617B691B687B617B695A68A7
:1054B8007B689A4203D27B691B68002BF1D1214B90
:1054C8001B687A699A4231D03B691A6808231344E9
:1054D800FB607B691A683B691A607B695A687B685C
:1054E800D21A08235B009A420FD97A697B68134461
:1054F800BB607B695A687B68D21ABB685A607B6953
:105508007A685A60B86800F0BDF8104B1A687B6971
:105518005B68D21A0D4B1A607B695A680A4B1B6884
:105528001A437B695A607B6900221A60FEF782F889
:10553800FB68002B01D1FDF7F7FCFB68184618370C
:10554800BD4680BDE4310120E83101201C00002067
:10555800DC31012080B584B000AF78607B68FB60E7
:105568007B68002B38D008235B42FA681344FB6041
:10557800FB68BB60BB685A68194B1B681340002B5B
:1055880002D1FFF7D9FAFEE7BB681B68002B02D0EF
:10559800FFF7D2FAFEE7BB685A68114B1B68134045
:1055A800002B19D0BB681B68002B15D1BB685A6843
:1055B8000B4B1B68DB431A40BB685A60FEF72CF89C
:1055C800BB685A68074B1B681A44064B1A60B868D0
:1055D80000F058F8FEF72EF81037BD4680BD00BF22
:1055E800E83101201C00002080B584B000AF1F4BBB
:1055F80023F00703FB601E4BFA681A601C4B00225D
:105608005A601C4BFA681344BB6008235B42BA68B3
:105618001344BB60184BBA681A60174B1B6803F039
:105628000703002B02D0FFF787FAFEE7124B1B682F
:1056380000225A60104B1B6800221A60FB687B60CE
:105648000C4A0823D21A7B685A600B4B1A687B688D
:105658001A600A4B1A680823D21A084B1A60084BBA
:105668004FF000421A601037BD4680BDE4050020A7
:10567800DC310120F82B0100E43101201C0000205E
:10568800E831012080B485B000AF7860274BFB601B
:1056980002E0FB681B68FB60FB681A687B689A423B
:1056A800F7D3FB68BB60FB685B68BA681A447B6821
:1056B8009A4208D1FB685A687B685B681A44FB68A1
:1056C8005A60FB687B607B68BB607B685B68BA6814
:1056D8001A44FB681B689A4218D1FB681A68144B75
:1056E8001B689A420DD07B685A68FB681B685B6828
:1056F8001A447B685A60FB681B681A687B681A60E2
:1057080008E00B4B1A687B681A6003E0FB681A68AC
:105718007B681A60FA687B689A4202D0FB687A68EC
:105728001A601437BD465DF8047B7047DC310120F0
:10573800E431012080B582B000AF78607B68B3F5B2
:10574800E06F13D07B68B3F5C06F0FD07B68B3F5FB
:10575800A06F0BD07B68B3F5806F07D07B68B3F57B
:10576800407F03D006487321FDF7F2FB054A7B68AA
:1057780043F0BF6343F40033D3600837BD4680BDB0
:10578800D484000800ED00E080B584B000AF7860F4
:105798000023FB730023BB730F237B737B68DB78C9
:1057A800002B07D07B68DB78012B03D0304887219A
:1057B800FDF7CEFB7B685B780F2B03D92C4888213B
:1057C800FDF7C6FB7B689B780F2B03D928488921F6
:1057D800FDF7BEFB7B68DB78002B37D0254BDB68F9
:1057E800DB4303F4E0631B0AFB73FB7BC3F1040395
:1057F800BB737A7BFB7B42FA03F37B737B685B7832
:105808001A46BB7B02FA03F3FB737B689A787B7BAF
:105818001340DAB2FB7B1343FB73FB7B1B01FB7367
:10582800154A7B681B781344FA7B83F80023124BD4
:105838007A6812785209D2B27968097801F01F01A2
:10584800012000FA01F143F822100EE00A4B7A68B1
:1058580012785209D2B27968097801F01F01012043
:1058680000FA01F1203243F822101037BD4680BDFE
:10587800D484000800ED00E000E100E080B582B0CB
:1058880000AF78607A68724B9A423FD07A68714B61
:105898009A423BD07A68704B9A4237D07A686F4BFD
:1058A8009A4233D07A686E4B9A422FD07A686D4B01
:1058B8009A422BD07A686C4B9A4227D07A686B4B05
:1058C8009A4223D07A686A4B9A421FD07A68694B09
:1058D8009A421BD07A68684B9A4217D07A68674B0D
:1058E8009A4213D07A68664B9A420FD07A68654B11
:1058F8009A420BD07A68644B9A4207D07A68634B15
:105908009A4203D06248BF21FDF722FB7B681B68DF
:1059180023F001027B681A607B6800221A607B68AA
:1059280000225A607B6800229A607B680022DA6055
:105938007B6800221A617B6821225A617A68444B8D
:105948009A4203D1534B3D229A607EE07A68414BDC
:105958009A4204D14F4B4FF474629A6075E07A68AA
:105968003D4B9A4204D14B4B4FF474129A606CE051
:105978007A683A4B9A4204D1464B4FF074629A6067
:1059880063E07A68364B9A4203D1424B424ADA6066
:105998005BE07A68334B9A4203D13E4B3F4ADA6068
:1059A80053E07A68304B9A4203D13A4B3C4ADA606A
:1059B8004BE07A682D4B9A4204D1364B4FF03D525A
:1059C800DA6042E07A682A4B9A4203D1354B3D228D
:1059D8009A603AE07A68274B9A4204D1314B4FF4E7
:1059E80074629A6031E07A68234B9A4204D12D4B55
:1059F8004FF474129A6028E07A68204B9A4204D1D6
:105A0800284B4FF074629A601FE07A681C4B9A42E8
:105A180003D1244B204ADA6017E07A68194B9A427E
:105A280003D1204B1D4ADA600FE07A68164B9A4280
:105A380003D11C4B1A4ADA6007E07A68134B9A4282
:105A480003D1184B4FF03D52DA600837BD4680BD90
:105A580010600240286002404060024058600240E6
:105A68007060024088600240A0600240B860024056
:105A780010640240286402404064024058640240B6
:105A88007064024088640240A0640240B864024026
:105A98001C850008006002403D000020400F0020E7
:105AA80000003D200064024080B584B000AF7860FB
:105AB80039600023FB607A68984B9A4240D07A6834
:105AC800974B9A423CD07A68964B9A4238D07A687B
